{
	"CompaundInterestCalculator.sol": {
		"CompoundInterestCalculator": {
			"abi": [
				{
					"inputs": [],
					"name": "CannotBeSplitEvenly",
					"type": "error"
				},
				{
					"inputs": [],
					"name": "InvalidRating",
					"type": "error"
				},
				{
					"inputs": [],
					"name": "InvalidSalary",
					"type": "error"
				},
				{
					"inputs": [
						{
							"internalType": "uint256",
							"name": "principal",
							"type": "uint256"
						},
						{
							"internalType": "uint256",
							"name": "rate",
							"type": "uint256"
						},
						{
							"internalType": "uint256",
							"name": "year_s",
							"type": "uint256"
						}
					],
					"name": "calculateCompoundInterest",
					"outputs": [
						{
							"internalType": "uint256",
							"name": "balance",
							"type": "uint256"
						}
					],
					"stateMutability": "pure",
					"type": "function"
				},
				{
					"inputs": [
						{
							"internalType": "int256",
							"name": "salary",
							"type": "int256"
						},
						{
							"internalType": "int256",
							"name": "rating",
							"type": "int256"
						}
					],
					"name": "calculatePaycheck",
					"outputs": [
						{
							"internalType": "int256",
							"name": "paycheck",
							"type": "int256"
						}
					],
					"stateMutability": "pure",
					"type": "function"
				},
				{
					"inputs": [
						{
							"internalType": "int256",
							"name": "totalAmount",
							"type": "int256"
						},
						{
							"internalType": "int256",
							"name": "numPeople",
							"type": "int256"
						}
					],
					"name": "splitExpense",
					"outputs": [
						{
							"internalType": "int256",
							"name": "divideAmount",
							"type": "int256"
						}
					],
					"stateMutability": "pure",
					"type": "function"
				}
			],
			"devdoc": {
				"kind": "dev",
				"methods": {},
				"version": 1
			},
			"evm": {
				"assembly": "    /* \"CompaundInterestCalculator.sol\":133:1109  contract CompoundInterestCalculator {... */\n  mstore(0x40, 0x80)\n  callvalue\n  dup1\n  iszero\n  tag_1\n  jumpi\n  revert(0x00, 0x00)\ntag_1:\n  pop\n  dataSize(sub_0)\n  dup1\n  dataOffset(sub_0)\n  0x00\n  codecopy\n  0x00\n  return\nstop\n\nsub_0: assembly {\n        /* \"CompaundInterestCalculator.sol\":133:1109  contract CompoundInterestCalculator {... */\n      mstore(0x40, 0x80)\n      callvalue\n      dup1\n      iszero\n      tag_1\n      jumpi\n      revert(0x00, 0x00)\n    tag_1:\n      pop\n      jumpi(tag_2, lt(calldatasize, 0x04))\n      shr(0xe0, calldataload(0x00))\n      dup1\n      0xb29acf2a\n      eq\n      tag_3\n      jumpi\n      dup1\n      0xe088abdd\n      eq\n      tag_4\n      jumpi\n      dup1\n      0xfe053e40\n      eq\n      tag_5\n      jumpi\n    tag_2:\n      revert(0x00, 0x00)\n        /* \"CompaundInterestCalculator.sol\":506:835  function calculatePaycheck(int256 salary, int256 rating) public pure returns (int256 paycheck) {... */\n    tag_3:\n      tag_6\n      0x04\n      dup1\n      calldatasize\n      sub\n      dup2\n      add\n      swap1\n      tag_7\n      swap2\n      swap1\n      tag_8\n      jump\t// in\n    tag_7:\n      tag_9\n      jump\t// in\n    tag_6:\n      mload(0x40)\n      tag_10\n      swap2\n      swap1\n      tag_11\n      jump\t// in\n    tag_10:\n      mload(0x40)\n      dup1\n      swap2\n      sub\n      swap1\n      return\n        /* \"CompaundInterestCalculator.sol\":175:500  function calculateCompoundInterest(... */\n    tag_4:\n      tag_12\n      0x04\n      dup1\n      calldatasize\n      sub\n      dup2\n      add\n      swap1\n      tag_13\n      swap2\n      swap1\n      tag_14\n      jump\t// in\n    tag_13:\n      tag_15\n      jump\t// in\n    tag_12:\n      mload(0x40)\n      tag_16\n      swap2\n      swap1\n      tag_17\n      jump\t// in\n    tag_16:\n      mload(0x40)\n      dup1\n      swap2\n      sub\n      swap1\n      return\n        /* \"CompaundInterestCalculator.sol\":841:1107  function splitExpense (int256 totalAmount, int256 numPeople) public pure returns (int256 divideAmount) {... */\n    tag_5:\n      tag_18\n      0x04\n      dup1\n      calldatasize\n      sub\n      dup2\n      add\n      swap1\n      tag_19\n      swap2\n      swap1\n      tag_8\n      jump\t// in\n    tag_19:\n      tag_20\n      jump\t// in\n    tag_18:\n      mload(0x40)\n      tag_21\n      swap2\n      swap1\n      tag_11\n      jump\t// in\n    tag_21:\n      mload(0x40)\n      dup1\n      swap2\n      sub\n      swap1\n      return\n        /* \"CompaundInterestCalculator.sol\":506:835  function calculatePaycheck(int256 salary, int256 rating) public pure returns (int256 paycheck) {... */\n    tag_9:\n        /* \"CompaundInterestCalculator.sol\":584:599  int256 paycheck */\n      0x00\n        /* \"CompaundInterestCalculator.sol\":622:623  8 */\n      0x08\n        /* \"CompaundInterestCalculator.sol\":615:621  rating */\n      dup3\n        /* \"CompaundInterestCalculator.sol\":615:623  rating>8 */\n      sgt\n        /* \"CompaundInterestCalculator.sol\":615:637  rating>8 && rating<=10 */\n      dup1\n      iszero\n      tag_23\n      jumpi\n      pop\n        /* \"CompaundInterestCalculator.sol\":635:637  10 */\n      0x0a\n        /* \"CompaundInterestCalculator.sol\":627:633  rating */\n      dup3\n        /* \"CompaundInterestCalculator.sol\":627:637  rating<=10 */\n      sgt\n      iszero\n        /* \"CompaundInterestCalculator.sol\":615:637  rating>8 && rating<=10 */\n    tag_23:\n        /* \"CompaundInterestCalculator.sol\":611:736  if (rating>8 && rating<=10 ){... */\n      iszero\n      tag_24\n      jumpi\n        /* \"CompaundInterestCalculator.sol\":670:672  10 */\n      0x0a\n        /* \"CompaundInterestCalculator.sol\":663:669  salary */\n      dup4\n        /* \"CompaundInterestCalculator.sol\":663:672  salary/10 */\n      tag_25\n      swap2\n      swap1\n      tag_26\n      jump\t// in\n    tag_25:\n        /* \"CompaundInterestCalculator.sol\":653:672  salary += salary/10 */\n      dup4\n      tag_27\n      swap2\n      swap1\n      tag_28\n      jump\t// in\n    tag_27:\n      swap3\n      pop\n        /* \"CompaundInterestCalculator.sol\":611:736  if (rating>8 && rating<=10 ){... */\n      jump(tag_29)\n    tag_24:\n        /* \"CompaundInterestCalculator.sol\":710:725  InvalidRating() */\n      mload(0x40)\n      0xd29df2dd00000000000000000000000000000000000000000000000000000000\n      dup2\n      mstore\n      0x04\n      add\n      mload(0x40)\n      dup1\n      swap2\n      sub\n      swap1\n      revert\n        /* \"CompaundInterestCalculator.sol\":611:736  if (rating>8 && rating<=10 ){... */\n    tag_29:\n        /* \"CompaundInterestCalculator.sol\":756:757  0 */\n      0x00\n        /* \"CompaundInterestCalculator.sol\":749:755  salary */\n      dup4\n        /* \"CompaundInterestCalculator.sol\":749:757  salary<0 */\n      slt\n        /* \"CompaundInterestCalculator.sol\":745:806  if (salary<0) {... */\n      iszero\n      tag_30\n      jumpi\n        /* \"CompaundInterestCalculator.sol\":780:795  InvalidSalary() */\n      mload(0x40)\n      0x218f4bec00000000000000000000000000000000000000000000000000000000\n      dup2\n      mstore\n      0x04\n      add\n      mload(0x40)\n      dup1\n      swap2\n      sub\n      swap1\n      revert\n        /* \"CompaundInterestCalculator.sol\":745:806  if (salary<0) {... */\n    tag_30:\n        /* \"CompaundInterestCalculator.sol\":822:828  salary */\n      dup3\n        /* \"CompaundInterestCalculator.sol\":815:828  return salary */\n      swap1\n      pop\n        /* \"CompaundInterestCalculator.sol\":506:835  function calculatePaycheck(int256 salary, int256 rating) public pure returns (int256 paycheck) {... */\n      swap3\n      swap2\n      pop\n      pop\n      jump\t// out\n        /* \"CompaundInterestCalculator.sol\":175:500  function calculateCompoundInterest(... */\n    tag_15:\n        /* \"CompaundInterestCalculator.sol\":310:325  uint256 balance */\n      0x00\n        /* \"CompaundInterestCalculator.sol\":350:354  1000 */\n      0x03e8\n        /* \"CompaundInterestCalculator.sol\":337:354  principal *= 1000 */\n      dup5\n      tag_32\n      swap2\n      swap1\n      tag_33\n      jump\t// in\n    tag_32:\n      swap4\n      pop\n        /* \"CompaundInterestCalculator.sol\":369:378  uint256 i */\n      0x00\n        /* \"CompaundInterestCalculator.sol\":381:382  0 */\n      0x00\n        /* \"CompaundInterestCalculator.sol\":369:382  uint256 i = 0 */\n      swap1\n      pop\n        /* \"CompaundInterestCalculator.sol\":364:468  for (uint256 i = 0; i < year_s; i++) {... */\n    tag_34:\n        /* \"CompaundInterestCalculator.sol\":388:394  year_s */\n      dup3\n        /* \"CompaundInterestCalculator.sol\":384:385  i */\n      dup2\n        /* \"CompaundInterestCalculator.sol\":384:394  i < year_s */\n      lt\n        /* \"CompaundInterestCalculator.sol\":364:468  for (uint256 i = 0; i < year_s; i++) {... */\n      iszero\n      tag_35\n      jumpi\n        /* \"CompaundInterestCalculator.sol\":454:457  100 */\n      0x64\n        /* \"CompaundInterestCalculator.sol\":447:451  rate */\n      dup5\n        /* \"CompaundInterestCalculator.sol\":441:444  100 */\n      0x64\n        /* \"CompaundInterestCalculator.sol\":441:451  100 + rate */\n      tag_37\n      swap2\n      swap1\n      tag_38\n      jump\t// in\n    tag_37:\n        /* \"CompaundInterestCalculator.sol\":428:437  principal */\n      dup7\n        /* \"CompaundInterestCalculator.sol\":428:452  principal * (100 + rate) */\n      tag_39\n      swap2\n      swap1\n      tag_33\n      jump\t// in\n    tag_39:\n        /* \"CompaundInterestCalculator.sol\":427:457  (principal * (100 + rate))/100 */\n      tag_40\n      swap2\n      swap1\n      tag_41\n      jump\t// in\n    tag_40:\n        /* \"CompaundInterestCalculator.sol\":415:457  principal = (principal * (100 + rate))/100 */\n      swap5\n      pop\n        /* \"CompaundInterestCalculator.sol\":396:399  i++ */\n      dup1\n      dup1\n      0x01\n      add\n      swap2\n      pop\n      pop\n        /* \"CompaundInterestCalculator.sol\":364:468  for (uint256 i = 0; i < year_s; i++) {... */\n      jump(tag_34)\n    tag_35:\n      pop\n        /* \"CompaundInterestCalculator.sol\":484:493  principal */\n      dup4\n        /* \"CompaundInterestCalculator.sol\":477:493  return principal */\n      swap1\n      pop\n        /* \"CompaundInterestCalculator.sol\":175:500  function calculateCompoundInterest(... */\n      swap4\n      swap3\n      pop\n      pop\n      pop\n      jump\t// out\n        /* \"CompaundInterestCalculator.sol\":841:1107  function splitExpense (int256 totalAmount, int256 numPeople) public pure returns (int256 divideAmount) {... */\n    tag_20:\n        /* \"CompaundInterestCalculator.sol\":923:942  int256 divideAmount */\n      0x00\n        /* \"CompaundInterestCalculator.sol\":985:986  0 */\n      0x00\n        /* \"CompaundInterestCalculator.sol\":972:981  numPeople */\n      dup3\n        /* \"CompaundInterestCalculator.sol\":958:969  totalAmount */\n      dup5\n        /* \"CompaundInterestCalculator.sol\":958:981  totalAmount % numPeople */\n      tag_43\n      swap2\n      swap1\n      tag_44\n      jump\t// in\n    tag_43:\n        /* \"CompaundInterestCalculator.sol\":958:986  totalAmount % numPeople == 0 */\n      sub\n        /* \"CompaundInterestCalculator.sol\":954:1101  if (totalAmount % numPeople == 0){... */\n      tag_45\n      jumpi\n        /* \"CompaundInterestCalculator.sol\":1021:1030  numPeople */\n      dup2\n        /* \"CompaundInterestCalculator.sol\":1009:1020  totalAmount */\n      dup4\n        /* \"CompaundInterestCalculator.sol\":1009:1030  totalAmount/numPeople */\n      tag_46\n      swap2\n      swap1\n      tag_26\n      jump\t// in\n    tag_46:\n        /* \"CompaundInterestCalculator.sol\":1001:1031  return (totalAmount/numPeople) */\n      swap1\n      pop\n      jump(tag_42)\n        /* \"CompaundInterestCalculator.sol\":954:1101  if (totalAmount % numPeople == 0){... */\n    tag_45:\n        /* \"CompaundInterestCalculator.sol\":1069:1090  CannotBeSplitEvenly() */\n      mload(0x40)\n      0x923cd51b00000000000000000000000000000000000000000000000000000000\n      dup2\n      mstore\n      0x04\n      add\n      mload(0x40)\n      dup1\n      swap2\n      sub\n      swap1\n      revert\n        /* \"CompaundInterestCalculator.sol\":841:1107  function splitExpense (int256 totalAmount, int256 numPeople) public pure returns (int256 divideAmount) {... */\n    tag_42:\n      swap3\n      swap2\n      pop\n      pop\n      jump\t// out\n        /* \"#utility.yul\":88:205   */\n    tag_49:\n        /* \"#utility.yul\":197:198   */\n      0x00\n        /* \"#utility.yul\":194:195   */\n      0x00\n        /* \"#utility.yul\":187:199   */\n      revert\n        /* \"#utility.yul\":334:410   */\n    tag_51:\n        /* \"#utility.yul\":370:377   */\n      0x00\n        /* \"#utility.yul\":399:404   */\n      dup2\n        /* \"#utility.yul\":388:404   */\n      swap1\n      pop\n        /* \"#utility.yul\":334:410   */\n      swap2\n      swap1\n      pop\n      jump\t// out\n        /* \"#utility.yul\":416:536   */\n    tag_52:\n        /* \"#utility.yul\":488:511   */\n      tag_67\n        /* \"#utility.yul\":505:510   */\n      dup2\n        /* \"#utility.yul\":488:511   */\n      tag_51\n      jump\t// in\n    tag_67:\n        /* \"#utility.yul\":481:486   */\n      dup2\n        /* \"#utility.yul\":478:512   */\n      eq\n        /* \"#utility.yul\":468:530   */\n      tag_68\n      jumpi\n        /* \"#utility.yul\":526:527   */\n      0x00\n        /* \"#utility.yul\":523:524   */\n      0x00\n        /* \"#utility.yul\":516:528   */\n      revert\n        /* \"#utility.yul\":468:530   */\n    tag_68:\n        /* \"#utility.yul\":416:536   */\n      pop\n      jump\t// out\n        /* \"#utility.yul\":542:679   */\n    tag_53:\n        /* \"#utility.yul\":587:592   */\n      0x00\n        /* \"#utility.yul\":625:631   */\n      dup2\n        /* \"#utility.yul\":612:632   */\n      calldataload\n        /* \"#utility.yul\":603:632   */\n      swap1\n      pop\n        /* \"#utility.yul\":641:673   */\n      tag_70\n        /* \"#utility.yul\":667:672   */\n      dup2\n        /* \"#utility.yul\":641:673   */\n      tag_52\n      jump\t// in\n    tag_70:\n        /* \"#utility.yul\":542:679   */\n      swap3\n      swap2\n      pop\n      pop\n      jump\t// out\n        /* \"#utility.yul\":685:1155   */\n    tag_8:\n        /* \"#utility.yul\":751:757   */\n      0x00\n        /* \"#utility.yul\":759:765   */\n      0x00\n        /* \"#utility.yul\":808:810   */\n      0x40\n        /* \"#utility.yul\":796:805   */\n      dup4\n        /* \"#utility.yul\":787:794   */\n      dup6\n        /* \"#utility.yul\":783:806   */\n      sub\n        /* \"#utility.yul\":779:811   */\n      slt\n        /* \"#utility.yul\":776:895   */\n      iszero\n      tag_72\n      jumpi\n        /* \"#utility.yul\":814:893   */\n      tag_73\n      tag_49\n      jump\t// in\n    tag_73:\n        /* \"#utility.yul\":776:895   */\n    tag_72:\n        /* \"#utility.yul\":934:935   */\n      0x00\n        /* \"#utility.yul\":959:1011   */\n      tag_74\n        /* \"#utility.yul\":1003:1010   */\n      dup6\n        /* \"#utility.yul\":994:1000   */\n      dup3\n        /* \"#utility.yul\":983:992   */\n      dup7\n        /* \"#utility.yul\":979:1001   */\n      add\n        /* \"#utility.yul\":959:1011   */\n      tag_53\n      jump\t// in\n    tag_74:\n        /* \"#utility.yul\":949:1011   */\n      swap3\n      pop\n        /* \"#utility.yul\":905:1021   */\n      pop\n        /* \"#utility.yul\":1060:1062   */\n      0x20\n        /* \"#utility.yul\":1086:1138   */\n      tag_75\n        /* \"#utility.yul\":1130:1137   */\n      dup6\n        /* \"#utility.yul\":1121:1127   */\n      dup3\n        /* \"#utility.yul\":1110:1119   */\n      dup7\n        /* \"#utility.yul\":1106:1128   */\n      add\n        /* \"#utility.yul\":1086:1138   */\n      tag_53\n      jump\t// in\n    tag_75:\n        /* \"#utility.yul\":1076:1138   */\n      swap2\n      pop\n        /* \"#utility.yul\":1031:1148   */\n      pop\n        /* \"#utility.yul\":685:1155   */\n      swap3\n      pop\n      swap3\n      swap1\n      pop\n      jump\t// out\n        /* \"#utility.yul\":1161:1276   */\n    tag_54:\n        /* \"#utility.yul\":1246:1269   */\n      tag_77\n        /* \"#utility.yul\":1263:1268   */\n      dup2\n        /* \"#utility.yul\":1246:1269   */\n      tag_51\n      jump\t// in\n    tag_77:\n        /* \"#utility.yul\":1241:1244   */\n      dup3\n        /* \"#utility.yul\":1234:1270   */\n      mstore\n        /* \"#utility.yul\":1161:1276   */\n      pop\n      pop\n      jump\t// out\n        /* \"#utility.yul\":1282:1500   */\n    tag_11:\n        /* \"#utility.yul\":1373:1377   */\n      0x00\n        /* \"#utility.yul\":1411:1413   */\n      0x20\n        /* \"#utility.yul\":1400:1409   */\n      dup3\n        /* \"#utility.yul\":1396:1414   */\n      add\n        /* \"#utility.yul\":1388:1414   */\n      swap1\n      pop\n        /* \"#utility.yul\":1424:1493   */\n      tag_79\n        /* \"#utility.yul\":1490:1491   */\n      0x00\n        /* \"#utility.yul\":1479:1488   */\n      dup4\n        /* \"#utility.yul\":1475:1492   */\n      add\n        /* \"#utility.yul\":1466:1472   */\n      dup5\n        /* \"#utility.yul\":1424:1493   */\n      tag_54\n      jump\t// in\n    tag_79:\n        /* \"#utility.yul\":1282:1500   */\n      swap3\n      swap2\n      pop\n      pop\n      jump\t// out\n        /* \"#utility.yul\":1506:1583   */\n    tag_55:\n        /* \"#utility.yul\":1543:1550   */\n      0x00\n        /* \"#utility.yul\":1572:1577   */\n      dup2\n        /* \"#utility.yul\":1561:1577   */\n      swap1\n      pop\n        /* \"#utility.yul\":1506:1583   */\n      swap2\n      swap1\n      pop\n      jump\t// out\n        /* \"#utility.yul\":1589:1711   */\n    tag_56:\n        /* \"#utility.yul\":1662:1686   */\n      tag_82\n        /* \"#utility.yul\":1680:1685   */\n      dup2\n        /* \"#utility.yul\":1662:1686   */\n      tag_55\n      jump\t// in\n    tag_82:\n        /* \"#utility.yul\":1655:1660   */\n      dup2\n        /* \"#utility.yul\":1652:1687   */\n      eq\n        /* \"#utility.yul\":1642:1705   */\n      tag_83\n      jumpi\n        /* \"#utility.yul\":1701:1702   */\n      0x00\n        /* \"#utility.yul\":1698:1699   */\n      0x00\n        /* \"#utility.yul\":1691:1703   */\n      revert\n        /* \"#utility.yul\":1642:1705   */\n    tag_83:\n        /* \"#utility.yul\":1589:1711   */\n      pop\n      jump\t// out\n        /* \"#utility.yul\":1717:1856   */\n    tag_57:\n        /* \"#utility.yul\":1763:1768   */\n      0x00\n        /* \"#utility.yul\":1801:1807   */\n      dup2\n        /* \"#utility.yul\":1788:1808   */\n      calldataload\n        /* \"#utility.yul\":1779:1808   */\n      swap1\n      pop\n        /* \"#utility.yul\":1817:1850   */\n      tag_85\n        /* \"#utility.yul\":1844:1849   */\n      dup2\n        /* \"#utility.yul\":1817:1850   */\n      tag_56\n      jump\t// in\n    tag_85:\n        /* \"#utility.yul\":1717:1856   */\n      swap3\n      swap2\n      pop\n      pop\n      jump\t// out\n        /* \"#utility.yul\":1862:2481   */\n    tag_14:\n        /* \"#utility.yul\":1939:1945   */\n      0x00\n        /* \"#utility.yul\":1947:1953   */\n      0x00\n        /* \"#utility.yul\":1955:1961   */\n      0x00\n        /* \"#utility.yul\":2004:2006   */\n      0x60\n        /* \"#utility.yul\":1992:2001   */\n      dup5\n        /* \"#utility.yul\":1983:1990   */\n      dup7\n        /* \"#utility.yul\":1979:2002   */\n      sub\n        /* \"#utility.yul\":1975:2007   */\n      slt\n        /* \"#utility.yul\":1972:2091   */\n      iszero\n      tag_87\n      jumpi\n        /* \"#utility.yul\":2010:2089   */\n      tag_88\n      tag_49\n      jump\t// in\n    tag_88:\n        /* \"#utility.yul\":1972:2091   */\n    tag_87:\n        /* \"#utility.yul\":2130:2131   */\n      0x00\n        /* \"#utility.yul\":2155:2208   */\n      tag_89\n        /* \"#utility.yul\":2200:2207   */\n      dup7\n        /* \"#utility.yul\":2191:2197   */\n      dup3\n        /* \"#utility.yul\":2180:2189   */\n      dup8\n        /* \"#utility.yul\":2176:2198   */\n      add\n        /* \"#utility.yul\":2155:2208   */\n      tag_57\n      jump\t// in\n    tag_89:\n        /* \"#utility.yul\":2145:2208   */\n      swap4\n      pop\n        /* \"#utility.yul\":2101:2218   */\n      pop\n        /* \"#utility.yul\":2257:2259   */\n      0x20\n        /* \"#utility.yul\":2283:2336   */\n      tag_90\n        /* \"#utility.yul\":2328:2335   */\n      dup7\n        /* \"#utility.yul\":2319:2325   */\n      dup3\n        /* \"#utility.yul\":2308:2317   */\n      dup8\n        /* \"#utility.yul\":2304:2326   */\n      add\n        /* \"#utility.yul\":2283:2336   */\n      tag_57\n      jump\t// in\n    tag_90:\n        /* \"#utility.yul\":2273:2336   */\n      swap3\n      pop\n        /* \"#utility.yul\":2228:2346   */\n      pop\n        /* \"#utility.yul\":2385:2387   */\n      0x40\n        /* \"#utility.yul\":2411:2464   */\n      tag_91\n        /* \"#utility.yul\":2456:2463   */\n      dup7\n        /* \"#utility.yul\":2447:2453   */\n      dup3\n        /* \"#utility.yul\":2436:2445   */\n      dup8\n        /* \"#utility.yul\":2432:2454   */\n      add\n        /* \"#utility.yul\":2411:2464   */\n      tag_57\n      jump\t// in\n    tag_91:\n        /* \"#utility.yul\":2401:2464   */\n      swap2\n      pop\n        /* \"#utility.yul\":2356:2474   */\n      pop\n        /* \"#utility.yul\":1862:2481   */\n      swap3\n      pop\n      swap3\n      pop\n      swap3\n      jump\t// out\n        /* \"#utility.yul\":2487:2605   */\n    tag_58:\n        /* \"#utility.yul\":2574:2598   */\n      tag_93\n        /* \"#utility.yul\":2592:2597   */\n      dup2\n        /* \"#utility.yul\":2574:2598   */\n      tag_55\n      jump\t// in\n    tag_93:\n        /* \"#utility.yul\":2569:2572   */\n      dup3\n        /* \"#utility.yul\":2562:2599   */\n      mstore\n        /* \"#utility.yul\":2487:2605   */\n      pop\n      pop\n      jump\t// out\n        /* \"#utility.yul\":2611:2833   */\n    tag_17:\n        /* \"#utility.yul\":2704:2708   */\n      0x00\n        /* \"#utility.yul\":2742:2744   */\n      0x20\n        /* \"#utility.yul\":2731:2740   */\n      dup3\n        /* \"#utility.yul\":2727:2745   */\n      add\n        /* \"#utility.yul\":2719:2745   */\n      swap1\n      pop\n        /* \"#utility.yul\":2755:2826   */\n      tag_95\n        /* \"#utility.yul\":2823:2824   */\n      0x00\n        /* \"#utility.yul\":2812:2821   */\n      dup4\n        /* \"#utility.yul\":2808:2825   */\n      add\n        /* \"#utility.yul\":2799:2805   */\n      dup5\n        /* \"#utility.yul\":2755:2826   */\n      tag_58\n      jump\t// in\n    tag_95:\n        /* \"#utility.yul\":2611:2833   */\n      swap3\n      swap2\n      pop\n      pop\n      jump\t// out\n        /* \"#utility.yul\":2839:3019   */\n    tag_59:\n        /* \"#utility.yul\":2887:2964   */\n      0x4e487b7100000000000000000000000000000000000000000000000000000000\n        /* \"#utility.yul\":2884:2885   */\n      0x00\n        /* \"#utility.yul\":2877:2965   */\n      mstore\n        /* \"#utility.yul\":2984:2988   */\n      0x12\n        /* \"#utility.yul\":2981:2982   */\n      0x04\n        /* \"#utility.yul\":2974:2989   */\n      mstore\n        /* \"#utility.yul\":3008:3012   */\n      0x24\n        /* \"#utility.yul\":3005:3006   */\n      0x00\n        /* \"#utility.yul\":2998:3013   */\n      revert\n        /* \"#utility.yul\":3025:3205   */\n    tag_60:\n        /* \"#utility.yul\":3073:3150   */\n      0x4e487b7100000000000000000000000000000000000000000000000000000000\n        /* \"#utility.yul\":3070:3071   */\n      0x00\n        /* \"#utility.yul\":3063:3151   */\n      mstore\n        /* \"#utility.yul\":3170:3174   */\n      0x11\n        /* \"#utility.yul\":3167:3168   */\n      0x04\n        /* \"#utility.yul\":3160:3175   */\n      mstore\n        /* \"#utility.yul\":3194:3198   */\n      0x24\n        /* \"#utility.yul\":3191:3192   */\n      0x00\n        /* \"#utility.yul\":3184:3199   */\n      revert\n        /* \"#utility.yul\":3211:3596   */\n    tag_26:\n        /* \"#utility.yul\":3250:3251   */\n      0x00\n        /* \"#utility.yul\":3267:3286   */\n      tag_99\n        /* \"#utility.yul\":3284:3285   */\n      dup3\n        /* \"#utility.yul\":3267:3286   */\n      tag_51\n      jump\t// in\n    tag_99:\n        /* \"#utility.yul\":3262:3286   */\n      swap2\n      pop\n        /* \"#utility.yul\":3300:3319   */\n      tag_100\n        /* \"#utility.yul\":3317:3318   */\n      dup4\n        /* \"#utility.yul\":3300:3319   */\n      tag_51\n      jump\t// in\n    tag_100:\n        /* \"#utility.yul\":3295:3319   */\n      swap3\n      pop\n        /* \"#utility.yul\":3338:3339   */\n      dup3\n        /* \"#utility.yul\":3328:3363   */\n      tag_101\n      jumpi\n        /* \"#utility.yul\":3343:3361   */\n      tag_102\n      tag_59\n      jump\t// in\n    tag_102:\n        /* \"#utility.yul\":3328:3363   */\n    tag_101:\n        /* \"#utility.yul\":3529:3530   */\n      0x01\n        /* \"#utility.yul\":3526:3527   */\n      0x00\n        /* \"#utility.yul\":3522:3531   */\n      sub\n        /* \"#utility.yul\":3519:3520   */\n      dup4\n        /* \"#utility.yul\":3516:3532   */\n      eq\n        /* \"#utility.yul\":3435:3501   */\n      0x8000000000000000000000000000000000000000000000000000000000000000\n        /* \"#utility.yul\":3432:3433   */\n      dup4\n        /* \"#utility.yul\":3429:3502   */\n      eq\n        /* \"#utility.yul\":3412:3542   */\n      and\n        /* \"#utility.yul\":3409:3565   */\n      iszero\n      tag_103\n      jumpi\n        /* \"#utility.yul\":3545:3563   */\n      tag_104\n      tag_60\n      jump\t// in\n    tag_104:\n        /* \"#utility.yul\":3409:3565   */\n    tag_103:\n        /* \"#utility.yul\":3588:3589   */\n      dup3\n        /* \"#utility.yul\":3585:3586   */\n      dup3\n        /* \"#utility.yul\":3580:3590   */\n      sdiv\n        /* \"#utility.yul\":3575:3590   */\n      swap1\n      pop\n        /* \"#utility.yul\":3211:3596   */\n      swap3\n      swap2\n      pop\n      pop\n      jump\t// out\n        /* \"#utility.yul\":3602:3977   */\n    tag_28:\n        /* \"#utility.yul\":3641:3644   */\n      0x00\n        /* \"#utility.yul\":3660:3679   */\n      tag_106\n        /* \"#utility.yul\":3677:3678   */\n      dup3\n        /* \"#utility.yul\":3660:3679   */\n      tag_51\n      jump\t// in\n    tag_106:\n        /* \"#utility.yul\":3655:3679   */\n      swap2\n      pop\n        /* \"#utility.yul\":3693:3712   */\n      tag_107\n        /* \"#utility.yul\":3710:3711   */\n      dup4\n        /* \"#utility.yul\":3693:3712   */\n      tag_51\n      jump\t// in\n    tag_107:\n        /* \"#utility.yul\":3688:3712   */\n      swap3\n      pop\n        /* \"#utility.yul\":3735:3736   */\n      dup3\n        /* \"#utility.yul\":3732:3733   */\n      dup3\n        /* \"#utility.yul\":3728:3737   */\n      add\n        /* \"#utility.yul\":3721:3737   */\n      swap1\n      pop\n        /* \"#utility.yul\":3933:3934   */\n      dup3\n        /* \"#utility.yul\":3928:3931   */\n      dup2\n        /* \"#utility.yul\":3924:3935   */\n      slt\n        /* \"#utility.yul\":3917:3936   */\n      iszero\n        /* \"#utility.yul\":3913:3914   */\n      0x00\n        /* \"#utility.yul\":3910:3911   */\n      dup4\n        /* \"#utility.yul\":3906:3915   */\n      slt\n        /* \"#utility.yul\":3902:3937   */\n      and\n        /* \"#utility.yul\":3885:3886   */\n      dup4\n        /* \"#utility.yul\":3880:3883   */\n      dup3\n        /* \"#utility.yul\":3876:3887   */\n      slt\n        /* \"#utility.yul\":3871:3872   */\n      0x00\n        /* \"#utility.yul\":3868:3869   */\n      dup5\n        /* \"#utility.yul\":3864:3873   */\n      slt\n        /* \"#utility.yul\":3857:3874   */\n      iszero\n        /* \"#utility.yul\":3853:3888   */\n      and\n        /* \"#utility.yul\":3837:3947   */\n      or\n        /* \"#utility.yul\":3834:3970   */\n      iszero\n      tag_108\n      jumpi\n        /* \"#utility.yul\":3950:3968   */\n      tag_109\n      tag_60\n      jump\t// in\n    tag_109:\n        /* \"#utility.yul\":3834:3970   */\n    tag_108:\n        /* \"#utility.yul\":3602:3977   */\n      swap3\n      swap2\n      pop\n      pop\n      jump\t// out\n        /* \"#utility.yul\":3983:4393   */\n    tag_33:\n        /* \"#utility.yul\":4023:4030   */\n      0x00\n        /* \"#utility.yul\":4046:4066   */\n      tag_111\n        /* \"#utility.yul\":4064:4065   */\n      dup3\n        /* \"#utility.yul\":4046:4066   */\n      tag_55\n      jump\t// in\n    tag_111:\n        /* \"#utility.yul\":4041:4066   */\n      swap2\n      pop\n        /* \"#utility.yul\":4080:4100   */\n      tag_112\n        /* \"#utility.yul\":4098:4099   */\n      dup4\n        /* \"#utility.yul\":4080:4100   */\n      tag_55\n      jump\t// in\n    tag_112:\n        /* \"#utility.yul\":4075:4100   */\n      swap3\n      pop\n        /* \"#utility.yul\":4135:4136   */\n      dup3\n        /* \"#utility.yul\":4132:4133   */\n      dup3\n        /* \"#utility.yul\":4128:4137   */\n      mul\n        /* \"#utility.yul\":4157:4187   */\n      tag_113\n        /* \"#utility.yul\":4175:4186   */\n      dup2\n        /* \"#utility.yul\":4157:4187   */\n      tag_55\n      jump\t// in\n    tag_113:\n        /* \"#utility.yul\":4146:4187   */\n      swap2\n      pop\n        /* \"#utility.yul\":4336:4337   */\n      dup3\n        /* \"#utility.yul\":4327:4334   */\n      dup3\n        /* \"#utility.yul\":4323:4338   */\n      div\n        /* \"#utility.yul\":4320:4321   */\n      dup5\n        /* \"#utility.yul\":4317:4339   */\n      eq\n        /* \"#utility.yul\":4297:4298   */\n      dup4\n        /* \"#utility.yul\":4290:4299   */\n      iszero\n        /* \"#utility.yul\":4270:4353   */\n      or\n        /* \"#utility.yul\":4247:4386   */\n      tag_114\n      jumpi\n        /* \"#utility.yul\":4366:4384   */\n      tag_115\n      tag_60\n      jump\t// in\n    tag_115:\n        /* \"#utility.yul\":4247:4386   */\n    tag_114:\n        /* \"#utility.yul\":4031:4393   */\n      pop\n        /* \"#utility.yul\":3983:4393   */\n      swap3\n      swap2\n      pop\n      pop\n      jump\t// out\n        /* \"#utility.yul\":4399:4590   */\n    tag_38:\n        /* \"#utility.yul\":4439:4442   */\n      0x00\n        /* \"#utility.yul\":4458:4478   */\n      tag_117\n        /* \"#utility.yul\":4476:4477   */\n      dup3\n        /* \"#utility.yul\":4458:4478   */\n      tag_55\n      jump\t// in\n    tag_117:\n        /* \"#utility.yul\":4453:4478   */\n      swap2\n      pop\n        /* \"#utility.yul\":4492:4512   */\n      tag_118\n        /* \"#utility.yul\":4510:4511   */\n      dup4\n        /* \"#utility.yul\":4492:4512   */\n      tag_55\n      jump\t// in\n    tag_118:\n        /* \"#utility.yul\":4487:4512   */\n      swap3\n      pop\n        /* \"#utility.yul\":4535:4536   */\n      dup3\n        /* \"#utility.yul\":4532:4533   */\n      dup3\n        /* \"#utility.yul\":4528:4537   */\n      add\n        /* \"#utility.yul\":4521:4537   */\n      swap1\n      pop\n        /* \"#utility.yul\":4556:4559   */\n      dup1\n        /* \"#utility.yul\":4553:4554   */\n      dup3\n        /* \"#utility.yul\":4550:4560   */\n      gt\n        /* \"#utility.yul\":4547:4583   */\n      iszero\n      tag_119\n      jumpi\n        /* \"#utility.yul\":4563:4581   */\n      tag_120\n      tag_60\n      jump\t// in\n    tag_120:\n        /* \"#utility.yul\":4547:4583   */\n    tag_119:\n        /* \"#utility.yul\":4399:4590   */\n      swap3\n      swap2\n      pop\n      pop\n      jump\t// out\n        /* \"#utility.yul\":4596:4781   */\n    tag_41:\n        /* \"#utility.yul\":4636:4637   */\n      0x00\n        /* \"#utility.yul\":4653:4673   */\n      tag_122\n        /* \"#utility.yul\":4671:4672   */\n      dup3\n        /* \"#utility.yul\":4653:4673   */\n      tag_55\n      jump\t// in\n    tag_122:\n        /* \"#utility.yul\":4648:4673   */\n      swap2\n      pop\n        /* \"#utility.yul\":4687:4707   */\n      tag_123\n        /* \"#utility.yul\":4705:4706   */\n      dup4\n        /* \"#utility.yul\":4687:4707   */\n      tag_55\n      jump\t// in\n    tag_123:\n        /* \"#utility.yul\":4682:4707   */\n      swap3\n      pop\n        /* \"#utility.yul\":4726:4727   */\n      dup3\n        /* \"#utility.yul\":4716:4751   */\n      tag_124\n      jumpi\n        /* \"#utility.yul\":4731:4749   */\n      tag_125\n      tag_59\n      jump\t// in\n    tag_125:\n        /* \"#utility.yul\":4716:4751   */\n    tag_124:\n        /* \"#utility.yul\":4773:4774   */\n      dup3\n        /* \"#utility.yul\":4770:4771   */\n      dup3\n        /* \"#utility.yul\":4766:4775   */\n      div\n        /* \"#utility.yul\":4761:4775   */\n      swap1\n      pop\n        /* \"#utility.yul\":4596:4781   */\n      swap3\n      swap2\n      pop\n      pop\n      jump\t// out\n        /* \"#utility.yul\":4787:4961   */\n    tag_44:\n        /* \"#utility.yul\":4818:4819   */\n      0x00\n        /* \"#utility.yul\":4835:4854   */\n      tag_127\n        /* \"#utility.yul\":4852:4853   */\n      dup3\n        /* \"#utility.yul\":4835:4854   */\n      tag_51\n      jump\t// in\n    tag_127:\n        /* \"#utility.yul\":4830:4854   */\n      swap2\n      pop\n        /* \"#utility.yul\":4868:4887   */\n      tag_128\n        /* \"#utility.yul\":4885:4886   */\n      dup4\n        /* \"#utility.yul\":4868:4887   */\n      tag_51\n      jump\t// in\n    tag_128:\n        /* \"#utility.yul\":4863:4887   */\n      swap3\n      pop\n        /* \"#utility.yul\":4906:4907   */\n      dup3\n        /* \"#utility.yul\":4896:4931   */\n      tag_129\n      jumpi\n        /* \"#utility.yul\":4911:4929   */\n      tag_130\n      tag_59\n      jump\t// in\n    tag_130:\n        /* \"#utility.yul\":4896:4931   */\n    tag_129:\n        /* \"#utility.yul\":4953:4954   */\n      dup3\n        /* \"#utility.yul\":4950:4951   */\n      dup3\n        /* \"#utility.yul\":4945:4955   */\n      smod\n        /* \"#utility.yul\":4940:4955   */\n      swap1\n      pop\n        /* \"#utility.yul\":4787:4961   */\n      swap3\n      swap2\n      pop\n      pop\n      jump\t// out\n\n    auxdata: 0xa26469706673582212204a45e240c3df909ee5386e0d332973276627085f03ab4e4b1c3e25ccd3c8c4f364736f6c634300081c0033\n}\n",
				"bytecode": {
					"linkReferences": {},
					"object": "6080604052348015600e575f5ffd5b5061058d8061001c5f395ff3fe608060405234801561000f575f5ffd5b506004361061003f575f3560e01c8063b29acf2a14610043578063e088abdd14610073578063fe053e40146100a3575b5f5ffd5b61005d6004803603810190610058919061026f565b6100d3565b60405161006a91906102bc565b60405180910390f35b61008d60048036038101906100889190610308565b61017e565b60405161009a9190610367565b60405180910390f35b6100bd60048036038101906100b8919061026f565b6101da565b6040516100ca91906102bc565b60405180910390f35b5f6008821380156100e55750600a8213155b1561010957600a836100f791906103da565b836101029190610442565b925061013b565b6040517fd29df2dd00000000000000000000000000000000000000000000000000000000815260040160405180910390fd5b5f831215610175576040517f218f4bec00000000000000000000000000000000000000000000000000000000815260040160405180910390fd5b82905092915050565b5f6103e88461018d9190610483565b93505f5f90505b828110156101cf5760648460646101ab91906104c4565b866101b69190610483565b6101c091906104f7565b94508080600101915050610194565b508390509392505050565b5f5f82846101e89190610527565b036102005781836101f991906103da565b9050610232565b6040517f923cd51b00000000000000000000000000000000000000000000000000000000815260040160405180910390fd5b92915050565b5f5ffd5b5f819050919050565b61024e8161023c565b8114610258575f5ffd5b50565b5f8135905061026981610245565b92915050565b5f5f6040838503121561028557610284610238565b5b5f6102928582860161025b565b92505060206102a38582860161025b565b9150509250929050565b6102b68161023c565b82525050565b5f6020820190506102cf5f8301846102ad565b92915050565b5f819050919050565b6102e7816102d5565b81146102f1575f5ffd5b50565b5f81359050610302816102de565b92915050565b5f5f5f6060848603121561031f5761031e610238565b5b5f61032c868287016102f4565b935050602061033d868287016102f4565b925050604061034e868287016102f4565b9150509250925092565b610361816102d5565b82525050565b5f60208201905061037a5f830184610358565b92915050565b7f4e487b71000000000000000000000000000000000000000000000000000000005f52601260045260245ffd5b7f4e487b71000000000000000000000000000000000000000000000000000000005f52601160045260245ffd5b5f6103e48261023c565b91506103ef8361023c565b9250826103ff576103fe610380565b5b60015f0383147f800000000000000000000000000000000000000000000000000000000000000083141615610437576104366103ad565b5b828205905092915050565b5f61044c8261023c565b91506104578361023c565b92508282019050828112155f8312168382125f84121516171561047d5761047c6103ad565b5b92915050565b5f61048d826102d5565b9150610498836102d5565b92508282026104a6816102d5565b915082820484148315176104bd576104bc6103ad565b5b5092915050565b5f6104ce826102d5565b91506104d9836102d5565b92508282019050808211156104f1576104f06103ad565b5b92915050565b5f610501826102d5565b915061050c836102d5565b92508261051c5761051b610380565b5b828204905092915050565b5f6105318261023c565b915061053c8361023c565b92508261054c5761054b610380565b5b82820790509291505056fea26469706673582212204a45e240c3df909ee5386e0d332973276627085f03ab4e4b1c3e25ccd3c8c4f364736f6c634300081c0033",
					"opcodes": "PUSH1 0x80 PUSH1 0x40 MSTORE CALLVALUE DUP1 ISZERO PUSH1 0xE JUMPI PUSH0 PUSH0 REVERT JUMPDEST POP PUSH2 0x58D DUP1 PUSH2 0x1C PUSH0 CODECOPY PUSH0 RETURN INVALID PUSH1 0x80 PUSH1 0x40 MSTORE CALLVALUE DUP1 ISZERO PUSH2 0xF JUMPI PUSH0 PUSH0 REVERT JUMPDEST POP PUSH1 0x4 CALLDATASIZE LT PUSH2 0x3F JUMPI PUSH0 CALLDATALOAD PUSH1 0xE0 SHR DUP1 PUSH4 0xB29ACF2A EQ PUSH2 0x43 JUMPI DUP1 PUSH4 0xE088ABDD EQ PUSH2 0x73 JUMPI DUP1 PUSH4 0xFE053E40 EQ PUSH2 0xA3 JUMPI JUMPDEST PUSH0 PUSH0 REVERT JUMPDEST PUSH2 0x5D PUSH1 0x4 DUP1 CALLDATASIZE SUB DUP2 ADD SWAP1 PUSH2 0x58 SWAP2 SWAP1 PUSH2 0x26F JUMP JUMPDEST PUSH2 0xD3 JUMP JUMPDEST PUSH1 0x40 MLOAD PUSH2 0x6A SWAP2 SWAP1 PUSH2 0x2BC JUMP JUMPDEST PUSH1 0x40 MLOAD DUP1 SWAP2 SUB SWAP1 RETURN JUMPDEST PUSH2 0x8D PUSH1 0x4 DUP1 CALLDATASIZE SUB DUP2 ADD SWAP1 PUSH2 0x88 SWAP2 SWAP1 PUSH2 0x308 JUMP JUMPDEST PUSH2 0x17E JUMP JUMPDEST PUSH1 0x40 MLOAD PUSH2 0x9A SWAP2 SWAP1 PUSH2 0x367 JUMP JUMPDEST PUSH1 0x40 MLOAD DUP1 SWAP2 SUB SWAP1 RETURN JUMPDEST PUSH2 0xBD PUSH1 0x4 DUP1 CALLDATASIZE SUB DUP2 ADD SWAP1 PUSH2 0xB8 SWAP2 SWAP1 PUSH2 0x26F JUMP JUMPDEST PUSH2 0x1DA JUMP JUMPDEST PUSH1 0x40 MLOAD PUSH2 0xCA SWAP2 SWAP1 PUSH2 0x2BC JUMP JUMPDEST PUSH1 0x40 MLOAD DUP1 SWAP2 SUB SWAP1 RETURN JUMPDEST PUSH0 PUSH1 0x8 DUP3 SGT DUP1 ISZERO PUSH2 0xE5 JUMPI POP PUSH1 0xA DUP3 SGT ISZERO JUMPDEST ISZERO PUSH2 0x109 JUMPI PUSH1 0xA DUP4 PUSH2 0xF7 SWAP2 SWAP1 PUSH2 0x3DA JUMP JUMPDEST DUP4 PUSH2 0x102 SWAP2 SWAP1 PUSH2 0x442 JUMP JUMPDEST SWAP3 POP PUSH2 0x13B JUMP JUMPDEST PUSH1 0x40 MLOAD PUSH32 0xD29DF2DD00000000000000000000000000000000000000000000000000000000 DUP2 MSTORE PUSH1 0x4 ADD PUSH1 0x40 MLOAD DUP1 SWAP2 SUB SWAP1 REVERT JUMPDEST PUSH0 DUP4 SLT ISZERO PUSH2 0x175 JUMPI PUSH1 0x40 MLOAD PUSH32 0x218F4BEC00000000000000000000000000000000000000000000000000000000 DUP2 MSTORE PUSH1 0x4 ADD PUSH1 0x40 MLOAD DUP1 SWAP2 SUB SWAP1 REVERT JUMPDEST DUP3 SWAP1 POP SWAP3 SWAP2 POP POP JUMP JUMPDEST PUSH0 PUSH2 0x3E8 DUP5 PUSH2 0x18D SWAP2 SWAP1 PUSH2 0x483 JUMP JUMPDEST SWAP4 POP PUSH0 PUSH0 SWAP1 POP JUMPDEST DUP3 DUP2 LT ISZERO PUSH2 0x1CF JUMPI PUSH1 0x64 DUP5 PUSH1 0x64 PUSH2 0x1AB SWAP2 SWAP1 PUSH2 0x4C4 JUMP JUMPDEST DUP7 PUSH2 0x1B6 SWAP2 SWAP1 PUSH2 0x483 JUMP JUMPDEST PUSH2 0x1C0 SWAP2 SWAP1 PUSH2 0x4F7 JUMP JUMPDEST SWAP5 POP DUP1 DUP1 PUSH1 0x1 ADD SWAP2 POP POP PUSH2 0x194 JUMP JUMPDEST POP DUP4 SWAP1 POP SWAP4 SWAP3 POP POP POP JUMP JUMPDEST PUSH0 PUSH0 DUP3 DUP5 PUSH2 0x1E8 SWAP2 SWAP1 PUSH2 0x527 JUMP JUMPDEST SUB PUSH2 0x200 JUMPI DUP2 DUP4 PUSH2 0x1F9 SWAP2 SWAP1 PUSH2 0x3DA JUMP JUMPDEST SWAP1 POP PUSH2 0x232 JUMP JUMPDEST PUSH1 0x40 MLOAD PUSH32 0x923CD51B00000000000000000000000000000000000000000000000000000000 DUP2 MSTORE PUSH1 0x4 ADD PUSH1 0x40 MLOAD DUP1 SWAP2 SUB SWAP1 REVERT JUMPDEST SWAP3 SWAP2 POP POP JUMP JUMPDEST PUSH0 PUSH0 REVERT JUMPDEST PUSH0 DUP2 SWAP1 POP SWAP2 SWAP1 POP JUMP JUMPDEST PUSH2 0x24E DUP2 PUSH2 0x23C JUMP JUMPDEST DUP2 EQ PUSH2 0x258 JUMPI PUSH0 PUSH0 REVERT JUMPDEST POP JUMP JUMPDEST PUSH0 DUP2 CALLDATALOAD SWAP1 POP PUSH2 0x269 DUP2 PUSH2 0x245 JUMP JUMPDEST SWAP3 SWAP2 POP POP JUMP JUMPDEST PUSH0 PUSH0 PUSH1 0x40 DUP4 DUP6 SUB SLT ISZERO PUSH2 0x285 JUMPI PUSH2 0x284 PUSH2 0x238 JUMP JUMPDEST JUMPDEST PUSH0 PUSH2 0x292 DUP6 DUP3 DUP7 ADD PUSH2 0x25B JUMP JUMPDEST SWAP3 POP POP PUSH1 0x20 PUSH2 0x2A3 DUP6 DUP3 DUP7 ADD PUSH2 0x25B JUMP JUMPDEST SWAP2 POP POP SWAP3 POP SWAP3 SWAP1 POP JUMP JUMPDEST PUSH2 0x2B6 DUP2 PUSH2 0x23C JUMP JUMPDEST DUP3 MSTORE POP POP JUMP JUMPDEST PUSH0 PUSH1 0x20 DUP3 ADD SWAP1 POP PUSH2 0x2CF PUSH0 DUP4 ADD DUP5 PUSH2 0x2AD JUMP JUMPDEST SWAP3 SWAP2 POP POP JUMP JUMPDEST PUSH0 DUP2 SWAP1 POP SWAP2 SWAP1 POP JUMP JUMPDEST PUSH2 0x2E7 DUP2 PUSH2 0x2D5 JUMP JUMPDEST DUP2 EQ PUSH2 0x2F1 JUMPI PUSH0 PUSH0 REVERT JUMPDEST POP JUMP JUMPDEST PUSH0 DUP2 CALLDATALOAD SWAP1 POP PUSH2 0x302 DUP2 PUSH2 0x2DE JUMP JUMPDEST SWAP3 SWAP2 POP POP JUMP JUMPDEST PUSH0 PUSH0 PUSH0 PUSH1 0x60 DUP5 DUP7 SUB SLT ISZERO PUSH2 0x31F JUMPI PUSH2 0x31E PUSH2 0x238 JUMP JUMPDEST JUMPDEST PUSH0 PUSH2 0x32C DUP7 DUP3 DUP8 ADD PUSH2 0x2F4 JUMP JUMPDEST SWAP4 POP POP PUSH1 0x20 PUSH2 0x33D DUP7 DUP3 DUP8 ADD PUSH2 0x2F4 JUMP JUMPDEST SWAP3 POP POP PUSH1 0x40 PUSH2 0x34E DUP7 DUP3 DUP8 ADD PUSH2 0x2F4 JUMP JUMPDEST SWAP2 POP POP SWAP3 POP SWAP3 POP SWAP3 JUMP JUMPDEST PUSH2 0x361 DUP2 PUSH2 0x2D5 JUMP JUMPDEST DUP3 MSTORE POP POP JUMP JUMPDEST PUSH0 PUSH1 0x20 DUP3 ADD SWAP1 POP PUSH2 0x37A PUSH0 DUP4 ADD DUP5 PUSH2 0x358 JUMP JUMPDEST SWAP3 SWAP2 POP POP JUMP JUMPDEST PUSH32 0x4E487B7100000000000000000000000000000000000000000000000000000000 PUSH0 MSTORE PUSH1 0x12 PUSH1 0x4 MSTORE PUSH1 0x24 PUSH0 REVERT JUMPDEST PUSH32 0x4E487B7100000000000000000000000000000000000000000000000000000000 PUSH0 MSTORE PUSH1 0x11 PUSH1 0x4 MSTORE PUSH1 0x24 PUSH0 REVERT JUMPDEST PUSH0 PUSH2 0x3E4 DUP3 PUSH2 0x23C JUMP JUMPDEST SWAP2 POP PUSH2 0x3EF DUP4 PUSH2 0x23C JUMP JUMPDEST SWAP3 POP DUP3 PUSH2 0x3FF JUMPI PUSH2 0x3FE PUSH2 0x380 JUMP JUMPDEST JUMPDEST PUSH1 0x1 PUSH0 SUB DUP4 EQ PUSH32 0x8000000000000000000000000000000000000000000000000000000000000000 DUP4 EQ AND ISZERO PUSH2 0x437 JUMPI PUSH2 0x436 PUSH2 0x3AD JUMP JUMPDEST JUMPDEST DUP3 DUP3 SDIV SWAP1 POP SWAP3 SWAP2 POP POP JUMP JUMPDEST PUSH0 PUSH2 0x44C DUP3 PUSH2 0x23C JUMP JUMPDEST SWAP2 POP PUSH2 0x457 DUP4 PUSH2 0x23C JUMP JUMPDEST SWAP3 POP DUP3 DUP3 ADD SWAP1 POP DUP3 DUP2 SLT ISZERO PUSH0 DUP4 SLT AND DUP4 DUP3 SLT PUSH0 DUP5 SLT ISZERO AND OR ISZERO PUSH2 0x47D JUMPI PUSH2 0x47C PUSH2 0x3AD JUMP JUMPDEST JUMPDEST SWAP3 SWAP2 POP POP JUMP JUMPDEST PUSH0 PUSH2 0x48D DUP3 PUSH2 0x2D5 JUMP JUMPDEST SWAP2 POP PUSH2 0x498 DUP4 PUSH2 0x2D5 JUMP JUMPDEST SWAP3 POP DUP3 DUP3 MUL PUSH2 0x4A6 DUP2 PUSH2 0x2D5 JUMP JUMPDEST SWAP2 POP DUP3 DUP3 DIV DUP5 EQ DUP4 ISZERO OR PUSH2 0x4BD JUMPI PUSH2 0x4BC PUSH2 0x3AD JUMP JUMPDEST JUMPDEST POP SWAP3 SWAP2 POP POP JUMP JUMPDEST PUSH0 PUSH2 0x4CE DUP3 PUSH2 0x2D5 JUMP JUMPDEST SWAP2 POP PUSH2 0x4D9 DUP4 PUSH2 0x2D5 JUMP JUMPDEST SWAP3 POP DUP3 DUP3 ADD SWAP1 POP DUP1 DUP3 GT ISZERO PUSH2 0x4F1 JUMPI PUSH2 0x4F0 PUSH2 0x3AD JUMP JUMPDEST JUMPDEST SWAP3 SWAP2 POP POP JUMP JUMPDEST PUSH0 PUSH2 0x501 DUP3 PUSH2 0x2D5 JUMP JUMPDEST SWAP2 POP PUSH2 0x50C DUP4 PUSH2 0x2D5 JUMP JUMPDEST SWAP3 POP DUP3 PUSH2 0x51C JUMPI PUSH2 0x51B PUSH2 0x380 JUMP JUMPDEST JUMPDEST DUP3 DUP3 DIV SWAP1 POP SWAP3 SWAP2 POP POP JUMP JUMPDEST PUSH0 PUSH2 0x531 DUP3 PUSH2 0x23C JUMP JUMPDEST SWAP2 POP PUSH2 0x53C DUP4 PUSH2 0x23C JUMP JUMPDEST SWAP3 POP DUP3 PUSH2 0x54C JUMPI PUSH2 0x54B PUSH2 0x380 JUMP JUMPDEST JUMPDEST DUP3 DUP3 SMOD SWAP1 POP SWAP3 SWAP2 POP POP JUMP INVALID LOG2 PUSH5 0x6970667358 0x22 SLT KECCAK256 BLOBBASEFEE GASLIMIT 0xE2 BLOCKHASH 0xC3 0xDF SWAP1 SWAP15 0xE5 CODESIZE PUSH15 0xD332973276627085F03AB4E4B1C3E 0x25 0xCC 0xD3 0xC8 0xC4 RETURN PUSH5 0x736F6C6343 STOP ADDMOD SHR STOP CALLER "
				},
				"gasEstimates": {
					"creation": {
						"codeDepositCost": "284200",
						"executionCost": "322",
						"totalCost": "284522"
					},
					"external": {
						"calculateCompoundInterest(uint256,uint256,uint256)": "infinite",
						"calculatePaycheck(int256,int256)": "infinite",
						"splitExpense(int256,int256)": "infinite"
					}
				},
				"methodIdentifiers": {
					"calculateCompoundInterest(uint256,uint256,uint256)": "e088abdd",
					"calculatePaycheck(int256,int256)": "b29acf2a",
					"splitExpense(int256,int256)": "fe053e40"
				}
			},
			"storageLayout": {
				"storage": [],
				"types": null
			},
			"userdoc": {
				"kind": "user",
				"methods": {},
				"version": 1
			}
		}
	}
}