{
	"DigitalLibrary.sol": {
		"DigitalLibrary": {
			"abi": [
				{
					"inputs": [
						{
							"internalType": "uint256",
							"name": "_expirationDays",
							"type": "uint256"
						}
					],
					"stateMutability": "nonpayable",
					"type": "constructor"
				},
				{
					"inputs": [],
					"name": "YouAreNotAuthor",
					"type": "error"
				},
				{
					"inputs": [
						{
							"internalType": "uint256",
							"name": "_id",
							"type": "uint256"
						},
						{
							"internalType": "address",
							"name": "_librarian",
							"type": "address"
						}
					],
					"name": "addLibrarian",
					"outputs": [],
					"stateMutability": "nonpayable",
					"type": "function"
				},
				{
					"inputs": [
						{
							"internalType": "string",
							"name": "_title",
							"type": "string"
						},
						{
							"internalType": "string",
							"name": "_author",
							"type": "string"
						}
					],
					"name": "createEBook",
					"outputs": [],
					"stateMutability": "nonpayable",
					"type": "function"
				},
				{
					"inputs": [
						{
							"internalType": "uint256",
							"name": "",
							"type": "uint256"
						}
					],
					"name": "libraryBooks",
					"outputs": [
						{
							"internalType": "string",
							"name": "title",
							"type": "string"
						},
						{
							"internalType": "string",
							"name": "author",
							"type": "string"
						},
						{
							"internalType": "uint256",
							"name": "publicationDate",
							"type": "uint256"
						},
						{
							"internalType": "uint256",
							"name": "expirationDate",
							"type": "uint256"
						},
						{
							"internalType": "enum State",
							"name": "status",
							"type": "uint8"
						},
						{
							"internalType": "address",
							"name": "primaryLibrarian",
							"type": "address"
						},
						{
							"internalType": "uint256",
							"name": "readCount",
							"type": "uint256"
						}
					],
					"stateMutability": "view",
					"type": "function"
				}
			],
			"devdoc": {
				"kind": "dev",
				"methods": {},
				"version": 1
			},
			"evm": {
				"assembly": "    /* \"DigitalLibrary.sol\":347:1320  contract DigitalLibrary {... */\n  mstore(0x40, 0x80)\n    /* \"DigitalLibrary.sol\":489:575  constructor(uint256 _expirationDays) {... */\n  callvalue\n  dup1\n  iszero\n  tag_1\n  jumpi\n  revert(0x00, 0x00)\ntag_1:\n  pop\n  mload(0x40)\n  sub(codesize, bytecodeSize)\n  dup1\n  bytecodeSize\n  dup4\n  codecopy\n  dup2\n  dup2\n  add\n  0x40\n  mstore\n  dup2\n  add\n  swap1\n  tag_2\n  swap2\n  swap1\n  tag_3\n  jump\t// in\ntag_2:\n    /* \"DigitalLibrary.sol\":553:568  _expirationDays */\n  dup1\n    /* \"DigitalLibrary.sol\":536:550  expirationDays */\n  0x01\n    /* \"DigitalLibrary.sol\":536:568  expirationDays = _expirationDays */\n  dup2\n  swap1\n  sstore\n  pop\n    /* \"DigitalLibrary.sol\":489:575  constructor(uint256 _expirationDays) {... */\n  pop\n    /* \"DigitalLibrary.sol\":347:1320  contract DigitalLibrary {... */\n  jump(tag_6)\n    /* \"#utility.yul\":88:205   */\ntag_8:\n    /* \"#utility.yul\":197:198   */\n  0x00\n    /* \"#utility.yul\":194:195   */\n  0x00\n    /* \"#utility.yul\":187:199   */\n  revert\n    /* \"#utility.yul\":334:411   */\ntag_10:\n    /* \"#utility.yul\":371:378   */\n  0x00\n    /* \"#utility.yul\":400:405   */\n  dup2\n    /* \"#utility.yul\":389:405   */\n  swap1\n  pop\n    /* \"#utility.yul\":334:411   */\n  swap2\n  swap1\n  pop\n  jump\t// out\n    /* \"#utility.yul\":417:539   */\ntag_11:\n    /* \"#utility.yul\":490:514   */\n  tag_19\n    /* \"#utility.yul\":508:513   */\n  dup2\n    /* \"#utility.yul\":490:514   */\n  tag_10\n  jump\t// in\ntag_19:\n    /* \"#utility.yul\":483:488   */\n  dup2\n    /* \"#utility.yul\":480:515   */\n  eq\n    /* \"#utility.yul\":470:533   */\n  tag_20\n  jumpi\n    /* \"#utility.yul\":529:530   */\n  0x00\n    /* \"#utility.yul\":526:527   */\n  0x00\n    /* \"#utility.yul\":519:531   */\n  revert\n    /* \"#utility.yul\":470:533   */\ntag_20:\n    /* \"#utility.yul\":417:539   */\n  pop\n  jump\t// out\n    /* \"#utility.yul\":545:688   */\ntag_12:\n    /* \"#utility.yul\":602:607   */\n  0x00\n    /* \"#utility.yul\":633:639   */\n  dup2\n    /* \"#utility.yul\":627:640   */\n  mload\n    /* \"#utility.yul\":618:640   */\n  swap1\n  pop\n    /* \"#utility.yul\":649:682   */\n  tag_22\n    /* \"#utility.yul\":676:681   */\n  dup2\n    /* \"#utility.yul\":649:682   */\n  tag_11\n  jump\t// in\ntag_22:\n    /* \"#utility.yul\":545:688   */\n  swap3\n  swap2\n  pop\n  pop\n  jump\t// out\n    /* \"#utility.yul\":694:1045   */\ntag_3:\n    /* \"#utility.yul\":764:770   */\n  0x00\n    /* \"#utility.yul\":813:815   */\n  0x20\n    /* \"#utility.yul\":801:810   */\n  dup3\n    /* \"#utility.yul\":792:799   */\n  dup5\n    /* \"#utility.yul\":788:811   */\n  sub\n    /* \"#utility.yul\":784:816   */\n  slt\n    /* \"#utility.yul\":781:900   */\n  iszero\n  tag_24\n  jumpi\n    /* \"#utility.yul\":819:898   */\n  tag_25\n  tag_8\n  jump\t// in\ntag_25:\n    /* \"#utility.yul\":781:900   */\ntag_24:\n    /* \"#utility.yul\":939:940   */\n  0x00\n    /* \"#utility.yul\":964:1028   */\n  tag_26\n    /* \"#utility.yul\":1020:1027   */\n  dup5\n    /* \"#utility.yul\":1011:1017   */\n  dup3\n    /* \"#utility.yul\":1000:1009   */\n  dup6\n    /* \"#utility.yul\":996:1018   */\n  add\n    /* \"#utility.yul\":964:1028   */\n  tag_12\n  jump\t// in\ntag_26:\n    /* \"#utility.yul\":954:1028   */\n  swap2\n  pop\n    /* \"#utility.yul\":910:1038   */\n  pop\n    /* \"#utility.yul\":694:1045   */\n  swap3\n  swap2\n  pop\n  pop\n  jump\t// out\n    /* \"DigitalLibrary.sol\":347:1320  contract DigitalLibrary {... */\ntag_6:\n  dataSize(sub_0)\n  dup1\n  dataOffset(sub_0)\n  0x00\n  codecopy\n  0x00\n  return\nstop\n\nsub_0: assembly {\n        /* \"DigitalLibrary.sol\":347:1320  contract DigitalLibrary {... */\n      mstore(0x40, 0x80)\n      callvalue\n      dup1\n      iszero\n      tag_1\n      jumpi\n      revert(0x00, 0x00)\n    tag_1:\n      pop\n      jumpi(tag_2, lt(calldatasize, 0x04))\n      shr(0xe0, calldataload(0x00))\n      dup1\n      0x0657298f\n      eq\n      tag_3\n      jumpi\n      dup1\n      0x6925b1f9\n      eq\n      tag_4\n      jumpi\n      dup1\n      0xb98a9cda\n      eq\n      tag_5\n      jumpi\n    tag_2:\n      revert(0x00, 0x00)\n        /* \"DigitalLibrary.sol\":1083:1318  function addLibrarian(uint256 _id, address _librarian) public{... */\n    tag_3:\n      tag_6\n      0x04\n      dup1\n      calldatasize\n      sub\n      dup2\n      add\n      swap1\n      tag_7\n      swap2\n      swap1\n      tag_8\n      jump\t// in\n    tag_7:\n      tag_9\n      jump\t// in\n    tag_6:\n      stop\n        /* \"DigitalLibrary.sol\":581:1077  function createEBook(string calldata _title, string calldata _author)... */\n    tag_4:\n      tag_10\n      0x04\n      dup1\n      calldatasize\n      sub\n      dup2\n      add\n      swap1\n      tag_11\n      swap2\n      swap1\n      tag_12\n      jump\t// in\n    tag_11:\n      tag_13\n      jump\t// in\n    tag_10:\n      stop\n        /* \"DigitalLibrary.sol\":437:482  mapping(uint256 => EBook) public libraryBooks */\n    tag_5:\n      tag_14\n      0x04\n      dup1\n      calldatasize\n      sub\n      dup2\n      add\n      swap1\n      tag_15\n      swap2\n      swap1\n      tag_16\n      jump\t// in\n    tag_15:\n      tag_17\n      jump\t// in\n    tag_14:\n      mload(0x40)\n      tag_18\n      swap8\n      swap7\n      swap6\n      swap5\n      swap4\n      swap3\n      swap2\n      swap1\n      tag_19\n      jump\t// in\n    tag_18:\n      mload(0x40)\n      dup1\n      swap2\n      sub\n      swap1\n      return\n        /* \"DigitalLibrary.sol\":1083:1318  function addLibrarian(uint256 _id, address _librarian) public{... */\n    tag_9:\n        /* \"DigitalLibrary.sol\":1154:1166  libraryBooks */\n      0x02\n        /* \"DigitalLibrary.sol\":1154:1171  libraryBooks[_id] */\n      0x00\n        /* \"DigitalLibrary.sol\":1167:1170  _id */\n      dup4\n        /* \"DigitalLibrary.sol\":1154:1171  libraryBooks[_id] */\n      dup2\n      mstore\n      0x20\n      add\n      swap1\n      dup2\n      mstore\n      0x20\n      add\n      0x00\n      keccak256\n        /* \"DigitalLibrary.sol\":1154:1182  libraryBooks[_id].librarians */\n      0x05\n      add\n        /* \"DigitalLibrary.sol\":1188:1198  _librarian */\n      dup2\n        /* \"DigitalLibrary.sol\":1154:1199  libraryBooks[_id].librarians.push(_librarian) */\n      swap1\n      dup1\n      0x01\n      dup2\n      sload\n      add\n      dup1\n      dup3\n      sstore\n      dup1\n      swap2\n      pop\n      pop\n      0x01\n      swap1\n      sub\n      swap1\n      0x00\n      mstore\n      keccak256(0x00, 0x20)\n      add\n      0x00\n      swap1\n      swap2\n      swap1\n      swap2\n      swap1\n      swap2\n      0x0100\n      exp\n      dup2\n      sload\n      dup2\n      0xffffffffffffffffffffffffffffffffffffffff\n      mul\n      not\n      and\n      swap1\n      dup4\n      0xffffffffffffffffffffffffffffffffffffffff\n      and\n      mul\n      or\n      swap1\n      sstore\n      pop\n        /* \"DigitalLibrary.sol\":1251:1261  msg.sender */\n      caller\n        /* \"DigitalLibrary.sol\":1213:1261  libraryBooks[_id].primaryLibrarian != msg.sender */\n      0xffffffffffffffffffffffffffffffffffffffff\n      and\n        /* \"DigitalLibrary.sol\":1213:1225  libraryBooks */\n      0x02\n        /* \"DigitalLibrary.sol\":1213:1230  libraryBooks[_id] */\n      0x00\n        /* \"DigitalLibrary.sol\":1226:1229  _id */\n      dup5\n        /* \"DigitalLibrary.sol\":1213:1230  libraryBooks[_id] */\n      dup2\n      mstore\n      0x20\n      add\n      swap1\n      dup2\n      mstore\n      0x20\n      add\n      0x00\n      keccak256\n        /* \"DigitalLibrary.sol\":1213:1247  libraryBooks[_id].primaryLibrarian */\n      0x04\n      add\n      0x01\n      swap1\n      sload\n      swap1\n      0x0100\n      exp\n      swap1\n      div\n      0xffffffffffffffffffffffffffffffffffffffff\n      and\n        /* \"DigitalLibrary.sol\":1213:1261  libraryBooks[_id].primaryLibrarian != msg.sender */\n      0xffffffffffffffffffffffffffffffffffffffff\n      and\n      eq\n        /* \"DigitalLibrary.sol\":1209:1312  if (libraryBooks[_id].primaryLibrarian != msg.sender) {... */\n      tag_22\n      jumpi\n        /* \"DigitalLibrary.sol\":1284:1301  YouAreNotAuthor() */\n      mload(0x40)\n      0x46db40c400000000000000000000000000000000000000000000000000000000\n      dup2\n      mstore\n      0x04\n      add\n      mload(0x40)\n      dup1\n      swap2\n      sub\n      swap1\n      revert\n        /* \"DigitalLibrary.sol\":1209:1312  if (libraryBooks[_id].primaryLibrarian != msg.sender) {... */\n    tag_22:\n        /* \"DigitalLibrary.sol\":1083:1318  function addLibrarian(uint256 _id, address _librarian) public{... */\n      pop\n      pop\n      jump\t// out\n        /* \"DigitalLibrary.sol\":581:1077  function createEBook(string calldata _title, string calldata _author)... */\n    tag_13:\n        /* \"DigitalLibrary.sol\":705:711  _title */\n      dup4\n      dup4\n        /* \"DigitalLibrary.sol\":680:692  libraryBooks */\n      0x02\n        /* \"DigitalLibrary.sol\":680:696  libraryBooks[id] */\n      0x00\n        /* \"DigitalLibrary.sol\":693:695  id */\n      sload(0x00)\n        /* \"DigitalLibrary.sol\":680:696  libraryBooks[id] */\n      dup2\n      mstore\n      0x20\n      add\n      swap1\n      dup2\n      mstore\n      0x20\n      add\n      0x00\n      keccak256\n        /* \"DigitalLibrary.sol\":680:702  libraryBooks[id].title */\n      0x00\n      add\n        /* \"DigitalLibrary.sol\":680:711  libraryBooks[id].title = _title */\n      swap2\n      dup3\n      tag_24\n      swap3\n      swap2\n      swap1\n      tag_25\n      jump\t// in\n    tag_24:\n      pop\n        /* \"DigitalLibrary.sol\":747:754  _author */\n      dup2\n      dup2\n        /* \"DigitalLibrary.sol\":721:733  libraryBooks */\n      0x02\n        /* \"DigitalLibrary.sol\":721:737  libraryBooks[id] */\n      0x00\n        /* \"DigitalLibrary.sol\":734:736  id */\n      sload(0x00)\n        /* \"DigitalLibrary.sol\":721:737  libraryBooks[id] */\n      dup2\n      mstore\n      0x20\n      add\n      swap1\n      dup2\n      mstore\n      0x20\n      add\n      0x00\n      keccak256\n        /* \"DigitalLibrary.sol\":721:744  libraryBooks[id].author */\n      0x01\n      add\n        /* \"DigitalLibrary.sol\":721:754  libraryBooks[id].author = _author */\n      swap2\n      dup3\n      tag_26\n      swap3\n      swap2\n      swap1\n      tag_25\n      jump\t// in\n    tag_26:\n      pop\n        /* \"DigitalLibrary.sol\":799:814  block.timestamp */\n      timestamp\n        /* \"DigitalLibrary.sol\":764:776  libraryBooks */\n      0x02\n        /* \"DigitalLibrary.sol\":764:780  libraryBooks[id] */\n      0x00\n        /* \"DigitalLibrary.sol\":777:779  id */\n      sload(0x00)\n        /* \"DigitalLibrary.sol\":764:780  libraryBooks[id] */\n      dup2\n      mstore\n      0x20\n      add\n      swap1\n      dup2\n      mstore\n      0x20\n      add\n      0x00\n      keccak256\n        /* \"DigitalLibrary.sol\":764:796  libraryBooks[id].publicationDate */\n      0x02\n      add\n        /* \"DigitalLibrary.sol\":764:814  libraryBooks[id].publicationDate = block.timestamp */\n      dup2\n      swap1\n      sstore\n      pop\n        /* \"DigitalLibrary.sol\":946:952  1 days */\n      0x015180\n        /* \"DigitalLibrary.sol\":917:931  expirationDays */\n      sload(0x01)\n        /* \"DigitalLibrary.sol\":917:952  expirationDays *... */\n      tag_27\n      swap2\n      swap1\n      tag_28\n      jump\t// in\n    tag_27:\n        /* \"DigitalLibrary.sol\":870:882  libraryBooks */\n      0x02\n        /* \"DigitalLibrary.sol\":870:886  libraryBooks[id] */\n      0x00\n        /* \"DigitalLibrary.sol\":883:885  id */\n      sload(0x00)\n        /* \"DigitalLibrary.sol\":870:886  libraryBooks[id] */\n      dup2\n      mstore\n      0x20\n      add\n      swap1\n      dup2\n      mstore\n      0x20\n      add\n      0x00\n      keccak256\n        /* \"DigitalLibrary.sol\":870:902  libraryBooks[id].publicationDate */\n      0x02\n      add\n      sload\n        /* \"DigitalLibrary.sol\":870:952  libraryBooks[id].publicationDate +... */\n      tag_29\n      swap2\n      swap1\n      tag_30\n      jump\t// in\n    tag_29:\n        /* \"DigitalLibrary.sol\":824:836  libraryBooks */\n      0x02\n        /* \"DigitalLibrary.sol\":824:840  libraryBooks[id] */\n      0x00\n        /* \"DigitalLibrary.sol\":837:839  id */\n      sload(0x00)\n        /* \"DigitalLibrary.sol\":824:840  libraryBooks[id] */\n      dup2\n      mstore\n      0x20\n      add\n      swap1\n      dup2\n      mstore\n      0x20\n      add\n      0x00\n      keccak256\n        /* \"DigitalLibrary.sol\":824:855  libraryBooks[id].expirationDate */\n      0x03\n      add\n        /* \"DigitalLibrary.sol\":824:952  libraryBooks[id].expirationDate =... */\n      dup2\n      swap1\n      sstore\n      pop\n        /* \"DigitalLibrary.sol\":988:1000  State.Active */\n      0x00\n        /* \"DigitalLibrary.sol\":962:974  libraryBooks */\n      0x02\n        /* \"DigitalLibrary.sol\":962:978  libraryBooks[id] */\n      0x00\n        /* \"DigitalLibrary.sol\":975:977  id */\n      sload(0x00)\n        /* \"DigitalLibrary.sol\":962:978  libraryBooks[id] */\n      dup2\n      mstore\n      0x20\n      add\n      swap1\n      dup2\n      mstore\n      0x20\n      add\n      0x00\n      keccak256\n        /* \"DigitalLibrary.sol\":962:985  libraryBooks[id].status */\n      0x04\n      add\n      0x00\n        /* \"DigitalLibrary.sol\":962:1000  libraryBooks[id].status = State.Active */\n      0x0100\n      exp\n      dup2\n      sload\n      dup2\n      0xff\n      mul\n      not\n      and\n      swap1\n      dup4\n      0x02\n      dup2\n      gt\n      iszero\n      tag_31\n      jumpi\n      tag_32\n      tag_33\n      jump\t// in\n    tag_32:\n    tag_31:\n      mul\n      or\n      swap1\n      sstore\n      pop\n        /* \"DigitalLibrary.sol\":1046:1056  msg.sender */\n      caller\n        /* \"DigitalLibrary.sol\":1010:1022  libraryBooks */\n      0x02\n        /* \"DigitalLibrary.sol\":1010:1026  libraryBooks[id] */\n      0x00\n        /* \"DigitalLibrary.sol\":1023:1025  id */\n      sload(0x00)\n        /* \"DigitalLibrary.sol\":1010:1026  libraryBooks[id] */\n      dup2\n      mstore\n      0x20\n      add\n      swap1\n      dup2\n      mstore\n      0x20\n      add\n      0x00\n      keccak256\n        /* \"DigitalLibrary.sol\":1010:1043  libraryBooks[id].primaryLibrarian */\n      0x04\n      add\n      0x01\n        /* \"DigitalLibrary.sol\":1010:1056  libraryBooks[id].primaryLibrarian = msg.sender */\n      0x0100\n      exp\n      dup2\n      sload\n      dup2\n      0xffffffffffffffffffffffffffffffffffffffff\n      mul\n      not\n      and\n      swap1\n      dup4\n      0xffffffffffffffffffffffffffffffffffffffff\n      and\n      mul\n      or\n      swap1\n      sstore\n      pop\n        /* \"DigitalLibrary.sol\":1066:1068  id */\n      0x00\n      0x00\n        /* \"DigitalLibrary.sol\":1066:1070  id++ */\n      dup2\n      sload\n      dup1\n      swap3\n      swap2\n      swap1\n      tag_34\n      swap1\n      tag_35\n      jump\t// in\n    tag_34:\n      swap2\n      swap1\n      pop\n      sstore\n      pop\n        /* \"DigitalLibrary.sol\":581:1077  function createEBook(string calldata _title, string calldata _author)... */\n      pop\n      pop\n      pop\n      pop\n      jump\t// out\n        /* \"DigitalLibrary.sol\":437:482  mapping(uint256 => EBook) public libraryBooks */\n    tag_17:\n      mstore(0x20, 0x02)\n      dup1\n      0x00\n      mstore\n      keccak256(0x00, 0x40)\n      0x00\n      swap2\n      pop\n      swap1\n      pop\n      dup1\n      0x00\n      add\n      dup1\n      sload\n      tag_36\n      swap1\n      tag_37\n      jump\t// in\n    tag_36:\n      dup1\n      0x1f\n      add\n      0x20\n      dup1\n      swap2\n      div\n      mul\n      0x20\n      add\n      mload(0x40)\n      swap1\n      dup2\n      add\n      0x40\n      mstore\n      dup1\n      swap3\n      swap2\n      swap1\n      dup2\n      dup2\n      mstore\n      0x20\n      add\n      dup3\n      dup1\n      sload\n      tag_38\n      swap1\n      tag_37\n      jump\t// in\n    tag_38:\n      dup1\n      iszero\n      tag_39\n      jumpi\n      dup1\n      0x1f\n      lt\n      tag_40\n      jumpi\n      0x0100\n      dup1\n      dup4\n      sload\n      div\n      mul\n      dup4\n      mstore\n      swap2\n      0x20\n      add\n      swap2\n      jump(tag_39)\n    tag_40:\n      dup3\n      add\n      swap2\n      swap1\n      0x00\n      mstore\n      keccak256(0x00, 0x20)\n      swap1\n    tag_41:\n      dup2\n      sload\n      dup2\n      mstore\n      swap1\n      0x01\n      add\n      swap1\n      0x20\n      add\n      dup1\n      dup4\n      gt\n      tag_41\n      jumpi\n      dup3\n      swap1\n      sub\n      0x1f\n      and\n      dup3\n      add\n      swap2\n    tag_39:\n      pop\n      pop\n      pop\n      pop\n      pop\n      swap1\n      dup1\n      0x01\n      add\n      dup1\n      sload\n      tag_42\n      swap1\n      tag_37\n      jump\t// in\n    tag_42:\n      dup1\n      0x1f\n      add\n      0x20\n      dup1\n      swap2\n      div\n      mul\n      0x20\n      add\n      mload(0x40)\n      swap1\n      dup2\n      add\n      0x40\n      mstore\n      dup1\n      swap3\n      swap2\n      swap1\n      dup2\n      dup2\n      mstore\n      0x20\n      add\n      dup3\n      dup1\n      sload\n      tag_43\n      swap1\n      tag_37\n      jump\t// in\n    tag_43:\n      dup1\n      iszero\n      tag_44\n      jumpi\n      dup1\n      0x1f\n      lt\n      tag_45\n      jumpi\n      0x0100\n      dup1\n      dup4\n      sload\n      div\n      mul\n      dup4\n      mstore\n      swap2\n      0x20\n      add\n      swap2\n      jump(tag_44)\n    tag_45:\n      dup3\n      add\n      swap2\n      swap1\n      0x00\n      mstore\n      keccak256(0x00, 0x20)\n      swap1\n    tag_46:\n      dup2\n      sload\n      dup2\n      mstore\n      swap1\n      0x01\n      add\n      swap1\n      0x20\n      add\n      dup1\n      dup4\n      gt\n      tag_46\n      jumpi\n      dup3\n      swap1\n      sub\n      0x1f\n      and\n      dup3\n      add\n      swap2\n    tag_44:\n      pop\n      pop\n      pop\n      pop\n      pop\n      swap1\n      dup1\n      0x02\n      add\n      sload\n      swap1\n      dup1\n      0x03\n      add\n      sload\n      swap1\n      dup1\n      0x04\n      add\n      0x00\n      swap1\n      sload\n      swap1\n      0x0100\n      exp\n      swap1\n      div\n      0xff\n      and\n      swap1\n      dup1\n      0x04\n      add\n      0x01\n      swap1\n      sload\n      swap1\n      0x0100\n      exp\n      swap1\n      div\n      0xffffffffffffffffffffffffffffffffffffffff\n      and\n      swap1\n      dup1\n      0x06\n      add\n      sload\n      swap1\n      pop\n      dup8\n      jump\t// out\n        /* \"#utility.yul\":88:205   */\n    tag_48:\n        /* \"#utility.yul\":197:198   */\n      0x00\n        /* \"#utility.yul\":194:195   */\n      0x00\n        /* \"#utility.yul\":187:199   */\n      revert\n        /* \"#utility.yul\":211:328   */\n    tag_49:\n        /* \"#utility.yul\":320:321   */\n      0x00\n        /* \"#utility.yul\":317:318   */\n      0x00\n        /* \"#utility.yul\":310:322   */\n      revert\n        /* \"#utility.yul\":334:411   */\n    tag_50:\n        /* \"#utility.yul\":371:378   */\n      0x00\n        /* \"#utility.yul\":400:405   */\n      dup2\n        /* \"#utility.yul\":389:405   */\n      swap1\n      pop\n        /* \"#utility.yul\":334:411   */\n      swap2\n      swap1\n      pop\n      jump\t// out\n        /* \"#utility.yul\":417:539   */\n    tag_51:\n        /* \"#utility.yul\":490:514   */\n      tag_97\n        /* \"#utility.yul\":508:513   */\n      dup2\n        /* \"#utility.yul\":490:514   */\n      tag_50\n      jump\t// in\n    tag_97:\n        /* \"#utility.yul\":483:488   */\n      dup2\n        /* \"#utility.yul\":480:515   */\n      eq\n        /* \"#utility.yul\":470:533   */\n      tag_98\n      jumpi\n        /* \"#utility.yul\":529:530   */\n      0x00\n        /* \"#utility.yul\":526:527   */\n      0x00\n        /* \"#utility.yul\":519:531   */\n      revert\n        /* \"#utility.yul\":470:533   */\n    tag_98:\n        /* \"#utility.yul\":417:539   */\n      pop\n      jump\t// out\n        /* \"#utility.yul\":545:684   */\n    tag_52:\n        /* \"#utility.yul\":591:596   */\n      0x00\n        /* \"#utility.yul\":629:635   */\n      dup2\n        /* \"#utility.yul\":616:636   */\n      calldataload\n        /* \"#utility.yul\":607:636   */\n      swap1\n      pop\n        /* \"#utility.yul\":645:678   */\n      tag_100\n        /* \"#utility.yul\":672:677   */\n      dup2\n        /* \"#utility.yul\":645:678   */\n      tag_51\n      jump\t// in\n    tag_100:\n        /* \"#utility.yul\":545:684   */\n      swap3\n      swap2\n      pop\n      pop\n      jump\t// out\n        /* \"#utility.yul\":690:816   */\n    tag_53:\n        /* \"#utility.yul\":727:734   */\n      0x00\n        /* \"#utility.yul\":767:809   */\n      0xffffffffffffffffffffffffffffffffffffffff\n        /* \"#utility.yul\":760:765   */\n      dup3\n        /* \"#utility.yul\":756:810   */\n      and\n        /* \"#utility.yul\":745:810   */\n      swap1\n      pop\n        /* \"#utility.yul\":690:816   */\n      swap2\n      swap1\n      pop\n      jump\t// out\n        /* \"#utility.yul\":822:918   */\n    tag_54:\n        /* \"#utility.yul\":859:866   */\n      0x00\n        /* \"#utility.yul\":888:912   */\n      tag_103\n        /* \"#utility.yul\":906:911   */\n      dup3\n        /* \"#utility.yul\":888:912   */\n      tag_53\n      jump\t// in\n    tag_103:\n        /* \"#utility.yul\":877:912   */\n      swap1\n      pop\n        /* \"#utility.yul\":822:918   */\n      swap2\n      swap1\n      pop\n      jump\t// out\n        /* \"#utility.yul\":924:1046   */\n    tag_55:\n        /* \"#utility.yul\":997:1021   */\n      tag_105\n        /* \"#utility.yul\":1015:1020   */\n      dup2\n        /* \"#utility.yul\":997:1021   */\n      tag_54\n      jump\t// in\n    tag_105:\n        /* \"#utility.yul\":990:995   */\n      dup2\n        /* \"#utility.yul\":987:1022   */\n      eq\n        /* \"#utility.yul\":977:1040   */\n      tag_106\n      jumpi\n        /* \"#utility.yul\":1036:1037   */\n      0x00\n        /* \"#utility.yul\":1033:1034   */\n      0x00\n        /* \"#utility.yul\":1026:1038   */\n      revert\n        /* \"#utility.yul\":977:1040   */\n    tag_106:\n        /* \"#utility.yul\":924:1046   */\n      pop\n      jump\t// out\n        /* \"#utility.yul\":1052:1191   */\n    tag_56:\n        /* \"#utility.yul\":1098:1103   */\n      0x00\n        /* \"#utility.yul\":1136:1142   */\n      dup2\n        /* \"#utility.yul\":1123:1143   */\n      calldataload\n        /* \"#utility.yul\":1114:1143   */\n      swap1\n      pop\n        /* \"#utility.yul\":1152:1185   */\n      tag_108\n        /* \"#utility.yul\":1179:1184   */\n      dup2\n        /* \"#utility.yul\":1152:1185   */\n      tag_55\n      jump\t// in\n    tag_108:\n        /* \"#utility.yul\":1052:1191   */\n      swap3\n      swap2\n      pop\n      pop\n      jump\t// out\n        /* \"#utility.yul\":1197:1671   */\n    tag_8:\n        /* \"#utility.yul\":1265:1271   */\n      0x00\n        /* \"#utility.yul\":1273:1279   */\n      0x00\n        /* \"#utility.yul\":1322:1324   */\n      0x40\n        /* \"#utility.yul\":1310:1319   */\n      dup4\n        /* \"#utility.yul\":1301:1308   */\n      dup6\n        /* \"#utility.yul\":1297:1320   */\n      sub\n        /* \"#utility.yul\":1293:1325   */\n      slt\n        /* \"#utility.yul\":1290:1409   */\n      iszero\n      tag_110\n      jumpi\n        /* \"#utility.yul\":1328:1407   */\n      tag_111\n      tag_48\n      jump\t// in\n    tag_111:\n        /* \"#utility.yul\":1290:1409   */\n    tag_110:\n        /* \"#utility.yul\":1448:1449   */\n      0x00\n        /* \"#utility.yul\":1473:1526   */\n      tag_112\n        /* \"#utility.yul\":1518:1525   */\n      dup6\n        /* \"#utility.yul\":1509:1515   */\n      dup3\n        /* \"#utility.yul\":1498:1507   */\n      dup7\n        /* \"#utility.yul\":1494:1516   */\n      add\n        /* \"#utility.yul\":1473:1526   */\n      tag_52\n      jump\t// in\n    tag_112:\n        /* \"#utility.yul\":1463:1526   */\n      swap3\n      pop\n        /* \"#utility.yul\":1419:1536   */\n      pop\n        /* \"#utility.yul\":1575:1577   */\n      0x20\n        /* \"#utility.yul\":1601:1654   */\n      tag_113\n        /* \"#utility.yul\":1646:1653   */\n      dup6\n        /* \"#utility.yul\":1637:1643   */\n      dup3\n        /* \"#utility.yul\":1626:1635   */\n      dup7\n        /* \"#utility.yul\":1622:1644   */\n      add\n        /* \"#utility.yul\":1601:1654   */\n      tag_56\n      jump\t// in\n    tag_113:\n        /* \"#utility.yul\":1591:1654   */\n      swap2\n      pop\n        /* \"#utility.yul\":1546:1664   */\n      pop\n        /* \"#utility.yul\":1197:1671   */\n      swap3\n      pop\n      swap3\n      swap1\n      pop\n      jump\t// out\n        /* \"#utility.yul\":1677:1794   */\n    tag_57:\n        /* \"#utility.yul\":1786:1787   */\n      0x00\n        /* \"#utility.yul\":1783:1784   */\n      0x00\n        /* \"#utility.yul\":1776:1788   */\n      revert\n        /* \"#utility.yul\":1800:1917   */\n    tag_58:\n        /* \"#utility.yul\":1909:1910   */\n      0x00\n        /* \"#utility.yul\":1906:1907   */\n      0x00\n        /* \"#utility.yul\":1899:1911   */\n      revert\n        /* \"#utility.yul\":1923:2040   */\n    tag_59:\n        /* \"#utility.yul\":2032:2033   */\n      0x00\n        /* \"#utility.yul\":2029:2030   */\n      0x00\n        /* \"#utility.yul\":2022:2034   */\n      revert\n        /* \"#utility.yul\":2060:2613   */\n    tag_60:\n        /* \"#utility.yul\":2118:2126   */\n      0x00\n        /* \"#utility.yul\":2128:2134   */\n      0x00\n        /* \"#utility.yul\":2178:2181   */\n      dup4\n        /* \"#utility.yul\":2171:2175   */\n      0x1f\n        /* \"#utility.yul\":2163:2169   */\n      dup5\n        /* \"#utility.yul\":2159:2176   */\n      add\n        /* \"#utility.yul\":2155:2182   */\n      slt\n        /* \"#utility.yul\":2145:2267   */\n      tag_118\n      jumpi\n        /* \"#utility.yul\":2186:2265   */\n      tag_119\n      tag_57\n      jump\t// in\n    tag_119:\n        /* \"#utility.yul\":2145:2267   */\n    tag_118:\n        /* \"#utility.yul\":2299:2305   */\n      dup3\n        /* \"#utility.yul\":2286:2306   */\n      calldataload\n        /* \"#utility.yul\":2276:2306   */\n      swap1\n      pop\n        /* \"#utility.yul\":2329:2347   */\n      0xffffffffffffffff\n        /* \"#utility.yul\":2321:2327   */\n      dup2\n        /* \"#utility.yul\":2318:2348   */\n      gt\n        /* \"#utility.yul\":2315:2432   */\n      iszero\n      tag_120\n      jumpi\n        /* \"#utility.yul\":2351:2430   */\n      tag_121\n      tag_58\n      jump\t// in\n    tag_121:\n        /* \"#utility.yul\":2315:2432   */\n    tag_120:\n        /* \"#utility.yul\":2465:2469   */\n      0x20\n        /* \"#utility.yul\":2457:2463   */\n      dup4\n        /* \"#utility.yul\":2453:2470   */\n      add\n        /* \"#utility.yul\":2441:2470   */\n      swap2\n      pop\n        /* \"#utility.yul\":2519:2522   */\n      dup4\n        /* \"#utility.yul\":2511:2515   */\n      0x01\n        /* \"#utility.yul\":2503:2509   */\n      dup3\n        /* \"#utility.yul\":2499:2516   */\n      mul\n        /* \"#utility.yul\":2489:2497   */\n      dup4\n        /* \"#utility.yul\":2485:2517   */\n      add\n        /* \"#utility.yul\":2482:2523   */\n      gt\n        /* \"#utility.yul\":2479:2607   */\n      iszero\n      tag_122\n      jumpi\n        /* \"#utility.yul\":2526:2605   */\n      tag_123\n      tag_59\n      jump\t// in\n    tag_123:\n        /* \"#utility.yul\":2479:2607   */\n    tag_122:\n        /* \"#utility.yul\":2060:2613   */\n      swap3\n      pop\n      swap3\n      swap1\n      pop\n      jump\t// out\n        /* \"#utility.yul\":2619:3493   */\n    tag_12:\n        /* \"#utility.yul\":2711:2717   */\n      0x00\n        /* \"#utility.yul\":2719:2725   */\n      0x00\n        /* \"#utility.yul\":2727:2733   */\n      0x00\n        /* \"#utility.yul\":2735:2741   */\n      0x00\n        /* \"#utility.yul\":2784:2786   */\n      0x40\n        /* \"#utility.yul\":2772:2781   */\n      dup6\n        /* \"#utility.yul\":2763:2770   */\n      dup8\n        /* \"#utility.yul\":2759:2782   */\n      sub\n        /* \"#utility.yul\":2755:2787   */\n      slt\n        /* \"#utility.yul\":2752:2871   */\n      iszero\n      tag_125\n      jumpi\n        /* \"#utility.yul\":2790:2869   */\n      tag_126\n      tag_48\n      jump\t// in\n    tag_126:\n        /* \"#utility.yul\":2752:2871   */\n    tag_125:\n        /* \"#utility.yul\":2938:2939   */\n      0x00\n        /* \"#utility.yul\":2927:2936   */\n      dup6\n        /* \"#utility.yul\":2923:2940   */\n      add\n        /* \"#utility.yul\":2910:2941   */\n      calldataload\n        /* \"#utility.yul\":2968:2986   */\n      0xffffffffffffffff\n        /* \"#utility.yul\":2960:2966   */\n      dup2\n        /* \"#utility.yul\":2957:2987   */\n      gt\n        /* \"#utility.yul\":2954:3071   */\n      iszero\n      tag_127\n      jumpi\n        /* \"#utility.yul\":2990:3069   */\n      tag_128\n      tag_49\n      jump\t// in\n    tag_128:\n        /* \"#utility.yul\":2954:3071   */\n    tag_127:\n        /* \"#utility.yul\":3103:3168   */\n      tag_129\n        /* \"#utility.yul\":3160:3167   */\n      dup8\n        /* \"#utility.yul\":3151:3157   */\n      dup3\n        /* \"#utility.yul\":3140:3149   */\n      dup9\n        /* \"#utility.yul\":3136:3158   */\n      add\n        /* \"#utility.yul\":3103:3168   */\n      tag_60\n      jump\t// in\n    tag_129:\n        /* \"#utility.yul\":3085:3168   */\n      swap5\n      pop\n      swap5\n      pop\n        /* \"#utility.yul\":2881:3178   */\n      pop\n        /* \"#utility.yul\":3245:3247   */\n      0x20\n        /* \"#utility.yul\":3234:3243   */\n      dup6\n        /* \"#utility.yul\":3230:3248   */\n      add\n        /* \"#utility.yul\":3217:3249   */\n      calldataload\n        /* \"#utility.yul\":3276:3294   */\n      0xffffffffffffffff\n        /* \"#utility.yul\":3268:3274   */\n      dup2\n        /* \"#utility.yul\":3265:3295   */\n      gt\n        /* \"#utility.yul\":3262:3379   */\n      iszero\n      tag_130\n      jumpi\n        /* \"#utility.yul\":3298:3377   */\n      tag_131\n      tag_49\n      jump\t// in\n    tag_131:\n        /* \"#utility.yul\":3262:3379   */\n    tag_130:\n        /* \"#utility.yul\":3411:3476   */\n      tag_132\n        /* \"#utility.yul\":3468:3475   */\n      dup8\n        /* \"#utility.yul\":3459:3465   */\n      dup3\n        /* \"#utility.yul\":3448:3457   */\n      dup9\n        /* \"#utility.yul\":3444:3466   */\n      add\n        /* \"#utility.yul\":3411:3476   */\n      tag_60\n      jump\t// in\n    tag_132:\n        /* \"#utility.yul\":3393:3476   */\n      swap3\n      pop\n      swap3\n      pop\n        /* \"#utility.yul\":3188:3486   */\n      pop\n        /* \"#utility.yul\":2619:3493   */\n      swap3\n      swap6\n      swap2\n      swap5\n      pop\n      swap3\n      pop\n      jump\t// out\n        /* \"#utility.yul\":3499:3828   */\n    tag_16:\n        /* \"#utility.yul\":3558:3564   */\n      0x00\n        /* \"#utility.yul\":3607:3609   */\n      0x20\n        /* \"#utility.yul\":3595:3604   */\n      dup3\n        /* \"#utility.yul\":3586:3593   */\n      dup5\n        /* \"#utility.yul\":3582:3605   */\n      sub\n        /* \"#utility.yul\":3578:3610   */\n      slt\n        /* \"#utility.yul\":3575:3694   */\n      iszero\n      tag_134\n      jumpi\n        /* \"#utility.yul\":3613:3692   */\n      tag_135\n      tag_48\n      jump\t// in\n    tag_135:\n        /* \"#utility.yul\":3575:3694   */\n    tag_134:\n        /* \"#utility.yul\":3733:3734   */\n      0x00\n        /* \"#utility.yul\":3758:3811   */\n      tag_136\n        /* \"#utility.yul\":3803:3810   */\n      dup5\n        /* \"#utility.yul\":3794:3800   */\n      dup3\n        /* \"#utility.yul\":3783:3792   */\n      dup6\n        /* \"#utility.yul\":3779:3801   */\n      add\n        /* \"#utility.yul\":3758:3811   */\n      tag_52\n      jump\t// in\n    tag_136:\n        /* \"#utility.yul\":3748:3811   */\n      swap2\n      pop\n        /* \"#utility.yul\":3704:3821   */\n      pop\n        /* \"#utility.yul\":3499:3828   */\n      swap3\n      swap2\n      pop\n      pop\n      jump\t// out\n        /* \"#utility.yul\":3834:3933   */\n    tag_61:\n        /* \"#utility.yul\":3886:3892   */\n      0x00\n        /* \"#utility.yul\":3920:3925   */\n      dup2\n        /* \"#utility.yul\":3914:3926   */\n      mload\n        /* \"#utility.yul\":3904:3926   */\n      swap1\n      pop\n        /* \"#utility.yul\":3834:3933   */\n      swap2\n      swap1\n      pop\n      jump\t// out\n        /* \"#utility.yul\":3939:4108   */\n    tag_62:\n        /* \"#utility.yul\":4023:4034   */\n      0x00\n        /* \"#utility.yul\":4057:4063   */\n      dup3\n        /* \"#utility.yul\":4052:4055   */\n      dup3\n        /* \"#utility.yul\":4045:4064   */\n      mstore\n        /* \"#utility.yul\":4097:4101   */\n      0x20\n        /* \"#utility.yul\":4092:4095   */\n      dup3\n        /* \"#utility.yul\":4088:4102   */\n      add\n        /* \"#utility.yul\":4073:4102   */\n      swap1\n      pop\n        /* \"#utility.yul\":3939:4108   */\n      swap3\n      swap2\n      pop\n      pop\n      jump\t// out\n        /* \"#utility.yul\":4114:4253   */\n    tag_63:\n        /* \"#utility.yul\":4203:4209   */\n      dup3\n        /* \"#utility.yul\":4198:4201   */\n      dup2\n        /* \"#utility.yul\":4193:4196   */\n      dup4\n        /* \"#utility.yul\":4187:4210   */\n      mcopy\n        /* \"#utility.yul\":4244:4245   */\n      0x00\n        /* \"#utility.yul\":4235:4241   */\n      dup4\n        /* \"#utility.yul\":4230:4233   */\n      dup4\n        /* \"#utility.yul\":4226:4242   */\n      add\n        /* \"#utility.yul\":4219:4246   */\n      mstore\n        /* \"#utility.yul\":4114:4253   */\n      pop\n      pop\n      pop\n      jump\t// out\n        /* \"#utility.yul\":4259:4361   */\n    tag_64:\n        /* \"#utility.yul\":4300:4306   */\n      0x00\n        /* \"#utility.yul\":4351:4353   */\n      0x1f\n        /* \"#utility.yul\":4347:4354   */\n      not\n        /* \"#utility.yul\":4342:4344   */\n      0x1f\n        /* \"#utility.yul\":4335:4340   */\n      dup4\n        /* \"#utility.yul\":4331:4345   */\n      add\n        /* \"#utility.yul\":4327:4355   */\n      and\n        /* \"#utility.yul\":4317:4355   */\n      swap1\n      pop\n        /* \"#utility.yul\":4259:4361   */\n      swap2\n      swap1\n      pop\n      jump\t// out\n        /* \"#utility.yul\":4367:4744   */\n    tag_65:\n        /* \"#utility.yul\":4455:4458   */\n      0x00\n        /* \"#utility.yul\":4483:4522   */\n      tag_142\n        /* \"#utility.yul\":4516:4521   */\n      dup3\n        /* \"#utility.yul\":4483:4522   */\n      tag_61\n      jump\t// in\n    tag_142:\n        /* \"#utility.yul\":4538:4609   */\n      tag_143\n        /* \"#utility.yul\":4602:4608   */\n      dup2\n        /* \"#utility.yul\":4597:4600   */\n      dup6\n        /* \"#utility.yul\":4538:4609   */\n      tag_62\n      jump\t// in\n    tag_143:\n        /* \"#utility.yul\":4531:4609   */\n      swap4\n      pop\n        /* \"#utility.yul\":4618:4683   */\n      tag_144\n        /* \"#utility.yul\":4676:4682   */\n      dup2\n        /* \"#utility.yul\":4671:4674   */\n      dup6\n        /* \"#utility.yul\":4664:4668   */\n      0x20\n        /* \"#utility.yul\":4657:4662   */\n      dup7\n        /* \"#utility.yul\":4653:4669   */\n      add\n        /* \"#utility.yul\":4618:4683   */\n      tag_63\n      jump\t// in\n    tag_144:\n        /* \"#utility.yul\":4708:4737   */\n      tag_145\n        /* \"#utility.yul\":4730:4736   */\n      dup2\n        /* \"#utility.yul\":4708:4737   */\n      tag_64\n      jump\t// in\n    tag_145:\n        /* \"#utility.yul\":4703:4706   */\n      dup5\n        /* \"#utility.yul\":4699:4738   */\n      add\n        /* \"#utility.yul\":4692:4738   */\n      swap2\n      pop\n        /* \"#utility.yul\":4459:4744   */\n      pop\n        /* \"#utility.yul\":4367:4744   */\n      swap3\n      swap2\n      pop\n      pop\n      jump\t// out\n        /* \"#utility.yul\":4750:4868   */\n    tag_66:\n        /* \"#utility.yul\":4837:4861   */\n      tag_147\n        /* \"#utility.yul\":4855:4860   */\n      dup2\n        /* \"#utility.yul\":4837:4861   */\n      tag_50\n      jump\t// in\n    tag_147:\n        /* \"#utility.yul\":4832:4835   */\n      dup3\n        /* \"#utility.yul\":4825:4862   */\n      mstore\n        /* \"#utility.yul\":4750:4868   */\n      pop\n      pop\n      jump\t// out\n        /* \"#utility.yul\":4874:5054   */\n    tag_33:\n        /* \"#utility.yul\":4922:4999   */\n      0x4e487b7100000000000000000000000000000000000000000000000000000000\n        /* \"#utility.yul\":4919:4920   */\n      0x00\n        /* \"#utility.yul\":4912:5000   */\n      mstore\n        /* \"#utility.yul\":5019:5023   */\n      0x21\n        /* \"#utility.yul\":5016:5017   */\n      0x04\n        /* \"#utility.yul\":5009:5024   */\n      mstore\n        /* \"#utility.yul\":5043:5047   */\n      0x24\n        /* \"#utility.yul\":5040:5041   */\n      0x00\n        /* \"#utility.yul\":5033:5048   */\n      revert\n        /* \"#utility.yul\":5060:5172   */\n    tag_67:\n        /* \"#utility.yul\":5140:5141   */\n      0x03\n        /* \"#utility.yul\":5133:5138   */\n      dup2\n        /* \"#utility.yul\":5130:5142   */\n      lt\n        /* \"#utility.yul\":5120:5166   */\n      tag_150\n      jumpi\n        /* \"#utility.yul\":5146:5164   */\n      tag_151\n      tag_33\n      jump\t// in\n    tag_151:\n        /* \"#utility.yul\":5120:5166   */\n    tag_150:\n        /* \"#utility.yul\":5060:5172   */\n      pop\n      jump\t// out\n        /* \"#utility.yul\":5178:5303   */\n    tag_68:\n        /* \"#utility.yul\":5222:5229   */\n      0x00\n        /* \"#utility.yul\":5251:5256   */\n      dup2\n        /* \"#utility.yul\":5240:5256   */\n      swap1\n      pop\n        /* \"#utility.yul\":5257:5297   */\n      tag_153\n        /* \"#utility.yul\":5291:5296   */\n      dup3\n        /* \"#utility.yul\":5257:5297   */\n      tag_67\n      jump\t// in\n    tag_153:\n        /* \"#utility.yul\":5178:5303   */\n      swap2\n      swap1\n      pop\n      jump\t// out\n        /* \"#utility.yul\":5309:5434   */\n    tag_69:\n        /* \"#utility.yul\":5364:5373   */\n      0x00\n        /* \"#utility.yul\":5397:5428   */\n      tag_155\n        /* \"#utility.yul\":5422:5427   */\n      dup3\n        /* \"#utility.yul\":5397:5428   */\n      tag_68\n      jump\t// in\n    tag_155:\n        /* \"#utility.yul\":5384:5428   */\n      swap1\n      pop\n        /* \"#utility.yul\":5309:5434   */\n      swap2\n      swap1\n      pop\n      jump\t// out\n        /* \"#utility.yul\":5440:5581   */\n    tag_70:\n        /* \"#utility.yul\":5532:5574   */\n      tag_157\n        /* \"#utility.yul\":5568:5573   */\n      dup2\n        /* \"#utility.yul\":5532:5574   */\n      tag_69\n      jump\t// in\n    tag_157:\n        /* \"#utility.yul\":5527:5530   */\n      dup3\n        /* \"#utility.yul\":5520:5575   */\n      mstore\n        /* \"#utility.yul\":5440:5581   */\n      pop\n      pop\n      jump\t// out\n        /* \"#utility.yul\":5587:5705   */\n    tag_71:\n        /* \"#utility.yul\":5674:5698   */\n      tag_159\n        /* \"#utility.yul\":5692:5697   */\n      dup2\n        /* \"#utility.yul\":5674:5698   */\n      tag_54\n      jump\t// in\n    tag_159:\n        /* \"#utility.yul\":5669:5672   */\n      dup3\n        /* \"#utility.yul\":5662:5699   */\n      mstore\n        /* \"#utility.yul\":5587:5705   */\n      pop\n      pop\n      jump\t// out\n        /* \"#utility.yul\":5711:6789   */\n    tag_19:\n        /* \"#utility.yul\":6017:6021   */\n      0x00\n        /* \"#utility.yul\":6055:6058   */\n      0xe0\n        /* \"#utility.yul\":6044:6053   */\n      dup3\n        /* \"#utility.yul\":6040:6059   */\n      add\n        /* \"#utility.yul\":6032:6059   */\n      swap1\n      pop\n        /* \"#utility.yul\":6105:6114   */\n      dup2\n        /* \"#utility.yul\":6099:6103   */\n      dup2\n        /* \"#utility.yul\":6095:6115   */\n      sub\n        /* \"#utility.yul\":6091:6092   */\n      0x00\n        /* \"#utility.yul\":6080:6089   */\n      dup4\n        /* \"#utility.yul\":6076:6093   */\n      add\n        /* \"#utility.yul\":6069:6116   */\n      mstore\n        /* \"#utility.yul\":6133:6211   */\n      tag_161\n        /* \"#utility.yul\":6206:6210   */\n      dup2\n        /* \"#utility.yul\":6197:6203   */\n      dup11\n        /* \"#utility.yul\":6133:6211   */\n      tag_65\n      jump\t// in\n    tag_161:\n        /* \"#utility.yul\":6125:6211   */\n      swap1\n      pop\n        /* \"#utility.yul\":6258:6267   */\n      dup2\n        /* \"#utility.yul\":6252:6256   */\n      dup2\n        /* \"#utility.yul\":6248:6268   */\n      sub\n        /* \"#utility.yul\":6243:6245   */\n      0x20\n        /* \"#utility.yul\":6232:6241   */\n      dup4\n        /* \"#utility.yul\":6228:6246   */\n      add\n        /* \"#utility.yul\":6221:6269   */\n      mstore\n        /* \"#utility.yul\":6286:6364   */\n      tag_162\n        /* \"#utility.yul\":6359:6363   */\n      dup2\n        /* \"#utility.yul\":6350:6356   */\n      dup10\n        /* \"#utility.yul\":6286:6364   */\n      tag_65\n      jump\t// in\n    tag_162:\n        /* \"#utility.yul\":6278:6364   */\n      swap1\n      pop\n        /* \"#utility.yul\":6374:6446   */\n      tag_163\n        /* \"#utility.yul\":6442:6444   */\n      0x40\n        /* \"#utility.yul\":6431:6440   */\n      dup4\n        /* \"#utility.yul\":6427:6445   */\n      add\n        /* \"#utility.yul\":6418:6424   */\n      dup9\n        /* \"#utility.yul\":6374:6446   */\n      tag_66\n      jump\t// in\n    tag_163:\n        /* \"#utility.yul\":6456:6528   */\n      tag_164\n        /* \"#utility.yul\":6524:6526   */\n      0x60\n        /* \"#utility.yul\":6513:6522   */\n      dup4\n        /* \"#utility.yul\":6509:6527   */\n      add\n        /* \"#utility.yul\":6500:6506   */\n      dup8\n        /* \"#utility.yul\":6456:6528   */\n      tag_66\n      jump\t// in\n    tag_164:\n        /* \"#utility.yul\":6538:6616   */\n      tag_165\n        /* \"#utility.yul\":6611:6614   */\n      0x80\n        /* \"#utility.yul\":6600:6609   */\n      dup4\n        /* \"#utility.yul\":6596:6615   */\n      add\n        /* \"#utility.yul\":6587:6593   */\n      dup7\n        /* \"#utility.yul\":6538:6616   */\n      tag_70\n      jump\t// in\n    tag_165:\n        /* \"#utility.yul\":6626:6699   */\n      tag_166\n        /* \"#utility.yul\":6694:6697   */\n      0xa0\n        /* \"#utility.yul\":6683:6692   */\n      dup4\n        /* \"#utility.yul\":6679:6698   */\n      add\n        /* \"#utility.yul\":6670:6676   */\n      dup6\n        /* \"#utility.yul\":6626:6699   */\n      tag_71\n      jump\t// in\n    tag_166:\n        /* \"#utility.yul\":6709:6782   */\n      tag_167\n        /* \"#utility.yul\":6777:6780   */\n      0xc0\n        /* \"#utility.yul\":6766:6775   */\n      dup4\n        /* \"#utility.yul\":6762:6781   */\n      add\n        /* \"#utility.yul\":6753:6759   */\n      dup5\n        /* \"#utility.yul\":6709:6782   */\n      tag_66\n      jump\t// in\n    tag_167:\n        /* \"#utility.yul\":5711:6789   */\n      swap9\n      swap8\n      pop\n      pop\n      pop\n      pop\n      pop\n      pop\n      pop\n      pop\n      jump\t// out\n        /* \"#utility.yul\":6795:6892   */\n    tag_72:\n        /* \"#utility.yul\":6854:6860   */\n      0x00\n        /* \"#utility.yul\":6882:6885   */\n      dup3\n        /* \"#utility.yul\":6872:6885   */\n      swap1\n      pop\n        /* \"#utility.yul\":6795:6892   */\n      swap3\n      swap2\n      pop\n      pop\n      jump\t// out\n        /* \"#utility.yul\":6898:7078   */\n    tag_73:\n        /* \"#utility.yul\":6946:7023   */\n      0x4e487b7100000000000000000000000000000000000000000000000000000000\n        /* \"#utility.yul\":6943:6944   */\n      0x00\n        /* \"#utility.yul\":6936:7024   */\n      mstore\n        /* \"#utility.yul\":7043:7047   */\n      0x41\n        /* \"#utility.yul\":7040:7041   */\n      0x04\n        /* \"#utility.yul\":7033:7048   */\n      mstore\n        /* \"#utility.yul\":7067:7071   */\n      0x24\n        /* \"#utility.yul\":7064:7065   */\n      0x00\n        /* \"#utility.yul\":7057:7072   */\n      revert\n        /* \"#utility.yul\":7084:7264   */\n    tag_74:\n        /* \"#utility.yul\":7132:7209   */\n      0x4e487b7100000000000000000000000000000000000000000000000000000000\n        /* \"#utility.yul\":7129:7130   */\n      0x00\n        /* \"#utility.yul\":7122:7210   */\n      mstore\n        /* \"#utility.yul\":7229:7233   */\n      0x22\n        /* \"#utility.yul\":7226:7227   */\n      0x04\n        /* \"#utility.yul\":7219:7234   */\n      mstore\n        /* \"#utility.yul\":7253:7257   */\n      0x24\n        /* \"#utility.yul\":7250:7251   */\n      0x00\n        /* \"#utility.yul\":7243:7258   */\n      revert\n        /* \"#utility.yul\":7270:7590   */\n    tag_37:\n        /* \"#utility.yul\":7314:7320   */\n      0x00\n        /* \"#utility.yul\":7351:7352   */\n      0x02\n        /* \"#utility.yul\":7345:7349   */\n      dup3\n        /* \"#utility.yul\":7341:7353   */\n      div\n        /* \"#utility.yul\":7331:7353   */\n      swap1\n      pop\n        /* \"#utility.yul\":7398:7399   */\n      0x01\n        /* \"#utility.yul\":7392:7396   */\n      dup3\n        /* \"#utility.yul\":7388:7400   */\n      and\n        /* \"#utility.yul\":7419:7437   */\n      dup1\n        /* \"#utility.yul\":7409:7490   */\n      tag_172\n      jumpi\n        /* \"#utility.yul\":7475:7479   */\n      0x7f\n        /* \"#utility.yul\":7467:7473   */\n      dup3\n        /* \"#utility.yul\":7463:7480   */\n      and\n        /* \"#utility.yul\":7453:7480   */\n      swap2\n      pop\n        /* \"#utility.yul\":7409:7490   */\n    tag_172:\n        /* \"#utility.yul\":7537:7539   */\n      0x20\n        /* \"#utility.yul\":7529:7535   */\n      dup3\n        /* \"#utility.yul\":7526:7540   */\n      lt\n        /* \"#utility.yul\":7506:7524   */\n      dup2\n        /* \"#utility.yul\":7503:7541   */\n      sub\n        /* \"#utility.yul\":7500:7584   */\n      tag_173\n      jumpi\n        /* \"#utility.yul\":7556:7574   */\n      tag_174\n      tag_74\n      jump\t// in\n    tag_174:\n        /* \"#utility.yul\":7500:7584   */\n    tag_173:\n        /* \"#utility.yul\":7321:7590   */\n      pop\n        /* \"#utility.yul\":7270:7590   */\n      swap2\n      swap1\n      pop\n      jump\t// out\n        /* \"#utility.yul\":7596:7737   */\n    tag_75:\n        /* \"#utility.yul\":7645:7649   */\n      0x00\n        /* \"#utility.yul\":7668:7671   */\n      dup2\n        /* \"#utility.yul\":7660:7671   */\n      swap1\n      pop\n        /* \"#utility.yul\":7691:7694   */\n      dup2\n        /* \"#utility.yul\":7688:7689   */\n      0x00\n        /* \"#utility.yul\":7681:7695   */\n      mstore\n        /* \"#utility.yul\":7725:7729   */\n      0x20\n        /* \"#utility.yul\":7722:7723   */\n      0x00\n        /* \"#utility.yul\":7712:7730   */\n      keccak256\n        /* \"#utility.yul\":7704:7730   */\n      swap1\n      pop\n        /* \"#utility.yul\":7596:7737   */\n      swap2\n      swap1\n      pop\n      jump\t// out\n        /* \"#utility.yul\":7743:7836   */\n    tag_76:\n        /* \"#utility.yul\":7780:7786   */\n      0x00\n        /* \"#utility.yul\":7827:7829   */\n      0x20\n        /* \"#utility.yul\":7822:7824   */\n      0x1f\n        /* \"#utility.yul\":7815:7820   */\n      dup4\n        /* \"#utility.yul\":7811:7825   */\n      add\n        /* \"#utility.yul\":7807:7830   */\n      div\n        /* \"#utility.yul\":7797:7830   */\n      swap1\n      pop\n        /* \"#utility.yul\":7743:7836   */\n      swap2\n      swap1\n      pop\n      jump\t// out\n        /* \"#utility.yul\":7842:7949   */\n    tag_77:\n        /* \"#utility.yul\":7886:7894   */\n      0x00\n        /* \"#utility.yul\":7936:7941   */\n      dup3\n        /* \"#utility.yul\":7930:7934   */\n      dup3\n        /* \"#utility.yul\":7926:7942   */\n      shl\n        /* \"#utility.yul\":7905:7942   */\n      swap1\n      pop\n        /* \"#utility.yul\":7842:7949   */\n      swap3\n      swap2\n      pop\n      pop\n      jump\t// out\n        /* \"#utility.yul\":7955:8348   */\n    tag_78:\n        /* \"#utility.yul\":8024:8030   */\n      0x00\n        /* \"#utility.yul\":8074:8075   */\n      0x08\n        /* \"#utility.yul\":8062:8072   */\n      dup4\n        /* \"#utility.yul\":8058:8076   */\n      mul\n        /* \"#utility.yul\":8097:8194   */\n      tag_179\n        /* \"#utility.yul\":8127:8193   */\n      0xffffffffffffffffffffffffffffffffffffffffffffffffffffffffffffffff\n        /* \"#utility.yul\":8116:8125   */\n      dup3\n        /* \"#utility.yul\":8097:8194   */\n      tag_77\n      jump\t// in\n    tag_179:\n        /* \"#utility.yul\":8215:8254   */\n      tag_180\n        /* \"#utility.yul\":8245:8253   */\n      dup7\n        /* \"#utility.yul\":8234:8243   */\n      dup4\n        /* \"#utility.yul\":8215:8254   */\n      tag_77\n      jump\t// in\n    tag_180:\n        /* \"#utility.yul\":8203:8254   */\n      swap6\n      pop\n        /* \"#utility.yul\":8287:8291   */\n      dup1\n        /* \"#utility.yul\":8283:8292   */\n      not\n        /* \"#utility.yul\":8276:8281   */\n      dup5\n        /* \"#utility.yul\":8272:8293   */\n      and\n        /* \"#utility.yul\":8263:8293   */\n      swap4\n      pop\n        /* \"#utility.yul\":8336:8340   */\n      dup1\n        /* \"#utility.yul\":8326:8334   */\n      dup7\n        /* \"#utility.yul\":8322:8341   */\n      and\n        /* \"#utility.yul\":8315:8320   */\n      dup5\n        /* \"#utility.yul\":8312:8342   */\n      or\n        /* \"#utility.yul\":8302:8342   */\n      swap3\n      pop\n        /* \"#utility.yul\":8031:8348   */\n      pop\n      pop\n        /* \"#utility.yul\":7955:8348   */\n      swap4\n      swap3\n      pop\n      pop\n      pop\n      jump\t// out\n        /* \"#utility.yul\":8354:8414   */\n    tag_79:\n        /* \"#utility.yul\":8382:8385   */\n      0x00\n        /* \"#utility.yul\":8403:8408   */\n      dup2\n        /* \"#utility.yul\":8396:8408   */\n      swap1\n      pop\n        /* \"#utility.yul\":8354:8414   */\n      swap2\n      swap1\n      pop\n      jump\t// out\n        /* \"#utility.yul\":8420:8562   */\n    tag_80:\n        /* \"#utility.yul\":8470:8479   */\n      0x00\n        /* \"#utility.yul\":8503:8556   */\n      tag_183\n        /* \"#utility.yul\":8521:8555   */\n      tag_184\n        /* \"#utility.yul\":8530:8554   */\n      tag_185\n        /* \"#utility.yul\":8548:8553   */\n      dup5\n        /* \"#utility.yul\":8530:8554   */\n      tag_50\n      jump\t// in\n    tag_185:\n        /* \"#utility.yul\":8521:8555   */\n      tag_79\n      jump\t// in\n    tag_184:\n        /* \"#utility.yul\":8503:8556   */\n      tag_50\n      jump\t// in\n    tag_183:\n        /* \"#utility.yul\":8490:8556   */\n      swap1\n      pop\n        /* \"#utility.yul\":8420:8562   */\n      swap2\n      swap1\n      pop\n      jump\t// out\n        /* \"#utility.yul\":8568:8643   */\n    tag_81:\n        /* \"#utility.yul\":8611:8614   */\n      0x00\n        /* \"#utility.yul\":8632:8637   */\n      dup2\n        /* \"#utility.yul\":8625:8637   */\n      swap1\n      pop\n        /* \"#utility.yul\":8568:8643   */\n      swap2\n      swap1\n      pop\n      jump\t// out\n        /* \"#utility.yul\":8649:8918   */\n    tag_82:\n        /* \"#utility.yul\":8759:8798   */\n      tag_188\n        /* \"#utility.yul\":8790:8797   */\n      dup4\n        /* \"#utility.yul\":8759:8798   */\n      tag_80\n      jump\t// in\n    tag_188:\n        /* \"#utility.yul\":8820:8911   */\n      tag_189\n        /* \"#utility.yul\":8869:8910   */\n      tag_190\n        /* \"#utility.yul\":8893:8909   */\n      dup3\n        /* \"#utility.yul\":8869:8910   */\n      tag_81\n      jump\t// in\n    tag_190:\n        /* \"#utility.yul\":8861:8867   */\n      dup5\n        /* \"#utility.yul\":8854:8858   */\n      dup5\n        /* \"#utility.yul\":8848:8859   */\n      sload\n        /* \"#utility.yul\":8820:8911   */\n      tag_78\n      jump\t// in\n    tag_189:\n        /* \"#utility.yul\":8814:8818   */\n      dup3\n        /* \"#utility.yul\":8807:8912   */\n      sstore\n        /* \"#utility.yul\":8725:8918   */\n      pop\n        /* \"#utility.yul\":8649:8918   */\n      pop\n      pop\n      pop\n      jump\t// out\n        /* \"#utility.yul\":8924:8997   */\n    tag_83:\n        /* \"#utility.yul\":8969:8972   */\n      0x00\n        /* \"#utility.yul\":8990:8991   */\n      0x00\n        /* \"#utility.yul\":8983:8991   */\n      swap1\n      pop\n        /* \"#utility.yul\":8924:8997   */\n      swap1\n      jump\t// out\n        /* \"#utility.yul\":9003:9192   */\n    tag_84:\n        /* \"#utility.yul\":9080:9112   */\n      tag_193\n      tag_83\n      jump\t// in\n    tag_193:\n        /* \"#utility.yul\":9121:9186   */\n      tag_194\n        /* \"#utility.yul\":9179:9185   */\n      dup2\n        /* \"#utility.yul\":9171:9177   */\n      dup5\n        /* \"#utility.yul\":9165:9169   */\n      dup5\n        /* \"#utility.yul\":9121:9186   */\n      tag_82\n      jump\t// in\n    tag_194:\n        /* \"#utility.yul\":9056:9192   */\n      pop\n        /* \"#utility.yul\":9003:9192   */\n      pop\n      pop\n      jump\t// out\n        /* \"#utility.yul\":9198:9384   */\n    tag_85:\n        /* \"#utility.yul\":9258:9378   */\n    tag_196:\n        /* \"#utility.yul\":9275:9278   */\n      dup2\n        /* \"#utility.yul\":9268:9273   */\n      dup2\n        /* \"#utility.yul\":9265:9279   */\n      lt\n        /* \"#utility.yul\":9258:9378   */\n      iszero\n      tag_198\n      jumpi\n        /* \"#utility.yul\":9329:9368   */\n      tag_199\n        /* \"#utility.yul\":9366:9367   */\n      0x00\n        /* \"#utility.yul\":9359:9364   */\n      dup3\n        /* \"#utility.yul\":9329:9368   */\n      tag_84\n      jump\t// in\n    tag_199:\n        /* \"#utility.yul\":9302:9303   */\n      0x01\n        /* \"#utility.yul\":9295:9300   */\n      dup2\n        /* \"#utility.yul\":9291:9304   */\n      add\n        /* \"#utility.yul\":9282:9304   */\n      swap1\n      pop\n        /* \"#utility.yul\":9258:9378   */\n      jump(tag_196)\n    tag_198:\n        /* \"#utility.yul\":9198:9384   */\n      pop\n      pop\n      jump\t// out\n        /* \"#utility.yul\":9390:9933   */\n    tag_86:\n        /* \"#utility.yul\":9491:9493   */\n      0x1f\n        /* \"#utility.yul\":9486:9489   */\n      dup3\n        /* \"#utility.yul\":9483:9494   */\n      gt\n        /* \"#utility.yul\":9480:9926   */\n      iszero\n      tag_201\n      jumpi\n        /* \"#utility.yul\":9525:9563   */\n      tag_202\n        /* \"#utility.yul\":9557:9562   */\n      dup2\n        /* \"#utility.yul\":9525:9563   */\n      tag_75\n      jump\t// in\n    tag_202:\n        /* \"#utility.yul\":9609:9638   */\n      tag_203\n        /* \"#utility.yul\":9627:9637   */\n      dup5\n        /* \"#utility.yul\":9609:9638   */\n      tag_76\n      jump\t// in\n    tag_203:\n        /* \"#utility.yul\":9599:9607   */\n      dup2\n        /* \"#utility.yul\":9595:9639   */\n      add\n        /* \"#utility.yul\":9792:9794   */\n      0x20\n        /* \"#utility.yul\":9780:9790   */\n      dup6\n        /* \"#utility.yul\":9777:9795   */\n      lt\n        /* \"#utility.yul\":9774:9823   */\n      iszero\n      tag_204\n      jumpi\n        /* \"#utility.yul\":9813:9821   */\n      dup2\n        /* \"#utility.yul\":9798:9821   */\n      swap1\n      pop\n        /* \"#utility.yul\":9774:9823   */\n    tag_204:\n        /* \"#utility.yul\":9836:9916   */\n      tag_205\n        /* \"#utility.yul\":9892:9914   */\n      tag_206\n        /* \"#utility.yul\":9910:9913   */\n      dup6\n        /* \"#utility.yul\":9892:9914   */\n      tag_76\n      jump\t// in\n    tag_206:\n        /* \"#utility.yul\":9882:9890   */\n      dup4\n        /* \"#utility.yul\":9878:9915   */\n      add\n        /* \"#utility.yul\":9865:9876   */\n      dup3\n        /* \"#utility.yul\":9836:9916   */\n      tag_85\n      jump\t// in\n    tag_205:\n        /* \"#utility.yul\":9495:9926   */\n      pop\n      pop\n        /* \"#utility.yul\":9480:9926   */\n    tag_201:\n        /* \"#utility.yul\":9390:9933   */\n      pop\n      pop\n      pop\n      jump\t// out\n        /* \"#utility.yul\":9939:10056   */\n    tag_87:\n        /* \"#utility.yul\":9993:10001   */\n      0x00\n        /* \"#utility.yul\":10043:10048   */\n      dup3\n        /* \"#utility.yul\":10037:10041   */\n      dup3\n        /* \"#utility.yul\":10033:10049   */\n      shr\n        /* \"#utility.yul\":10012:10049   */\n      swap1\n      pop\n        /* \"#utility.yul\":9939:10056   */\n      swap3\n      swap2\n      pop\n      pop\n      jump\t// out\n        /* \"#utility.yul\":10062:10231   */\n    tag_88:\n        /* \"#utility.yul\":10106:10112   */\n      0x00\n        /* \"#utility.yul\":10139:10190   */\n      tag_209\n        /* \"#utility.yul\":10187:10188   */\n      0x00\n        /* \"#utility.yul\":10183:10189   */\n      not\n        /* \"#utility.yul\":10175:10180   */\n      dup5\n        /* \"#utility.yul\":10172:10173   */\n      0x08\n        /* \"#utility.yul\":10168:10181   */\n      mul\n        /* \"#utility.yul\":10139:10190   */\n      tag_87\n      jump\t// in\n    tag_209:\n        /* \"#utility.yul\":10135:10191   */\n      not\n        /* \"#utility.yul\":10220:10224   */\n      dup1\n        /* \"#utility.yul\":10214:10218   */\n      dup4\n        /* \"#utility.yul\":10210:10225   */\n      and\n        /* \"#utility.yul\":10200:10225   */\n      swap2\n      pop\n        /* \"#utility.yul\":10113:10231   */\n      pop\n        /* \"#utility.yul\":10062:10231   */\n      swap3\n      swap2\n      pop\n      pop\n      jump\t// out\n        /* \"#utility.yul\":10236:10531   */\n    tag_89:\n        /* \"#utility.yul\":10312:10316   */\n      0x00\n        /* \"#utility.yul\":10458:10487   */\n      tag_211\n        /* \"#utility.yul\":10483:10486   */\n      dup4\n        /* \"#utility.yul\":10477:10481   */\n      dup4\n        /* \"#utility.yul\":10458:10487   */\n      tag_88\n      jump\t// in\n    tag_211:\n        /* \"#utility.yul\":10450:10487   */\n      swap2\n      pop\n        /* \"#utility.yul\":10520:10523   */\n      dup3\n        /* \"#utility.yul\":10517:10518   */\n      0x02\n        /* \"#utility.yul\":10513:10524   */\n      mul\n        /* \"#utility.yul\":10507:10511   */\n      dup3\n        /* \"#utility.yul\":10504:10525   */\n      or\n        /* \"#utility.yul\":10496:10525   */\n      swap1\n      pop\n        /* \"#utility.yul\":10236:10531   */\n      swap3\n      swap2\n      pop\n      pop\n      jump\t// out\n        /* \"#utility.yul\":10536:11939   */\n    tag_25:\n        /* \"#utility.yul\":10660:10704   */\n      tag_213\n        /* \"#utility.yul\":10700:10703   */\n      dup4\n        /* \"#utility.yul\":10695:10698   */\n      dup4\n        /* \"#utility.yul\":10660:10704   */\n      tag_72\n      jump\t// in\n    tag_213:\n        /* \"#utility.yul\":10769:10787   */\n      0xffffffffffffffff\n        /* \"#utility.yul\":10761:10767   */\n      dup2\n        /* \"#utility.yul\":10758:10788   */\n      gt\n        /* \"#utility.yul\":10755:10811   */\n      iszero\n      tag_214\n      jumpi\n        /* \"#utility.yul\":10791:10809   */\n      tag_215\n      tag_73\n      jump\t// in\n    tag_215:\n        /* \"#utility.yul\":10755:10811   */\n    tag_214:\n        /* \"#utility.yul\":10835:10873   */\n      tag_216\n        /* \"#utility.yul\":10867:10871   */\n      dup3\n        /* \"#utility.yul\":10861:10872   */\n      sload\n        /* \"#utility.yul\":10835:10873   */\n      tag_37\n      jump\t// in\n    tag_216:\n        /* \"#utility.yul\":10920:10987   */\n      tag_217\n        /* \"#utility.yul\":10980:10986   */\n      dup3\n        /* \"#utility.yul\":10972:10978   */\n      dup3\n        /* \"#utility.yul\":10966:10970   */\n      dup6\n        /* \"#utility.yul\":10920:10987   */\n      tag_86\n      jump\t// in\n    tag_217:\n        /* \"#utility.yul\":11014:11015   */\n      0x00\n        /* \"#utility.yul\":11043:11045   */\n      0x1f\n        /* \"#utility.yul\":11035:11041   */\n      dup4\n        /* \"#utility.yul\":11032:11046   */\n      gt\n        /* \"#utility.yul\":11060:11061   */\n      0x01\n        /* \"#utility.yul\":11055:11687   */\n      dup2\n      eq\n      tag_219\n      jumpi\n        /* \"#utility.yul\":11731:11732   */\n      0x00\n        /* \"#utility.yul\":11748:11754   */\n      dup5\n        /* \"#utility.yul\":11745:11829   */\n      iszero\n      tag_220\n      jumpi\n        /* \"#utility.yul\":11804:11813   */\n      dup3\n        /* \"#utility.yul\":11799:11802   */\n      dup8\n        /* \"#utility.yul\":11795:11814   */\n      add\n        /* \"#utility.yul\":11782:11815   */\n      calldataload\n        /* \"#utility.yul\":11773:11815   */\n      swap1\n      pop\n        /* \"#utility.yul\":11745:11829   */\n    tag_220:\n        /* \"#utility.yul\":11855:11922   */\n      tag_221\n        /* \"#utility.yul\":11915:11921   */\n      dup6\n        /* \"#utility.yul\":11908:11913   */\n      dup3\n        /* \"#utility.yul\":11855:11922   */\n      tag_89\n      jump\t// in\n    tag_221:\n        /* \"#utility.yul\":11849:11853   */\n      dup7\n        /* \"#utility.yul\":11842:11923   */\n      sstore\n        /* \"#utility.yul\":11704:11933   */\n      pop\n        /* \"#utility.yul\":11025:11933   */\n      jump(tag_218)\n        /* \"#utility.yul\":11055:11687   */\n    tag_219:\n        /* \"#utility.yul\":11107:11111   */\n      0x1f\n        /* \"#utility.yul\":11103:11112   */\n      not\n        /* \"#utility.yul\":11095:11101   */\n      dup5\n        /* \"#utility.yul\":11091:11113   */\n      and\n        /* \"#utility.yul\":11141:11178   */\n      tag_222\n        /* \"#utility.yul\":11173:11177   */\n      dup7\n        /* \"#utility.yul\":11141:11178   */\n      tag_75\n      jump\t// in\n    tag_222:\n        /* \"#utility.yul\":11200:11201   */\n      0x00\n        /* \"#utility.yul\":11214:11429   */\n    tag_223:\n        /* \"#utility.yul\":11228:11235   */\n      dup3\n        /* \"#utility.yul\":11225:11226   */\n      dup2\n        /* \"#utility.yul\":11222:11236   */\n      lt\n        /* \"#utility.yul\":11214:11429   */\n      iszero\n      tag_225\n      jumpi\n        /* \"#utility.yul\":11314:11323   */\n      dup5\n        /* \"#utility.yul\":11309:11312   */\n      dup10\n        /* \"#utility.yul\":11305:11324   */\n      add\n        /* \"#utility.yul\":11292:11325   */\n      calldataload\n        /* \"#utility.yul\":11284:11290   */\n      dup3\n        /* \"#utility.yul\":11277:11326   */\n      sstore\n        /* \"#utility.yul\":11365:11366   */\n      0x01\n        /* \"#utility.yul\":11357:11363   */\n      dup3\n        /* \"#utility.yul\":11353:11367   */\n      add\n        /* \"#utility.yul\":11343:11367   */\n      swap2\n      pop\n        /* \"#utility.yul\":11412:11414   */\n      0x20\n        /* \"#utility.yul\":11401:11410   */\n      dup6\n        /* \"#utility.yul\":11397:11415   */\n      add\n        /* \"#utility.yul\":11384:11415   */\n      swap5\n      pop\n        /* \"#utility.yul\":11251:11255   */\n      0x20\n        /* \"#utility.yul\":11248:11249   */\n      dup2\n        /* \"#utility.yul\":11244:11256   */\n      add\n        /* \"#utility.yul\":11239:11256   */\n      swap1\n      pop\n        /* \"#utility.yul\":11214:11429   */\n      jump(tag_223)\n    tag_225:\n        /* \"#utility.yul\":11457:11463   */\n      dup7\n        /* \"#utility.yul\":11448:11455   */\n      dup4\n        /* \"#utility.yul\":11445:11464   */\n      lt\n        /* \"#utility.yul\":11442:11628   */\n      iszero\n      tag_226\n      jumpi\n        /* \"#utility.yul\":11522:11531   */\n      dup5\n        /* \"#utility.yul\":11517:11520   */\n      dup10\n        /* \"#utility.yul\":11513:11532   */\n      add\n        /* \"#utility.yul\":11500:11533   */\n      calldataload\n        /* \"#utility.yul\":11565:11613   */\n      tag_227\n        /* \"#utility.yul\":11607:11611   */\n      0x1f\n        /* \"#utility.yul\":11599:11605   */\n      dup10\n        /* \"#utility.yul\":11595:11612   */\n      and\n        /* \"#utility.yul\":11584:11593   */\n      dup3\n        /* \"#utility.yul\":11565:11613   */\n      tag_88\n      jump\t// in\n    tag_227:\n        /* \"#utility.yul\":11557:11563   */\n      dup4\n        /* \"#utility.yul\":11550:11614   */\n      sstore\n        /* \"#utility.yul\":11465:11628   */\n      pop\n        /* \"#utility.yul\":11442:11628   */\n    tag_226:\n        /* \"#utility.yul\":11674:11675   */\n      0x01\n        /* \"#utility.yul\":11670:11671   */\n      0x02\n        /* \"#utility.yul\":11662:11668   */\n      dup9\n        /* \"#utility.yul\":11658:11672   */\n      mul\n        /* \"#utility.yul\":11654:11676   */\n      add\n        /* \"#utility.yul\":11648:11652   */\n      dup9\n        /* \"#utility.yul\":11641:11677   */\n      sstore\n        /* \"#utility.yul\":11062:11687   */\n      pop\n      pop\n      pop\n        /* \"#utility.yul\":11025:11933   */\n    tag_218:\n      pop\n        /* \"#utility.yul\":10635:11939   */\n      pop\n      pop\n      pop\n        /* \"#utility.yul\":10536:11939   */\n      pop\n      pop\n      pop\n      jump\t// out\n        /* \"#utility.yul\":11945:12125   */\n    tag_90:\n        /* \"#utility.yul\":11993:12070   */\n      0x4e487b7100000000000000000000000000000000000000000000000000000000\n        /* \"#utility.yul\":11990:11991   */\n      0x00\n        /* \"#utility.yul\":11983:12071   */\n      mstore\n        /* \"#utility.yul\":12090:12094   */\n      0x11\n        /* \"#utility.yul\":12087:12088   */\n      0x04\n        /* \"#utility.yul\":12080:12095   */\n      mstore\n        /* \"#utility.yul\":12114:12118   */\n      0x24\n        /* \"#utility.yul\":12111:12112   */\n      0x00\n        /* \"#utility.yul\":12104:12119   */\n      revert\n        /* \"#utility.yul\":12131:12541   */\n    tag_28:\n        /* \"#utility.yul\":12171:12178   */\n      0x00\n        /* \"#utility.yul\":12194:12214   */\n      tag_230\n        /* \"#utility.yul\":12212:12213   */\n      dup3\n        /* \"#utility.yul\":12194:12214   */\n      tag_50\n      jump\t// in\n    tag_230:\n        /* \"#utility.yul\":12189:12214   */\n      swap2\n      pop\n        /* \"#utility.yul\":12228:12248   */\n      tag_231\n        /* \"#utility.yul\":12246:12247   */\n      dup4\n        /* \"#utility.yul\":12228:12248   */\n      tag_50\n      jump\t// in\n    tag_231:\n        /* \"#utility.yul\":12223:12248   */\n      swap3\n      pop\n        /* \"#utility.yul\":12283:12284   */\n      dup3\n        /* \"#utility.yul\":12280:12281   */\n      dup3\n        /* \"#utility.yul\":12276:12285   */\n      mul\n        /* \"#utility.yul\":12305:12335   */\n      tag_232\n        /* \"#utility.yul\":12323:12334   */\n      dup2\n        /* \"#utility.yul\":12305:12335   */\n      tag_50\n      jump\t// in\n    tag_232:\n        /* \"#utility.yul\":12294:12335   */\n      swap2\n      pop\n        /* \"#utility.yul\":12484:12485   */\n      dup3\n        /* \"#utility.yul\":12475:12482   */\n      dup3\n        /* \"#utility.yul\":12471:12486   */\n      div\n        /* \"#utility.yul\":12468:12469   */\n      dup5\n        /* \"#utility.yul\":12465:12487   */\n      eq\n        /* \"#utility.yul\":12445:12446   */\n      dup4\n        /* \"#utility.yul\":12438:12447   */\n      iszero\n        /* \"#utility.yul\":12418:12501   */\n      or\n        /* \"#utility.yul\":12395:12534   */\n      tag_233\n      jumpi\n        /* \"#utility.yul\":12514:12532   */\n      tag_234\n      tag_90\n      jump\t// in\n    tag_234:\n        /* \"#utility.yul\":12395:12534   */\n    tag_233:\n        /* \"#utility.yul\":12179:12541   */\n      pop\n        /* \"#utility.yul\":12131:12541   */\n      swap3\n      swap2\n      pop\n      pop\n      jump\t// out\n        /* \"#utility.yul\":12547:12738   */\n    tag_30:\n        /* \"#utility.yul\":12587:12590   */\n      0x00\n        /* \"#utility.yul\":12606:12626   */\n      tag_236\n        /* \"#utility.yul\":12624:12625   */\n      dup3\n        /* \"#utility.yul\":12606:12626   */\n      tag_50\n      jump\t// in\n    tag_236:\n        /* \"#utility.yul\":12601:12626   */\n      swap2\n      pop\n        /* \"#utility.yul\":12640:12660   */\n      tag_237\n        /* \"#utility.yul\":12658:12659   */\n      dup4\n        /* \"#utility.yul\":12640:12660   */\n      tag_50\n      jump\t// in\n    tag_237:\n        /* \"#utility.yul\":12635:12660   */\n      swap3\n      pop\n        /* \"#utility.yul\":12683:12684   */\n      dup3\n        /* \"#utility.yul\":12680:12681   */\n      dup3\n        /* \"#utility.yul\":12676:12685   */\n      add\n        /* \"#utility.yul\":12669:12685   */\n      swap1\n      pop\n        /* \"#utility.yul\":12704:12707   */\n      dup1\n        /* \"#utility.yul\":12701:12702   */\n      dup3\n        /* \"#utility.yul\":12698:12708   */\n      gt\n        /* \"#utility.yul\":12695:12731   */\n      iszero\n      tag_238\n      jumpi\n        /* \"#utility.yul\":12711:12729   */\n      tag_239\n      tag_90\n      jump\t// in\n    tag_239:\n        /* \"#utility.yul\":12695:12731   */\n    tag_238:\n        /* \"#utility.yul\":12547:12738   */\n      swap3\n      swap2\n      pop\n      pop\n      jump\t// out\n        /* \"#utility.yul\":12744:12977   */\n    tag_35:\n        /* \"#utility.yul\":12783:12786   */\n      0x00\n        /* \"#utility.yul\":12806:12830   */\n      tag_241\n        /* \"#utility.yul\":12824:12829   */\n      dup3\n        /* \"#utility.yul\":12806:12830   */\n      tag_50\n      jump\t// in\n    tag_241:\n        /* \"#utility.yul\":12797:12830   */\n      swap2\n      pop\n        /* \"#utility.yul\":12852:12918   */\n      0xffffffffffffffffffffffffffffffffffffffffffffffffffffffffffffffff\n        /* \"#utility.yul\":12845:12850   */\n      dup3\n        /* \"#utility.yul\":12842:12919   */\n      sub\n        /* \"#utility.yul\":12839:12942   */\n      tag_242\n      jumpi\n        /* \"#utility.yul\":12922:12940   */\n      tag_243\n      tag_90\n      jump\t// in\n    tag_243:\n        /* \"#utility.yul\":12839:12942   */\n    tag_242:\n        /* \"#utility.yul\":12969:12970   */\n      0x01\n        /* \"#utility.yul\":12962:12967   */\n      dup3\n        /* \"#utility.yul\":12958:12971   */\n      add\n        /* \"#utility.yul\":12951:12971   */\n      swap1\n      pop\n        /* \"#utility.yul\":12744:12977   */\n      swap2\n      swap1\n      pop\n      jump\t// out\n\n    auxdata: 0xa264697066735822122098de4680038313eff8406fd110d992391c522ef61be04e9d89f3c8e557764c1864736f6c634300081c0033\n}\n",
				"bytecode": {
					"linkReferences": {},
					"object": "6080604052348015600e575f5ffd5b50604051610ca6380380610ca68339818101604052810190602e9190606c565b80600181905550506092565b5f5ffd5b5f819050919050565b604e81603e565b81146057575f5ffd5b50565b5f815190506066816047565b92915050565b5f60208284031215607e57607d603a565b5b5f608984828501605a565b91505092915050565b610c078061009f5f395ff3fe608060405234801561000f575f5ffd5b506004361061003f575f3560e01c80630657298f146100435780636925b1f91461005f578063b98a9cda1461007b575b5f5ffd5b61005d60048036038101906100589190610524565b6100b1565b005b610079600480360381019061007491906105c3565b6101c0565b005b61009560048036038101906100909190610641565b610319565b6040516100a8979695949392919061076d565b60405180910390f35b60025f8381526020019081526020015f2060050181908060018154018082558091505060019003905f5260205f20015f9091909190916101000a81548173ffffffffffffffffffffffffffffffffffffffff021916908373ffffffffffffffffffffffffffffffffffffffff1602179055503373ffffffffffffffffffffffffffffffffffffffff1660025f8481526020019081526020015f2060040160019054906101000a900473ffffffffffffffffffffffffffffffffffffffff1673ffffffffffffffffffffffffffffffffffffffff16146101bc576040517f46db40c400000000000000000000000000000000000000000000000000000000815260040160405180910390fd5b5050565b838360025f5f5481526020019081526020015f205f0191826101e3929190610a1c565b50818160025f5f5481526020019081526020015f206001019182610208929190610a1c565b504260025f5f5481526020019081526020015f2060020181905550620151806001546102349190610b16565b60025f5f5481526020019081526020015f20600201546102549190610b57565b60025f5f5481526020019081526020015f20600301819055505f60025f5f5481526020019081526020015f206004015f6101000a81548160ff021916908360028111156102a4576102a36106eb565b5b02179055503360025f5f5481526020019081526020015f2060040160016101000a81548173ffffffffffffffffffffffffffffffffffffffff021916908373ffffffffffffffffffffffffffffffffffffffff1602179055505f5f81548092919061030e90610b8a565b919050555050505050565b6002602052805f5260405f205f91509050805f0180546103389061084c565b80601f01602080910402602001604051908101604052809291908181526020018280546103649061084c565b80156103af5780601f10610386576101008083540402835291602001916103af565b820191905f5260205f20905b81548152906001019060200180831161039257829003601f168201915b5050505050908060010180546103c49061084c565b80601f01602080910402602001604051908101604052809291908181526020018280546103f09061084c565b801561043b5780601f106104125761010080835404028352916020019161043b565b820191905f5260205f20905b81548152906001019060200180831161041e57829003601f168201915b505050505090806002015490806003015490806004015f9054906101000a900460ff16908060040160019054906101000a900473ffffffffffffffffffffffffffffffffffffffff16908060060154905087565b5f5ffd5b5f5ffd5b5f819050919050565b6104a981610497565b81146104b3575f5ffd5b50565b5f813590506104c4816104a0565b92915050565b5f73ffffffffffffffffffffffffffffffffffffffff82169050919050565b5f6104f3826104ca565b9050919050565b610503816104e9565b811461050d575f5ffd5b50565b5f8135905061051e816104fa565b92915050565b5f5f6040838503121561053a5761053961048f565b5b5f610547858286016104b6565b925050602061055885828601610510565b9150509250929050565b5f5ffd5b5f5ffd5b5f5ffd5b5f5f83601f84011261058357610582610562565b5b8235905067ffffffffffffffff8111156105a05761059f610566565b5b6020830191508360018202830111156105bc576105bb61056a565b5b9250929050565b5f5f5f5f604085870312156105db576105da61048f565b5b5f85013567ffffffffffffffff8111156105f8576105f7610493565b5b6106048782880161056e565b9450945050602085013567ffffffffffffffff81111561062757610626610493565b5b6106338782880161056e565b925092505092959194509250565b5f602082840312156106565761065561048f565b5b5f610663848285016104b6565b91505092915050565b5f81519050919050565b5f82825260208201905092915050565b8281835e5f83830152505050565b5f601f19601f8301169050919050565b5f6106ae8261066c565b6106b88185610676565b93506106c8818560208601610686565b6106d181610694565b840191505092915050565b6106e581610497565b82525050565b7f4e487b71000000000000000000000000000000000000000000000000000000005f52602160045260245ffd5b60038110610729576107286106eb565b5b50565b5f81905061073982610718565b919050565b5f6107488261072c565b9050919050565b6107588161073e565b82525050565b610767816104e9565b82525050565b5f60e0820190508181035f830152610785818a6106a4565b9050818103602083015261079981896106a4565b90506107a860408301886106dc565b6107b560608301876106dc565b6107c2608083018661074f565b6107cf60a083018561075e565b6107dc60c08301846106dc565b98975050505050505050565b5f82905092915050565b7f4e487b71000000000000000000000000000000000000000000000000000000005f52604160045260245ffd5b7f4e487b71000000000000000000000000000000000000000000000000000000005f52602260045260245ffd5b5f600282049050600182168061086357607f821691505b6020821081036108765761087561081f565b5b50919050565b5f819050815f5260205f209050919050565b5f6020601f8301049050919050565b5f82821b905092915050565b5f600883026108d87fffffffffffffffffffffffffffffffffffffffffffffffffffffffffffffffff8261089d565b6108e2868361089d565b95508019841693508086168417925050509392505050565b5f819050919050565b5f61091d61091861091384610497565b6108fa565b610497565b9050919050565b5f819050919050565b61093683610903565b61094a61094282610924565b8484546108a9565b825550505050565b5f5f905090565b610961610952565b61096c81848461092d565b505050565b5b8181101561098f576109845f82610959565b600181019050610972565b5050565b601f8211156109d4576109a58161087c565b6109ae8461088e565b810160208510156109bd578190505b6109d16109c98561088e565b830182610971565b50505b505050565b5f82821c905092915050565b5f6109f45f19846008026109d9565b1980831691505092915050565b5f610a0c83836109e5565b9150826002028217905092915050565b610a2683836107e8565b67ffffffffffffffff811115610a3f57610a3e6107f2565b5b610a49825461084c565b610a54828285610993565b5f601f831160018114610a81575f8415610a6f578287013590505b610a798582610a01565b865550610ae0565b601f198416610a8f8661087c565b5f5b82811015610ab657848901358255600182019150602085019450602081019050610a91565b86831015610ad35784890135610acf601f8916826109e5565b8355505b6001600288020188555050505b50505050505050565b7f4e487b71000000000000000000000000000000000000000000000000000000005f52601160045260245ffd5b5f610b2082610497565b9150610b2b83610497565b9250828202610b3981610497565b91508282048414831517610b5057610b4f610ae9565b5b5092915050565b5f610b6182610497565b9150610b6c83610497565b9250828201905080821115610b8457610b83610ae9565b5b92915050565b5f610b9482610497565b91507fffffffffffffffffffffffffffffffffffffffffffffffffffffffffffffffff8203610bc657610bc5610ae9565b5b60018201905091905056fea264697066735822122098de4680038313eff8406fd110d992391c522ef61be04e9d89f3c8e557764c1864736f6c634300081c0033",
					"opcodes": "PUSH1 0x80 PUSH1 0x40 MSTORE CALLVALUE DUP1 ISZERO PUSH1 0xE JUMPI PUSH0 PUSH0 REVERT JUMPDEST POP PUSH1 0x40 MLOAD PUSH2 0xCA6 CODESIZE SUB DUP1 PUSH2 0xCA6 DUP4 CODECOPY DUP2 DUP2 ADD PUSH1 0x40 MSTORE DUP2 ADD SWAP1 PUSH1 0x2E SWAP2 SWAP1 PUSH1 0x6C JUMP JUMPDEST DUP1 PUSH1 0x1 DUP2 SWAP1 SSTORE POP POP PUSH1 0x92 JUMP JUMPDEST PUSH0 PUSH0 REVERT JUMPDEST PUSH0 DUP2 SWAP1 POP SWAP2 SWAP1 POP JUMP JUMPDEST PUSH1 0x4E DUP2 PUSH1 0x3E JUMP JUMPDEST DUP2 EQ PUSH1 0x57 JUMPI PUSH0 PUSH0 REVERT JUMPDEST POP JUMP JUMPDEST PUSH0 DUP2 MLOAD SWAP1 POP PUSH1 0x66 DUP2 PUSH1 0x47 JUMP JUMPDEST SWAP3 SWAP2 POP POP JUMP JUMPDEST PUSH0 PUSH1 0x20 DUP3 DUP5 SUB SLT ISZERO PUSH1 0x7E JUMPI PUSH1 0x7D PUSH1 0x3A JUMP JUMPDEST JUMPDEST PUSH0 PUSH1 0x89 DUP5 DUP3 DUP6 ADD PUSH1 0x5A JUMP JUMPDEST SWAP2 POP POP SWAP3 SWAP2 POP POP JUMP JUMPDEST PUSH2 0xC07 DUP1 PUSH2 0x9F PUSH0 CODECOPY PUSH0 RETURN INVALID PUSH1 0x80 PUSH1 0x40 MSTORE CALLVALUE DUP1 ISZERO PUSH2 0xF JUMPI PUSH0 PUSH0 REVERT JUMPDEST POP PUSH1 0x4 CALLDATASIZE LT PUSH2 0x3F JUMPI PUSH0 CALLDATALOAD PUSH1 0xE0 SHR DUP1 PUSH4 0x657298F EQ PUSH2 0x43 JUMPI DUP1 PUSH4 0x6925B1F9 EQ PUSH2 0x5F JUMPI DUP1 PUSH4 0xB98A9CDA EQ PUSH2 0x7B JUMPI JUMPDEST PUSH0 PUSH0 REVERT JUMPDEST PUSH2 0x5D PUSH1 0x4 DUP1 CALLDATASIZE SUB DUP2 ADD SWAP1 PUSH2 0x58 SWAP2 SWAP1 PUSH2 0x524 JUMP JUMPDEST PUSH2 0xB1 JUMP JUMPDEST STOP JUMPDEST PUSH2 0x79 PUSH1 0x4 DUP1 CALLDATASIZE SUB DUP2 ADD SWAP1 PUSH2 0x74 SWAP2 SWAP1 PUSH2 0x5C3 JUMP JUMPDEST PUSH2 0x1C0 JUMP JUMPDEST STOP JUMPDEST PUSH2 0x95 PUSH1 0x4 DUP1 CALLDATASIZE SUB DUP2 ADD SWAP1 PUSH2 0x90 SWAP2 SWAP1 PUSH2 0x641 JUMP JUMPDEST PUSH2 0x319 JUMP JUMPDEST PUSH1 0x40 MLOAD PUSH2 0xA8 SWAP8 SWAP7 SWAP6 SWAP5 SWAP4 SWAP3 SWAP2 SWAP1 PUSH2 0x76D JUMP JUMPDEST PUSH1 0x40 MLOAD DUP1 SWAP2 SUB SWAP1 RETURN JUMPDEST PUSH1 0x2 PUSH0 DUP4 DUP2 MSTORE PUSH1 0x20 ADD SWAP1 DUP2 MSTORE PUSH1 0x20 ADD PUSH0 KECCAK256 PUSH1 0x5 ADD DUP2 SWAP1 DUP1 PUSH1 0x1 DUP2 SLOAD ADD DUP1 DUP3 SSTORE DUP1 SWAP2 POP POP PUSH1 0x1 SWAP1 SUB SWAP1 PUSH0 MSTORE PUSH1 0x20 PUSH0 KECCAK256 ADD PUSH0 SWAP1 SWAP2 SWAP1 SWAP2 SWAP1 SWAP2 PUSH2 0x100 EXP DUP2 SLOAD DUP2 PUSH20 0xFFFFFFFFFFFFFFFFFFFFFFFFFFFFFFFFFFFFFFFF MUL NOT AND SWAP1 DUP4 PUSH20 0xFFFFFFFFFFFFFFFFFFFFFFFFFFFFFFFFFFFFFFFF AND MUL OR SWAP1 SSTORE POP CALLER PUSH20 0xFFFFFFFFFFFFFFFFFFFFFFFFFFFFFFFFFFFFFFFF AND PUSH1 0x2 PUSH0 DUP5 DUP2 MSTORE PUSH1 0x20 ADD SWAP1 DUP2 MSTORE PUSH1 0x20 ADD PUSH0 KECCAK256 PUSH1 0x4 ADD PUSH1 0x1 SWAP1 SLOAD SWAP1 PUSH2 0x100 EXP SWAP1 DIV PUSH20 0xFFFFFFFFFFFFFFFFFFFFFFFFFFFFFFFFFFFFFFFF AND PUSH20 0xFFFFFFFFFFFFFFFFFFFFFFFFFFFFFFFFFFFFFFFF AND EQ PUSH2 0x1BC JUMPI PUSH1 0x40 MLOAD PUSH32 0x46DB40C400000000000000000000000000000000000000000000000000000000 DUP2 MSTORE PUSH1 0x4 ADD PUSH1 0x40 MLOAD DUP1 SWAP2 SUB SWAP1 REVERT JUMPDEST POP POP JUMP JUMPDEST DUP4 DUP4 PUSH1 0x2 PUSH0 PUSH0 SLOAD DUP2 MSTORE PUSH1 0x20 ADD SWAP1 DUP2 MSTORE PUSH1 0x20 ADD PUSH0 KECCAK256 PUSH0 ADD SWAP2 DUP3 PUSH2 0x1E3 SWAP3 SWAP2 SWAP1 PUSH2 0xA1C JUMP JUMPDEST POP DUP2 DUP2 PUSH1 0x2 PUSH0 PUSH0 SLOAD DUP2 MSTORE PUSH1 0x20 ADD SWAP1 DUP2 MSTORE PUSH1 0x20 ADD PUSH0 KECCAK256 PUSH1 0x1 ADD SWAP2 DUP3 PUSH2 0x208 SWAP3 SWAP2 SWAP1 PUSH2 0xA1C JUMP JUMPDEST POP TIMESTAMP PUSH1 0x2 PUSH0 PUSH0 SLOAD DUP2 MSTORE PUSH1 0x20 ADD SWAP1 DUP2 MSTORE PUSH1 0x20 ADD PUSH0 KECCAK256 PUSH1 0x2 ADD DUP2 SWAP1 SSTORE POP PUSH3 0x15180 PUSH1 0x1 SLOAD PUSH2 0x234 SWAP2 SWAP1 PUSH2 0xB16 JUMP JUMPDEST PUSH1 0x2 PUSH0 PUSH0 SLOAD DUP2 MSTORE PUSH1 0x20 ADD SWAP1 DUP2 MSTORE PUSH1 0x20 ADD PUSH0 KECCAK256 PUSH1 0x2 ADD SLOAD PUSH2 0x254 SWAP2 SWAP1 PUSH2 0xB57 JUMP JUMPDEST PUSH1 0x2 PUSH0 PUSH0 SLOAD DUP2 MSTORE PUSH1 0x20 ADD SWAP1 DUP2 MSTORE PUSH1 0x20 ADD PUSH0 KECCAK256 PUSH1 0x3 ADD DUP2 SWAP1 SSTORE POP PUSH0 PUSH1 0x2 PUSH0 PUSH0 SLOAD DUP2 MSTORE PUSH1 0x20 ADD SWAP1 DUP2 MSTORE PUSH1 0x20 ADD PUSH0 KECCAK256 PUSH1 0x4 ADD PUSH0 PUSH2 0x100 EXP DUP2 SLOAD DUP2 PUSH1 0xFF MUL NOT AND SWAP1 DUP4 PUSH1 0x2 DUP2 GT ISZERO PUSH2 0x2A4 JUMPI PUSH2 0x2A3 PUSH2 0x6EB JUMP JUMPDEST JUMPDEST MUL OR SWAP1 SSTORE POP CALLER PUSH1 0x2 PUSH0 PUSH0 SLOAD DUP2 MSTORE PUSH1 0x20 ADD SWAP1 DUP2 MSTORE PUSH1 0x20 ADD PUSH0 KECCAK256 PUSH1 0x4 ADD PUSH1 0x1 PUSH2 0x100 EXP DUP2 SLOAD DUP2 PUSH20 0xFFFFFFFFFFFFFFFFFFFFFFFFFFFFFFFFFFFFFFFF MUL NOT AND SWAP1 DUP4 PUSH20 0xFFFFFFFFFFFFFFFFFFFFFFFFFFFFFFFFFFFFFFFF AND MUL OR SWAP1 SSTORE POP PUSH0 PUSH0 DUP2 SLOAD DUP1 SWAP3 SWAP2 SWAP1 PUSH2 0x30E SWAP1 PUSH2 0xB8A JUMP JUMPDEST SWAP2 SWAP1 POP SSTORE POP POP POP POP POP JUMP JUMPDEST PUSH1 0x2 PUSH1 0x20 MSTORE DUP1 PUSH0 MSTORE PUSH1 0x40 PUSH0 KECCAK256 PUSH0 SWAP2 POP SWAP1 POP DUP1 PUSH0 ADD DUP1 SLOAD PUSH2 0x338 SWAP1 PUSH2 0x84C JUMP JUMPDEST DUP1 PUSH1 0x1F ADD PUSH1 0x20 DUP1 SWAP2 DIV MUL PUSH1 0x20 ADD PUSH1 0x40 MLOAD SWAP1 DUP2 ADD PUSH1 0x40 MSTORE DUP1 SWAP3 SWAP2 SWAP1 DUP2 DUP2 MSTORE PUSH1 0x20 ADD DUP3 DUP1 SLOAD PUSH2 0x364 SWAP1 PUSH2 0x84C JUMP JUMPDEST DUP1 ISZERO PUSH2 0x3AF JUMPI DUP1 PUSH1 0x1F LT PUSH2 0x386 JUMPI PUSH2 0x100 DUP1 DUP4 SLOAD DIV MUL DUP4 MSTORE SWAP2 PUSH1 0x20 ADD SWAP2 PUSH2 0x3AF JUMP JUMPDEST DUP3 ADD SWAP2 SWAP1 PUSH0 MSTORE PUSH1 0x20 PUSH0 KECCAK256 SWAP1 JUMPDEST DUP2 SLOAD DUP2 MSTORE SWAP1 PUSH1 0x1 ADD SWAP1 PUSH1 0x20 ADD DUP1 DUP4 GT PUSH2 0x392 JUMPI DUP3 SWAP1 SUB PUSH1 0x1F AND DUP3 ADD SWAP2 JUMPDEST POP POP POP POP POP SWAP1 DUP1 PUSH1 0x1 ADD DUP1 SLOAD PUSH2 0x3C4 SWAP1 PUSH2 0x84C JUMP JUMPDEST DUP1 PUSH1 0x1F ADD PUSH1 0x20 DUP1 SWAP2 DIV MUL PUSH1 0x20 ADD PUSH1 0x40 MLOAD SWAP1 DUP2 ADD PUSH1 0x40 MSTORE DUP1 SWAP3 SWAP2 SWAP1 DUP2 DUP2 MSTORE PUSH1 0x20 ADD DUP3 DUP1 SLOAD PUSH2 0x3F0 SWAP1 PUSH2 0x84C JUMP JUMPDEST DUP1 ISZERO PUSH2 0x43B JUMPI DUP1 PUSH1 0x1F LT PUSH2 0x412 JUMPI PUSH2 0x100 DUP1 DUP4 SLOAD DIV MUL DUP4 MSTORE SWAP2 PUSH1 0x20 ADD SWAP2 PUSH2 0x43B JUMP JUMPDEST DUP3 ADD SWAP2 SWAP1 PUSH0 MSTORE PUSH1 0x20 PUSH0 KECCAK256 SWAP1 JUMPDEST DUP2 SLOAD DUP2 MSTORE SWAP1 PUSH1 0x1 ADD SWAP1 PUSH1 0x20 ADD DUP1 DUP4 GT PUSH2 0x41E JUMPI DUP3 SWAP1 SUB PUSH1 0x1F AND DUP3 ADD SWAP2 JUMPDEST POP POP POP POP POP SWAP1 DUP1 PUSH1 0x2 ADD SLOAD SWAP1 DUP1 PUSH1 0x3 ADD SLOAD SWAP1 DUP1 PUSH1 0x4 ADD PUSH0 SWAP1 SLOAD SWAP1 PUSH2 0x100 EXP SWAP1 DIV PUSH1 0xFF AND SWAP1 DUP1 PUSH1 0x4 ADD PUSH1 0x1 SWAP1 SLOAD SWAP1 PUSH2 0x100 EXP SWAP1 DIV PUSH20 0xFFFFFFFFFFFFFFFFFFFFFFFFFFFFFFFFFFFFFFFF AND SWAP1 DUP1 PUSH1 0x6 ADD SLOAD SWAP1 POP DUP8 JUMP JUMPDEST PUSH0 PUSH0 REVERT JUMPDEST PUSH0 PUSH0 REVERT JUMPDEST PUSH0 DUP2 SWAP1 POP SWAP2 SWAP1 POP JUMP JUMPDEST PUSH2 0x4A9 DUP2 PUSH2 0x497 JUMP JUMPDEST DUP2 EQ PUSH2 0x4B3 JUMPI PUSH0 PUSH0 REVERT JUMPDEST POP JUMP JUMPDEST PUSH0 DUP2 CALLDATALOAD SWAP1 POP PUSH2 0x4C4 DUP2 PUSH2 0x4A0 JUMP JUMPDEST SWAP3 SWAP2 POP POP JUMP JUMPDEST PUSH0 PUSH20 0xFFFFFFFFFFFFFFFFFFFFFFFFFFFFFFFFFFFFFFFF DUP3 AND SWAP1 POP SWAP2 SWAP1 POP JUMP JUMPDEST PUSH0 PUSH2 0x4F3 DUP3 PUSH2 0x4CA JUMP JUMPDEST SWAP1 POP SWAP2 SWAP1 POP JUMP JUMPDEST PUSH2 0x503 DUP2 PUSH2 0x4E9 JUMP JUMPDEST DUP2 EQ PUSH2 0x50D JUMPI PUSH0 PUSH0 REVERT JUMPDEST POP JUMP JUMPDEST PUSH0 DUP2 CALLDATALOAD SWAP1 POP PUSH2 0x51E DUP2 PUSH2 0x4FA JUMP JUMPDEST SWAP3 SWAP2 POP POP JUMP JUMPDEST PUSH0 PUSH0 PUSH1 0x40 DUP4 DUP6 SUB SLT ISZERO PUSH2 0x53A JUMPI PUSH2 0x539 PUSH2 0x48F JUMP JUMPDEST JUMPDEST PUSH0 PUSH2 0x547 DUP6 DUP3 DUP7 ADD PUSH2 0x4B6 JUMP JUMPDEST SWAP3 POP POP PUSH1 0x20 PUSH2 0x558 DUP6 DUP3 DUP7 ADD PUSH2 0x510 JUMP JUMPDEST SWAP2 POP POP SWAP3 POP SWAP3 SWAP1 POP JUMP JUMPDEST PUSH0 PUSH0 REVERT JUMPDEST PUSH0 PUSH0 REVERT JUMPDEST PUSH0 PUSH0 REVERT JUMPDEST PUSH0 PUSH0 DUP4 PUSH1 0x1F DUP5 ADD SLT PUSH2 0x583 JUMPI PUSH2 0x582 PUSH2 0x562 JUMP JUMPDEST JUMPDEST DUP3 CALLDATALOAD SWAP1 POP PUSH8 0xFFFFFFFFFFFFFFFF DUP2 GT ISZERO PUSH2 0x5A0 JUMPI PUSH2 0x59F PUSH2 0x566 JUMP JUMPDEST JUMPDEST PUSH1 0x20 DUP4 ADD SWAP2 POP DUP4 PUSH1 0x1 DUP3 MUL DUP4 ADD GT ISZERO PUSH2 0x5BC JUMPI PUSH2 0x5BB PUSH2 0x56A JUMP JUMPDEST JUMPDEST SWAP3 POP SWAP3 SWAP1 POP JUMP JUMPDEST PUSH0 PUSH0 PUSH0 PUSH0 PUSH1 0x40 DUP6 DUP8 SUB SLT ISZERO PUSH2 0x5DB JUMPI PUSH2 0x5DA PUSH2 0x48F JUMP JUMPDEST JUMPDEST PUSH0 DUP6 ADD CALLDATALOAD PUSH8 0xFFFFFFFFFFFFFFFF DUP2 GT ISZERO PUSH2 0x5F8 JUMPI PUSH2 0x5F7 PUSH2 0x493 JUMP JUMPDEST JUMPDEST PUSH2 0x604 DUP8 DUP3 DUP9 ADD PUSH2 0x56E JUMP JUMPDEST SWAP5 POP SWAP5 POP POP PUSH1 0x20 DUP6 ADD CALLDATALOAD PUSH8 0xFFFFFFFFFFFFFFFF DUP2 GT ISZERO PUSH2 0x627 JUMPI PUSH2 0x626 PUSH2 0x493 JUMP JUMPDEST JUMPDEST PUSH2 0x633 DUP8 DUP3 DUP9 ADD PUSH2 0x56E JUMP JUMPDEST SWAP3 POP SWAP3 POP POP SWAP3 SWAP6 SWAP2 SWAP5 POP SWAP3 POP JUMP JUMPDEST PUSH0 PUSH1 0x20 DUP3 DUP5 SUB SLT ISZERO PUSH2 0x656 JUMPI PUSH2 0x655 PUSH2 0x48F JUMP JUMPDEST JUMPDEST PUSH0 PUSH2 0x663 DUP5 DUP3 DUP6 ADD PUSH2 0x4B6 JUMP JUMPDEST SWAP2 POP POP SWAP3 SWAP2 POP POP JUMP JUMPDEST PUSH0 DUP2 MLOAD SWAP1 POP SWAP2 SWAP1 POP JUMP JUMPDEST PUSH0 DUP3 DUP3 MSTORE PUSH1 0x20 DUP3 ADD SWAP1 POP SWAP3 SWAP2 POP POP JUMP JUMPDEST DUP3 DUP2 DUP4 MCOPY PUSH0 DUP4 DUP4 ADD MSTORE POP POP POP JUMP JUMPDEST PUSH0 PUSH1 0x1F NOT PUSH1 0x1F DUP4 ADD AND SWAP1 POP SWAP2 SWAP1 POP JUMP JUMPDEST PUSH0 PUSH2 0x6AE DUP3 PUSH2 0x66C JUMP JUMPDEST PUSH2 0x6B8 DUP2 DUP6 PUSH2 0x676 JUMP JUMPDEST SWAP4 POP PUSH2 0x6C8 DUP2 DUP6 PUSH1 0x20 DUP7 ADD PUSH2 0x686 JUMP JUMPDEST PUSH2 0x6D1 DUP2 PUSH2 0x694 JUMP JUMPDEST DUP5 ADD SWAP2 POP POP SWAP3 SWAP2 POP POP JUMP JUMPDEST PUSH2 0x6E5 DUP2 PUSH2 0x497 JUMP JUMPDEST DUP3 MSTORE POP POP JUMP JUMPDEST PUSH32 0x4E487B7100000000000000000000000000000000000000000000000000000000 PUSH0 MSTORE PUSH1 0x21 PUSH1 0x4 MSTORE PUSH1 0x24 PUSH0 REVERT JUMPDEST PUSH1 0x3 DUP2 LT PUSH2 0x729 JUMPI PUSH2 0x728 PUSH2 0x6EB JUMP JUMPDEST JUMPDEST POP JUMP JUMPDEST PUSH0 DUP2 SWAP1 POP PUSH2 0x739 DUP3 PUSH2 0x718 JUMP JUMPDEST SWAP2 SWAP1 POP JUMP JUMPDEST PUSH0 PUSH2 0x748 DUP3 PUSH2 0x72C JUMP JUMPDEST SWAP1 POP SWAP2 SWAP1 POP JUMP JUMPDEST PUSH2 0x758 DUP2 PUSH2 0x73E JUMP JUMPDEST DUP3 MSTORE POP POP JUMP JUMPDEST PUSH2 0x767 DUP2 PUSH2 0x4E9 JUMP JUMPDEST DUP3 MSTORE POP POP JUMP JUMPDEST PUSH0 PUSH1 0xE0 DUP3 ADD SWAP1 POP DUP2 DUP2 SUB PUSH0 DUP4 ADD MSTORE PUSH2 0x785 DUP2 DUP11 PUSH2 0x6A4 JUMP JUMPDEST SWAP1 POP DUP2 DUP2 SUB PUSH1 0x20 DUP4 ADD MSTORE PUSH2 0x799 DUP2 DUP10 PUSH2 0x6A4 JUMP JUMPDEST SWAP1 POP PUSH2 0x7A8 PUSH1 0x40 DUP4 ADD DUP9 PUSH2 0x6DC JUMP JUMPDEST PUSH2 0x7B5 PUSH1 0x60 DUP4 ADD DUP8 PUSH2 0x6DC JUMP JUMPDEST PUSH2 0x7C2 PUSH1 0x80 DUP4 ADD DUP7 PUSH2 0x74F JUMP JUMPDEST PUSH2 0x7CF PUSH1 0xA0 DUP4 ADD DUP6 PUSH2 0x75E JUMP JUMPDEST PUSH2 0x7DC PUSH1 0xC0 DUP4 ADD DUP5 PUSH2 0x6DC JUMP JUMPDEST SWAP9 SWAP8 POP POP POP POP POP POP POP POP JUMP JUMPDEST PUSH0 DUP3 SWAP1 POP SWAP3 SWAP2 POP POP JUMP JUMPDEST PUSH32 0x4E487B7100000000000000000000000000000000000000000000000000000000 PUSH0 MSTORE PUSH1 0x41 PUSH1 0x4 MSTORE PUSH1 0x24 PUSH0 REVERT JUMPDEST PUSH32 0x4E487B7100000000000000000000000000000000000000000000000000000000 PUSH0 MSTORE PUSH1 0x22 PUSH1 0x4 MSTORE PUSH1 0x24 PUSH0 REVERT JUMPDEST PUSH0 PUSH1 0x2 DUP3 DIV SWAP1 POP PUSH1 0x1 DUP3 AND DUP1 PUSH2 0x863 JUMPI PUSH1 0x7F DUP3 AND SWAP2 POP JUMPDEST PUSH1 0x20 DUP3 LT DUP2 SUB PUSH2 0x876 JUMPI PUSH2 0x875 PUSH2 0x81F JUMP JUMPDEST JUMPDEST POP SWAP2 SWAP1 POP JUMP JUMPDEST PUSH0 DUP2 SWAP1 POP DUP2 PUSH0 MSTORE PUSH1 0x20 PUSH0 KECCAK256 SWAP1 POP SWAP2 SWAP1 POP JUMP JUMPDEST PUSH0 PUSH1 0x20 PUSH1 0x1F DUP4 ADD DIV SWAP1 POP SWAP2 SWAP1 POP JUMP JUMPDEST PUSH0 DUP3 DUP3 SHL SWAP1 POP SWAP3 SWAP2 POP POP JUMP JUMPDEST PUSH0 PUSH1 0x8 DUP4 MUL PUSH2 0x8D8 PUSH32 0xFFFFFFFFFFFFFFFFFFFFFFFFFFFFFFFFFFFFFFFFFFFFFFFFFFFFFFFFFFFFFFFF DUP3 PUSH2 0x89D JUMP JUMPDEST PUSH2 0x8E2 DUP7 DUP4 PUSH2 0x89D JUMP JUMPDEST SWAP6 POP DUP1 NOT DUP5 AND SWAP4 POP DUP1 DUP7 AND DUP5 OR SWAP3 POP POP POP SWAP4 SWAP3 POP POP POP JUMP JUMPDEST PUSH0 DUP2 SWAP1 POP SWAP2 SWAP1 POP JUMP JUMPDEST PUSH0 PUSH2 0x91D PUSH2 0x918 PUSH2 0x913 DUP5 PUSH2 0x497 JUMP JUMPDEST PUSH2 0x8FA JUMP JUMPDEST PUSH2 0x497 JUMP JUMPDEST SWAP1 POP SWAP2 SWAP1 POP JUMP JUMPDEST PUSH0 DUP2 SWAP1 POP SWAP2 SWAP1 POP JUMP JUMPDEST PUSH2 0x936 DUP4 PUSH2 0x903 JUMP JUMPDEST PUSH2 0x94A PUSH2 0x942 DUP3 PUSH2 0x924 JUMP JUMPDEST DUP5 DUP5 SLOAD PUSH2 0x8A9 JUMP JUMPDEST DUP3 SSTORE POP POP POP POP JUMP JUMPDEST PUSH0 PUSH0 SWAP1 POP SWAP1 JUMP JUMPDEST PUSH2 0x961 PUSH2 0x952 JUMP JUMPDEST PUSH2 0x96C DUP2 DUP5 DUP5 PUSH2 0x92D JUMP JUMPDEST POP POP POP JUMP JUMPDEST JUMPDEST DUP2 DUP2 LT ISZERO PUSH2 0x98F JUMPI PUSH2 0x984 PUSH0 DUP3 PUSH2 0x959 JUMP JUMPDEST PUSH1 0x1 DUP2 ADD SWAP1 POP PUSH2 0x972 JUMP JUMPDEST POP POP JUMP JUMPDEST PUSH1 0x1F DUP3 GT ISZERO PUSH2 0x9D4 JUMPI PUSH2 0x9A5 DUP2 PUSH2 0x87C JUMP JUMPDEST PUSH2 0x9AE DUP5 PUSH2 0x88E JUMP JUMPDEST DUP2 ADD PUSH1 0x20 DUP6 LT ISZERO PUSH2 0x9BD JUMPI DUP2 SWAP1 POP JUMPDEST PUSH2 0x9D1 PUSH2 0x9C9 DUP6 PUSH2 0x88E JUMP JUMPDEST DUP4 ADD DUP3 PUSH2 0x971 JUMP JUMPDEST POP POP JUMPDEST POP POP POP JUMP JUMPDEST PUSH0 DUP3 DUP3 SHR SWAP1 POP SWAP3 SWAP2 POP POP JUMP JUMPDEST PUSH0 PUSH2 0x9F4 PUSH0 NOT DUP5 PUSH1 0x8 MUL PUSH2 0x9D9 JUMP JUMPDEST NOT DUP1 DUP4 AND SWAP2 POP POP SWAP3 SWAP2 POP POP JUMP JUMPDEST PUSH0 PUSH2 0xA0C DUP4 DUP4 PUSH2 0x9E5 JUMP JUMPDEST SWAP2 POP DUP3 PUSH1 0x2 MUL DUP3 OR SWAP1 POP SWAP3 SWAP2 POP POP JUMP JUMPDEST PUSH2 0xA26 DUP4 DUP4 PUSH2 0x7E8 JUMP JUMPDEST PUSH8 0xFFFFFFFFFFFFFFFF DUP2 GT ISZERO PUSH2 0xA3F JUMPI PUSH2 0xA3E PUSH2 0x7F2 JUMP JUMPDEST JUMPDEST PUSH2 0xA49 DUP3 SLOAD PUSH2 0x84C JUMP JUMPDEST PUSH2 0xA54 DUP3 DUP3 DUP6 PUSH2 0x993 JUMP JUMPDEST PUSH0 PUSH1 0x1F DUP4 GT PUSH1 0x1 DUP2 EQ PUSH2 0xA81 JUMPI PUSH0 DUP5 ISZERO PUSH2 0xA6F JUMPI DUP3 DUP8 ADD CALLDATALOAD SWAP1 POP JUMPDEST PUSH2 0xA79 DUP6 DUP3 PUSH2 0xA01 JUMP JUMPDEST DUP7 SSTORE POP PUSH2 0xAE0 JUMP JUMPDEST PUSH1 0x1F NOT DUP5 AND PUSH2 0xA8F DUP7 PUSH2 0x87C JUMP JUMPDEST PUSH0 JUMPDEST DUP3 DUP2 LT ISZERO PUSH2 0xAB6 JUMPI DUP5 DUP10 ADD CALLDATALOAD DUP3 SSTORE PUSH1 0x1 DUP3 ADD SWAP2 POP PUSH1 0x20 DUP6 ADD SWAP5 POP PUSH1 0x20 DUP2 ADD SWAP1 POP PUSH2 0xA91 JUMP JUMPDEST DUP7 DUP4 LT ISZERO PUSH2 0xAD3 JUMPI DUP5 DUP10 ADD CALLDATALOAD PUSH2 0xACF PUSH1 0x1F DUP10 AND DUP3 PUSH2 0x9E5 JUMP JUMPDEST DUP4 SSTORE POP JUMPDEST PUSH1 0x1 PUSH1 0x2 DUP9 MUL ADD DUP9 SSTORE POP POP POP JUMPDEST POP POP POP POP POP POP POP JUMP JUMPDEST PUSH32 0x4E487B7100000000000000000000000000000000000000000000000000000000 PUSH0 MSTORE PUSH1 0x11 PUSH1 0x4 MSTORE PUSH1 0x24 PUSH0 REVERT JUMPDEST PUSH0 PUSH2 0xB20 DUP3 PUSH2 0x497 JUMP JUMPDEST SWAP2 POP PUSH2 0xB2B DUP4 PUSH2 0x497 JUMP JUMPDEST SWAP3 POP DUP3 DUP3 MUL PUSH2 0xB39 DUP2 PUSH2 0x497 JUMP JUMPDEST SWAP2 POP DUP3 DUP3 DIV DUP5 EQ DUP4 ISZERO OR PUSH2 0xB50 JUMPI PUSH2 0xB4F PUSH2 0xAE9 JUMP JUMPDEST JUMPDEST POP SWAP3 SWAP2 POP POP JUMP JUMPDEST PUSH0 PUSH2 0xB61 DUP3 PUSH2 0x497 JUMP JUMPDEST SWAP2 POP PUSH2 0xB6C DUP4 PUSH2 0x497 JUMP JUMPDEST SWAP3 POP DUP3 DUP3 ADD SWAP1 POP DUP1 DUP3 GT ISZERO PUSH2 0xB84 JUMPI PUSH2 0xB83 PUSH2 0xAE9 JUMP JUMPDEST JUMPDEST SWAP3 SWAP2 POP POP JUMP JUMPDEST PUSH0 PUSH2 0xB94 DUP3 PUSH2 0x497 JUMP JUMPDEST SWAP2 POP PUSH32 0xFFFFFFFFFFFFFFFFFFFFFFFFFFFFFFFFFFFFFFFFFFFFFFFFFFFFFFFFFFFFFFFF DUP3 SUB PUSH2 0xBC6 JUMPI PUSH2 0xBC5 PUSH2 0xAE9 JUMP JUMPDEST JUMPDEST PUSH1 0x1 DUP3 ADD SWAP1 POP SWAP2 SWAP1 POP JUMP INVALID LOG2 PUSH5 0x6970667358 0x22 SLT KECCAK256 SWAP9 0xDE CHAINID DUP1 SUB DUP4 SGT 0xEF 0xF8 BLOCKHASH PUSH16 0xD110D992391C522EF61BE04E9D89F3C8 0xE5 JUMPI PUSH23 0x4C1864736F6C634300081C003300000000000000000000 "
				},
				"gasEstimates": {
					"creation": {
						"codeDepositCost": "615800",
						"executionCost": "infinite",
						"totalCost": "infinite"
					},
					"external": {
						"addLibrarian(uint256,address)": "51588",
						"createEBook(string,string)": "infinite",
						"libraryBooks(uint256)": "infinite"
					}
				},
				"methodIdentifiers": {
					"addLibrarian(uint256,address)": "0657298f",
					"createEBook(string,string)": "6925b1f9",
					"libraryBooks(uint256)": "b98a9cda"
				}
			},
			"storageLayout": {
				"storage": [
					{
						"astId": 28,
						"contract": "DigitalLibrary.sol:DigitalLibrary",
						"label": "id",
						"offset": 0,
						"slot": "0",
						"type": "t_uint256"
					},
					{
						"astId": 30,
						"contract": "DigitalLibrary.sol:DigitalLibrary",
						"label": "expirationDays",
						"offset": 0,
						"slot": "1",
						"type": "t_uint256"
					},
					{
						"astId": 35,
						"contract": "DigitalLibrary.sol:DigitalLibrary",
						"label": "libraryBooks",
						"offset": 0,
						"slot": "2",
						"type": "t_mapping(t_uint256,t_struct(EBook)24_storage)"
					}
				],
				"types": {
					"t_address": {
						"encoding": "inplace",
						"label": "address",
						"numberOfBytes": "20"
					},
					"t_array(t_address)dyn_storage": {
						"base": "t_address",
						"encoding": "dynamic_array",
						"label": "address[]",
						"numberOfBytes": "32"
					},
					"t_enum(State)5": {
						"encoding": "inplace",
						"label": "enum State",
						"numberOfBytes": "1"
					},
					"t_mapping(t_uint256,t_struct(EBook)24_storage)": {
						"encoding": "mapping",
						"key": "t_uint256",
						"label": "mapping(uint256 => struct EBook)",
						"numberOfBytes": "32",
						"value": "t_struct(EBook)24_storage"
					},
					"t_string_storage": {
						"encoding": "bytes",
						"label": "string",
						"numberOfBytes": "32"
					},
					"t_struct(EBook)24_storage": {
						"encoding": "inplace",
						"label": "struct EBook",
						"members": [
							{
								"astId": 7,
								"contract": "DigitalLibrary.sol:DigitalLibrary",
								"label": "title",
								"offset": 0,
								"slot": "0",
								"type": "t_string_storage"
							},
							{
								"astId": 9,
								"contract": "DigitalLibrary.sol:DigitalLibrary",
								"label": "author",
								"offset": 0,
								"slot": "1",
								"type": "t_string_storage"
							},
							{
								"astId": 11,
								"contract": "DigitalLibrary.sol:DigitalLibrary",
								"label": "publicationDate",
								"offset": 0,
								"slot": "2",
								"type": "t_uint256"
							},
							{
								"astId": 13,
								"contract": "DigitalLibrary.sol:DigitalLibrary",
								"label": "expirationDate",
								"offset": 0,
								"slot": "3",
								"type": "t_uint256"
							},
							{
								"astId": 16,
								"contract": "DigitalLibrary.sol:DigitalLibrary",
								"label": "status",
								"offset": 0,
								"slot": "4",
								"type": "t_enum(State)5"
							},
							{
								"astId": 18,
								"contract": "DigitalLibrary.sol:DigitalLibrary",
								"label": "primaryLibrarian",
								"offset": 1,
								"slot": "4",
								"type": "t_address"
							},
							{
								"astId": 21,
								"contract": "DigitalLibrary.sol:DigitalLibrary",
								"label": "librarians",
								"offset": 0,
								"slot": "5",
								"type": "t_array(t_address)dyn_storage"
							},
							{
								"astId": 23,
								"contract": "DigitalLibrary.sol:DigitalLibrary",
								"label": "readCount",
								"offset": 0,
								"slot": "6",
								"type": "t_uint256"
							}
						],
						"numberOfBytes": "224"
					},
					"t_uint256": {
						"encoding": "inplace",
						"label": "uint256",
						"numberOfBytes": "32"
					}
				}
			},
			"userdoc": {
				"kind": "user",
				"methods": {},
				"version": 1
			}
		}
	}
}