{
	"GoalTracker.sol": {
		"goalTracker": {
			"abi": [
				{
					"inputs": [],
					"name": "NegativeAmount",
					"type": "error"
				},
				{
					"inputs": [],
					"name": "Not_enough_spending_for_reward",
					"type": "error"
				},
				{
					"inputs": [
						{
							"internalType": "uint256",
							"name": "amount",
							"type": "uint256"
						}
					],
					"name": "addSpending",
					"outputs": [],
					"stateMutability": "nonpayable",
					"type": "function"
				},
				{
					"inputs": [],
					"name": "claimReward",
					"outputs": [
						{
							"internalType": "uint256",
							"name": "reward",
							"type": "uint256"
						}
					],
					"stateMutability": "nonpayable",
					"type": "function"
				},
				{
					"inputs": [],
					"name": "goalAmount",
					"outputs": [
						{
							"internalType": "uint256",
							"name": "",
							"type": "uint256"
						}
					],
					"stateMutability": "view",
					"type": "function"
				},
				{
					"inputs": [],
					"name": "rewardAmount",
					"outputs": [
						{
							"internalType": "uint256",
							"name": "",
							"type": "uint256"
						}
					],
					"stateMutability": "view",
					"type": "function"
				},
				{
					"inputs": [],
					"name": "totalSpend",
					"outputs": [
						{
							"internalType": "uint256",
							"name": "",
							"type": "uint256"
						}
					],
					"stateMutability": "view",
					"type": "function"
				}
			],
			"devdoc": {
				"kind": "dev",
				"methods": {},
				"version": 1
			},
			"evm": {
				"assembly": "    /* \"GoalTracker.sol\":122:776  contract goalTracker {... */\n  mstore(0x40, 0x80)\n    /* \"GoalTracker.sol\":177:181  1000 */\n  0x03e8\n    /* \"GoalTracker.sol\":149:181  uint256 public goalAmount = 1000 */\n  0x00\n  sstore\n    /* \"GoalTracker.sol\":217:219  20 */\n  0x14\n    /* \"GoalTracker.sol\":187:219  uint256 public rewardAmount = 20 */\n  0x01\n  sstore\n    /* \"GoalTracker.sol\":122:776  contract goalTracker {... */\n  callvalue\n  dup1\n  iszero\n  tag_1\n  jumpi\n  revert(0x00, 0x00)\ntag_1:\n  pop\n  dataSize(sub_0)\n  dup1\n  dataOffset(sub_0)\n  0x00\n  codecopy\n  0x00\n  return\nstop\n\nsub_0: assembly {\n        /* \"GoalTracker.sol\":122:776  contract goalTracker {... */\n      mstore(0x40, 0x80)\n      callvalue\n      dup1\n      iszero\n      tag_1\n      jumpi\n      revert(0x00, 0x00)\n    tag_1:\n      pop\n      jumpi(tag_2, lt(calldatasize, 0x04))\n      shr(0xe0, calldataload(0x00))\n      dup1\n      0x2636b945\n      eq\n      tag_3\n      jumpi\n      dup1\n      0x623e786b\n      eq\n      tag_4\n      jumpi\n      dup1\n      0xb88a802f\n      eq\n      tag_5\n      jumpi\n      dup1\n      0xc1cf2e69\n      eq\n      tag_6\n      jumpi\n      dup1\n      0xf7b2a7be\n      eq\n      tag_7\n      jumpi\n    tag_2:\n      revert(0x00, 0x00)\n        /* \"GoalTracker.sol\":149:181  uint256 public goalAmount = 1000 */\n    tag_3:\n      tag_8\n      tag_9\n      jump\t// in\n    tag_8:\n      mload(0x40)\n      tag_10\n      swap2\n      swap1\n      tag_11\n      jump\t// in\n    tag_10:\n      mload(0x40)\n      dup1\n      swap2\n      sub\n      swap1\n      return\n        /* \"GoalTracker.sol\":257:408  function addSpending(uint256 amount) public {... */\n    tag_4:\n      tag_12\n      0x04\n      dup1\n      calldatasize\n      sub\n      dup2\n      add\n      swap1\n      tag_13\n      swap2\n      swap1\n      tag_14\n      jump\t// in\n    tag_13:\n      tag_15\n      jump\t// in\n    tag_12:\n      stop\n        /* \"GoalTracker.sol\":414:774  function claimReward() public returns (uint256 reward) {... */\n    tag_5:\n      tag_16\n      tag_17\n      jump\t// in\n    tag_16:\n      mload(0x40)\n      tag_18\n      swap2\n      swap1\n      tag_11\n      jump\t// in\n    tag_18:\n      mload(0x40)\n      dup1\n      swap2\n      sub\n      swap1\n      return\n        /* \"GoalTracker.sol\":225:250  uint256 public totalSpend */\n    tag_6:\n      tag_19\n      tag_20\n      jump\t// in\n    tag_19:\n      mload(0x40)\n      tag_21\n      swap2\n      swap1\n      tag_11\n      jump\t// in\n    tag_21:\n      mload(0x40)\n      dup1\n      swap2\n      sub\n      swap1\n      return\n        /* \"GoalTracker.sol\":187:219  uint256 public rewardAmount = 20 */\n    tag_7:\n      tag_22\n      tag_23\n      jump\t// in\n    tag_22:\n      mload(0x40)\n      tag_24\n      swap2\n      swap1\n      tag_11\n      jump\t// in\n    tag_24:\n      mload(0x40)\n      dup1\n      swap2\n      sub\n      swap1\n      return\n        /* \"GoalTracker.sol\":149:181  uint256 public goalAmount = 1000 */\n    tag_9:\n      sload(0x00)\n      dup2\n      jump\t// out\n        /* \"GoalTracker.sol\":257:408  function addSpending(uint256 amount) public {... */\n    tag_15:\n        /* \"GoalTracker.sol\":324:325  0 */\n      0x00\n        /* \"GoalTracker.sol\":315:321  amount */\n      dup2\n        /* \"GoalTracker.sol\":315:325  amount > 0 */\n      gt\n        /* \"GoalTracker.sol\":311:401  if (amount > 0) {... */\n      iszero\n      tag_26\n      jumpi\n        /* \"GoalTracker.sol\":355:361  amount */\n      dup1\n        /* \"GoalTracker.sol\":341:351  totalSpend */\n      0x02\n      0x00\n        /* \"GoalTracker.sol\":341:361  totalSpend += amount */\n      dup3\n      dup3\n      sload\n      tag_27\n      swap2\n      swap1\n      tag_28\n      jump\t// in\n    tag_27:\n      swap3\n      pop\n      pop\n      dup2\n      swap1\n      sstore\n      pop\n        /* \"GoalTracker.sol\":311:401  if (amount > 0) {... */\n      jump(tag_29)\n    tag_26:\n        /* \"GoalTracker.sol\":385:401  NegativeAmount() */\n      mload(0x40)\n      0x2c2ba2ab00000000000000000000000000000000000000000000000000000000\n      dup2\n      mstore\n      0x04\n      add\n      mload(0x40)\n      dup1\n      swap2\n      sub\n      swap1\n      revert\n        /* \"GoalTracker.sol\":311:401  if (amount > 0) {... */\n    tag_29:\n        /* \"GoalTracker.sol\":257:408  function addSpending(uint256 amount) public {... */\n      pop\n      jump\t// out\n        /* \"GoalTracker.sol\":414:774  function claimReward() public returns (uint256 reward) {... */\n    tag_17:\n        /* \"GoalTracker.sol\":453:467  uint256 reward */\n      0x00\n        /* \"GoalTracker.sol\":479:488  uint256 i */\n      0x00\n        /* \"GoalTracker.sol\":516:526  goalAmount */\n      sload(0x00)\n        /* \"GoalTracker.sol\":502:512  totalSpend */\n      sload(0x02)\n        /* \"GoalTracker.sol\":502:526  totalSpend >= goalAmount */\n      lt\n        /* \"GoalTracker.sol\":498:767  if (totalSpend >= goalAmount) {... */\n      tag_31\n      jumpi\n        /* \"GoalTracker.sol\":551:552  0 */\n      0x00\n        /* \"GoalTracker.sol\":547:552  i = 0 */\n      swap1\n      pop\n        /* \"GoalTracker.sol\":542:643  for (i = 0; i < totalSpend / goalAmount; i++) {... */\n    tag_32:\n        /* \"GoalTracker.sol\":571:581  goalAmount */\n      sload(0x00)\n        /* \"GoalTracker.sol\":558:568  totalSpend */\n      sload(0x02)\n        /* \"GoalTracker.sol\":558:581  totalSpend / goalAmount */\n      tag_35\n      swap2\n      swap1\n      tag_36\n      jump\t// in\n    tag_35:\n        /* \"GoalTracker.sol\":554:555  i */\n      dup2\n        /* \"GoalTracker.sol\":554:581  i < totalSpend / goalAmount */\n      lt\n        /* \"GoalTracker.sol\":542:643  for (i = 0; i < totalSpend / goalAmount; i++) {... */\n      iszero\n      tag_33\n      jumpi\n        /* \"GoalTracker.sol\":616:628  rewardAmount */\n      sload(0x01)\n        /* \"GoalTracker.sol\":606:628  reward += rewardAmount */\n      dup3\n      tag_37\n      swap2\n      swap1\n      tag_28\n      jump\t// in\n    tag_37:\n      swap2\n      pop\n        /* \"GoalTracker.sol\":583:586  i++ */\n      dup1\n      dup1\n      0x01\n      add\n      swap2\n      pop\n      pop\n        /* \"GoalTracker.sol\":542:643  for (i = 0; i < totalSpend / goalAmount; i++) {... */\n      jump(tag_32)\n    tag_33:\n        /* \"GoalTracker.sol\":683:684  i */\n      dup1\n        /* \"GoalTracker.sol\":670:680  goalAmount */\n      sload(0x00)\n        /* \"GoalTracker.sol\":670:684  goalAmount * i */\n      tag_38\n      swap2\n      swap1\n      tag_39\n      jump\t// in\n    tag_38:\n        /* \"GoalTracker.sol\":656:666  totalSpend */\n      0x02\n      0x00\n        /* \"GoalTracker.sol\":656:684  totalSpend -= goalAmount * i */\n      dup3\n      dup3\n      sload\n      tag_40\n      swap2\n      swap1\n      tag_41\n      jump\t// in\n    tag_40:\n      swap3\n      pop\n      pop\n      dup2\n      swap1\n      sstore\n      pop\n        /* \"GoalTracker.sol\":698:711  return reward */\n      pop\n      jump(tag_30)\n        /* \"GoalTracker.sol\":498:767  if (totalSpend >= goalAmount) {... */\n    tag_31:\n        /* \"GoalTracker.sol\":735:767  Not_enough_spending_for_reward() */\n      mload(0x40)\n      0xd7b5d42100000000000000000000000000000000000000000000000000000000\n      dup2\n      mstore\n      0x04\n      add\n      mload(0x40)\n      dup1\n      swap2\n      sub\n      swap1\n      revert\n        /* \"GoalTracker.sol\":414:774  function claimReward() public returns (uint256 reward) {... */\n    tag_30:\n      swap1\n      jump\t// out\n        /* \"GoalTracker.sol\":225:250  uint256 public totalSpend */\n    tag_20:\n      sload(0x02)\n      dup2\n      jump\t// out\n        /* \"GoalTracker.sol\":187:219  uint256 public rewardAmount = 20 */\n    tag_23:\n      sload(0x01)\n      dup2\n      jump\t// out\n        /* \"#utility.yul\":7:84   */\n    tag_43:\n        /* \"#utility.yul\":44:51   */\n      0x00\n        /* \"#utility.yul\":73:78   */\n      dup2\n        /* \"#utility.yul\":62:78   */\n      swap1\n      pop\n        /* \"#utility.yul\":7:84   */\n      swap2\n      swap1\n      pop\n      jump\t// out\n        /* \"#utility.yul\":90:208   */\n    tag_44:\n        /* \"#utility.yul\":177:201   */\n      tag_55\n        /* \"#utility.yul\":195:200   */\n      dup2\n        /* \"#utility.yul\":177:201   */\n      tag_43\n      jump\t// in\n    tag_55:\n        /* \"#utility.yul\":172:175   */\n      dup3\n        /* \"#utility.yul\":165:202   */\n      mstore\n        /* \"#utility.yul\":90:208   */\n      pop\n      pop\n      jump\t// out\n        /* \"#utility.yul\":214:436   */\n    tag_11:\n        /* \"#utility.yul\":307:311   */\n      0x00\n        /* \"#utility.yul\":345:347   */\n      0x20\n        /* \"#utility.yul\":334:343   */\n      dup3\n        /* \"#utility.yul\":330:348   */\n      add\n        /* \"#utility.yul\":322:348   */\n      swap1\n      pop\n        /* \"#utility.yul\":358:429   */\n      tag_57\n        /* \"#utility.yul\":426:427   */\n      0x00\n        /* \"#utility.yul\":415:424   */\n      dup4\n        /* \"#utility.yul\":411:428   */\n      add\n        /* \"#utility.yul\":402:408   */\n      dup5\n        /* \"#utility.yul\":358:429   */\n      tag_44\n      jump\t// in\n    tag_57:\n        /* \"#utility.yul\":214:436   */\n      swap3\n      swap2\n      pop\n      pop\n      jump\t// out\n        /* \"#utility.yul\":523:640   */\n    tag_46:\n        /* \"#utility.yul\":632:633   */\n      0x00\n        /* \"#utility.yul\":629:630   */\n      0x00\n        /* \"#utility.yul\":622:634   */\n      revert\n        /* \"#utility.yul\":769:891   */\n    tag_48:\n        /* \"#utility.yul\":842:866   */\n      tag_62\n        /* \"#utility.yul\":860:865   */\n      dup2\n        /* \"#utility.yul\":842:866   */\n      tag_43\n      jump\t// in\n    tag_62:\n        /* \"#utility.yul\":835:840   */\n      dup2\n        /* \"#utility.yul\":832:867   */\n      eq\n        /* \"#utility.yul\":822:885   */\n      tag_63\n      jumpi\n        /* \"#utility.yul\":881:882   */\n      0x00\n        /* \"#utility.yul\":878:879   */\n      0x00\n        /* \"#utility.yul\":871:883   */\n      revert\n        /* \"#utility.yul\":822:885   */\n    tag_63:\n        /* \"#utility.yul\":769:891   */\n      pop\n      jump\t// out\n        /* \"#utility.yul\":897:1036   */\n    tag_49:\n        /* \"#utility.yul\":943:948   */\n      0x00\n        /* \"#utility.yul\":981:987   */\n      dup2\n        /* \"#utility.yul\":968:988   */\n      calldataload\n        /* \"#utility.yul\":959:988   */\n      swap1\n      pop\n        /* \"#utility.yul\":997:1030   */\n      tag_65\n        /* \"#utility.yul\":1024:1029   */\n      dup2\n        /* \"#utility.yul\":997:1030   */\n      tag_48\n      jump\t// in\n    tag_65:\n        /* \"#utility.yul\":897:1036   */\n      swap3\n      swap2\n      pop\n      pop\n      jump\t// out\n        /* \"#utility.yul\":1042:1371   */\n    tag_14:\n        /* \"#utility.yul\":1101:1107   */\n      0x00\n        /* \"#utility.yul\":1150:1152   */\n      0x20\n        /* \"#utility.yul\":1138:1147   */\n      dup3\n        /* \"#utility.yul\":1129:1136   */\n      dup5\n        /* \"#utility.yul\":1125:1148   */\n      sub\n        /* \"#utility.yul\":1121:1153   */\n      slt\n        /* \"#utility.yul\":1118:1237   */\n      iszero\n      tag_67\n      jumpi\n        /* \"#utility.yul\":1156:1235   */\n      tag_68\n      tag_46\n      jump\t// in\n    tag_68:\n        /* \"#utility.yul\":1118:1237   */\n    tag_67:\n        /* \"#utility.yul\":1276:1277   */\n      0x00\n        /* \"#utility.yul\":1301:1354   */\n      tag_69\n        /* \"#utility.yul\":1346:1353   */\n      dup5\n        /* \"#utility.yul\":1337:1343   */\n      dup3\n        /* \"#utility.yul\":1326:1335   */\n      dup6\n        /* \"#utility.yul\":1322:1344   */\n      add\n        /* \"#utility.yul\":1301:1354   */\n      tag_49\n      jump\t// in\n    tag_69:\n        /* \"#utility.yul\":1291:1354   */\n      swap2\n      pop\n        /* \"#utility.yul\":1247:1364   */\n      pop\n        /* \"#utility.yul\":1042:1371   */\n      swap3\n      swap2\n      pop\n      pop\n      jump\t// out\n        /* \"#utility.yul\":1377:1557   */\n    tag_50:\n        /* \"#utility.yul\":1425:1502   */\n      0x4e487b7100000000000000000000000000000000000000000000000000000000\n        /* \"#utility.yul\":1422:1423   */\n      0x00\n        /* \"#utility.yul\":1415:1503   */\n      mstore\n        /* \"#utility.yul\":1522:1526   */\n      0x11\n        /* \"#utility.yul\":1519:1520   */\n      0x04\n        /* \"#utility.yul\":1512:1527   */\n      mstore\n        /* \"#utility.yul\":1546:1550   */\n      0x24\n        /* \"#utility.yul\":1543:1544   */\n      0x00\n        /* \"#utility.yul\":1536:1551   */\n      revert\n        /* \"#utility.yul\":1563:1754   */\n    tag_28:\n        /* \"#utility.yul\":1603:1606   */\n      0x00\n        /* \"#utility.yul\":1622:1642   */\n      tag_72\n        /* \"#utility.yul\":1640:1641   */\n      dup3\n        /* \"#utility.yul\":1622:1642   */\n      tag_43\n      jump\t// in\n    tag_72:\n        /* \"#utility.yul\":1617:1642   */\n      swap2\n      pop\n        /* \"#utility.yul\":1656:1676   */\n      tag_73\n        /* \"#utility.yul\":1674:1675   */\n      dup4\n        /* \"#utility.yul\":1656:1676   */\n      tag_43\n      jump\t// in\n    tag_73:\n        /* \"#utility.yul\":1651:1676   */\n      swap3\n      pop\n        /* \"#utility.yul\":1699:1700   */\n      dup3\n        /* \"#utility.yul\":1696:1697   */\n      dup3\n        /* \"#utility.yul\":1692:1701   */\n      add\n        /* \"#utility.yul\":1685:1701   */\n      swap1\n      pop\n        /* \"#utility.yul\":1720:1723   */\n      dup1\n        /* \"#utility.yul\":1717:1718   */\n      dup3\n        /* \"#utility.yul\":1714:1724   */\n      gt\n        /* \"#utility.yul\":1711:1747   */\n      iszero\n      tag_74\n      jumpi\n        /* \"#utility.yul\":1727:1745   */\n      tag_75\n      tag_50\n      jump\t// in\n    tag_75:\n        /* \"#utility.yul\":1711:1747   */\n    tag_74:\n        /* \"#utility.yul\":1563:1754   */\n      swap3\n      swap2\n      pop\n      pop\n      jump\t// out\n        /* \"#utility.yul\":1760:1940   */\n    tag_51:\n        /* \"#utility.yul\":1808:1885   */\n      0x4e487b7100000000000000000000000000000000000000000000000000000000\n        /* \"#utility.yul\":1805:1806   */\n      0x00\n        /* \"#utility.yul\":1798:1886   */\n      mstore\n        /* \"#utility.yul\":1905:1909   */\n      0x12\n        /* \"#utility.yul\":1902:1903   */\n      0x04\n        /* \"#utility.yul\":1895:1910   */\n      mstore\n        /* \"#utility.yul\":1929:1933   */\n      0x24\n        /* \"#utility.yul\":1926:1927   */\n      0x00\n        /* \"#utility.yul\":1919:1934   */\n      revert\n        /* \"#utility.yul\":1946:2131   */\n    tag_36:\n        /* \"#utility.yul\":1986:1987   */\n      0x00\n        /* \"#utility.yul\":2003:2023   */\n      tag_78\n        /* \"#utility.yul\":2021:2022   */\n      dup3\n        /* \"#utility.yul\":2003:2023   */\n      tag_43\n      jump\t// in\n    tag_78:\n        /* \"#utility.yul\":1998:2023   */\n      swap2\n      pop\n        /* \"#utility.yul\":2037:2057   */\n      tag_79\n        /* \"#utility.yul\":2055:2056   */\n      dup4\n        /* \"#utility.yul\":2037:2057   */\n      tag_43\n      jump\t// in\n    tag_79:\n        /* \"#utility.yul\":2032:2057   */\n      swap3\n      pop\n        /* \"#utility.yul\":2076:2077   */\n      dup3\n        /* \"#utility.yul\":2066:2101   */\n      tag_80\n      jumpi\n        /* \"#utility.yul\":2081:2099   */\n      tag_81\n      tag_51\n      jump\t// in\n    tag_81:\n        /* \"#utility.yul\":2066:2101   */\n    tag_80:\n        /* \"#utility.yul\":2123:2124   */\n      dup3\n        /* \"#utility.yul\":2120:2121   */\n      dup3\n        /* \"#utility.yul\":2116:2125   */\n      div\n        /* \"#utility.yul\":2111:2125   */\n      swap1\n      pop\n        /* \"#utility.yul\":1946:2131   */\n      swap3\n      swap2\n      pop\n      pop\n      jump\t// out\n        /* \"#utility.yul\":2137:2547   */\n    tag_39:\n        /* \"#utility.yul\":2177:2184   */\n      0x00\n        /* \"#utility.yul\":2200:2220   */\n      tag_83\n        /* \"#utility.yul\":2218:2219   */\n      dup3\n        /* \"#utility.yul\":2200:2220   */\n      tag_43\n      jump\t// in\n    tag_83:\n        /* \"#utility.yul\":2195:2220   */\n      swap2\n      pop\n        /* \"#utility.yul\":2234:2254   */\n      tag_84\n        /* \"#utility.yul\":2252:2253   */\n      dup4\n        /* \"#utility.yul\":2234:2254   */\n      tag_43\n      jump\t// in\n    tag_84:\n        /* \"#utility.yul\":2229:2254   */\n      swap3\n      pop\n        /* \"#utility.yul\":2289:2290   */\n      dup3\n        /* \"#utility.yul\":2286:2287   */\n      dup3\n        /* \"#utility.yul\":2282:2291   */\n      mul\n        /* \"#utility.yul\":2311:2341   */\n      tag_85\n        /* \"#utility.yul\":2329:2340   */\n      dup2\n        /* \"#utility.yul\":2311:2341   */\n      tag_43\n      jump\t// in\n    tag_85:\n        /* \"#utility.yul\":2300:2341   */\n      swap2\n      pop\n        /* \"#utility.yul\":2490:2491   */\n      dup3\n        /* \"#utility.yul\":2481:2488   */\n      dup3\n        /* \"#utility.yul\":2477:2492   */\n      div\n        /* \"#utility.yul\":2474:2475   */\n      dup5\n        /* \"#utility.yul\":2471:2493   */\n      eq\n        /* \"#utility.yul\":2451:2452   */\n      dup4\n        /* \"#utility.yul\":2444:2453   */\n      iszero\n        /* \"#utility.yul\":2424:2507   */\n      or\n        /* \"#utility.yul\":2401:2540   */\n      tag_86\n      jumpi\n        /* \"#utility.yul\":2520:2538   */\n      tag_87\n      tag_50\n      jump\t// in\n    tag_87:\n        /* \"#utility.yul\":2401:2540   */\n    tag_86:\n        /* \"#utility.yul\":2185:2547   */\n      pop\n        /* \"#utility.yul\":2137:2547   */\n      swap3\n      swap2\n      pop\n      pop\n      jump\t// out\n        /* \"#utility.yul\":2553:2747   */\n    tag_41:\n        /* \"#utility.yul\":2593:2597   */\n      0x00\n        /* \"#utility.yul\":2613:2633   */\n      tag_89\n        /* \"#utility.yul\":2631:2632   */\n      dup3\n        /* \"#utility.yul\":2613:2633   */\n      tag_43\n      jump\t// in\n    tag_89:\n        /* \"#utility.yul\":2608:2633   */\n      swap2\n      pop\n        /* \"#utility.yul\":2647:2667   */\n      tag_90\n        /* \"#utility.yul\":2665:2666   */\n      dup4\n        /* \"#utility.yul\":2647:2667   */\n      tag_43\n      jump\t// in\n    tag_90:\n        /* \"#utility.yul\":2642:2667   */\n      swap3\n      pop\n        /* \"#utility.yul\":2691:2692   */\n      dup3\n        /* \"#utility.yul\":2688:2689   */\n      dup3\n        /* \"#utility.yul\":2684:2693   */\n      sub\n        /* \"#utility.yul\":2676:2693   */\n      swap1\n      pop\n        /* \"#utility.yul\":2715:2716   */\n      dup2\n        /* \"#utility.yul\":2709:2713   */\n      dup2\n        /* \"#utility.yul\":2706:2717   */\n      gt\n        /* \"#utility.yul\":2703:2740   */\n      iszero\n      tag_91\n      jumpi\n        /* \"#utility.yul\":2720:2738   */\n      tag_92\n      tag_50\n      jump\t// in\n    tag_92:\n        /* \"#utility.yul\":2703:2740   */\n    tag_91:\n        /* \"#utility.yul\":2553:2747   */\n      swap3\n      swap2\n      pop\n      pop\n      jump\t// out\n\n    auxdata: 0xa264697066735822122053c7cf4d9366ab0da9cd676b86da5c19653397d513d8d60c46ebf51dd143f5d464736f6c634300081c0033\n}\n",
				"bytecode": {
					"linkReferences": {},
					"object": "60806040526103e85f5560146001553480156018575f5ffd5b506103eb806100265f395ff3fe608060405234801561000f575f5ffd5b5060043610610055575f3560e01c80632636b94514610059578063623e786b14610077578063b88a802f14610093578063c1cf2e69146100b1578063f7b2a7be146100cf575b5f5ffd5b6100616100ed565b60405161006e9190610212565b60405180910390f35b610091600480360381019061008c9190610259565b6100f2565b005b61009b61014c565b6040516100a89190610212565b60405180910390f35b6100b96101ee565b6040516100c69190610212565b60405180910390f35b6100d76101f4565b6040516100e49190610212565b60405180910390f35b5f5481565b5f811115610117578060025f82825461010b91906102b1565b92505081905550610149565b6040517f2c2ba2ab00000000000000000000000000000000000000000000000000000000815260040160405180910390fd5b50565b5f5f5f54600254106101b9575f90505b5f5460025461016b9190610311565b81101561018f576001548261018091906102b1565b9150808060010191505061015c565b805f5461019c9190610341565b60025f8282546101ac9190610382565b92505081905550506101eb565b6040517fd7b5d42100000000000000000000000000000000000000000000000000000000815260040160405180910390fd5b90565b60025481565b60015481565b5f819050919050565b61020c816101fa565b82525050565b5f6020820190506102255f830184610203565b92915050565b5f5ffd5b610238816101fa565b8114610242575f5ffd5b50565b5f813590506102538161022f565b92915050565b5f6020828403121561026e5761026d61022b565b5b5f61027b84828501610245565b91505092915050565b7f4e487b71000000000000000000000000000000000000000000000000000000005f52601160045260245ffd5b5f6102bb826101fa565b91506102c6836101fa565b92508282019050808211156102de576102dd610284565b5b92915050565b7f4e487b71000000000000000000000000000000000000000000000000000000005f52601260045260245ffd5b5f61031b826101fa565b9150610326836101fa565b925082610336576103356102e4565b5b828204905092915050565b5f61034b826101fa565b9150610356836101fa565b9250828202610364816101fa565b9150828204841483151761037b5761037a610284565b5b5092915050565b5f61038c826101fa565b9150610397836101fa565b92508282039050818111156103af576103ae610284565b5b9291505056fea264697066735822122053c7cf4d9366ab0da9cd676b86da5c19653397d513d8d60c46ebf51dd143f5d464736f6c634300081c0033",
					"opcodes": "PUSH1 0x80 PUSH1 0x40 MSTORE PUSH2 0x3E8 PUSH0 SSTORE PUSH1 0x14 PUSH1 0x1 SSTORE CALLVALUE DUP1 ISZERO PUSH1 0x18 JUMPI PUSH0 PUSH0 REVERT JUMPDEST POP PUSH2 0x3EB DUP1 PUSH2 0x26 PUSH0 CODECOPY PUSH0 RETURN INVALID PUSH1 0x80 PUSH1 0x40 MSTORE CALLVALUE DUP1 ISZERO PUSH2 0xF JUMPI PUSH0 PUSH0 REVERT JUMPDEST POP PUSH1 0x4 CALLDATASIZE LT PUSH2 0x55 JUMPI PUSH0 CALLDATALOAD PUSH1 0xE0 SHR DUP1 PUSH4 0x2636B945 EQ PUSH2 0x59 JUMPI DUP1 PUSH4 0x623E786B EQ PUSH2 0x77 JUMPI DUP1 PUSH4 0xB88A802F EQ PUSH2 0x93 JUMPI DUP1 PUSH4 0xC1CF2E69 EQ PUSH2 0xB1 JUMPI DUP1 PUSH4 0xF7B2A7BE EQ PUSH2 0xCF JUMPI JUMPDEST PUSH0 PUSH0 REVERT JUMPDEST PUSH2 0x61 PUSH2 0xED JUMP JUMPDEST PUSH1 0x40 MLOAD PUSH2 0x6E SWAP2 SWAP1 PUSH2 0x212 JUMP JUMPDEST PUSH1 0x40 MLOAD DUP1 SWAP2 SUB SWAP1 RETURN JUMPDEST PUSH2 0x91 PUSH1 0x4 DUP1 CALLDATASIZE SUB DUP2 ADD SWAP1 PUSH2 0x8C SWAP2 SWAP1 PUSH2 0x259 JUMP JUMPDEST PUSH2 0xF2 JUMP JUMPDEST STOP JUMPDEST PUSH2 0x9B PUSH2 0x14C JUMP JUMPDEST PUSH1 0x40 MLOAD PUSH2 0xA8 SWAP2 SWAP1 PUSH2 0x212 JUMP JUMPDEST PUSH1 0x40 MLOAD DUP1 SWAP2 SUB SWAP1 RETURN JUMPDEST PUSH2 0xB9 PUSH2 0x1EE JUMP JUMPDEST PUSH1 0x40 MLOAD PUSH2 0xC6 SWAP2 SWAP1 PUSH2 0x212 JUMP JUMPDEST PUSH1 0x40 MLOAD DUP1 SWAP2 SUB SWAP1 RETURN JUMPDEST PUSH2 0xD7 PUSH2 0x1F4 JUMP JUMPDEST PUSH1 0x40 MLOAD PUSH2 0xE4 SWAP2 SWAP1 PUSH2 0x212 JUMP JUMPDEST PUSH1 0x40 MLOAD DUP1 SWAP2 SUB SWAP1 RETURN JUMPDEST PUSH0 SLOAD DUP2 JUMP JUMPDEST PUSH0 DUP2 GT ISZERO PUSH2 0x117 JUMPI DUP1 PUSH1 0x2 PUSH0 DUP3 DUP3 SLOAD PUSH2 0x10B SWAP2 SWAP1 PUSH2 0x2B1 JUMP JUMPDEST SWAP3 POP POP DUP2 SWAP1 SSTORE POP PUSH2 0x149 JUMP JUMPDEST PUSH1 0x40 MLOAD PUSH32 0x2C2BA2AB00000000000000000000000000000000000000000000000000000000 DUP2 MSTORE PUSH1 0x4 ADD PUSH1 0x40 MLOAD DUP1 SWAP2 SUB SWAP1 REVERT JUMPDEST POP JUMP JUMPDEST PUSH0 PUSH0 PUSH0 SLOAD PUSH1 0x2 SLOAD LT PUSH2 0x1B9 JUMPI PUSH0 SWAP1 POP JUMPDEST PUSH0 SLOAD PUSH1 0x2 SLOAD PUSH2 0x16B SWAP2 SWAP1 PUSH2 0x311 JUMP JUMPDEST DUP2 LT ISZERO PUSH2 0x18F JUMPI PUSH1 0x1 SLOAD DUP3 PUSH2 0x180 SWAP2 SWAP1 PUSH2 0x2B1 JUMP JUMPDEST SWAP2 POP DUP1 DUP1 PUSH1 0x1 ADD SWAP2 POP POP PUSH2 0x15C JUMP JUMPDEST DUP1 PUSH0 SLOAD PUSH2 0x19C SWAP2 SWAP1 PUSH2 0x341 JUMP JUMPDEST PUSH1 0x2 PUSH0 DUP3 DUP3 SLOAD PUSH2 0x1AC SWAP2 SWAP1 PUSH2 0x382 JUMP JUMPDEST SWAP3 POP POP DUP2 SWAP1 SSTORE POP POP PUSH2 0x1EB JUMP JUMPDEST PUSH1 0x40 MLOAD PUSH32 0xD7B5D42100000000000000000000000000000000000000000000000000000000 DUP2 MSTORE PUSH1 0x4 ADD PUSH1 0x40 MLOAD DUP1 SWAP2 SUB SWAP1 REVERT JUMPDEST SWAP1 JUMP JUMPDEST PUSH1 0x2 SLOAD DUP2 JUMP JUMPDEST PUSH1 0x1 SLOAD DUP2 JUMP JUMPDEST PUSH0 DUP2 SWAP1 POP SWAP2 SWAP1 POP JUMP JUMPDEST PUSH2 0x20C DUP2 PUSH2 0x1FA JUMP JUMPDEST DUP3 MSTORE POP POP JUMP JUMPDEST PUSH0 PUSH1 0x20 DUP3 ADD SWAP1 POP PUSH2 0x225 PUSH0 DUP4 ADD DUP5 PUSH2 0x203 JUMP JUMPDEST SWAP3 SWAP2 POP POP JUMP JUMPDEST PUSH0 PUSH0 REVERT JUMPDEST PUSH2 0x238 DUP2 PUSH2 0x1FA JUMP JUMPDEST DUP2 EQ PUSH2 0x242 JUMPI PUSH0 PUSH0 REVERT JUMPDEST POP JUMP JUMPDEST PUSH0 DUP2 CALLDATALOAD SWAP1 POP PUSH2 0x253 DUP2 PUSH2 0x22F JUMP JUMPDEST SWAP3 SWAP2 POP POP JUMP JUMPDEST PUSH0 PUSH1 0x20 DUP3 DUP5 SUB SLT ISZERO PUSH2 0x26E JUMPI PUSH2 0x26D PUSH2 0x22B JUMP JUMPDEST JUMPDEST PUSH0 PUSH2 0x27B DUP5 DUP3 DUP6 ADD PUSH2 0x245 JUMP JUMPDEST SWAP2 POP POP SWAP3 SWAP2 POP POP JUMP JUMPDEST PUSH32 0x4E487B7100000000000000000000000000000000000000000000000000000000 PUSH0 MSTORE PUSH1 0x11 PUSH1 0x4 MSTORE PUSH1 0x24 PUSH0 REVERT JUMPDEST PUSH0 PUSH2 0x2BB DUP3 PUSH2 0x1FA JUMP JUMPDEST SWAP2 POP PUSH2 0x2C6 DUP4 PUSH2 0x1FA JUMP JUMPDEST SWAP3 POP DUP3 DUP3 ADD SWAP1 POP DUP1 DUP3 GT ISZERO PUSH2 0x2DE JUMPI PUSH2 0x2DD PUSH2 0x284 JUMP JUMPDEST JUMPDEST SWAP3 SWAP2 POP POP JUMP JUMPDEST PUSH32 0x4E487B7100000000000000000000000000000000000000000000000000000000 PUSH0 MSTORE PUSH1 0x12 PUSH1 0x4 MSTORE PUSH1 0x24 PUSH0 REVERT JUMPDEST PUSH0 PUSH2 0x31B DUP3 PUSH2 0x1FA JUMP JUMPDEST SWAP2 POP PUSH2 0x326 DUP4 PUSH2 0x1FA JUMP JUMPDEST SWAP3 POP DUP3 PUSH2 0x336 JUMPI PUSH2 0x335 PUSH2 0x2E4 JUMP JUMPDEST JUMPDEST DUP3 DUP3 DIV SWAP1 POP SWAP3 SWAP2 POP POP JUMP JUMPDEST PUSH0 PUSH2 0x34B DUP3 PUSH2 0x1FA JUMP JUMPDEST SWAP2 POP PUSH2 0x356 DUP4 PUSH2 0x1FA JUMP JUMPDEST SWAP3 POP DUP3 DUP3 MUL PUSH2 0x364 DUP2 PUSH2 0x1FA JUMP JUMPDEST SWAP2 POP DUP3 DUP3 DIV DUP5 EQ DUP4 ISZERO OR PUSH2 0x37B JUMPI PUSH2 0x37A PUSH2 0x284 JUMP JUMPDEST JUMPDEST POP SWAP3 SWAP2 POP POP JUMP JUMPDEST PUSH0 PUSH2 0x38C DUP3 PUSH2 0x1FA JUMP JUMPDEST SWAP2 POP PUSH2 0x397 DUP4 PUSH2 0x1FA JUMP JUMPDEST SWAP3 POP DUP3 DUP3 SUB SWAP1 POP DUP2 DUP2 GT ISZERO PUSH2 0x3AF JUMPI PUSH2 0x3AE PUSH2 0x284 JUMP JUMPDEST JUMPDEST SWAP3 SWAP2 POP POP JUMP INVALID LOG2 PUSH5 0x6970667358 0x22 SLT KECCAK256 MSTORE8 0xC7 0xCF 0x4D SWAP4 PUSH7 0xAB0DA9CD676B86 0xDA TLOAD NOT PUSH6 0x3397D513D8D6 0xC CHAINID 0xEB CREATE2 SAR 0xD1 NUMBER CREATE2 0xD4 PUSH5 0x736F6C6343 STOP ADDMOD SHR STOP CALLER "
				},
				"gasEstimates": {
					"creation": {
						"codeDepositCost": "200600",
						"executionCost": "44454",
						"totalCost": "245054"
					},
					"external": {
						"addSpending(uint256)": "infinite",
						"claimReward()": "infinite",
						"goalAmount()": "2402",
						"rewardAmount()": "2491",
						"totalSpend()": "2469"
					}
				},
				"methodIdentifiers": {
					"addSpending(uint256)": "623e786b",
					"claimReward()": "b88a802f",
					"goalAmount()": "2636b945",
					"rewardAmount()": "f7b2a7be",
					"totalSpend()": "c1cf2e69"
				}
			},
			"storageLayout": {
				"storage": [
					{
						"astId": 8,
						"contract": "GoalTracker.sol:goalTracker",
						"label": "goalAmount",
						"offset": 0,
						"slot": "0",
						"type": "t_uint256"
					},
					{
						"astId": 11,
						"contract": "GoalTracker.sol:goalTracker",
						"label": "rewardAmount",
						"offset": 0,
						"slot": "1",
						"type": "t_uint256"
					},
					{
						"astId": 13,
						"contract": "GoalTracker.sol:goalTracker",
						"label": "totalSpend",
						"offset": 0,
						"slot": "2",
						"type": "t_uint256"
					}
				],
				"types": {
					"t_uint256": {
						"encoding": "inplace",
						"label": "uint256",
						"numberOfBytes": "32"
					}
				}
			},
			"userdoc": {
				"kind": "user",
				"methods": {},
				"version": 1
			}
		}
	}
}