{
	"DigitalLibrary.sol": {
		"DigitalLibrary": {
			"abi": [
				{
					"inputs": [
						{
							"internalType": "uint256",
							"name": "_expirationDays",
							"type": "uint256"
						}
					],
					"stateMutability": "nonpayable",
					"type": "constructor"
				},
				{
					"inputs": [],
					"name": "You_Are_Not_Author",
					"type": "error"
				},
				{
					"inputs": [],
					"name": "You_Are_Not_Librarian",
					"type": "error"
				},
				{
					"inputs": [
						{
							"internalType": "uint256",
							"name": "_bookId",
							"type": "uint256"
						},
						{
							"internalType": "address",
							"name": "_librarian",
							"type": "address"
						}
					],
					"name": "addLibrarian",
					"outputs": [
						{
							"internalType": "address[]",
							"name": "librarians",
							"type": "address[]"
						}
					],
					"stateMutability": "nonpayable",
					"type": "function"
				},
				{
					"inputs": [
						{
							"internalType": "string",
							"name": "_title",
							"type": "string"
						},
						{
							"internalType": "string",
							"name": "_author",
							"type": "string"
						}
					],
					"name": "createEBook",
					"outputs": [],
					"stateMutability": "nonpayable",
					"type": "function"
				},
				{
					"inputs": [
						{
							"internalType": "uint256",
							"name": "_bookId",
							"type": "uint256"
						},
						{
							"internalType": "uint256",
							"name": "_addExpirationDays",
							"type": "uint256"
						}
					],
					"name": "extendExpirationDate",
					"outputs": [
						{
							"internalType": "bool",
							"name": "success",
							"type": "bool"
						}
					],
					"stateMutability": "nonpayable",
					"type": "function"
				},
				{
					"inputs": [
						{
							"internalType": "uint256",
							"name": "_bookId",
							"type": "uint256"
						}
					],
					"name": "getLibrarians",
					"outputs": [
						{
							"internalType": "address[]",
							"name": "librarians",
							"type": "address[]"
						}
					],
					"stateMutability": "view",
					"type": "function"
				},
				{
					"inputs": [
						{
							"internalType": "uint256",
							"name": "_bookId",
							"type": "uint256"
						}
					],
					"name": "getLibraryBook",
					"outputs": [
						{
							"internalType": "string",
							"name": "title__",
							"type": "string"
						},
						{
							"internalType": "string",
							"name": "author__",
							"type": "string"
						},
						{
							"internalType": "uint256",
							"name": "publicationDate__",
							"type": "uint256"
						},
						{
							"internalType": "uint256",
							"name": "expirationDate__",
							"type": "uint256"
						},
						{
							"internalType": "enum State",
							"name": "status__",
							"type": "uint8"
						},
						{
							"internalType": "address[]",
							"name": "librarians__",
							"type": "address[]"
						},
						{
							"internalType": "uint256",
							"name": "readCount__",
							"type": "uint256"
						}
					],
					"stateMutability": "view",
					"type": "function"
				}
			],
			"devdoc": {
				"kind": "dev",
				"methods": {},
				"version": 1
			},
			"evm": {
				"assembly": "    /* \"DigitalLibrary.sol\":381:2890  contract DigitalLibrary {... */\n  mstore(0x40, 0x80)\n    /* \"DigitalLibrary.sol\":524:610  constructor(uint256 _expirationDays) {... */\n  callvalue\n  dup1\n  iszero\n  tag_1\n  jumpi\n  revert(0x00, 0x00)\ntag_1:\n  pop\n  mload(0x40)\n  sub(codesize, bytecodeSize)\n  dup1\n  bytecodeSize\n  dup4\n  codecopy\n  dup2\n  dup2\n  add\n  0x40\n  mstore\n  dup2\n  add\n  swap1\n  tag_2\n  swap2\n  swap1\n  tag_3\n  jump\t// in\ntag_2:\n    /* \"DigitalLibrary.sol\":588:603  _expirationDays */\n  dup1\n    /* \"DigitalLibrary.sol\":571:585  expirationDays */\n  0x01\n    /* \"DigitalLibrary.sol\":571:603  expirationDays = _expirationDays */\n  dup2\n  swap1\n  sstore\n  pop\n    /* \"DigitalLibrary.sol\":524:610  constructor(uint256 _expirationDays) {... */\n  pop\n    /* \"DigitalLibrary.sol\":381:2890  contract DigitalLibrary {... */\n  jump(tag_6)\n    /* \"#utility.yul\":88:205   */\ntag_8:\n    /* \"#utility.yul\":197:198   */\n  0x00\n    /* \"#utility.yul\":194:195   */\n  0x00\n    /* \"#utility.yul\":187:199   */\n  revert\n    /* \"#utility.yul\":334:411   */\ntag_10:\n    /* \"#utility.yul\":371:378   */\n  0x00\n    /* \"#utility.yul\":400:405   */\n  dup2\n    /* \"#utility.yul\":389:405   */\n  swap1\n  pop\n    /* \"#utility.yul\":334:411   */\n  swap2\n  swap1\n  pop\n  jump\t// out\n    /* \"#utility.yul\":417:539   */\ntag_11:\n    /* \"#utility.yul\":490:514   */\n  tag_19\n    /* \"#utility.yul\":508:513   */\n  dup2\n    /* \"#utility.yul\":490:514   */\n  tag_10\n  jump\t// in\ntag_19:\n    /* \"#utility.yul\":483:488   */\n  dup2\n    /* \"#utility.yul\":480:515   */\n  eq\n    /* \"#utility.yul\":470:533   */\n  tag_20\n  jumpi\n    /* \"#utility.yul\":529:530   */\n  0x00\n    /* \"#utility.yul\":526:527   */\n  0x00\n    /* \"#utility.yul\":519:531   */\n  revert\n    /* \"#utility.yul\":470:533   */\ntag_20:\n    /* \"#utility.yul\":417:539   */\n  pop\n  jump\t// out\n    /* \"#utility.yul\":545:688   */\ntag_12:\n    /* \"#utility.yul\":602:607   */\n  0x00\n    /* \"#utility.yul\":633:639   */\n  dup2\n    /* \"#utility.yul\":627:640   */\n  mload\n    /* \"#utility.yul\":618:640   */\n  swap1\n  pop\n    /* \"#utility.yul\":649:682   */\n  tag_22\n    /* \"#utility.yul\":676:681   */\n  dup2\n    /* \"#utility.yul\":649:682   */\n  tag_11\n  jump\t// in\ntag_22:\n    /* \"#utility.yul\":545:688   */\n  swap3\n  swap2\n  pop\n  pop\n  jump\t// out\n    /* \"#utility.yul\":694:1045   */\ntag_3:\n    /* \"#utility.yul\":764:770   */\n  0x00\n    /* \"#utility.yul\":813:815   */\n  0x20\n    /* \"#utility.yul\":801:810   */\n  dup3\n    /* \"#utility.yul\":792:799   */\n  dup5\n    /* \"#utility.yul\":788:811   */\n  sub\n    /* \"#utility.yul\":784:816   */\n  slt\n    /* \"#utility.yul\":781:900   */\n  iszero\n  tag_24\n  jumpi\n    /* \"#utility.yul\":819:898   */\n  tag_25\n  tag_8\n  jump\t// in\ntag_25:\n    /* \"#utility.yul\":781:900   */\ntag_24:\n    /* \"#utility.yul\":939:940   */\n  0x00\n    /* \"#utility.yul\":964:1028   */\n  tag_26\n    /* \"#utility.yul\":1020:1027   */\n  dup5\n    /* \"#utility.yul\":1011:1017   */\n  dup3\n    /* \"#utility.yul\":1000:1009   */\n  dup6\n    /* \"#utility.yul\":996:1018   */\n  add\n    /* \"#utility.yul\":964:1028   */\n  tag_12\n  jump\t// in\ntag_26:\n    /* \"#utility.yul\":954:1028   */\n  swap2\n  pop\n    /* \"#utility.yul\":910:1038   */\n  pop\n    /* \"#utility.yul\":694:1045   */\n  swap3\n  swap2\n  pop\n  pop\n  jump\t// out\n    /* \"DigitalLibrary.sol\":381:2890  contract DigitalLibrary {... */\ntag_6:\n  dataSize(sub_0)\n  dup1\n  dataOffset(sub_0)\n  0x00\n  codecopy\n  0x00\n  return\nstop\n\nsub_0: assembly {\n        /* \"DigitalLibrary.sol\":381:2890  contract DigitalLibrary {... */\n      mstore(0x40, 0x80)\n      callvalue\n      dup1\n      iszero\n      tag_1\n      jumpi\n      revert(0x00, 0x00)\n    tag_1:\n      pop\n      jumpi(tag_2, lt(calldatasize, 0x04))\n      shr(0xe0, calldataload(0x00))\n      dup1\n      0x0657298f\n      eq\n      tag_3\n      jumpi\n      dup1\n      0x6925b1f9\n      eq\n      tag_4\n      jumpi\n      dup1\n      0x69ddc545\n      eq\n      tag_5\n      jumpi\n      dup1\n      0xbdb4a3bb\n      eq\n      tag_6\n      jumpi\n      dup1\n      0xe540f999\n      eq\n      tag_7\n      jumpi\n    tag_2:\n      revert(0x00, 0x00)\n        /* \"DigitalLibrary.sol\":1889:2247  function addLibrarian(uint256 _bookId, address _librarian)... */\n    tag_3:\n      tag_8\n      0x04\n      dup1\n      calldatasize\n      sub\n      dup2\n      add\n      swap1\n      tag_9\n      swap2\n      swap1\n      tag_10\n      jump\t// in\n    tag_9:\n      tag_11\n      jump\t// in\n    tag_8:\n      mload(0x40)\n      tag_12\n      swap2\n      swap1\n      tag_13\n      jump\t// in\n    tag_12:\n      mload(0x40)\n      dup1\n      swap2\n      sub\n      swap1\n      return\n        /* \"DigitalLibrary.sol\":1387:1883  function createEBook(string calldata _title, string calldata _author)... */\n    tag_4:\n      tag_14\n      0x04\n      dup1\n      calldatasize\n      sub\n      dup2\n      add\n      swap1\n      tag_15\n      swap2\n      swap1\n      tag_16\n      jump\t// in\n    tag_15:\n      tag_17\n      jump\t// in\n    tag_14:\n      stop\n        /* \"DigitalLibrary.sol\":616:1381  function getLibraryBook(uint256 _bookId)... */\n    tag_5:\n      tag_18\n      0x04\n      dup1\n      calldatasize\n      sub\n      dup2\n      add\n      swap1\n      tag_19\n      swap2\n      swap1\n      tag_20\n      jump\t// in\n    tag_19:\n      tag_21\n      jump\t// in\n    tag_18:\n      mload(0x40)\n      tag_22\n      swap8\n      swap7\n      swap6\n      swap5\n      swap4\n      swap3\n      swap2\n      swap1\n      tag_23\n      jump\t// in\n    tag_22:\n      mload(0x40)\n      dup1\n      swap2\n      sub\n      swap1\n      return\n        /* \"DigitalLibrary.sol\":2433:2888  function extendExpirationDate(uint256 _bookId, uint256 _addExpirationDays)... */\n    tag_6:\n      tag_24\n      0x04\n      dup1\n      calldatasize\n      sub\n      dup2\n      add\n      swap1\n      tag_25\n      swap2\n      swap1\n      tag_26\n      jump\t// in\n    tag_25:\n      tag_27\n      jump\t// in\n    tag_24:\n      mload(0x40)\n      tag_28\n      swap2\n      swap1\n      tag_29\n      jump\t// in\n    tag_28:\n      mload(0x40)\n      dup1\n      swap2\n      sub\n      swap1\n      return\n        /* \"DigitalLibrary.sol\":2253:2427  function getLibrarians(uint256 _bookId)... */\n    tag_7:\n      tag_30\n      0x04\n      dup1\n      calldatasize\n      sub\n      dup2\n      add\n      swap1\n      tag_31\n      swap2\n      swap1\n      tag_20\n      jump\t// in\n    tag_31:\n      tag_32\n      jump\t// in\n    tag_30:\n      mload(0x40)\n      tag_33\n      swap2\n      swap1\n      tag_13\n      jump\t// in\n    tag_33:\n      mload(0x40)\n      dup1\n      swap2\n      sub\n      swap1\n      return\n        /* \"DigitalLibrary.sol\":1889:2247  function addLibrarian(uint256 _bookId, address _librarian)... */\n    tag_11:\n        /* \"DigitalLibrary.sol\":1980:2007  address[] memory librarians */\n      0x60\n        /* \"DigitalLibrary.sol\":2023:2035  libraryBooks */\n      0x02\n        /* \"DigitalLibrary.sol\":2023:2044  libraryBooks[_bookId] */\n      0x00\n        /* \"DigitalLibrary.sol\":2036:2043  _bookId */\n      dup5\n        /* \"DigitalLibrary.sol\":2023:2044  libraryBooks[_bookId] */\n      dup2\n      mstore\n      0x20\n      add\n      swap1\n      dup2\n      mstore\n      0x20\n      add\n      0x00\n      keccak256\n        /* \"DigitalLibrary.sol\":2023:2055  libraryBooks[_bookId].librarians */\n      0x05\n      add\n        /* \"DigitalLibrary.sol\":2061:2071  _librarian */\n      dup3\n        /* \"DigitalLibrary.sol\":2023:2072  libraryBooks[_bookId].librarians.push(_librarian) */\n      swap1\n      dup1\n      0x01\n      dup2\n      sload\n      add\n      dup1\n      dup3\n      sstore\n      dup1\n      swap2\n      pop\n      pop\n      0x01\n      swap1\n      sub\n      swap1\n      0x00\n      mstore\n      keccak256(0x00, 0x20)\n      add\n      0x00\n      swap1\n      swap2\n      swap1\n      swap2\n      swap1\n      swap2\n      0x0100\n      exp\n      dup2\n      sload\n      dup2\n      0xffffffffffffffffffffffffffffffffffffffff\n      mul\n      not\n      and\n      swap1\n      dup4\n      0xffffffffffffffffffffffffffffffffffffffff\n      and\n      mul\n      or\n      swap1\n      sstore\n      pop\n        /* \"DigitalLibrary.sol\":2128:2138  msg.sender */\n      caller\n        /* \"DigitalLibrary.sol\":2086:2138  libraryBooks[_bookId].primaryLibrarian != msg.sender */\n      0xffffffffffffffffffffffffffffffffffffffff\n      and\n        /* \"DigitalLibrary.sol\":2086:2098  libraryBooks */\n      0x02\n        /* \"DigitalLibrary.sol\":2086:2107  libraryBooks[_bookId] */\n      0x00\n        /* \"DigitalLibrary.sol\":2099:2106  _bookId */\n      dup6\n        /* \"DigitalLibrary.sol\":2086:2107  libraryBooks[_bookId] */\n      dup2\n      mstore\n      0x20\n      add\n      swap1\n      dup2\n      mstore\n      0x20\n      add\n      0x00\n      keccak256\n        /* \"DigitalLibrary.sol\":2086:2124  libraryBooks[_bookId].primaryLibrarian */\n      0x04\n      add\n      0x01\n      swap1\n      sload\n      swap1\n      0x0100\n      exp\n      swap1\n      div\n      0xffffffffffffffffffffffffffffffffffffffff\n      and\n        /* \"DigitalLibrary.sol\":2086:2138  libraryBooks[_bookId].primaryLibrarian != msg.sender */\n      0xffffffffffffffffffffffffffffffffffffffff\n      and\n      eq\n        /* \"DigitalLibrary.sol\":2082:2192  if (libraryBooks[_bookId].primaryLibrarian != msg.sender) {... */\n      tag_36\n      jumpi\n        /* \"DigitalLibrary.sol\":2161:2181  You_Are_Not_Author() */\n      mload(0x40)\n      0x96cbe34c00000000000000000000000000000000000000000000000000000000\n      dup2\n      mstore\n      0x04\n      add\n      mload(0x40)\n      dup1\n      swap2\n      sub\n      swap1\n      revert\n        /* \"DigitalLibrary.sol\":2082:2192  if (libraryBooks[_bookId].primaryLibrarian != msg.sender) {... */\n    tag_36:\n        /* \"DigitalLibrary.sol\":2208:2220  libraryBooks */\n      0x02\n        /* \"DigitalLibrary.sol\":2208:2229  libraryBooks[_bookId] */\n      0x00\n        /* \"DigitalLibrary.sol\":2221:2228  _bookId */\n      dup5\n        /* \"DigitalLibrary.sol\":2208:2229  libraryBooks[_bookId] */\n      dup2\n      mstore\n      0x20\n      add\n      swap1\n      dup2\n      mstore\n      0x20\n      add\n      0x00\n      keccak256\n        /* \"DigitalLibrary.sol\":2208:2240  libraryBooks[_bookId].librarians */\n      0x05\n      add\n        /* \"DigitalLibrary.sol\":2201:2240  return libraryBooks[_bookId].librarians */\n      dup1\n      sload\n      dup1\n      0x20\n      mul\n      0x20\n      add\n      mload(0x40)\n      swap1\n      dup2\n      add\n      0x40\n      mstore\n      dup1\n      swap3\n      swap2\n      swap1\n      dup2\n      dup2\n      mstore\n      0x20\n      add\n      dup3\n      dup1\n      sload\n      dup1\n      iszero\n      tag_37\n      jumpi\n      0x20\n      mul\n      dup3\n      add\n      swap2\n      swap1\n      0x00\n      mstore\n      keccak256(0x00, 0x20)\n      swap1\n    tag_38:\n      dup2\n      0x00\n      swap1\n      sload\n      swap1\n      0x0100\n      exp\n      swap1\n      div\n      0xffffffffffffffffffffffffffffffffffffffff\n      and\n      0xffffffffffffffffffffffffffffffffffffffff\n      and\n      dup2\n      mstore\n      0x20\n      add\n      swap1\n      0x01\n      add\n      swap1\n      dup1\n      dup4\n      gt\n      tag_38\n      jumpi\n    tag_37:\n      pop\n      pop\n      pop\n      pop\n      pop\n      swap1\n      pop\n        /* \"DigitalLibrary.sol\":1889:2247  function addLibrarian(uint256 _bookId, address _librarian)... */\n      swap3\n      swap2\n      pop\n      pop\n      jump\t// out\n        /* \"DigitalLibrary.sol\":1387:1883  function createEBook(string calldata _title, string calldata _author)... */\n    tag_17:\n        /* \"DigitalLibrary.sol\":1511:1517  _title */\n      dup4\n      dup4\n        /* \"DigitalLibrary.sol\":1486:1498  libraryBooks */\n      0x02\n        /* \"DigitalLibrary.sol\":1486:1502  libraryBooks[id] */\n      0x00\n        /* \"DigitalLibrary.sol\":1499:1501  id */\n      sload(0x00)\n        /* \"DigitalLibrary.sol\":1486:1502  libraryBooks[id] */\n      dup2\n      mstore\n      0x20\n      add\n      swap1\n      dup2\n      mstore\n      0x20\n      add\n      0x00\n      keccak256\n        /* \"DigitalLibrary.sol\":1486:1508  libraryBooks[id].title */\n      0x00\n      add\n        /* \"DigitalLibrary.sol\":1486:1517  libraryBooks[id].title = _title */\n      swap2\n      dup3\n      tag_40\n      swap3\n      swap2\n      swap1\n      tag_41\n      jump\t// in\n    tag_40:\n      pop\n        /* \"DigitalLibrary.sol\":1553:1560  _author */\n      dup2\n      dup2\n        /* \"DigitalLibrary.sol\":1527:1539  libraryBooks */\n      0x02\n        /* \"DigitalLibrary.sol\":1527:1543  libraryBooks[id] */\n      0x00\n        /* \"DigitalLibrary.sol\":1540:1542  id */\n      sload(0x00)\n        /* \"DigitalLibrary.sol\":1527:1543  libraryBooks[id] */\n      dup2\n      mstore\n      0x20\n      add\n      swap1\n      dup2\n      mstore\n      0x20\n      add\n      0x00\n      keccak256\n        /* \"DigitalLibrary.sol\":1527:1550  libraryBooks[id].author */\n      0x01\n      add\n        /* \"DigitalLibrary.sol\":1527:1560  libraryBooks[id].author = _author */\n      swap2\n      dup3\n      tag_42\n      swap3\n      swap2\n      swap1\n      tag_41\n      jump\t// in\n    tag_42:\n      pop\n        /* \"DigitalLibrary.sol\":1605:1620  block.timestamp */\n      timestamp\n        /* \"DigitalLibrary.sol\":1570:1582  libraryBooks */\n      0x02\n        /* \"DigitalLibrary.sol\":1570:1586  libraryBooks[id] */\n      0x00\n        /* \"DigitalLibrary.sol\":1583:1585  id */\n      sload(0x00)\n        /* \"DigitalLibrary.sol\":1570:1586  libraryBooks[id] */\n      dup2\n      mstore\n      0x20\n      add\n      swap1\n      dup2\n      mstore\n      0x20\n      add\n      0x00\n      keccak256\n        /* \"DigitalLibrary.sol\":1570:1602  libraryBooks[id].publicationDate */\n      0x02\n      add\n        /* \"DigitalLibrary.sol\":1570:1620  libraryBooks[id].publicationDate = block.timestamp */\n      dup2\n      swap1\n      sstore\n      pop\n        /* \"DigitalLibrary.sol\":1752:1758  1 days */\n      0x015180\n        /* \"DigitalLibrary.sol\":1723:1737  expirationDays */\n      sload(0x01)\n        /* \"DigitalLibrary.sol\":1723:1758  expirationDays *... */\n      tag_43\n      swap2\n      swap1\n      tag_44\n      jump\t// in\n    tag_43:\n        /* \"DigitalLibrary.sol\":1676:1688  libraryBooks */\n      0x02\n        /* \"DigitalLibrary.sol\":1676:1692  libraryBooks[id] */\n      0x00\n        /* \"DigitalLibrary.sol\":1689:1691  id */\n      sload(0x00)\n        /* \"DigitalLibrary.sol\":1676:1692  libraryBooks[id] */\n      dup2\n      mstore\n      0x20\n      add\n      swap1\n      dup2\n      mstore\n      0x20\n      add\n      0x00\n      keccak256\n        /* \"DigitalLibrary.sol\":1676:1708  libraryBooks[id].publicationDate */\n      0x02\n      add\n      sload\n        /* \"DigitalLibrary.sol\":1676:1758  libraryBooks[id].publicationDate +... */\n      tag_45\n      swap2\n      swap1\n      tag_46\n      jump\t// in\n    tag_45:\n        /* \"DigitalLibrary.sol\":1630:1642  libraryBooks */\n      0x02\n        /* \"DigitalLibrary.sol\":1630:1646  libraryBooks[id] */\n      0x00\n        /* \"DigitalLibrary.sol\":1643:1645  id */\n      sload(0x00)\n        /* \"DigitalLibrary.sol\":1630:1646  libraryBooks[id] */\n      dup2\n      mstore\n      0x20\n      add\n      swap1\n      dup2\n      mstore\n      0x20\n      add\n      0x00\n      keccak256\n        /* \"DigitalLibrary.sol\":1630:1661  libraryBooks[id].expirationDate */\n      0x03\n      add\n        /* \"DigitalLibrary.sol\":1630:1758  libraryBooks[id].expirationDate =... */\n      dup2\n      swap1\n      sstore\n      pop\n        /* \"DigitalLibrary.sol\":1794:1806  State.Active */\n      0x00\n        /* \"DigitalLibrary.sol\":1768:1780  libraryBooks */\n      0x02\n        /* \"DigitalLibrary.sol\":1768:1784  libraryBooks[id] */\n      0x00\n        /* \"DigitalLibrary.sol\":1781:1783  id */\n      sload(0x00)\n        /* \"DigitalLibrary.sol\":1768:1784  libraryBooks[id] */\n      dup2\n      mstore\n      0x20\n      add\n      swap1\n      dup2\n      mstore\n      0x20\n      add\n      0x00\n      keccak256\n        /* \"DigitalLibrary.sol\":1768:1791  libraryBooks[id].status */\n      0x04\n      add\n      0x00\n        /* \"DigitalLibrary.sol\":1768:1806  libraryBooks[id].status = State.Active */\n      0x0100\n      exp\n      dup2\n      sload\n      dup2\n      0xff\n      mul\n      not\n      and\n      swap1\n      dup4\n      0x02\n      dup2\n      gt\n      iszero\n      tag_47\n      jumpi\n      tag_48\n      tag_49\n      jump\t// in\n    tag_48:\n    tag_47:\n      mul\n      or\n      swap1\n      sstore\n      pop\n        /* \"DigitalLibrary.sol\":1852:1862  msg.sender */\n      caller\n        /* \"DigitalLibrary.sol\":1816:1828  libraryBooks */\n      0x02\n        /* \"DigitalLibrary.sol\":1816:1832  libraryBooks[id] */\n      0x00\n        /* \"DigitalLibrary.sol\":1829:1831  id */\n      sload(0x00)\n        /* \"DigitalLibrary.sol\":1816:1832  libraryBooks[id] */\n      dup2\n      mstore\n      0x20\n      add\n      swap1\n      dup2\n      mstore\n      0x20\n      add\n      0x00\n      keccak256\n        /* \"DigitalLibrary.sol\":1816:1849  libraryBooks[id].primaryLibrarian */\n      0x04\n      add\n      0x01\n        /* \"DigitalLibrary.sol\":1816:1862  libraryBooks[id].primaryLibrarian = msg.sender */\n      0x0100\n      exp\n      dup2\n      sload\n      dup2\n      0xffffffffffffffffffffffffffffffffffffffff\n      mul\n      not\n      and\n      swap1\n      dup4\n      0xffffffffffffffffffffffffffffffffffffffff\n      and\n      mul\n      or\n      swap1\n      sstore\n      pop\n        /* \"DigitalLibrary.sol\":1872:1874  id */\n      0x00\n      0x00\n        /* \"DigitalLibrary.sol\":1872:1876  id++ */\n      dup2\n      sload\n      dup1\n      swap3\n      swap2\n      swap1\n      tag_50\n      swap1\n      tag_51\n      jump\t// in\n    tag_50:\n      swap2\n      swap1\n      pop\n      sstore\n      pop\n        /* \"DigitalLibrary.sol\":1387:1883  function createEBook(string calldata _title, string calldata _author)... */\n      pop\n      pop\n      pop\n      pop\n      jump\t// out\n        /* \"DigitalLibrary.sol\":616:1381  function getLibraryBook(uint256 _bookId)... */\n    tag_21:\n        /* \"DigitalLibrary.sol\":715:736  string memory title__ */\n      0x60\n        /* \"DigitalLibrary.sol\":750:772  string memory author__ */\n      dup1\n        /* \"DigitalLibrary.sol\":786:811  uint256 publicationDate__ */\n      0x00\n        /* \"DigitalLibrary.sol\":825:849  uint256 expirationDate__ */\n      0x00\n        /* \"DigitalLibrary.sol\":863:877  State status__ */\n      0x00\n        /* \"DigitalLibrary.sol\":891:920  address[] memory librarians__ */\n      0x60\n        /* \"DigitalLibrary.sol\":934:953  uint256 readCount__ */\n      0x00\n        /* \"DigitalLibrary.sol\":1019:1029  msg.sender */\n      caller\n        /* \"DigitalLibrary.sol\":977:1029  libraryBooks[_bookId].primaryLibrarian == msg.sender */\n      0xffffffffffffffffffffffffffffffffffffffff\n      and\n        /* \"DigitalLibrary.sol\":977:989  libraryBooks */\n      0x02\n        /* \"DigitalLibrary.sol\":977:998  libraryBooks[_bookId] */\n      0x00\n        /* \"DigitalLibrary.sol\":990:997  _bookId */\n      dup11\n        /* \"DigitalLibrary.sol\":977:998  libraryBooks[_bookId] */\n      dup2\n      mstore\n      0x20\n      add\n      swap1\n      dup2\n      mstore\n      0x20\n      add\n      0x00\n      keccak256\n        /* \"DigitalLibrary.sol\":977:1015  libraryBooks[_bookId].primaryLibrarian */\n      0x04\n      add\n      0x01\n      swap1\n      sload\n      swap1\n      0x0100\n      exp\n      swap1\n      div\n      0xffffffffffffffffffffffffffffffffffffffff\n      and\n        /* \"DigitalLibrary.sol\":977:1029  libraryBooks[_bookId].primaryLibrarian == msg.sender */\n      0xffffffffffffffffffffffffffffffffffffffff\n      and\n      eq\n        /* \"DigitalLibrary.sol\":969:1030  require(libraryBooks[_bookId].primaryLibrarian == msg.sender) */\n      tag_53\n      jumpi\n      revert(0x00, 0x00)\n    tag_53:\n        /* \"DigitalLibrary.sol\":1061:1073  libraryBooks */\n      0x02\n        /* \"DigitalLibrary.sol\":1061:1082  libraryBooks[_bookId] */\n      0x00\n        /* \"DigitalLibrary.sol\":1074:1081  _bookId */\n      dup10\n        /* \"DigitalLibrary.sol\":1061:1082  libraryBooks[_bookId] */\n      dup2\n      mstore\n      0x20\n      add\n      swap1\n      dup2\n      mstore\n      0x20\n      add\n      0x00\n      keccak256\n        /* \"DigitalLibrary.sol\":1061:1088  libraryBooks[_bookId].title */\n      0x00\n      add\n        /* \"DigitalLibrary.sol\":1102:1114  libraryBooks */\n      0x02\n        /* \"DigitalLibrary.sol\":1102:1123  libraryBooks[_bookId] */\n      0x00\n        /* \"DigitalLibrary.sol\":1115:1122  _bookId */\n      dup11\n        /* \"DigitalLibrary.sol\":1102:1123  libraryBooks[_bookId] */\n      dup2\n      mstore\n      0x20\n      add\n      swap1\n      dup2\n      mstore\n      0x20\n      add\n      0x00\n      keccak256\n        /* \"DigitalLibrary.sol\":1102:1130  libraryBooks[_bookId].author */\n      0x01\n      add\n        /* \"DigitalLibrary.sol\":1144:1156  libraryBooks */\n      0x02\n        /* \"DigitalLibrary.sol\":1144:1165  libraryBooks[_bookId] */\n      0x00\n        /* \"DigitalLibrary.sol\":1157:1164  _bookId */\n      dup12\n        /* \"DigitalLibrary.sol\":1144:1165  libraryBooks[_bookId] */\n      dup2\n      mstore\n      0x20\n      add\n      swap1\n      dup2\n      mstore\n      0x20\n      add\n      0x00\n      keccak256\n        /* \"DigitalLibrary.sol\":1144:1181  libraryBooks[_bookId].publicationDate */\n      0x02\n      add\n      sload\n        /* \"DigitalLibrary.sol\":1195:1207  libraryBooks */\n      0x02\n        /* \"DigitalLibrary.sol\":1195:1216  libraryBooks[_bookId] */\n      0x00\n        /* \"DigitalLibrary.sol\":1208:1215  _bookId */\n      dup13\n        /* \"DigitalLibrary.sol\":1195:1216  libraryBooks[_bookId] */\n      dup2\n      mstore\n      0x20\n      add\n      swap1\n      dup2\n      mstore\n      0x20\n      add\n      0x00\n      keccak256\n        /* \"DigitalLibrary.sol\":1195:1231  libraryBooks[_bookId].expirationDate */\n      0x03\n      add\n      sload\n        /* \"DigitalLibrary.sol\":1245:1257  libraryBooks */\n      0x02\n        /* \"DigitalLibrary.sol\":1245:1266  libraryBooks[_bookId] */\n      0x00\n        /* \"DigitalLibrary.sol\":1258:1265  _bookId */\n      dup14\n        /* \"DigitalLibrary.sol\":1245:1266  libraryBooks[_bookId] */\n      dup2\n      mstore\n      0x20\n      add\n      swap1\n      dup2\n      mstore\n      0x20\n      add\n      0x00\n      keccak256\n        /* \"DigitalLibrary.sol\":1245:1273  libraryBooks[_bookId].status */\n      0x04\n      add\n      0x00\n      swap1\n      sload\n      swap1\n      0x0100\n      exp\n      swap1\n      div\n      0xff\n      and\n        /* \"DigitalLibrary.sol\":1287:1299  libraryBooks */\n      0x02\n        /* \"DigitalLibrary.sol\":1287:1308  libraryBooks[_bookId] */\n      0x00\n        /* \"DigitalLibrary.sol\":1300:1307  _bookId */\n      dup15\n        /* \"DigitalLibrary.sol\":1287:1308  libraryBooks[_bookId] */\n      dup2\n      mstore\n      0x20\n      add\n      swap1\n      dup2\n      mstore\n      0x20\n      add\n      0x00\n      keccak256\n        /* \"DigitalLibrary.sol\":1287:1319  libraryBooks[_bookId].librarians */\n      0x05\n      add\n        /* \"DigitalLibrary.sol\":1333:1345  libraryBooks */\n      0x02\n        /* \"DigitalLibrary.sol\":1333:1354  libraryBooks[_bookId] */\n      0x00\n        /* \"DigitalLibrary.sol\":1346:1353  _bookId */\n      dup16\n        /* \"DigitalLibrary.sol\":1333:1354  libraryBooks[_bookId] */\n      dup2\n      mstore\n      0x20\n      add\n      swap1\n      dup2\n      mstore\n      0x20\n      add\n      0x00\n      keccak256\n        /* \"DigitalLibrary.sol\":1333:1364  libraryBooks[_bookId].readCount */\n      0x06\n      add\n      sload\n        /* \"DigitalLibrary.sol\":1040:1374  return (... */\n      dup7\n      dup1\n      sload\n      tag_54\n      swap1\n      tag_55\n      jump\t// in\n    tag_54:\n      dup1\n      0x1f\n      add\n      0x20\n      dup1\n      swap2\n      div\n      mul\n      0x20\n      add\n      mload(0x40)\n      swap1\n      dup2\n      add\n      0x40\n      mstore\n      dup1\n      swap3\n      swap2\n      swap1\n      dup2\n      dup2\n      mstore\n      0x20\n      add\n      dup3\n      dup1\n      sload\n      tag_56\n      swap1\n      tag_55\n      jump\t// in\n    tag_56:\n      dup1\n      iszero\n      tag_57\n      jumpi\n      dup1\n      0x1f\n      lt\n      tag_58\n      jumpi\n      0x0100\n      dup1\n      dup4\n      sload\n      div\n      mul\n      dup4\n      mstore\n      swap2\n      0x20\n      add\n      swap2\n      jump(tag_57)\n    tag_58:\n      dup3\n      add\n      swap2\n      swap1\n      0x00\n      mstore\n      keccak256(0x00, 0x20)\n      swap1\n    tag_59:\n      dup2\n      sload\n      dup2\n      mstore\n      swap1\n      0x01\n      add\n      swap1\n      0x20\n      add\n      dup1\n      dup4\n      gt\n      tag_59\n      jumpi\n      dup3\n      swap1\n      sub\n      0x1f\n      and\n      dup3\n      add\n      swap2\n    tag_57:\n      pop\n      pop\n      pop\n      pop\n      pop\n      swap7\n      pop\n      dup6\n      dup1\n      sload\n      tag_60\n      swap1\n      tag_55\n      jump\t// in\n    tag_60:\n      dup1\n      0x1f\n      add\n      0x20\n      dup1\n      swap2\n      div\n      mul\n      0x20\n      add\n      mload(0x40)\n      swap1\n      dup2\n      add\n      0x40\n      mstore\n      dup1\n      swap3\n      swap2\n      swap1\n      dup2\n      dup2\n      mstore\n      0x20\n      add\n      dup3\n      dup1\n      sload\n      tag_61\n      swap1\n      tag_55\n      jump\t// in\n    tag_61:\n      dup1\n      iszero\n      tag_62\n      jumpi\n      dup1\n      0x1f\n      lt\n      tag_63\n      jumpi\n      0x0100\n      dup1\n      dup4\n      sload\n      div\n      mul\n      dup4\n      mstore\n      swap2\n      0x20\n      add\n      swap2\n      jump(tag_62)\n    tag_63:\n      dup3\n      add\n      swap2\n      swap1\n      0x00\n      mstore\n      keccak256(0x00, 0x20)\n      swap1\n    tag_64:\n      dup2\n      sload\n      dup2\n      mstore\n      swap1\n      0x01\n      add\n      swap1\n      0x20\n      add\n      dup1\n      dup4\n      gt\n      tag_64\n      jumpi\n      dup3\n      swap1\n      sub\n      0x1f\n      and\n      dup3\n      add\n      swap2\n    tag_62:\n      pop\n      pop\n      pop\n      pop\n      pop\n      swap6\n      pop\n      dup2\n      dup1\n      sload\n      dup1\n      0x20\n      mul\n      0x20\n      add\n      mload(0x40)\n      swap1\n      dup2\n      add\n      0x40\n      mstore\n      dup1\n      swap3\n      swap2\n      swap1\n      dup2\n      dup2\n      mstore\n      0x20\n      add\n      dup3\n      dup1\n      sload\n      dup1\n      iszero\n      tag_65\n      jumpi\n      0x20\n      mul\n      dup3\n      add\n      swap2\n      swap1\n      0x00\n      mstore\n      keccak256(0x00, 0x20)\n      swap1\n    tag_66:\n      dup2\n      0x00\n      swap1\n      sload\n      swap1\n      0x0100\n      exp\n      swap1\n      div\n      0xffffffffffffffffffffffffffffffffffffffff\n      and\n      0xffffffffffffffffffffffffffffffffffffffff\n      and\n      dup2\n      mstore\n      0x20\n      add\n      swap1\n      0x01\n      add\n      swap1\n      dup1\n      dup4\n      gt\n      tag_66\n      jumpi\n    tag_65:\n      pop\n      pop\n      pop\n      pop\n      pop\n      swap2\n      pop\n      swap7\n      pop\n      swap7\n      pop\n      swap7\n      pop\n      swap7\n      pop\n      swap7\n      pop\n      swap7\n      pop\n      swap7\n      pop\n        /* \"DigitalLibrary.sol\":616:1381  function getLibraryBook(uint256 _bookId)... */\n      swap2\n      swap4\n      swap6\n      swap8\n      swap1\n      swap3\n      swap5\n      swap7\n      pop\n      jump\t// out\n        /* \"DigitalLibrary.sol\":2433:2888  function extendExpirationDate(uint256 _bookId, uint256 _addExpirationDays)... */\n    tag_27:\n        /* \"DigitalLibrary.sol\":2540:2552  bool success */\n      0x00\n        /* \"DigitalLibrary.sol\":2629:2635  1 days */\n      0x015180\n        /* \"DigitalLibrary.sol\":2608:2626  _addExpirationDays */\n      dup3\n        /* \"DigitalLibrary.sol\":2608:2635  _addExpirationDays * 1 days */\n      tag_68\n      swap2\n      swap1\n      tag_44\n      jump\t// in\n    tag_68:\n        /* \"DigitalLibrary.sol\":2568:2580  libraryBooks */\n      0x02\n        /* \"DigitalLibrary.sol\":2568:2589  libraryBooks[_bookId] */\n      0x00\n        /* \"DigitalLibrary.sol\":2581:2588  _bookId */\n      dup6\n        /* \"DigitalLibrary.sol\":2568:2589  libraryBooks[_bookId] */\n      dup2\n      mstore\n      0x20\n      add\n      swap1\n      dup2\n      mstore\n      0x20\n      add\n      0x00\n      keccak256\n        /* \"DigitalLibrary.sol\":2568:2604  libraryBooks[_bookId].expirationDate */\n      0x03\n      add\n      0x00\n        /* \"DigitalLibrary.sol\":2568:2635  libraryBooks[_bookId].expirationDate += _addExpirationDays * 1 days */\n      dup3\n      dup3\n      sload\n      tag_69\n      swap2\n      swap1\n      tag_46\n      jump\t// in\n    tag_69:\n      swap3\n      pop\n      pop\n      dup2\n      swap1\n      sstore\n      pop\n        /* \"DigitalLibrary.sol\":2650:2659  uint256 i */\n      0x00\n        /* \"DigitalLibrary.sol\":2662:2663  0 */\n      0x00\n        /* \"DigitalLibrary.sol\":2650:2663  uint256 i = 0 */\n      swap1\n      pop\n        /* \"DigitalLibrary.sol\":2669:2681  libraryBooks */\n      0x02\n        /* \"DigitalLibrary.sol\":2669:2690  libraryBooks[_bookId] */\n      0x00\n        /* \"DigitalLibrary.sol\":2682:2689  _bookId */\n      dup6\n        /* \"DigitalLibrary.sol\":2669:2690  libraryBooks[_bookId] */\n      dup2\n      mstore\n      0x20\n      add\n      swap1\n      dup2\n      mstore\n      0x20\n      add\n      0x00\n      keccak256\n        /* \"DigitalLibrary.sol\":2669:2701  libraryBooks[_bookId].librarians */\n      0x05\n      add\n        /* \"DigitalLibrary.sol\":2669:2708  libraryBooks[_bookId].librarians.length */\n      dup1\n      sload\n      swap1\n      pop\n        /* \"DigitalLibrary.sol\":2665:2666  i */\n      dup2\n        /* \"DigitalLibrary.sol\":2665:2708  i < libraryBooks[_bookId].librarians.length */\n      lt\n        /* \"DigitalLibrary.sol\":2645:2882  for (uint256 i = 0; i < libraryBooks[_bookId].librarians.length; i++) {... */\n      iszero\n      tag_71\n      jumpi\n        /* \"DigitalLibrary.sol\":2772:2782  msg.sender */\n      caller\n        /* \"DigitalLibrary.sol\":2733:2782  libraryBooks[_bookId].librarians[i] == msg.sender */\n      0xffffffffffffffffffffffffffffffffffffffff\n      and\n        /* \"DigitalLibrary.sol\":2733:2745  libraryBooks */\n      0x02\n        /* \"DigitalLibrary.sol\":2733:2754  libraryBooks[_bookId] */\n      0x00\n        /* \"DigitalLibrary.sol\":2746:2753  _bookId */\n      dup7\n        /* \"DigitalLibrary.sol\":2733:2754  libraryBooks[_bookId] */\n      dup2\n      mstore\n      0x20\n      add\n      swap1\n      dup2\n      mstore\n      0x20\n      add\n      0x00\n      keccak256\n        /* \"DigitalLibrary.sol\":2733:2765  libraryBooks[_bookId].librarians */\n      0x05\n      add\n        /* \"DigitalLibrary.sol\":2766:2767  i */\n      dup3\n        /* \"DigitalLibrary.sol\":2733:2768  libraryBooks[_bookId].librarians[i] */\n      dup2\n      sload\n      dup2\n      lt\n      tag_73\n      jumpi\n      tag_74\n      tag_75\n      jump\t// in\n    tag_74:\n    tag_73:\n      swap1\n      0x00\n      mstore\n      keccak256(0x00, 0x20)\n      add\n      0x00\n      swap1\n      sload\n      swap1\n      0x0100\n      exp\n      swap1\n      div\n      0xffffffffffffffffffffffffffffffffffffffff\n      and\n        /* \"DigitalLibrary.sol\":2733:2782  libraryBooks[_bookId].librarians[i] == msg.sender */\n      0xffffffffffffffffffffffffffffffffffffffff\n      and\n      sub\n        /* \"DigitalLibrary.sol\":2729:2828  if (libraryBooks[_bookId].librarians[i] == msg.sender) {... */\n      tag_77\n      jumpi\n        /* \"DigitalLibrary.sol\":2809:2813  true */\n      0x01\n        /* \"DigitalLibrary.sol\":2802:2813  return true */\n      swap2\n      pop\n      pop\n      jump(tag_67)\n        /* \"DigitalLibrary.sol\":2729:2828  if (libraryBooks[_bookId].librarians[i] == msg.sender) {... */\n    tag_77:\n        /* \"DigitalLibrary.sol\":2848:2871  You_Are_Not_Librarian() */\n      mload(0x40)\n      0xce1e0e0500000000000000000000000000000000000000000000000000000000\n      dup2\n      mstore\n      0x04\n      add\n      mload(0x40)\n      dup1\n      swap2\n      sub\n      swap1\n      revert\n        /* \"DigitalLibrary.sol\":2645:2882  for (uint256 i = 0; i < libraryBooks[_bookId].librarians.length; i++) {... */\n    tag_71:\n      pop\n        /* \"DigitalLibrary.sol\":2433:2888  function extendExpirationDate(uint256 _bookId, uint256 _addExpirationDays)... */\n    tag_67:\n      swap3\n      swap2\n      pop\n      pop\n      jump\t// out\n        /* \"DigitalLibrary.sol\":2253:2427  function getLibrarians(uint256 _bookId)... */\n    tag_32:\n        /* \"DigitalLibrary.sol\":2338:2365  address[] memory librarians */\n      0x60\n        /* \"DigitalLibrary.sol\":2388:2400  libraryBooks */\n      0x02\n        /* \"DigitalLibrary.sol\":2388:2409  libraryBooks[_bookId] */\n      0x00\n        /* \"DigitalLibrary.sol\":2401:2408  _bookId */\n      dup4\n        /* \"DigitalLibrary.sol\":2388:2409  libraryBooks[_bookId] */\n      dup2\n      mstore\n      0x20\n      add\n      swap1\n      dup2\n      mstore\n      0x20\n      add\n      0x00\n      keccak256\n        /* \"DigitalLibrary.sol\":2388:2420  libraryBooks[_bookId].librarians */\n      0x05\n      add\n        /* \"DigitalLibrary.sol\":2381:2420  return libraryBooks[_bookId].librarians */\n      dup1\n      sload\n      dup1\n      0x20\n      mul\n      0x20\n      add\n      mload(0x40)\n      swap1\n      dup2\n      add\n      0x40\n      mstore\n      dup1\n      swap3\n      swap2\n      swap1\n      dup2\n      dup2\n      mstore\n      0x20\n      add\n      dup3\n      dup1\n      sload\n      dup1\n      iszero\n      tag_79\n      jumpi\n      0x20\n      mul\n      dup3\n      add\n      swap2\n      swap1\n      0x00\n      mstore\n      keccak256(0x00, 0x20)\n      swap1\n    tag_80:\n      dup2\n      0x00\n      swap1\n      sload\n      swap1\n      0x0100\n      exp\n      swap1\n      div\n      0xffffffffffffffffffffffffffffffffffffffff\n      and\n      0xffffffffffffffffffffffffffffffffffffffff\n      and\n      dup2\n      mstore\n      0x20\n      add\n      swap1\n      0x01\n      add\n      swap1\n      dup1\n      dup4\n      gt\n      tag_80\n      jumpi\n    tag_79:\n      pop\n      pop\n      pop\n      pop\n      pop\n      swap1\n      pop\n        /* \"DigitalLibrary.sol\":2253:2427  function getLibrarians(uint256 _bookId)... */\n      swap2\n      swap1\n      pop\n      jump\t// out\n        /* \"#utility.yul\":88:205   */\n    tag_82:\n        /* \"#utility.yul\":197:198   */\n      0x00\n        /* \"#utility.yul\":194:195   */\n      0x00\n        /* \"#utility.yul\":187:199   */\n      revert\n        /* \"#utility.yul\":211:328   */\n    tag_83:\n        /* \"#utility.yul\":320:321   */\n      0x00\n        /* \"#utility.yul\":317:318   */\n      0x00\n        /* \"#utility.yul\":310:322   */\n      revert\n        /* \"#utility.yul\":334:411   */\n    tag_84:\n        /* \"#utility.yul\":371:378   */\n      0x00\n        /* \"#utility.yul\":400:405   */\n      dup2\n        /* \"#utility.yul\":389:405   */\n      swap1\n      pop\n        /* \"#utility.yul\":334:411   */\n      swap2\n      swap1\n      pop\n      jump\t// out\n        /* \"#utility.yul\":417:539   */\n    tag_85:\n        /* \"#utility.yul\":490:514   */\n      tag_139\n        /* \"#utility.yul\":508:513   */\n      dup2\n        /* \"#utility.yul\":490:514   */\n      tag_84\n      jump\t// in\n    tag_139:\n        /* \"#utility.yul\":483:488   */\n      dup2\n        /* \"#utility.yul\":480:515   */\n      eq\n        /* \"#utility.yul\":470:533   */\n      tag_140\n      jumpi\n        /* \"#utility.yul\":529:530   */\n      0x00\n        /* \"#utility.yul\":526:527   */\n      0x00\n        /* \"#utility.yul\":519:531   */\n      revert\n        /* \"#utility.yul\":470:533   */\n    tag_140:\n        /* \"#utility.yul\":417:539   */\n      pop\n      jump\t// out\n        /* \"#utility.yul\":545:684   */\n    tag_86:\n        /* \"#utility.yul\":591:596   */\n      0x00\n        /* \"#utility.yul\":629:635   */\n      dup2\n        /* \"#utility.yul\":616:636   */\n      calldataload\n        /* \"#utility.yul\":607:636   */\n      swap1\n      pop\n        /* \"#utility.yul\":645:678   */\n      tag_142\n        /* \"#utility.yul\":672:677   */\n      dup2\n        /* \"#utility.yul\":645:678   */\n      tag_85\n      jump\t// in\n    tag_142:\n        /* \"#utility.yul\":545:684   */\n      swap3\n      swap2\n      pop\n      pop\n      jump\t// out\n        /* \"#utility.yul\":690:816   */\n    tag_87:\n        /* \"#utility.yul\":727:734   */\n      0x00\n        /* \"#utility.yul\":767:809   */\n      0xffffffffffffffffffffffffffffffffffffffff\n        /* \"#utility.yul\":760:765   */\n      dup3\n        /* \"#utility.yul\":756:810   */\n      and\n        /* \"#utility.yul\":745:810   */\n      swap1\n      pop\n        /* \"#utility.yul\":690:816   */\n      swap2\n      swap1\n      pop\n      jump\t// out\n        /* \"#utility.yul\":822:918   */\n    tag_88:\n        /* \"#utility.yul\":859:866   */\n      0x00\n        /* \"#utility.yul\":888:912   */\n      tag_145\n        /* \"#utility.yul\":906:911   */\n      dup3\n        /* \"#utility.yul\":888:912   */\n      tag_87\n      jump\t// in\n    tag_145:\n        /* \"#utility.yul\":877:912   */\n      swap1\n      pop\n        /* \"#utility.yul\":822:918   */\n      swap2\n      swap1\n      pop\n      jump\t// out\n        /* \"#utility.yul\":924:1046   */\n    tag_89:\n        /* \"#utility.yul\":997:1021   */\n      tag_147\n        /* \"#utility.yul\":1015:1020   */\n      dup2\n        /* \"#utility.yul\":997:1021   */\n      tag_88\n      jump\t// in\n    tag_147:\n        /* \"#utility.yul\":990:995   */\n      dup2\n        /* \"#utility.yul\":987:1022   */\n      eq\n        /* \"#utility.yul\":977:1040   */\n      tag_148\n      jumpi\n        /* \"#utility.yul\":1036:1037   */\n      0x00\n        /* \"#utility.yul\":1033:1034   */\n      0x00\n        /* \"#utility.yul\":1026:1038   */\n      revert\n        /* \"#utility.yul\":977:1040   */\n    tag_148:\n        /* \"#utility.yul\":924:1046   */\n      pop\n      jump\t// out\n        /* \"#utility.yul\":1052:1191   */\n    tag_90:\n        /* \"#utility.yul\":1098:1103   */\n      0x00\n        /* \"#utility.yul\":1136:1142   */\n      dup2\n        /* \"#utility.yul\":1123:1143   */\n      calldataload\n        /* \"#utility.yul\":1114:1143   */\n      swap1\n      pop\n        /* \"#utility.yul\":1152:1185   */\n      tag_150\n        /* \"#utility.yul\":1179:1184   */\n      dup2\n        /* \"#utility.yul\":1152:1185   */\n      tag_89\n      jump\t// in\n    tag_150:\n        /* \"#utility.yul\":1052:1191   */\n      swap3\n      swap2\n      pop\n      pop\n      jump\t// out\n        /* \"#utility.yul\":1197:1671   */\n    tag_10:\n        /* \"#utility.yul\":1265:1271   */\n      0x00\n        /* \"#utility.yul\":1273:1279   */\n      0x00\n        /* \"#utility.yul\":1322:1324   */\n      0x40\n        /* \"#utility.yul\":1310:1319   */\n      dup4\n        /* \"#utility.yul\":1301:1308   */\n      dup6\n        /* \"#utility.yul\":1297:1320   */\n      sub\n        /* \"#utility.yul\":1293:1325   */\n      slt\n        /* \"#utility.yul\":1290:1409   */\n      iszero\n      tag_152\n      jumpi\n        /* \"#utility.yul\":1328:1407   */\n      tag_153\n      tag_82\n      jump\t// in\n    tag_153:\n        /* \"#utility.yul\":1290:1409   */\n    tag_152:\n        /* \"#utility.yul\":1448:1449   */\n      0x00\n        /* \"#utility.yul\":1473:1526   */\n      tag_154\n        /* \"#utility.yul\":1518:1525   */\n      dup6\n        /* \"#utility.yul\":1509:1515   */\n      dup3\n        /* \"#utility.yul\":1498:1507   */\n      dup7\n        /* \"#utility.yul\":1494:1516   */\n      add\n        /* \"#utility.yul\":1473:1526   */\n      tag_86\n      jump\t// in\n    tag_154:\n        /* \"#utility.yul\":1463:1526   */\n      swap3\n      pop\n        /* \"#utility.yul\":1419:1536   */\n      pop\n        /* \"#utility.yul\":1575:1577   */\n      0x20\n        /* \"#utility.yul\":1601:1654   */\n      tag_155\n        /* \"#utility.yul\":1646:1653   */\n      dup6\n        /* \"#utility.yul\":1637:1643   */\n      dup3\n        /* \"#utility.yul\":1626:1635   */\n      dup7\n        /* \"#utility.yul\":1622:1644   */\n      add\n        /* \"#utility.yul\":1601:1654   */\n      tag_90\n      jump\t// in\n    tag_155:\n        /* \"#utility.yul\":1591:1654   */\n      swap2\n      pop\n        /* \"#utility.yul\":1546:1664   */\n      pop\n        /* \"#utility.yul\":1197:1671   */\n      swap3\n      pop\n      swap3\n      swap1\n      pop\n      jump\t// out\n        /* \"#utility.yul\":1677:1791   */\n    tag_91:\n        /* \"#utility.yul\":1744:1750   */\n      0x00\n        /* \"#utility.yul\":1778:1783   */\n      dup2\n        /* \"#utility.yul\":1772:1784   */\n      mload\n        /* \"#utility.yul\":1762:1784   */\n      swap1\n      pop\n        /* \"#utility.yul\":1677:1791   */\n      swap2\n      swap1\n      pop\n      jump\t// out\n        /* \"#utility.yul\":1797:1981   */\n    tag_92:\n        /* \"#utility.yul\":1896:1907   */\n      0x00\n        /* \"#utility.yul\":1930:1936   */\n      dup3\n        /* \"#utility.yul\":1925:1928   */\n      dup3\n        /* \"#utility.yul\":1918:1937   */\n      mstore\n        /* \"#utility.yul\":1970:1974   */\n      0x20\n        /* \"#utility.yul\":1965:1968   */\n      dup3\n        /* \"#utility.yul\":1961:1975   */\n      add\n        /* \"#utility.yul\":1946:1975   */\n      swap1\n      pop\n        /* \"#utility.yul\":1797:1981   */\n      swap3\n      swap2\n      pop\n      pop\n      jump\t// out\n        /* \"#utility.yul\":1987:2119   */\n    tag_93:\n        /* \"#utility.yul\":2054:2058   */\n      0x00\n        /* \"#utility.yul\":2077:2080   */\n      dup2\n        /* \"#utility.yul\":2069:2080   */\n      swap1\n      pop\n        /* \"#utility.yul\":2107:2111   */\n      0x20\n        /* \"#utility.yul\":2102:2105   */\n      dup3\n        /* \"#utility.yul\":2098:2112   */\n      add\n        /* \"#utility.yul\":2090:2112   */\n      swap1\n      pop\n        /* \"#utility.yul\":1987:2119   */\n      swap2\n      swap1\n      pop\n      jump\t// out\n        /* \"#utility.yul\":2125:2233   */\n    tag_94:\n        /* \"#utility.yul\":2202:2226   */\n      tag_160\n        /* \"#utility.yul\":2220:2225   */\n      dup2\n        /* \"#utility.yul\":2202:2226   */\n      tag_88\n      jump\t// in\n    tag_160:\n        /* \"#utility.yul\":2197:2200   */\n      dup3\n        /* \"#utility.yul\":2190:2227   */\n      mstore\n        /* \"#utility.yul\":2125:2233   */\n      pop\n      pop\n      jump\t// out\n        /* \"#utility.yul\":2239:2418   */\n    tag_95:\n        /* \"#utility.yul\":2308:2318   */\n      0x00\n        /* \"#utility.yul\":2329:2375   */\n      tag_162\n        /* \"#utility.yul\":2371:2374   */\n      dup4\n        /* \"#utility.yul\":2363:2369   */\n      dup4\n        /* \"#utility.yul\":2329:2375   */\n      tag_94\n      jump\t// in\n    tag_162:\n        /* \"#utility.yul\":2407:2411   */\n      0x20\n        /* \"#utility.yul\":2402:2405   */\n      dup4\n        /* \"#utility.yul\":2398:2412   */\n      add\n        /* \"#utility.yul\":2384:2412   */\n      swap1\n      pop\n        /* \"#utility.yul\":2239:2418   */\n      swap3\n      swap2\n      pop\n      pop\n      jump\t// out\n        /* \"#utility.yul\":2424:2537   */\n    tag_96:\n        /* \"#utility.yul\":2494:2498   */\n      0x00\n        /* \"#utility.yul\":2526:2530   */\n      0x20\n        /* \"#utility.yul\":2521:2524   */\n      dup3\n        /* \"#utility.yul\":2517:2531   */\n      add\n        /* \"#utility.yul\":2509:2531   */\n      swap1\n      pop\n        /* \"#utility.yul\":2424:2537   */\n      swap2\n      swap1\n      pop\n      jump\t// out\n        /* \"#utility.yul\":2573:3305   */\n    tag_97:\n        /* \"#utility.yul\":2692:2695   */\n      0x00\n        /* \"#utility.yul\":2721:2775   */\n      tag_165\n        /* \"#utility.yul\":2769:2774   */\n      dup3\n        /* \"#utility.yul\":2721:2775   */\n      tag_91\n      jump\t// in\n    tag_165:\n        /* \"#utility.yul\":2791:2877   */\n      tag_166\n        /* \"#utility.yul\":2870:2876   */\n      dup2\n        /* \"#utility.yul\":2865:2868   */\n      dup6\n        /* \"#utility.yul\":2791:2877   */\n      tag_92\n      jump\t// in\n    tag_166:\n        /* \"#utility.yul\":2784:2877   */\n      swap4\n      pop\n        /* \"#utility.yul\":2901:2957   */\n      tag_167\n        /* \"#utility.yul\":2951:2956   */\n      dup4\n        /* \"#utility.yul\":2901:2957   */\n      tag_93\n      jump\t// in\n    tag_167:\n        /* \"#utility.yul\":2980:2987   */\n      dup1\n        /* \"#utility.yul\":3011:3012   */\n      0x00\n        /* \"#utility.yul\":2996:3280   */\n    tag_168:\n        /* \"#utility.yul\":3021:3027   */\n      dup4\n        /* \"#utility.yul\":3018:3019   */\n      dup2\n        /* \"#utility.yul\":3015:3028   */\n      lt\n        /* \"#utility.yul\":2996:3280   */\n      iszero\n      tag_170\n      jumpi\n        /* \"#utility.yul\":3097:3103   */\n      dup2\n        /* \"#utility.yul\":3091:3104   */\n      mload\n        /* \"#utility.yul\":3124:3187   */\n      tag_171\n        /* \"#utility.yul\":3183:3186   */\n      dup9\n        /* \"#utility.yul\":3168:3181   */\n      dup3\n        /* \"#utility.yul\":3124:3187   */\n      tag_95\n      jump\t// in\n    tag_171:\n        /* \"#utility.yul\":3117:3187   */\n      swap8\n      pop\n        /* \"#utility.yul\":3210:3270   */\n      tag_172\n        /* \"#utility.yul\":3263:3269   */\n      dup4\n        /* \"#utility.yul\":3210:3270   */\n      tag_96\n      jump\t// in\n    tag_172:\n        /* \"#utility.yul\":3200:3270   */\n      swap3\n      pop\n        /* \"#utility.yul\":3056:3280   */\n      pop\n        /* \"#utility.yul\":3043:3044   */\n      0x01\n        /* \"#utility.yul\":3040:3041   */\n      dup2\n        /* \"#utility.yul\":3036:3045   */\n      add\n        /* \"#utility.yul\":3031:3045   */\n      swap1\n      pop\n        /* \"#utility.yul\":2996:3280   */\n      jump(tag_168)\n    tag_170:\n        /* \"#utility.yul\":3000:3014   */\n      pop\n        /* \"#utility.yul\":3296:3299   */\n      dup6\n        /* \"#utility.yul\":3289:3299   */\n      swap4\n      pop\n        /* \"#utility.yul\":2697:3305   */\n      pop\n      pop\n      pop\n        /* \"#utility.yul\":2573:3305   */\n      swap3\n      swap2\n      pop\n      pop\n      jump\t// out\n        /* \"#utility.yul\":3311:3684   */\n    tag_13:\n        /* \"#utility.yul\":3454:3458   */\n      0x00\n        /* \"#utility.yul\":3492:3494   */\n      0x20\n        /* \"#utility.yul\":3481:3490   */\n      dup3\n        /* \"#utility.yul\":3477:3495   */\n      add\n        /* \"#utility.yul\":3469:3495   */\n      swap1\n      pop\n        /* \"#utility.yul\":3541:3550   */\n      dup2\n        /* \"#utility.yul\":3535:3539   */\n      dup2\n        /* \"#utility.yul\":3531:3551   */\n      sub\n        /* \"#utility.yul\":3527:3528   */\n      0x00\n        /* \"#utility.yul\":3516:3525   */\n      dup4\n        /* \"#utility.yul\":3512:3529   */\n      add\n        /* \"#utility.yul\":3505:3552   */\n      mstore\n        /* \"#utility.yul\":3569:3677   */\n      tag_174\n        /* \"#utility.yul\":3672:3676   */\n      dup2\n        /* \"#utility.yul\":3663:3669   */\n      dup5\n        /* \"#utility.yul\":3569:3677   */\n      tag_97\n      jump\t// in\n    tag_174:\n        /* \"#utility.yul\":3561:3677   */\n      swap1\n      pop\n        /* \"#utility.yul\":3311:3684   */\n      swap3\n      swap2\n      pop\n      pop\n      jump\t// out\n        /* \"#utility.yul\":3690:3807   */\n    tag_98:\n        /* \"#utility.yul\":3799:3800   */\n      0x00\n        /* \"#utility.yul\":3796:3797   */\n      0x00\n        /* \"#utility.yul\":3789:3801   */\n      revert\n        /* \"#utility.yul\":3813:3930   */\n    tag_99:\n        /* \"#utility.yul\":3922:3923   */\n      0x00\n        /* \"#utility.yul\":3919:3920   */\n      0x00\n        /* \"#utility.yul\":3912:3924   */\n      revert\n        /* \"#utility.yul\":3936:4053   */\n    tag_100:\n        /* \"#utility.yul\":4045:4046   */\n      0x00\n        /* \"#utility.yul\":4042:4043   */\n      0x00\n        /* \"#utility.yul\":4035:4047   */\n      revert\n        /* \"#utility.yul\":4073:4626   */\n    tag_101:\n        /* \"#utility.yul\":4131:4139   */\n      0x00\n        /* \"#utility.yul\":4141:4147   */\n      0x00\n        /* \"#utility.yul\":4191:4194   */\n      dup4\n        /* \"#utility.yul\":4184:4188   */\n      0x1f\n        /* \"#utility.yul\":4176:4182   */\n      dup5\n        /* \"#utility.yul\":4172:4189   */\n      add\n        /* \"#utility.yul\":4168:4195   */\n      slt\n        /* \"#utility.yul\":4158:4280   */\n      tag_179\n      jumpi\n        /* \"#utility.yul\":4199:4278   */\n      tag_180\n      tag_98\n      jump\t// in\n    tag_180:\n        /* \"#utility.yul\":4158:4280   */\n    tag_179:\n        /* \"#utility.yul\":4312:4318   */\n      dup3\n        /* \"#utility.yul\":4299:4319   */\n      calldataload\n        /* \"#utility.yul\":4289:4319   */\n      swap1\n      pop\n        /* \"#utility.yul\":4342:4360   */\n      0xffffffffffffffff\n        /* \"#utility.yul\":4334:4340   */\n      dup2\n        /* \"#utility.yul\":4331:4361   */\n      gt\n        /* \"#utility.yul\":4328:4445   */\n      iszero\n      tag_181\n      jumpi\n        /* \"#utility.yul\":4364:4443   */\n      tag_182\n      tag_99\n      jump\t// in\n    tag_182:\n        /* \"#utility.yul\":4328:4445   */\n    tag_181:\n        /* \"#utility.yul\":4478:4482   */\n      0x20\n        /* \"#utility.yul\":4470:4476   */\n      dup4\n        /* \"#utility.yul\":4466:4483   */\n      add\n        /* \"#utility.yul\":4454:4483   */\n      swap2\n      pop\n        /* \"#utility.yul\":4532:4535   */\n      dup4\n        /* \"#utility.yul\":4524:4528   */\n      0x01\n        /* \"#utility.yul\":4516:4522   */\n      dup3\n        /* \"#utility.yul\":4512:4529   */\n      mul\n        /* \"#utility.yul\":4502:4510   */\n      dup4\n        /* \"#utility.yul\":4498:4530   */\n      add\n        /* \"#utility.yul\":4495:4536   */\n      gt\n        /* \"#utility.yul\":4492:4620   */\n      iszero\n      tag_183\n      jumpi\n        /* \"#utility.yul\":4539:4618   */\n      tag_184\n      tag_100\n      jump\t// in\n    tag_184:\n        /* \"#utility.yul\":4492:4620   */\n    tag_183:\n        /* \"#utility.yul\":4073:4626   */\n      swap3\n      pop\n      swap3\n      swap1\n      pop\n      jump\t// out\n        /* \"#utility.yul\":4632:5506   */\n    tag_16:\n        /* \"#utility.yul\":4724:4730   */\n      0x00\n        /* \"#utility.yul\":4732:4738   */\n      0x00\n        /* \"#utility.yul\":4740:4746   */\n      0x00\n        /* \"#utility.yul\":4748:4754   */\n      0x00\n        /* \"#utility.yul\":4797:4799   */\n      0x40\n        /* \"#utility.yul\":4785:4794   */\n      dup6\n        /* \"#utility.yul\":4776:4783   */\n      dup8\n        /* \"#utility.yul\":4772:4795   */\n      sub\n        /* \"#utility.yul\":4768:4800   */\n      slt\n        /* \"#utility.yul\":4765:4884   */\n      iszero\n      tag_186\n      jumpi\n        /* \"#utility.yul\":4803:4882   */\n      tag_187\n      tag_82\n      jump\t// in\n    tag_187:\n        /* \"#utility.yul\":4765:4884   */\n    tag_186:\n        /* \"#utility.yul\":4951:4952   */\n      0x00\n        /* \"#utility.yul\":4940:4949   */\n      dup6\n        /* \"#utility.yul\":4936:4953   */\n      add\n        /* \"#utility.yul\":4923:4954   */\n      calldataload\n        /* \"#utility.yul\":4981:4999   */\n      0xffffffffffffffff\n        /* \"#utility.yul\":4973:4979   */\n      dup2\n        /* \"#utility.yul\":4970:5000   */\n      gt\n        /* \"#utility.yul\":4967:5084   */\n      iszero\n      tag_188\n      jumpi\n        /* \"#utility.yul\":5003:5082   */\n      tag_189\n      tag_83\n      jump\t// in\n    tag_189:\n        /* \"#utility.yul\":4967:5084   */\n    tag_188:\n        /* \"#utility.yul\":5116:5181   */\n      tag_190\n        /* \"#utility.yul\":5173:5180   */\n      dup8\n        /* \"#utility.yul\":5164:5170   */\n      dup3\n        /* \"#utility.yul\":5153:5162   */\n      dup9\n        /* \"#utility.yul\":5149:5171   */\n      add\n        /* \"#utility.yul\":5116:5181   */\n      tag_101\n      jump\t// in\n    tag_190:\n        /* \"#utility.yul\":5098:5181   */\n      swap5\n      pop\n      swap5\n      pop\n        /* \"#utility.yul\":4894:5191   */\n      pop\n        /* \"#utility.yul\":5258:5260   */\n      0x20\n        /* \"#utility.yul\":5247:5256   */\n      dup6\n        /* \"#utility.yul\":5243:5261   */\n      add\n        /* \"#utility.yul\":5230:5262   */\n      calldataload\n        /* \"#utility.yul\":5289:5307   */\n      0xffffffffffffffff\n        /* \"#utility.yul\":5281:5287   */\n      dup2\n        /* \"#utility.yul\":5278:5308   */\n      gt\n        /* \"#utility.yul\":5275:5392   */\n      iszero\n      tag_191\n      jumpi\n        /* \"#utility.yul\":5311:5390   */\n      tag_192\n      tag_83\n      jump\t// in\n    tag_192:\n        /* \"#utility.yul\":5275:5392   */\n    tag_191:\n        /* \"#utility.yul\":5424:5489   */\n      tag_193\n        /* \"#utility.yul\":5481:5488   */\n      dup8\n        /* \"#utility.yul\":5472:5478   */\n      dup3\n        /* \"#utility.yul\":5461:5470   */\n      dup9\n        /* \"#utility.yul\":5457:5479   */\n      add\n        /* \"#utility.yul\":5424:5489   */\n      tag_101\n      jump\t// in\n    tag_193:\n        /* \"#utility.yul\":5406:5489   */\n      swap3\n      pop\n      swap3\n      pop\n        /* \"#utility.yul\":5201:5499   */\n      pop\n        /* \"#utility.yul\":4632:5506   */\n      swap3\n      swap6\n      swap2\n      swap5\n      pop\n      swap3\n      pop\n      jump\t// out\n        /* \"#utility.yul\":5512:5841   */\n    tag_20:\n        /* \"#utility.yul\":5571:5577   */\n      0x00\n        /* \"#utility.yul\":5620:5622   */\n      0x20\n        /* \"#utility.yul\":5608:5617   */\n      dup3\n        /* \"#utility.yul\":5599:5606   */\n      dup5\n        /* \"#utility.yul\":5595:5618   */\n      sub\n        /* \"#utility.yul\":5591:5623   */\n      slt\n        /* \"#utility.yul\":5588:5707   */\n      iszero\n      tag_195\n      jumpi\n        /* \"#utility.yul\":5626:5705   */\n      tag_196\n      tag_82\n      jump\t// in\n    tag_196:\n        /* \"#utility.yul\":5588:5707   */\n    tag_195:\n        /* \"#utility.yul\":5746:5747   */\n      0x00\n        /* \"#utility.yul\":5771:5824   */\n      tag_197\n        /* \"#utility.yul\":5816:5823   */\n      dup5\n        /* \"#utility.yul\":5807:5813   */\n      dup3\n        /* \"#utility.yul\":5796:5805   */\n      dup6\n        /* \"#utility.yul\":5792:5814   */\n      add\n        /* \"#utility.yul\":5771:5824   */\n      tag_86\n      jump\t// in\n    tag_197:\n        /* \"#utility.yul\":5761:5824   */\n      swap2\n      pop\n        /* \"#utility.yul\":5717:5834   */\n      pop\n        /* \"#utility.yul\":5512:5841   */\n      swap3\n      swap2\n      pop\n      pop\n      jump\t// out\n        /* \"#utility.yul\":5847:5946   */\n    tag_102:\n        /* \"#utility.yul\":5899:5905   */\n      0x00\n        /* \"#utility.yul\":5933:5938   */\n      dup2\n        /* \"#utility.yul\":5927:5939   */\n      mload\n        /* \"#utility.yul\":5917:5939   */\n      swap1\n      pop\n        /* \"#utility.yul\":5847:5946   */\n      swap2\n      swap1\n      pop\n      jump\t// out\n        /* \"#utility.yul\":5952:6121   */\n    tag_103:\n        /* \"#utility.yul\":6036:6047   */\n      0x00\n        /* \"#utility.yul\":6070:6076   */\n      dup3\n        /* \"#utility.yul\":6065:6068   */\n      dup3\n        /* \"#utility.yul\":6058:6077   */\n      mstore\n        /* \"#utility.yul\":6110:6114   */\n      0x20\n        /* \"#utility.yul\":6105:6108   */\n      dup3\n        /* \"#utility.yul\":6101:6115   */\n      add\n        /* \"#utility.yul\":6086:6115   */\n      swap1\n      pop\n        /* \"#utility.yul\":5952:6121   */\n      swap3\n      swap2\n      pop\n      pop\n      jump\t// out\n        /* \"#utility.yul\":6127:6266   */\n    tag_104:\n        /* \"#utility.yul\":6216:6222   */\n      dup3\n        /* \"#utility.yul\":6211:6214   */\n      dup2\n        /* \"#utility.yul\":6206:6209   */\n      dup4\n        /* \"#utility.yul\":6200:6223   */\n      mcopy\n        /* \"#utility.yul\":6257:6258   */\n      0x00\n        /* \"#utility.yul\":6248:6254   */\n      dup4\n        /* \"#utility.yul\":6243:6246   */\n      dup4\n        /* \"#utility.yul\":6239:6255   */\n      add\n        /* \"#utility.yul\":6232:6259   */\n      mstore\n        /* \"#utility.yul\":6127:6266   */\n      pop\n      pop\n      pop\n      jump\t// out\n        /* \"#utility.yul\":6272:6374   */\n    tag_105:\n        /* \"#utility.yul\":6313:6319   */\n      0x00\n        /* \"#utility.yul\":6364:6366   */\n      0x1f\n        /* \"#utility.yul\":6360:6367   */\n      not\n        /* \"#utility.yul\":6355:6357   */\n      0x1f\n        /* \"#utility.yul\":6348:6353   */\n      dup4\n        /* \"#utility.yul\":6344:6358   */\n      add\n        /* \"#utility.yul\":6340:6368   */\n      and\n        /* \"#utility.yul\":6330:6368   */\n      swap1\n      pop\n        /* \"#utility.yul\":6272:6374   */\n      swap2\n      swap1\n      pop\n      jump\t// out\n        /* \"#utility.yul\":6380:6757   */\n    tag_106:\n        /* \"#utility.yul\":6468:6471   */\n      0x00\n        /* \"#utility.yul\":6496:6535   */\n      tag_203\n        /* \"#utility.yul\":6529:6534   */\n      dup3\n        /* \"#utility.yul\":6496:6535   */\n      tag_102\n      jump\t// in\n    tag_203:\n        /* \"#utility.yul\":6551:6622   */\n      tag_204\n        /* \"#utility.yul\":6615:6621   */\n      dup2\n        /* \"#utility.yul\":6610:6613   */\n      dup6\n        /* \"#utility.yul\":6551:6622   */\n      tag_103\n      jump\t// in\n    tag_204:\n        /* \"#utility.yul\":6544:6622   */\n      swap4\n      pop\n        /* \"#utility.yul\":6631:6696   */\n      tag_205\n        /* \"#utility.yul\":6689:6695   */\n      dup2\n        /* \"#utility.yul\":6684:6687   */\n      dup6\n        /* \"#utility.yul\":6677:6681   */\n      0x20\n        /* \"#utility.yul\":6670:6675   */\n      dup7\n        /* \"#utility.yul\":6666:6682   */\n      add\n        /* \"#utility.yul\":6631:6696   */\n      tag_104\n      jump\t// in\n    tag_205:\n        /* \"#utility.yul\":6721:6750   */\n      tag_206\n        /* \"#utility.yul\":6743:6749   */\n      dup2\n        /* \"#utility.yul\":6721:6750   */\n      tag_105\n      jump\t// in\n    tag_206:\n        /* \"#utility.yul\":6716:6719   */\n      dup5\n        /* \"#utility.yul\":6712:6751   */\n      add\n        /* \"#utility.yul\":6705:6751   */\n      swap2\n      pop\n        /* \"#utility.yul\":6472:6757   */\n      pop\n        /* \"#utility.yul\":6380:6757   */\n      swap3\n      swap2\n      pop\n      pop\n      jump\t// out\n        /* \"#utility.yul\":6763:6881   */\n    tag_107:\n        /* \"#utility.yul\":6850:6874   */\n      tag_208\n        /* \"#utility.yul\":6868:6873   */\n      dup2\n        /* \"#utility.yul\":6850:6874   */\n      tag_84\n      jump\t// in\n    tag_208:\n        /* \"#utility.yul\":6845:6848   */\n      dup3\n        /* \"#utility.yul\":6838:6875   */\n      mstore\n        /* \"#utility.yul\":6763:6881   */\n      pop\n      pop\n      jump\t// out\n        /* \"#utility.yul\":6887:7067   */\n    tag_49:\n        /* \"#utility.yul\":6935:7012   */\n      0x4e487b7100000000000000000000000000000000000000000000000000000000\n        /* \"#utility.yul\":6932:6933   */\n      0x00\n        /* \"#utility.yul\":6925:7013   */\n      mstore\n        /* \"#utility.yul\":7032:7036   */\n      0x21\n        /* \"#utility.yul\":7029:7030   */\n      0x04\n        /* \"#utility.yul\":7022:7037   */\n      mstore\n        /* \"#utility.yul\":7056:7060   */\n      0x24\n        /* \"#utility.yul\":7053:7054   */\n      0x00\n        /* \"#utility.yul\":7046:7061   */\n      revert\n        /* \"#utility.yul\":7073:7185   */\n    tag_108:\n        /* \"#utility.yul\":7153:7154   */\n      0x03\n        /* \"#utility.yul\":7146:7151   */\n      dup2\n        /* \"#utility.yul\":7143:7155   */\n      lt\n        /* \"#utility.yul\":7133:7179   */\n      tag_211\n      jumpi\n        /* \"#utility.yul\":7159:7177   */\n      tag_212\n      tag_49\n      jump\t// in\n    tag_212:\n        /* \"#utility.yul\":7133:7179   */\n    tag_211:\n        /* \"#utility.yul\":7073:7185   */\n      pop\n      jump\t// out\n        /* \"#utility.yul\":7191:7316   */\n    tag_109:\n        /* \"#utility.yul\":7235:7242   */\n      0x00\n        /* \"#utility.yul\":7264:7269   */\n      dup2\n        /* \"#utility.yul\":7253:7269   */\n      swap1\n      pop\n        /* \"#utility.yul\":7270:7310   */\n      tag_214\n        /* \"#utility.yul\":7304:7309   */\n      dup3\n        /* \"#utility.yul\":7270:7310   */\n      tag_108\n      jump\t// in\n    tag_214:\n        /* \"#utility.yul\":7191:7316   */\n      swap2\n      swap1\n      pop\n      jump\t// out\n        /* \"#utility.yul\":7322:7447   */\n    tag_110:\n        /* \"#utility.yul\":7377:7386   */\n      0x00\n        /* \"#utility.yul\":7410:7441   */\n      tag_216\n        /* \"#utility.yul\":7435:7440   */\n      dup3\n        /* \"#utility.yul\":7410:7441   */\n      tag_109\n      jump\t// in\n    tag_216:\n        /* \"#utility.yul\":7397:7441   */\n      swap1\n      pop\n        /* \"#utility.yul\":7322:7447   */\n      swap2\n      swap1\n      pop\n      jump\t// out\n        /* \"#utility.yul\":7453:7594   */\n    tag_111:\n        /* \"#utility.yul\":7545:7587   */\n      tag_218\n        /* \"#utility.yul\":7581:7586   */\n      dup2\n        /* \"#utility.yul\":7545:7587   */\n      tag_110\n      jump\t// in\n    tag_218:\n        /* \"#utility.yul\":7540:7543   */\n      dup3\n        /* \"#utility.yul\":7533:7588   */\n      mstore\n        /* \"#utility.yul\":7453:7594   */\n      pop\n      pop\n      jump\t// out\n        /* \"#utility.yul\":7600:8829   */\n    tag_23:\n        /* \"#utility.yul\":7956:7960   */\n      0x00\n        /* \"#utility.yul\":7994:7997   */\n      0xe0\n        /* \"#utility.yul\":7983:7992   */\n      dup3\n        /* \"#utility.yul\":7979:7998   */\n      add\n        /* \"#utility.yul\":7971:7998   */\n      swap1\n      pop\n        /* \"#utility.yul\":8044:8053   */\n      dup2\n        /* \"#utility.yul\":8038:8042   */\n      dup2\n        /* \"#utility.yul\":8034:8054   */\n      sub\n        /* \"#utility.yul\":8030:8031   */\n      0x00\n        /* \"#utility.yul\":8019:8028   */\n      dup4\n        /* \"#utility.yul\":8015:8032   */\n      add\n        /* \"#utility.yul\":8008:8055   */\n      mstore\n        /* \"#utility.yul\":8072:8150   */\n      tag_220\n        /* \"#utility.yul\":8145:8149   */\n      dup2\n        /* \"#utility.yul\":8136:8142   */\n      dup11\n        /* \"#utility.yul\":8072:8150   */\n      tag_106\n      jump\t// in\n    tag_220:\n        /* \"#utility.yul\":8064:8150   */\n      swap1\n      pop\n        /* \"#utility.yul\":8197:8206   */\n      dup2\n        /* \"#utility.yul\":8191:8195   */\n      dup2\n        /* \"#utility.yul\":8187:8207   */\n      sub\n        /* \"#utility.yul\":8182:8184   */\n      0x20\n        /* \"#utility.yul\":8171:8180   */\n      dup4\n        /* \"#utility.yul\":8167:8185   */\n      add\n        /* \"#utility.yul\":8160:8208   */\n      mstore\n        /* \"#utility.yul\":8225:8303   */\n      tag_221\n        /* \"#utility.yul\":8298:8302   */\n      dup2\n        /* \"#utility.yul\":8289:8295   */\n      dup10\n        /* \"#utility.yul\":8225:8303   */\n      tag_106\n      jump\t// in\n    tag_221:\n        /* \"#utility.yul\":8217:8303   */\n      swap1\n      pop\n        /* \"#utility.yul\":8313:8385   */\n      tag_222\n        /* \"#utility.yul\":8381:8383   */\n      0x40\n        /* \"#utility.yul\":8370:8379   */\n      dup4\n        /* \"#utility.yul\":8366:8384   */\n      add\n        /* \"#utility.yul\":8357:8363   */\n      dup9\n        /* \"#utility.yul\":8313:8385   */\n      tag_107\n      jump\t// in\n    tag_222:\n        /* \"#utility.yul\":8395:8467   */\n      tag_223\n        /* \"#utility.yul\":8463:8465   */\n      0x60\n        /* \"#utility.yul\":8452:8461   */\n      dup4\n        /* \"#utility.yul\":8448:8466   */\n      add\n        /* \"#utility.yul\":8439:8445   */\n      dup8\n        /* \"#utility.yul\":8395:8467   */\n      tag_107\n      jump\t// in\n    tag_223:\n        /* \"#utility.yul\":8477:8555   */\n      tag_224\n        /* \"#utility.yul\":8550:8553   */\n      0x80\n        /* \"#utility.yul\":8539:8548   */\n      dup4\n        /* \"#utility.yul\":8535:8554   */\n      add\n        /* \"#utility.yul\":8526:8532   */\n      dup7\n        /* \"#utility.yul\":8477:8555   */\n      tag_111\n      jump\t// in\n    tag_224:\n        /* \"#utility.yul\":8603:8612   */\n      dup2\n        /* \"#utility.yul\":8597:8601   */\n      dup2\n        /* \"#utility.yul\":8593:8613   */\n      sub\n        /* \"#utility.yul\":8587:8590   */\n      0xa0\n        /* \"#utility.yul\":8576:8585   */\n      dup4\n        /* \"#utility.yul\":8572:8591   */\n      add\n        /* \"#utility.yul\":8565:8614   */\n      mstore\n        /* \"#utility.yul\":8631:8739   */\n      tag_225\n        /* \"#utility.yul\":8734:8738   */\n      dup2\n        /* \"#utility.yul\":8725:8731   */\n      dup6\n        /* \"#utility.yul\":8631:8739   */\n      tag_97\n      jump\t// in\n    tag_225:\n        /* \"#utility.yul\":8623:8739   */\n      swap1\n      pop\n        /* \"#utility.yul\":8749:8822   */\n      tag_226\n        /* \"#utility.yul\":8817:8820   */\n      0xc0\n        /* \"#utility.yul\":8806:8815   */\n      dup4\n        /* \"#utility.yul\":8802:8821   */\n      add\n        /* \"#utility.yul\":8793:8799   */\n      dup5\n        /* \"#utility.yul\":8749:8822   */\n      tag_107\n      jump\t// in\n    tag_226:\n        /* \"#utility.yul\":7600:8829   */\n      swap9\n      swap8\n      pop\n      pop\n      pop\n      pop\n      pop\n      pop\n      pop\n      pop\n      jump\t// out\n        /* \"#utility.yul\":8835:9309   */\n    tag_26:\n        /* \"#utility.yul\":8903:8909   */\n      0x00\n        /* \"#utility.yul\":8911:8917   */\n      0x00\n        /* \"#utility.yul\":8960:8962   */\n      0x40\n        /* \"#utility.yul\":8948:8957   */\n      dup4\n        /* \"#utility.yul\":8939:8946   */\n      dup6\n        /* \"#utility.yul\":8935:8958   */\n      sub\n        /* \"#utility.yul\":8931:8963   */\n      slt\n        /* \"#utility.yul\":8928:9047   */\n      iszero\n      tag_228\n      jumpi\n        /* \"#utility.yul\":8966:9045   */\n      tag_229\n      tag_82\n      jump\t// in\n    tag_229:\n        /* \"#utility.yul\":8928:9047   */\n    tag_228:\n        /* \"#utility.yul\":9086:9087   */\n      0x00\n        /* \"#utility.yul\":9111:9164   */\n      tag_230\n        /* \"#utility.yul\":9156:9163   */\n      dup6\n        /* \"#utility.yul\":9147:9153   */\n      dup3\n        /* \"#utility.yul\":9136:9145   */\n      dup7\n        /* \"#utility.yul\":9132:9154   */\n      add\n        /* \"#utility.yul\":9111:9164   */\n      tag_86\n      jump\t// in\n    tag_230:\n        /* \"#utility.yul\":9101:9164   */\n      swap3\n      pop\n        /* \"#utility.yul\":9057:9174   */\n      pop\n        /* \"#utility.yul\":9213:9215   */\n      0x20\n        /* \"#utility.yul\":9239:9292   */\n      tag_231\n        /* \"#utility.yul\":9284:9291   */\n      dup6\n        /* \"#utility.yul\":9275:9281   */\n      dup3\n        /* \"#utility.yul\":9264:9273   */\n      dup7\n        /* \"#utility.yul\":9260:9282   */\n      add\n        /* \"#utility.yul\":9239:9292   */\n      tag_86\n      jump\t// in\n    tag_231:\n        /* \"#utility.yul\":9229:9292   */\n      swap2\n      pop\n        /* \"#utility.yul\":9184:9302   */\n      pop\n        /* \"#utility.yul\":8835:9309   */\n      swap3\n      pop\n      swap3\n      swap1\n      pop\n      jump\t// out\n        /* \"#utility.yul\":9315:9405   */\n    tag_112:\n        /* \"#utility.yul\":9349:9356   */\n      0x00\n        /* \"#utility.yul\":9392:9397   */\n      dup2\n        /* \"#utility.yul\":9385:9398   */\n      iszero\n        /* \"#utility.yul\":9378:9399   */\n      iszero\n        /* \"#utility.yul\":9367:9399   */\n      swap1\n      pop\n        /* \"#utility.yul\":9315:9405   */\n      swap2\n      swap1\n      pop\n      jump\t// out\n        /* \"#utility.yul\":9411:9520   */\n    tag_113:\n        /* \"#utility.yul\":9492:9513   */\n      tag_234\n        /* \"#utility.yul\":9507:9512   */\n      dup2\n        /* \"#utility.yul\":9492:9513   */\n      tag_112\n      jump\t// in\n    tag_234:\n        /* \"#utility.yul\":9487:9490   */\n      dup3\n        /* \"#utility.yul\":9480:9514   */\n      mstore\n        /* \"#utility.yul\":9411:9520   */\n      pop\n      pop\n      jump\t// out\n        /* \"#utility.yul\":9526:9736   */\n    tag_29:\n        /* \"#utility.yul\":9613:9617   */\n      0x00\n        /* \"#utility.yul\":9651:9653   */\n      0x20\n        /* \"#utility.yul\":9640:9649   */\n      dup3\n        /* \"#utility.yul\":9636:9654   */\n      add\n        /* \"#utility.yul\":9628:9654   */\n      swap1\n      pop\n        /* \"#utility.yul\":9664:9729   */\n      tag_236\n        /* \"#utility.yul\":9726:9727   */\n      0x00\n        /* \"#utility.yul\":9715:9724   */\n      dup4\n        /* \"#utility.yul\":9711:9728   */\n      add\n        /* \"#utility.yul\":9702:9708   */\n      dup5\n        /* \"#utility.yul\":9664:9729   */\n      tag_113\n      jump\t// in\n    tag_236:\n        /* \"#utility.yul\":9526:9736   */\n      swap3\n      swap2\n      pop\n      pop\n      jump\t// out\n        /* \"#utility.yul\":9742:9839   */\n    tag_114:\n        /* \"#utility.yul\":9801:9807   */\n      0x00\n        /* \"#utility.yul\":9829:9832   */\n      dup3\n        /* \"#utility.yul\":9819:9832   */\n      swap1\n      pop\n        /* \"#utility.yul\":9742:9839   */\n      swap3\n      swap2\n      pop\n      pop\n      jump\t// out\n        /* \"#utility.yul\":9845:10025   */\n    tag_115:\n        /* \"#utility.yul\":9893:9970   */\n      0x4e487b7100000000000000000000000000000000000000000000000000000000\n        /* \"#utility.yul\":9890:9891   */\n      0x00\n        /* \"#utility.yul\":9883:9971   */\n      mstore\n        /* \"#utility.yul\":9990:9994   */\n      0x41\n        /* \"#utility.yul\":9987:9988   */\n      0x04\n        /* \"#utility.yul\":9980:9995   */\n      mstore\n        /* \"#utility.yul\":10014:10018   */\n      0x24\n        /* \"#utility.yul\":10011:10012   */\n      0x00\n        /* \"#utility.yul\":10004:10019   */\n      revert\n        /* \"#utility.yul\":10031:10211   */\n    tag_116:\n        /* \"#utility.yul\":10079:10156   */\n      0x4e487b7100000000000000000000000000000000000000000000000000000000\n        /* \"#utility.yul\":10076:10077   */\n      0x00\n        /* \"#utility.yul\":10069:10157   */\n      mstore\n        /* \"#utility.yul\":10176:10180   */\n      0x22\n        /* \"#utility.yul\":10173:10174   */\n      0x04\n        /* \"#utility.yul\":10166:10181   */\n      mstore\n        /* \"#utility.yul\":10200:10204   */\n      0x24\n        /* \"#utility.yul\":10197:10198   */\n      0x00\n        /* \"#utility.yul\":10190:10205   */\n      revert\n        /* \"#utility.yul\":10217:10537   */\n    tag_55:\n        /* \"#utility.yul\":10261:10267   */\n      0x00\n        /* \"#utility.yul\":10298:10299   */\n      0x02\n        /* \"#utility.yul\":10292:10296   */\n      dup3\n        /* \"#utility.yul\":10288:10300   */\n      div\n        /* \"#utility.yul\":10278:10300   */\n      swap1\n      pop\n        /* \"#utility.yul\":10345:10346   */\n      0x01\n        /* \"#utility.yul\":10339:10343   */\n      dup3\n        /* \"#utility.yul\":10335:10347   */\n      and\n        /* \"#utility.yul\":10366:10384   */\n      dup1\n        /* \"#utility.yul\":10356:10437   */\n      tag_241\n      jumpi\n        /* \"#utility.yul\":10422:10426   */\n      0x7f\n        /* \"#utility.yul\":10414:10420   */\n      dup3\n        /* \"#utility.yul\":10410:10427   */\n      and\n        /* \"#utility.yul\":10400:10427   */\n      swap2\n      pop\n        /* \"#utility.yul\":10356:10437   */\n    tag_241:\n        /* \"#utility.yul\":10484:10486   */\n      0x20\n        /* \"#utility.yul\":10476:10482   */\n      dup3\n        /* \"#utility.yul\":10473:10487   */\n      lt\n        /* \"#utility.yul\":10453:10471   */\n      dup2\n        /* \"#utility.yul\":10450:10488   */\n      sub\n        /* \"#utility.yul\":10447:10531   */\n      tag_242\n      jumpi\n        /* \"#utility.yul\":10503:10521   */\n      tag_243\n      tag_116\n      jump\t// in\n    tag_243:\n        /* \"#utility.yul\":10447:10531   */\n    tag_242:\n        /* \"#utility.yul\":10268:10537   */\n      pop\n        /* \"#utility.yul\":10217:10537   */\n      swap2\n      swap1\n      pop\n      jump\t// out\n        /* \"#utility.yul\":10543:10684   */\n    tag_117:\n        /* \"#utility.yul\":10592:10596   */\n      0x00\n        /* \"#utility.yul\":10615:10618   */\n      dup2\n        /* \"#utility.yul\":10607:10618   */\n      swap1\n      pop\n        /* \"#utility.yul\":10638:10641   */\n      dup2\n        /* \"#utility.yul\":10635:10636   */\n      0x00\n        /* \"#utility.yul\":10628:10642   */\n      mstore\n        /* \"#utility.yul\":10672:10676   */\n      0x20\n        /* \"#utility.yul\":10669:10670   */\n      0x00\n        /* \"#utility.yul\":10659:10677   */\n      keccak256\n        /* \"#utility.yul\":10651:10677   */\n      swap1\n      pop\n        /* \"#utility.yul\":10543:10684   */\n      swap2\n      swap1\n      pop\n      jump\t// out\n        /* \"#utility.yul\":10690:10783   */\n    tag_118:\n        /* \"#utility.yul\":10727:10733   */\n      0x00\n        /* \"#utility.yul\":10774:10776   */\n      0x20\n        /* \"#utility.yul\":10769:10771   */\n      0x1f\n        /* \"#utility.yul\":10762:10767   */\n      dup4\n        /* \"#utility.yul\":10758:10772   */\n      add\n        /* \"#utility.yul\":10754:10777   */\n      div\n        /* \"#utility.yul\":10744:10777   */\n      swap1\n      pop\n        /* \"#utility.yul\":10690:10783   */\n      swap2\n      swap1\n      pop\n      jump\t// out\n        /* \"#utility.yul\":10789:10896   */\n    tag_119:\n        /* \"#utility.yul\":10833:10841   */\n      0x00\n        /* \"#utility.yul\":10883:10888   */\n      dup3\n        /* \"#utility.yul\":10877:10881   */\n      dup3\n        /* \"#utility.yul\":10873:10889   */\n      shl\n        /* \"#utility.yul\":10852:10889   */\n      swap1\n      pop\n        /* \"#utility.yul\":10789:10896   */\n      swap3\n      swap2\n      pop\n      pop\n      jump\t// out\n        /* \"#utility.yul\":10902:11295   */\n    tag_120:\n        /* \"#utility.yul\":10971:10977   */\n      0x00\n        /* \"#utility.yul\":11021:11022   */\n      0x08\n        /* \"#utility.yul\":11009:11019   */\n      dup4\n        /* \"#utility.yul\":11005:11023   */\n      mul\n        /* \"#utility.yul\":11044:11141   */\n      tag_248\n        /* \"#utility.yul\":11074:11140   */\n      0xffffffffffffffffffffffffffffffffffffffffffffffffffffffffffffffff\n        /* \"#utility.yul\":11063:11072   */\n      dup3\n        /* \"#utility.yul\":11044:11141   */\n      tag_119\n      jump\t// in\n    tag_248:\n        /* \"#utility.yul\":11162:11201   */\n      tag_249\n        /* \"#utility.yul\":11192:11200   */\n      dup7\n        /* \"#utility.yul\":11181:11190   */\n      dup4\n        /* \"#utility.yul\":11162:11201   */\n      tag_119\n      jump\t// in\n    tag_249:\n        /* \"#utility.yul\":11150:11201   */\n      swap6\n      pop\n        /* \"#utility.yul\":11234:11238   */\n      dup1\n        /* \"#utility.yul\":11230:11239   */\n      not\n        /* \"#utility.yul\":11223:11228   */\n      dup5\n        /* \"#utility.yul\":11219:11240   */\n      and\n        /* \"#utility.yul\":11210:11240   */\n      swap4\n      pop\n        /* \"#utility.yul\":11283:11287   */\n      dup1\n        /* \"#utility.yul\":11273:11281   */\n      dup7\n        /* \"#utility.yul\":11269:11288   */\n      and\n        /* \"#utility.yul\":11262:11267   */\n      dup5\n        /* \"#utility.yul\":11259:11289   */\n      or\n        /* \"#utility.yul\":11249:11289   */\n      swap3\n      pop\n        /* \"#utility.yul\":10978:11295   */\n      pop\n      pop\n        /* \"#utility.yul\":10902:11295   */\n      swap4\n      swap3\n      pop\n      pop\n      pop\n      jump\t// out\n        /* \"#utility.yul\":11301:11361   */\n    tag_121:\n        /* \"#utility.yul\":11329:11332   */\n      0x00\n        /* \"#utility.yul\":11350:11355   */\n      dup2\n        /* \"#utility.yul\":11343:11355   */\n      swap1\n      pop\n        /* \"#utility.yul\":11301:11361   */\n      swap2\n      swap1\n      pop\n      jump\t// out\n        /* \"#utility.yul\":11367:11509   */\n    tag_122:\n        /* \"#utility.yul\":11417:11426   */\n      0x00\n        /* \"#utility.yul\":11450:11503   */\n      tag_252\n        /* \"#utility.yul\":11468:11502   */\n      tag_253\n        /* \"#utility.yul\":11477:11501   */\n      tag_254\n        /* \"#utility.yul\":11495:11500   */\n      dup5\n        /* \"#utility.yul\":11477:11501   */\n      tag_84\n      jump\t// in\n    tag_254:\n        /* \"#utility.yul\":11468:11502   */\n      tag_121\n      jump\t// in\n    tag_253:\n        /* \"#utility.yul\":11450:11503   */\n      tag_84\n      jump\t// in\n    tag_252:\n        /* \"#utility.yul\":11437:11503   */\n      swap1\n      pop\n        /* \"#utility.yul\":11367:11509   */\n      swap2\n      swap1\n      pop\n      jump\t// out\n        /* \"#utility.yul\":11515:11590   */\n    tag_123:\n        /* \"#utility.yul\":11558:11561   */\n      0x00\n        /* \"#utility.yul\":11579:11584   */\n      dup2\n        /* \"#utility.yul\":11572:11584   */\n      swap1\n      pop\n        /* \"#utility.yul\":11515:11590   */\n      swap2\n      swap1\n      pop\n      jump\t// out\n        /* \"#utility.yul\":11596:11865   */\n    tag_124:\n        /* \"#utility.yul\":11706:11745   */\n      tag_257\n        /* \"#utility.yul\":11737:11744   */\n      dup4\n        /* \"#utility.yul\":11706:11745   */\n      tag_122\n      jump\t// in\n    tag_257:\n        /* \"#utility.yul\":11767:11858   */\n      tag_258\n        /* \"#utility.yul\":11816:11857   */\n      tag_259\n        /* \"#utility.yul\":11840:11856   */\n      dup3\n        /* \"#utility.yul\":11816:11857   */\n      tag_123\n      jump\t// in\n    tag_259:\n        /* \"#utility.yul\":11808:11814   */\n      dup5\n        /* \"#utility.yul\":11801:11805   */\n      dup5\n        /* \"#utility.yul\":11795:11806   */\n      sload\n        /* \"#utility.yul\":11767:11858   */\n      tag_120\n      jump\t// in\n    tag_258:\n        /* \"#utility.yul\":11761:11765   */\n      dup3\n        /* \"#utility.yul\":11754:11859   */\n      sstore\n        /* \"#utility.yul\":11672:11865   */\n      pop\n        /* \"#utility.yul\":11596:11865   */\n      pop\n      pop\n      pop\n      jump\t// out\n        /* \"#utility.yul\":11871:11944   */\n    tag_125:\n        /* \"#utility.yul\":11916:11919   */\n      0x00\n        /* \"#utility.yul\":11937:11938   */\n      0x00\n        /* \"#utility.yul\":11930:11938   */\n      swap1\n      pop\n        /* \"#utility.yul\":11871:11944   */\n      swap1\n      jump\t// out\n        /* \"#utility.yul\":11950:12139   */\n    tag_126:\n        /* \"#utility.yul\":12027:12059   */\n      tag_262\n      tag_125\n      jump\t// in\n    tag_262:\n        /* \"#utility.yul\":12068:12133   */\n      tag_263\n        /* \"#utility.yul\":12126:12132   */\n      dup2\n        /* \"#utility.yul\":12118:12124   */\n      dup5\n        /* \"#utility.yul\":12112:12116   */\n      dup5\n        /* \"#utility.yul\":12068:12133   */\n      tag_124\n      jump\t// in\n    tag_263:\n        /* \"#utility.yul\":12003:12139   */\n      pop\n        /* \"#utility.yul\":11950:12139   */\n      pop\n      pop\n      jump\t// out\n        /* \"#utility.yul\":12145:12331   */\n    tag_127:\n        /* \"#utility.yul\":12205:12325   */\n    tag_265:\n        /* \"#utility.yul\":12222:12225   */\n      dup2\n        /* \"#utility.yul\":12215:12220   */\n      dup2\n        /* \"#utility.yul\":12212:12226   */\n      lt\n        /* \"#utility.yul\":12205:12325   */\n      iszero\n      tag_267\n      jumpi\n        /* \"#utility.yul\":12276:12315   */\n      tag_268\n        /* \"#utility.yul\":12313:12314   */\n      0x00\n        /* \"#utility.yul\":12306:12311   */\n      dup3\n        /* \"#utility.yul\":12276:12315   */\n      tag_126\n      jump\t// in\n    tag_268:\n        /* \"#utility.yul\":12249:12250   */\n      0x01\n        /* \"#utility.yul\":12242:12247   */\n      dup2\n        /* \"#utility.yul\":12238:12251   */\n      add\n        /* \"#utility.yul\":12229:12251   */\n      swap1\n      pop\n        /* \"#utility.yul\":12205:12325   */\n      jump(tag_265)\n    tag_267:\n        /* \"#utility.yul\":12145:12331   */\n      pop\n      pop\n      jump\t// out\n        /* \"#utility.yul\":12337:12880   */\n    tag_128:\n        /* \"#utility.yul\":12438:12440   */\n      0x1f\n        /* \"#utility.yul\":12433:12436   */\n      dup3\n        /* \"#utility.yul\":12430:12441   */\n      gt\n        /* \"#utility.yul\":12427:12873   */\n      iszero\n      tag_270\n      jumpi\n        /* \"#utility.yul\":12472:12510   */\n      tag_271\n        /* \"#utility.yul\":12504:12509   */\n      dup2\n        /* \"#utility.yul\":12472:12510   */\n      tag_117\n      jump\t// in\n    tag_271:\n        /* \"#utility.yul\":12556:12585   */\n      tag_272\n        /* \"#utility.yul\":12574:12584   */\n      dup5\n        /* \"#utility.yul\":12556:12585   */\n      tag_118\n      jump\t// in\n    tag_272:\n        /* \"#utility.yul\":12546:12554   */\n      dup2\n        /* \"#utility.yul\":12542:12586   */\n      add\n        /* \"#utility.yul\":12739:12741   */\n      0x20\n        /* \"#utility.yul\":12727:12737   */\n      dup6\n        /* \"#utility.yul\":12724:12742   */\n      lt\n        /* \"#utility.yul\":12721:12770   */\n      iszero\n      tag_273\n      jumpi\n        /* \"#utility.yul\":12760:12768   */\n      dup2\n        /* \"#utility.yul\":12745:12768   */\n      swap1\n      pop\n        /* \"#utility.yul\":12721:12770   */\n    tag_273:\n        /* \"#utility.yul\":12783:12863   */\n      tag_274\n        /* \"#utility.yul\":12839:12861   */\n      tag_275\n        /* \"#utility.yul\":12857:12860   */\n      dup6\n        /* \"#utility.yul\":12839:12861   */\n      tag_118\n      jump\t// in\n    tag_275:\n        /* \"#utility.yul\":12829:12837   */\n      dup4\n        /* \"#utility.yul\":12825:12862   */\n      add\n        /* \"#utility.yul\":12812:12823   */\n      dup3\n        /* \"#utility.yul\":12783:12863   */\n      tag_127\n      jump\t// in\n    tag_274:\n        /* \"#utility.yul\":12442:12873   */\n      pop\n      pop\n        /* \"#utility.yul\":12427:12873   */\n    tag_270:\n        /* \"#utility.yul\":12337:12880   */\n      pop\n      pop\n      pop\n      jump\t// out\n        /* \"#utility.yul\":12886:13003   */\n    tag_129:\n        /* \"#utility.yul\":12940:12948   */\n      0x00\n        /* \"#utility.yul\":12990:12995   */\n      dup3\n        /* \"#utility.yul\":12984:12988   */\n      dup3\n        /* \"#utility.yul\":12980:12996   */\n      shr\n        /* \"#utility.yul\":12959:12996   */\n      swap1\n      pop\n        /* \"#utility.yul\":12886:13003   */\n      swap3\n      swap2\n      pop\n      pop\n      jump\t// out\n        /* \"#utility.yul\":13009:13178   */\n    tag_130:\n        /* \"#utility.yul\":13053:13059   */\n      0x00\n        /* \"#utility.yul\":13086:13137   */\n      tag_278\n        /* \"#utility.yul\":13134:13135   */\n      0x00\n        /* \"#utility.yul\":13130:13136   */\n      not\n        /* \"#utility.yul\":13122:13127   */\n      dup5\n        /* \"#utility.yul\":13119:13120   */\n      0x08\n        /* \"#utility.yul\":13115:13128   */\n      mul\n        /* \"#utility.yul\":13086:13137   */\n      tag_129\n      jump\t// in\n    tag_278:\n        /* \"#utility.yul\":13082:13138   */\n      not\n        /* \"#utility.yul\":13167:13171   */\n      dup1\n        /* \"#utility.yul\":13161:13165   */\n      dup4\n        /* \"#utility.yul\":13157:13172   */\n      and\n        /* \"#utility.yul\":13147:13172   */\n      swap2\n      pop\n        /* \"#utility.yul\":13060:13178   */\n      pop\n        /* \"#utility.yul\":13009:13178   */\n      swap3\n      swap2\n      pop\n      pop\n      jump\t// out\n        /* \"#utility.yul\":13183:13478   */\n    tag_131:\n        /* \"#utility.yul\":13259:13263   */\n      0x00\n        /* \"#utility.yul\":13405:13434   */\n      tag_280\n        /* \"#utility.yul\":13430:13433   */\n      dup4\n        /* \"#utility.yul\":13424:13428   */\n      dup4\n        /* \"#utility.yul\":13405:13434   */\n      tag_130\n      jump\t// in\n    tag_280:\n        /* \"#utility.yul\":13397:13434   */\n      swap2\n      pop\n        /* \"#utility.yul\":13467:13470   */\n      dup3\n        /* \"#utility.yul\":13464:13465   */\n      0x02\n        /* \"#utility.yul\":13460:13471   */\n      mul\n        /* \"#utility.yul\":13454:13458   */\n      dup3\n        /* \"#utility.yul\":13451:13472   */\n      or\n        /* \"#utility.yul\":13443:13472   */\n      swap1\n      pop\n        /* \"#utility.yul\":13183:13478   */\n      swap3\n      swap2\n      pop\n      pop\n      jump\t// out\n        /* \"#utility.yul\":13483:14886   */\n    tag_41:\n        /* \"#utility.yul\":13607:13651   */\n      tag_282\n        /* \"#utility.yul\":13647:13650   */\n      dup4\n        /* \"#utility.yul\":13642:13645   */\n      dup4\n        /* \"#utility.yul\":13607:13651   */\n      tag_114\n      jump\t// in\n    tag_282:\n        /* \"#utility.yul\":13716:13734   */\n      0xffffffffffffffff\n        /* \"#utility.yul\":13708:13714   */\n      dup2\n        /* \"#utility.yul\":13705:13735   */\n      gt\n        /* \"#utility.yul\":13702:13758   */\n      iszero\n      tag_283\n      jumpi\n        /* \"#utility.yul\":13738:13756   */\n      tag_284\n      tag_115\n      jump\t// in\n    tag_284:\n        /* \"#utility.yul\":13702:13758   */\n    tag_283:\n        /* \"#utility.yul\":13782:13820   */\n      tag_285\n        /* \"#utility.yul\":13814:13818   */\n      dup3\n        /* \"#utility.yul\":13808:13819   */\n      sload\n        /* \"#utility.yul\":13782:13820   */\n      tag_55\n      jump\t// in\n    tag_285:\n        /* \"#utility.yul\":13867:13934   */\n      tag_286\n        /* \"#utility.yul\":13927:13933   */\n      dup3\n        /* \"#utility.yul\":13919:13925   */\n      dup3\n        /* \"#utility.yul\":13913:13917   */\n      dup6\n        /* \"#utility.yul\":13867:13934   */\n      tag_128\n      jump\t// in\n    tag_286:\n        /* \"#utility.yul\":13961:13962   */\n      0x00\n        /* \"#utility.yul\":13990:13992   */\n      0x1f\n        /* \"#utility.yul\":13982:13988   */\n      dup4\n        /* \"#utility.yul\":13979:13993   */\n      gt\n        /* \"#utility.yul\":14007:14008   */\n      0x01\n        /* \"#utility.yul\":14002:14634   */\n      dup2\n      eq\n      tag_288\n      jumpi\n        /* \"#utility.yul\":14678:14679   */\n      0x00\n        /* \"#utility.yul\":14695:14701   */\n      dup5\n        /* \"#utility.yul\":14692:14776   */\n      iszero\n      tag_289\n      jumpi\n        /* \"#utility.yul\":14751:14760   */\n      dup3\n        /* \"#utility.yul\":14746:14749   */\n      dup8\n        /* \"#utility.yul\":14742:14761   */\n      add\n        /* \"#utility.yul\":14729:14762   */\n      calldataload\n        /* \"#utility.yul\":14720:14762   */\n      swap1\n      pop\n        /* \"#utility.yul\":14692:14776   */\n    tag_289:\n        /* \"#utility.yul\":14802:14869   */\n      tag_290\n        /* \"#utility.yul\":14862:14868   */\n      dup6\n        /* \"#utility.yul\":14855:14860   */\n      dup3\n        /* \"#utility.yul\":14802:14869   */\n      tag_131\n      jump\t// in\n    tag_290:\n        /* \"#utility.yul\":14796:14800   */\n      dup7\n        /* \"#utility.yul\":14789:14870   */\n      sstore\n        /* \"#utility.yul\":14651:14880   */\n      pop\n        /* \"#utility.yul\":13972:14880   */\n      jump(tag_287)\n        /* \"#utility.yul\":14002:14634   */\n    tag_288:\n        /* \"#utility.yul\":14054:14058   */\n      0x1f\n        /* \"#utility.yul\":14050:14059   */\n      not\n        /* \"#utility.yul\":14042:14048   */\n      dup5\n        /* \"#utility.yul\":14038:14060   */\n      and\n        /* \"#utility.yul\":14088:14125   */\n      tag_291\n        /* \"#utility.yul\":14120:14124   */\n      dup7\n        /* \"#utility.yul\":14088:14125   */\n      tag_117\n      jump\t// in\n    tag_291:\n        /* \"#utility.yul\":14147:14148   */\n      0x00\n        /* \"#utility.yul\":14161:14376   */\n    tag_292:\n        /* \"#utility.yul\":14175:14182   */\n      dup3\n        /* \"#utility.yul\":14172:14173   */\n      dup2\n        /* \"#utility.yul\":14169:14183   */\n      lt\n        /* \"#utility.yul\":14161:14376   */\n      iszero\n      tag_294\n      jumpi\n        /* \"#utility.yul\":14261:14270   */\n      dup5\n        /* \"#utility.yul\":14256:14259   */\n      dup10\n        /* \"#utility.yul\":14252:14271   */\n      add\n        /* \"#utility.yul\":14239:14272   */\n      calldataload\n        /* \"#utility.yul\":14231:14237   */\n      dup3\n        /* \"#utility.yul\":14224:14273   */\n      sstore\n        /* \"#utility.yul\":14312:14313   */\n      0x01\n        /* \"#utility.yul\":14304:14310   */\n      dup3\n        /* \"#utility.yul\":14300:14314   */\n      add\n        /* \"#utility.yul\":14290:14314   */\n      swap2\n      pop\n        /* \"#utility.yul\":14359:14361   */\n      0x20\n        /* \"#utility.yul\":14348:14357   */\n      dup6\n        /* \"#utility.yul\":14344:14362   */\n      add\n        /* \"#utility.yul\":14331:14362   */\n      swap5\n      pop\n        /* \"#utility.yul\":14198:14202   */\n      0x20\n        /* \"#utility.yul\":14195:14196   */\n      dup2\n        /* \"#utility.yul\":14191:14203   */\n      add\n        /* \"#utility.yul\":14186:14203   */\n      swap1\n      pop\n        /* \"#utility.yul\":14161:14376   */\n      jump(tag_292)\n    tag_294:\n        /* \"#utility.yul\":14404:14410   */\n      dup7\n        /* \"#utility.yul\":14395:14402   */\n      dup4\n        /* \"#utility.yul\":14392:14411   */\n      lt\n        /* \"#utility.yul\":14389:14575   */\n      iszero\n      tag_295\n      jumpi\n        /* \"#utility.yul\":14469:14478   */\n      dup5\n        /* \"#utility.yul\":14464:14467   */\n      dup10\n        /* \"#utility.yul\":14460:14479   */\n      add\n        /* \"#utility.yul\":14447:14480   */\n      calldataload\n        /* \"#utility.yul\":14512:14560   */\n      tag_296\n        /* \"#utility.yul\":14554:14558   */\n      0x1f\n        /* \"#utility.yul\":14546:14552   */\n      dup10\n        /* \"#utility.yul\":14542:14559   */\n      and\n        /* \"#utility.yul\":14531:14540   */\n      dup3\n        /* \"#utility.yul\":14512:14560   */\n      tag_130\n      jump\t// in\n    tag_296:\n        /* \"#utility.yul\":14504:14510   */\n      dup4\n        /* \"#utility.yul\":14497:14561   */\n      sstore\n        /* \"#utility.yul\":14412:14575   */\n      pop\n        /* \"#utility.yul\":14389:14575   */\n    tag_295:\n        /* \"#utility.yul\":14621:14622   */\n      0x01\n        /* \"#utility.yul\":14617:14618   */\n      0x02\n        /* \"#utility.yul\":14609:14615   */\n      dup9\n        /* \"#utility.yul\":14605:14619   */\n      mul\n        /* \"#utility.yul\":14601:14623   */\n      add\n        /* \"#utility.yul\":14595:14599   */\n      dup9\n        /* \"#utility.yul\":14588:14624   */\n      sstore\n        /* \"#utility.yul\":14009:14634   */\n      pop\n      pop\n      pop\n        /* \"#utility.yul\":13972:14880   */\n    tag_287:\n      pop\n        /* \"#utility.yul\":13582:14886   */\n      pop\n      pop\n      pop\n        /* \"#utility.yul\":13483:14886   */\n      pop\n      pop\n      pop\n      jump\t// out\n        /* \"#utility.yul\":14892:15072   */\n    tag_132:\n        /* \"#utility.yul\":14940:15017   */\n      0x4e487b7100000000000000000000000000000000000000000000000000000000\n        /* \"#utility.yul\":14937:14938   */\n      0x00\n        /* \"#utility.yul\":14930:15018   */\n      mstore\n        /* \"#utility.yul\":15037:15041   */\n      0x11\n        /* \"#utility.yul\":15034:15035   */\n      0x04\n        /* \"#utility.yul\":15027:15042   */\n      mstore\n        /* \"#utility.yul\":15061:15065   */\n      0x24\n        /* \"#utility.yul\":15058:15059   */\n      0x00\n        /* \"#utility.yul\":15051:15066   */\n      revert\n        /* \"#utility.yul\":15078:15488   */\n    tag_44:\n        /* \"#utility.yul\":15118:15125   */\n      0x00\n        /* \"#utility.yul\":15141:15161   */\n      tag_299\n        /* \"#utility.yul\":15159:15160   */\n      dup3\n        /* \"#utility.yul\":15141:15161   */\n      tag_84\n      jump\t// in\n    tag_299:\n        /* \"#utility.yul\":15136:15161   */\n      swap2\n      pop\n        /* \"#utility.yul\":15175:15195   */\n      tag_300\n        /* \"#utility.yul\":15193:15194   */\n      dup4\n        /* \"#utility.yul\":15175:15195   */\n      tag_84\n      jump\t// in\n    tag_300:\n        /* \"#utility.yul\":15170:15195   */\n      swap3\n      pop\n        /* \"#utility.yul\":15230:15231   */\n      dup3\n        /* \"#utility.yul\":15227:15228   */\n      dup3\n        /* \"#utility.yul\":15223:15232   */\n      mul\n        /* \"#utility.yul\":15252:15282   */\n      tag_301\n        /* \"#utility.yul\":15270:15281   */\n      dup2\n        /* \"#utility.yul\":15252:15282   */\n      tag_84\n      jump\t// in\n    tag_301:\n        /* \"#utility.yul\":15241:15282   */\n      swap2\n      pop\n        /* \"#utility.yul\":15431:15432   */\n      dup3\n        /* \"#utility.yul\":15422:15429   */\n      dup3\n        /* \"#utility.yul\":15418:15433   */\n      div\n        /* \"#utility.yul\":15415:15416   */\n      dup5\n        /* \"#utility.yul\":15412:15434   */\n      eq\n        /* \"#utility.yul\":15392:15393   */\n      dup4\n        /* \"#utility.yul\":15385:15394   */\n      iszero\n        /* \"#utility.yul\":15365:15448   */\n      or\n        /* \"#utility.yul\":15342:15481   */\n      tag_302\n      jumpi\n        /* \"#utility.yul\":15461:15479   */\n      tag_303\n      tag_132\n      jump\t// in\n    tag_303:\n        /* \"#utility.yul\":15342:15481   */\n    tag_302:\n        /* \"#utility.yul\":15126:15488   */\n      pop\n        /* \"#utility.yul\":15078:15488   */\n      swap3\n      swap2\n      pop\n      pop\n      jump\t// out\n        /* \"#utility.yul\":15494:15685   */\n    tag_46:\n        /* \"#utility.yul\":15534:15537   */\n      0x00\n        /* \"#utility.yul\":15553:15573   */\n      tag_305\n        /* \"#utility.yul\":15571:15572   */\n      dup3\n        /* \"#utility.yul\":15553:15573   */\n      tag_84\n      jump\t// in\n    tag_305:\n        /* \"#utility.yul\":15548:15573   */\n      swap2\n      pop\n        /* \"#utility.yul\":15587:15607   */\n      tag_306\n        /* \"#utility.yul\":15605:15606   */\n      dup4\n        /* \"#utility.yul\":15587:15607   */\n      tag_84\n      jump\t// in\n    tag_306:\n        /* \"#utility.yul\":15582:15607   */\n      swap3\n      pop\n        /* \"#utility.yul\":15630:15631   */\n      dup3\n        /* \"#utility.yul\":15627:15628   */\n      dup3\n        /* \"#utility.yul\":15623:15632   */\n      add\n        /* \"#utility.yul\":15616:15632   */\n      swap1\n      pop\n        /* \"#utility.yul\":15651:15654   */\n      dup1\n        /* \"#utility.yul\":15648:15649   */\n      dup3\n        /* \"#utility.yul\":15645:15655   */\n      gt\n        /* \"#utility.yul\":15642:15678   */\n      iszero\n      tag_307\n      jumpi\n        /* \"#utility.yul\":15658:15676   */\n      tag_308\n      tag_132\n      jump\t// in\n    tag_308:\n        /* \"#utility.yul\":15642:15678   */\n    tag_307:\n        /* \"#utility.yul\":15494:15685   */\n      swap3\n      swap2\n      pop\n      pop\n      jump\t// out\n        /* \"#utility.yul\":15691:15924   */\n    tag_51:\n        /* \"#utility.yul\":15730:15733   */\n      0x00\n        /* \"#utility.yul\":15753:15777   */\n      tag_310\n        /* \"#utility.yul\":15771:15776   */\n      dup3\n        /* \"#utility.yul\":15753:15777   */\n      tag_84\n      jump\t// in\n    tag_310:\n        /* \"#utility.yul\":15744:15777   */\n      swap2\n      pop\n        /* \"#utility.yul\":15799:15865   */\n      0xffffffffffffffffffffffffffffffffffffffffffffffffffffffffffffffff\n        /* \"#utility.yul\":15792:15797   */\n      dup3\n        /* \"#utility.yul\":15789:15866   */\n      sub\n        /* \"#utility.yul\":15786:15889   */\n      tag_311\n      jumpi\n        /* \"#utility.yul\":15869:15887   */\n      tag_312\n      tag_132\n      jump\t// in\n    tag_312:\n        /* \"#utility.yul\":15786:15889   */\n    tag_311:\n        /* \"#utility.yul\":15916:15917   */\n      0x01\n        /* \"#utility.yul\":15909:15914   */\n      dup3\n        /* \"#utility.yul\":15905:15918   */\n      add\n        /* \"#utility.yul\":15898:15918   */\n      swap1\n      pop\n        /* \"#utility.yul\":15691:15924   */\n      swap2\n      swap1\n      pop\n      jump\t// out\n        /* \"#utility.yul\":15930:16110   */\n    tag_75:\n        /* \"#utility.yul\":15978:16055   */\n      0x4e487b7100000000000000000000000000000000000000000000000000000000\n        /* \"#utility.yul\":15975:15976   */\n      0x00\n        /* \"#utility.yul\":15968:16056   */\n      mstore\n        /* \"#utility.yul\":16075:16079   */\n      0x32\n        /* \"#utility.yul\":16072:16073   */\n      0x04\n        /* \"#utility.yul\":16065:16080   */\n      mstore\n        /* \"#utility.yul\":16099:16103   */\n      0x24\n        /* \"#utility.yul\":16096:16097   */\n      0x00\n        /* \"#utility.yul\":16089:16104   */\n      revert\n\n    auxdata: 0xa2646970667358221220330bd05ebaceb171e8df42ffc63224b7238f0615ca331c1b68fc2f8dd714823664736f6c634300081c0033\n}\n",
				"bytecode": {
					"linkReferences": {},
					"object": "6080604052348015600e575f5ffd5b506040516112433803806112438339818101604052810190602e9190606c565b80600181905550506092565b5f5ffd5b5f819050919050565b604e81603e565b81146057575f5ffd5b50565b5f815190506066816047565b92915050565b5f60208284031215607e57607d603a565b5b5f608984828501605a565b91505092915050565b6111a48061009f5f395ff3fe608060405234801561000f575f5ffd5b5060043610610055575f3560e01c80630657298f146100595780636925b1f91461008957806369ddc545146100a5578063bdb4a3bb146100db578063e540f9991461010b575b5f5ffd5b610073600480360381019061006e9190610954565b61013b565b6040516100809190610a49565b60405180910390f35b6100a3600480360381019061009e9190610aca565b6102e6565b005b6100bf60048036038101906100ba9190610b48565b61043f565b6040516100d29796959493929190610c65565b60405180910390f35b6100f560048036038101906100f09190610ce7565b610700565b6040516101029190610d3f565b60405180910390f35b61012560048036038101906101209190610b48565b610820565b6040516101329190610a49565b60405180910390f35b606060025f8481526020019081526020015f2060050182908060018154018082558091505060019003905f5260205f20015f9091909190916101000a81548173ffffffffffffffffffffffffffffffffffffffff021916908373ffffffffffffffffffffffffffffffffffffffff1602179055503373ffffffffffffffffffffffffffffffffffffffff1660025f8581526020019081526020015f2060040160019054906101000a900473ffffffffffffffffffffffffffffffffffffffff1673ffffffffffffffffffffffffffffffffffffffff1614610248576040517f96cbe34c00000000000000000000000000000000000000000000000000000000815260040160405180910390fd5b60025f8481526020019081526020015f206005018054806020026020016040519081016040528092919081815260200182805480156102d957602002820191905f5260205f20905b815f9054906101000a900473ffffffffffffffffffffffffffffffffffffffff1673ffffffffffffffffffffffffffffffffffffffff1681526020019060010190808311610290575b5050505050905092915050565b838360025f5f5481526020019081526020015f205f019182610309929190610f8c565b50818160025f5f5481526020019081526020015f20600101918261032e929190610f8c565b504260025f5f5481526020019081526020015f20600201819055506201518060015461035a9190611086565b60025f5f5481526020019081526020015f206002015461037a91906110c7565b60025f5f5481526020019081526020015f20600301819055505f60025f5f5481526020019081526020015f206004015f6101000a81548160ff021916908360028111156103ca576103c9610bf2565b5b02179055503360025f5f5481526020019081526020015f2060040160016101000a81548173ffffffffffffffffffffffffffffffffffffffff021916908373ffffffffffffffffffffffffffffffffffffffff1602179055505f5f815480929190610434906110fa565b919050555050505050565b6060805f5f5f60605f3373ffffffffffffffffffffffffffffffffffffffff1660025f8a81526020019081526020015f2060040160019054906101000a900473ffffffffffffffffffffffffffffffffffffffff1673ffffffffffffffffffffffffffffffffffffffff16146104b3575f5ffd5b60025f8981526020019081526020015f205f0160025f8a81526020019081526020015f2060010160025f8b81526020019081526020015f206002015460025f8c81526020019081526020015f206003015460025f8d81526020019081526020015f206004015f9054906101000a900460ff1660025f8e81526020019081526020015f2060050160025f8f81526020019081526020015f206006015486805461055a90610dbc565b80601f016020809104026020016040519081016040528092919081815260200182805461058690610dbc565b80156105d15780601f106105a8576101008083540402835291602001916105d1565b820191905f5260205f20905b8154815290600101906020018083116105b457829003601f168201915b505050505096508580546105e490610dbc565b80601f016020809104026020016040519081016040528092919081815260200182805461061090610dbc565b801561065b5780601f106106325761010080835404028352916020019161065b565b820191905f5260205f20905b81548152906001019060200180831161063e57829003601f168201915b50505050509550818054806020026020016040519081016040528092919081815260200182805480156106e057602002820191905f5260205f20905b815f9054906101000a900473ffffffffffffffffffffffffffffffffffffffff1673ffffffffffffffffffffffffffffffffffffffff1681526020019060010190808311610697575b505050505091509650965096509650965096509650919395979092949650565b5f62015180826107109190611086565b60025f8581526020019081526020015f206003015f82825461073291906110c7565b925050819055505f5f905060025f8581526020019081526020015f2060050180549050811015610818573373ffffffffffffffffffffffffffffffffffffffff1660025f8681526020019081526020015f20600501828154811061079957610798611141565b5b905f5260205f20015f9054906101000a900473ffffffffffffffffffffffffffffffffffffffff1673ffffffffffffffffffffffffffffffffffffffff16036107e657600191505061081a565b6040517fce1e0e0500000000000000000000000000000000000000000000000000000000815260040160405180910390fd5b505b92915050565b606060025f8381526020019081526020015f206005018054806020026020016040519081016040528092919081815260200182805480156108b357602002820191905f5260205f20905b815f9054906101000a900473ffffffffffffffffffffffffffffffffffffffff1673ffffffffffffffffffffffffffffffffffffffff168152602001906001019080831161086a575b50505050509050919050565b5f5ffd5b5f5ffd5b5f819050919050565b6108d9816108c7565b81146108e3575f5ffd5b50565b5f813590506108f4816108d0565b92915050565b5f73ffffffffffffffffffffffffffffffffffffffff82169050919050565b5f610923826108fa565b9050919050565b61093381610919565b811461093d575f5ffd5b50565b5f8135905061094e8161092a565b92915050565b5f5f6040838503121561096a576109696108bf565b5b5f610977858286016108e6565b925050602061098885828601610940565b9150509250929050565b5f81519050919050565b5f82825260208201905092915050565b5f819050602082019050919050565b6109c481610919565b82525050565b5f6109d583836109bb565b60208301905092915050565b5f602082019050919050565b5f6109f782610992565b610a01818561099c565b9350610a0c836109ac565b805f5b83811015610a3c578151610a2388826109ca565b9750610a2e836109e1565b925050600181019050610a0f565b5085935050505092915050565b5f6020820190508181035f830152610a6181846109ed565b905092915050565b5f5ffd5b5f5ffd5b5f5ffd5b5f5f83601f840112610a8a57610a89610a69565b5b8235905067ffffffffffffffff811115610aa757610aa6610a6d565b5b602083019150836001820283011115610ac357610ac2610a71565b5b9250929050565b5f5f5f5f60408587031215610ae257610ae16108bf565b5b5f85013567ffffffffffffffff811115610aff57610afe6108c3565b5b610b0b87828801610a75565b9450945050602085013567ffffffffffffffff811115610b2e57610b2d6108c3565b5b610b3a87828801610a75565b925092505092959194509250565b5f60208284031215610b5d57610b5c6108bf565b5b5f610b6a848285016108e6565b91505092915050565b5f81519050919050565b5f82825260208201905092915050565b8281835e5f83830152505050565b5f601f19601f8301169050919050565b5f610bb582610b73565b610bbf8185610b7d565b9350610bcf818560208601610b8d565b610bd881610b9b565b840191505092915050565b610bec816108c7565b82525050565b7f4e487b71000000000000000000000000000000000000000000000000000000005f52602160045260245ffd5b60038110610c3057610c2f610bf2565b5b50565b5f819050610c4082610c1f565b919050565b5f610c4f82610c33565b9050919050565b610c5f81610c45565b82525050565b5f60e0820190508181035f830152610c7d818a610bab565b90508181036020830152610c918189610bab565b9050610ca06040830188610be3565b610cad6060830187610be3565b610cba6080830186610c56565b81810360a0830152610ccc81856109ed565b9050610cdb60c0830184610be3565b98975050505050505050565b5f5f60408385031215610cfd57610cfc6108bf565b5b5f610d0a858286016108e6565b9250506020610d1b858286016108e6565b9150509250929050565b5f8115159050919050565b610d3981610d25565b82525050565b5f602082019050610d525f830184610d30565b92915050565b5f82905092915050565b7f4e487b71000000000000000000000000000000000000000000000000000000005f52604160045260245ffd5b7f4e487b71000000000000000000000000000000000000000000000000000000005f52602260045260245ffd5b5f6002820490506001821680610dd357607f821691505b602082108103610de657610de5610d8f565b5b50919050565b5f819050815f5260205f209050919050565b5f6020601f8301049050919050565b5f82821b905092915050565b5f60088302610e487fffffffffffffffffffffffffffffffffffffffffffffffffffffffffffffffff82610e0d565b610e528683610e0d565b95508019841693508086168417925050509392505050565b5f819050919050565b5f610e8d610e88610e83846108c7565b610e6a565b6108c7565b9050919050565b5f819050919050565b610ea683610e73565b610eba610eb282610e94565b848454610e19565b825550505050565b5f5f905090565b610ed1610ec2565b610edc818484610e9d565b505050565b5b81811015610eff57610ef45f82610ec9565b600181019050610ee2565b5050565b601f821115610f4457610f1581610dec565b610f1e84610dfe565b81016020851015610f2d578190505b610f41610f3985610dfe565b830182610ee1565b50505b505050565b5f82821c905092915050565b5f610f645f1984600802610f49565b1980831691505092915050565b5f610f7c8383610f55565b9150826002028217905092915050565b610f968383610d58565b67ffffffffffffffff811115610faf57610fae610d62565b5b610fb98254610dbc565b610fc4828285610f03565b5f601f831160018114610ff1575f8415610fdf578287013590505b610fe98582610f71565b865550611050565b601f198416610fff86610dec565b5f5b8281101561102657848901358255600182019150602085019450602081019050611001565b86831015611043578489013561103f601f891682610f55565b8355505b6001600288020188555050505b50505050505050565b7f4e487b71000000000000000000000000000000000000000000000000000000005f52601160045260245ffd5b5f611090826108c7565b915061109b836108c7565b92508282026110a9816108c7565b915082820484148315176110c0576110bf611059565b5b5092915050565b5f6110d1826108c7565b91506110dc836108c7565b92508282019050808211156110f4576110f3611059565b5b92915050565b5f611104826108c7565b91507fffffffffffffffffffffffffffffffffffffffffffffffffffffffffffffffff820361113657611135611059565b5b600182019050919050565b7f4e487b71000000000000000000000000000000000000000000000000000000005f52603260045260245ffdfea2646970667358221220330bd05ebaceb171e8df42ffc63224b7238f0615ca331c1b68fc2f8dd714823664736f6c634300081c0033",
					"opcodes": "PUSH1 0x80 PUSH1 0x40 MSTORE CALLVALUE DUP1 ISZERO PUSH1 0xE JUMPI PUSH0 PUSH0 REVERT JUMPDEST POP PUSH1 0x40 MLOAD PUSH2 0x1243 CODESIZE SUB DUP1 PUSH2 0x1243 DUP4 CODECOPY DUP2 DUP2 ADD PUSH1 0x40 MSTORE DUP2 ADD SWAP1 PUSH1 0x2E SWAP2 SWAP1 PUSH1 0x6C JUMP JUMPDEST DUP1 PUSH1 0x1 DUP2 SWAP1 SSTORE POP POP PUSH1 0x92 JUMP JUMPDEST PUSH0 PUSH0 REVERT JUMPDEST PUSH0 DUP2 SWAP1 POP SWAP2 SWAP1 POP JUMP JUMPDEST PUSH1 0x4E DUP2 PUSH1 0x3E JUMP JUMPDEST DUP2 EQ PUSH1 0x57 JUMPI PUSH0 PUSH0 REVERT JUMPDEST POP JUMP JUMPDEST PUSH0 DUP2 MLOAD SWAP1 POP PUSH1 0x66 DUP2 PUSH1 0x47 JUMP JUMPDEST SWAP3 SWAP2 POP POP JUMP JUMPDEST PUSH0 PUSH1 0x20 DUP3 DUP5 SUB SLT ISZERO PUSH1 0x7E JUMPI PUSH1 0x7D PUSH1 0x3A JUMP JUMPDEST JUMPDEST PUSH0 PUSH1 0x89 DUP5 DUP3 DUP6 ADD PUSH1 0x5A JUMP JUMPDEST SWAP2 POP POP SWAP3 SWAP2 POP POP JUMP JUMPDEST PUSH2 0x11A4 DUP1 PUSH2 0x9F PUSH0 CODECOPY PUSH0 RETURN INVALID PUSH1 0x80 PUSH1 0x40 MSTORE CALLVALUE DUP1 ISZERO PUSH2 0xF JUMPI PUSH0 PUSH0 REVERT JUMPDEST POP PUSH1 0x4 CALLDATASIZE LT PUSH2 0x55 JUMPI PUSH0 CALLDATALOAD PUSH1 0xE0 SHR DUP1 PUSH4 0x657298F EQ PUSH2 0x59 JUMPI DUP1 PUSH4 0x6925B1F9 EQ PUSH2 0x89 JUMPI DUP1 PUSH4 0x69DDC545 EQ PUSH2 0xA5 JUMPI DUP1 PUSH4 0xBDB4A3BB EQ PUSH2 0xDB JUMPI DUP1 PUSH4 0xE540F999 EQ PUSH2 0x10B JUMPI JUMPDEST PUSH0 PUSH0 REVERT JUMPDEST PUSH2 0x73 PUSH1 0x4 DUP1 CALLDATASIZE SUB DUP2 ADD SWAP1 PUSH2 0x6E SWAP2 SWAP1 PUSH2 0x954 JUMP JUMPDEST PUSH2 0x13B JUMP JUMPDEST PUSH1 0x40 MLOAD PUSH2 0x80 SWAP2 SWAP1 PUSH2 0xA49 JUMP JUMPDEST PUSH1 0x40 MLOAD DUP1 SWAP2 SUB SWAP1 RETURN JUMPDEST PUSH2 0xA3 PUSH1 0x4 DUP1 CALLDATASIZE SUB DUP2 ADD SWAP1 PUSH2 0x9E SWAP2 SWAP1 PUSH2 0xACA JUMP JUMPDEST PUSH2 0x2E6 JUMP JUMPDEST STOP JUMPDEST PUSH2 0xBF PUSH1 0x4 DUP1 CALLDATASIZE SUB DUP2 ADD SWAP1 PUSH2 0xBA SWAP2 SWAP1 PUSH2 0xB48 JUMP JUMPDEST PUSH2 0x43F JUMP JUMPDEST PUSH1 0x40 MLOAD PUSH2 0xD2 SWAP8 SWAP7 SWAP6 SWAP5 SWAP4 SWAP3 SWAP2 SWAP1 PUSH2 0xC65 JUMP JUMPDEST PUSH1 0x40 MLOAD DUP1 SWAP2 SUB SWAP1 RETURN JUMPDEST PUSH2 0xF5 PUSH1 0x4 DUP1 CALLDATASIZE SUB DUP2 ADD SWAP1 PUSH2 0xF0 SWAP2 SWAP1 PUSH2 0xCE7 JUMP JUMPDEST PUSH2 0x700 JUMP JUMPDEST PUSH1 0x40 MLOAD PUSH2 0x102 SWAP2 SWAP1 PUSH2 0xD3F JUMP JUMPDEST PUSH1 0x40 MLOAD DUP1 SWAP2 SUB SWAP1 RETURN JUMPDEST PUSH2 0x125 PUSH1 0x4 DUP1 CALLDATASIZE SUB DUP2 ADD SWAP1 PUSH2 0x120 SWAP2 SWAP1 PUSH2 0xB48 JUMP JUMPDEST PUSH2 0x820 JUMP JUMPDEST PUSH1 0x40 MLOAD PUSH2 0x132 SWAP2 SWAP1 PUSH2 0xA49 JUMP JUMPDEST PUSH1 0x40 MLOAD DUP1 SWAP2 SUB SWAP1 RETURN JUMPDEST PUSH1 0x60 PUSH1 0x2 PUSH0 DUP5 DUP2 MSTORE PUSH1 0x20 ADD SWAP1 DUP2 MSTORE PUSH1 0x20 ADD PUSH0 KECCAK256 PUSH1 0x5 ADD DUP3 SWAP1 DUP1 PUSH1 0x1 DUP2 SLOAD ADD DUP1 DUP3 SSTORE DUP1 SWAP2 POP POP PUSH1 0x1 SWAP1 SUB SWAP1 PUSH0 MSTORE PUSH1 0x20 PUSH0 KECCAK256 ADD PUSH0 SWAP1 SWAP2 SWAP1 SWAP2 SWAP1 SWAP2 PUSH2 0x100 EXP DUP2 SLOAD DUP2 PUSH20 0xFFFFFFFFFFFFFFFFFFFFFFFFFFFFFFFFFFFFFFFF MUL NOT AND SWAP1 DUP4 PUSH20 0xFFFFFFFFFFFFFFFFFFFFFFFFFFFFFFFFFFFFFFFF AND MUL OR SWAP1 SSTORE POP CALLER PUSH20 0xFFFFFFFFFFFFFFFFFFFFFFFFFFFFFFFFFFFFFFFF AND PUSH1 0x2 PUSH0 DUP6 DUP2 MSTORE PUSH1 0x20 ADD SWAP1 DUP2 MSTORE PUSH1 0x20 ADD PUSH0 KECCAK256 PUSH1 0x4 ADD PUSH1 0x1 SWAP1 SLOAD SWAP1 PUSH2 0x100 EXP SWAP1 DIV PUSH20 0xFFFFFFFFFFFFFFFFFFFFFFFFFFFFFFFFFFFFFFFF AND PUSH20 0xFFFFFFFFFFFFFFFFFFFFFFFFFFFFFFFFFFFFFFFF AND EQ PUSH2 0x248 JUMPI PUSH1 0x40 MLOAD PUSH32 0x96CBE34C00000000000000000000000000000000000000000000000000000000 DUP2 MSTORE PUSH1 0x4 ADD PUSH1 0x40 MLOAD DUP1 SWAP2 SUB SWAP1 REVERT JUMPDEST PUSH1 0x2 PUSH0 DUP5 DUP2 MSTORE PUSH1 0x20 ADD SWAP1 DUP2 MSTORE PUSH1 0x20 ADD PUSH0 KECCAK256 PUSH1 0x5 ADD DUP1 SLOAD DUP1 PUSH1 0x20 MUL PUSH1 0x20 ADD PUSH1 0x40 MLOAD SWAP1 DUP2 ADD PUSH1 0x40 MSTORE DUP1 SWAP3 SWAP2 SWAP1 DUP2 DUP2 MSTORE PUSH1 0x20 ADD DUP3 DUP1 SLOAD DUP1 ISZERO PUSH2 0x2D9 JUMPI PUSH1 0x20 MUL DUP3 ADD SWAP2 SWAP1 PUSH0 MSTORE PUSH1 0x20 PUSH0 KECCAK256 SWAP1 JUMPDEST DUP2 PUSH0 SWAP1 SLOAD SWAP1 PUSH2 0x100 EXP SWAP1 DIV PUSH20 0xFFFFFFFFFFFFFFFFFFFFFFFFFFFFFFFFFFFFFFFF AND PUSH20 0xFFFFFFFFFFFFFFFFFFFFFFFFFFFFFFFFFFFFFFFF AND DUP2 MSTORE PUSH1 0x20 ADD SWAP1 PUSH1 0x1 ADD SWAP1 DUP1 DUP4 GT PUSH2 0x290 JUMPI JUMPDEST POP POP POP POP POP SWAP1 POP SWAP3 SWAP2 POP POP JUMP JUMPDEST DUP4 DUP4 PUSH1 0x2 PUSH0 PUSH0 SLOAD DUP2 MSTORE PUSH1 0x20 ADD SWAP1 DUP2 MSTORE PUSH1 0x20 ADD PUSH0 KECCAK256 PUSH0 ADD SWAP2 DUP3 PUSH2 0x309 SWAP3 SWAP2 SWAP1 PUSH2 0xF8C JUMP JUMPDEST POP DUP2 DUP2 PUSH1 0x2 PUSH0 PUSH0 SLOAD DUP2 MSTORE PUSH1 0x20 ADD SWAP1 DUP2 MSTORE PUSH1 0x20 ADD PUSH0 KECCAK256 PUSH1 0x1 ADD SWAP2 DUP3 PUSH2 0x32E SWAP3 SWAP2 SWAP1 PUSH2 0xF8C JUMP JUMPDEST POP TIMESTAMP PUSH1 0x2 PUSH0 PUSH0 SLOAD DUP2 MSTORE PUSH1 0x20 ADD SWAP1 DUP2 MSTORE PUSH1 0x20 ADD PUSH0 KECCAK256 PUSH1 0x2 ADD DUP2 SWAP1 SSTORE POP PUSH3 0x15180 PUSH1 0x1 SLOAD PUSH2 0x35A SWAP2 SWAP1 PUSH2 0x1086 JUMP JUMPDEST PUSH1 0x2 PUSH0 PUSH0 SLOAD DUP2 MSTORE PUSH1 0x20 ADD SWAP1 DUP2 MSTORE PUSH1 0x20 ADD PUSH0 KECCAK256 PUSH1 0x2 ADD SLOAD PUSH2 0x37A SWAP2 SWAP1 PUSH2 0x10C7 JUMP JUMPDEST PUSH1 0x2 PUSH0 PUSH0 SLOAD DUP2 MSTORE PUSH1 0x20 ADD SWAP1 DUP2 MSTORE PUSH1 0x20 ADD PUSH0 KECCAK256 PUSH1 0x3 ADD DUP2 SWAP1 SSTORE POP PUSH0 PUSH1 0x2 PUSH0 PUSH0 SLOAD DUP2 MSTORE PUSH1 0x20 ADD SWAP1 DUP2 MSTORE PUSH1 0x20 ADD PUSH0 KECCAK256 PUSH1 0x4 ADD PUSH0 PUSH2 0x100 EXP DUP2 SLOAD DUP2 PUSH1 0xFF MUL NOT AND SWAP1 DUP4 PUSH1 0x2 DUP2 GT ISZERO PUSH2 0x3CA JUMPI PUSH2 0x3C9 PUSH2 0xBF2 JUMP JUMPDEST JUMPDEST MUL OR SWAP1 SSTORE POP CALLER PUSH1 0x2 PUSH0 PUSH0 SLOAD DUP2 MSTORE PUSH1 0x20 ADD SWAP1 DUP2 MSTORE PUSH1 0x20 ADD PUSH0 KECCAK256 PUSH1 0x4 ADD PUSH1 0x1 PUSH2 0x100 EXP DUP2 SLOAD DUP2 PUSH20 0xFFFFFFFFFFFFFFFFFFFFFFFFFFFFFFFFFFFFFFFF MUL NOT AND SWAP1 DUP4 PUSH20 0xFFFFFFFFFFFFFFFFFFFFFFFFFFFFFFFFFFFFFFFF AND MUL OR SWAP1 SSTORE POP PUSH0 PUSH0 DUP2 SLOAD DUP1 SWAP3 SWAP2 SWAP1 PUSH2 0x434 SWAP1 PUSH2 0x10FA JUMP JUMPDEST SWAP2 SWAP1 POP SSTORE POP POP POP POP POP JUMP JUMPDEST PUSH1 0x60 DUP1 PUSH0 PUSH0 PUSH0 PUSH1 0x60 PUSH0 CALLER PUSH20 0xFFFFFFFFFFFFFFFFFFFFFFFFFFFFFFFFFFFFFFFF AND PUSH1 0x2 PUSH0 DUP11 DUP2 MSTORE PUSH1 0x20 ADD SWAP1 DUP2 MSTORE PUSH1 0x20 ADD PUSH0 KECCAK256 PUSH1 0x4 ADD PUSH1 0x1 SWAP1 SLOAD SWAP1 PUSH2 0x100 EXP SWAP1 DIV PUSH20 0xFFFFFFFFFFFFFFFFFFFFFFFFFFFFFFFFFFFFFFFF AND PUSH20 0xFFFFFFFFFFFFFFFFFFFFFFFFFFFFFFFFFFFFFFFF AND EQ PUSH2 0x4B3 JUMPI PUSH0 PUSH0 REVERT JUMPDEST PUSH1 0x2 PUSH0 DUP10 DUP2 MSTORE PUSH1 0x20 ADD SWAP1 DUP2 MSTORE PUSH1 0x20 ADD PUSH0 KECCAK256 PUSH0 ADD PUSH1 0x2 PUSH0 DUP11 DUP2 MSTORE PUSH1 0x20 ADD SWAP1 DUP2 MSTORE PUSH1 0x20 ADD PUSH0 KECCAK256 PUSH1 0x1 ADD PUSH1 0x2 PUSH0 DUP12 DUP2 MSTORE PUSH1 0x20 ADD SWAP1 DUP2 MSTORE PUSH1 0x20 ADD PUSH0 KECCAK256 PUSH1 0x2 ADD SLOAD PUSH1 0x2 PUSH0 DUP13 DUP2 MSTORE PUSH1 0x20 ADD SWAP1 DUP2 MSTORE PUSH1 0x20 ADD PUSH0 KECCAK256 PUSH1 0x3 ADD SLOAD PUSH1 0x2 PUSH0 DUP14 DUP2 MSTORE PUSH1 0x20 ADD SWAP1 DUP2 MSTORE PUSH1 0x20 ADD PUSH0 KECCAK256 PUSH1 0x4 ADD PUSH0 SWAP1 SLOAD SWAP1 PUSH2 0x100 EXP SWAP1 DIV PUSH1 0xFF AND PUSH1 0x2 PUSH0 DUP15 DUP2 MSTORE PUSH1 0x20 ADD SWAP1 DUP2 MSTORE PUSH1 0x20 ADD PUSH0 KECCAK256 PUSH1 0x5 ADD PUSH1 0x2 PUSH0 DUP16 DUP2 MSTORE PUSH1 0x20 ADD SWAP1 DUP2 MSTORE PUSH1 0x20 ADD PUSH0 KECCAK256 PUSH1 0x6 ADD SLOAD DUP7 DUP1 SLOAD PUSH2 0x55A SWAP1 PUSH2 0xDBC JUMP JUMPDEST DUP1 PUSH1 0x1F ADD PUSH1 0x20 DUP1 SWAP2 DIV MUL PUSH1 0x20 ADD PUSH1 0x40 MLOAD SWAP1 DUP2 ADD PUSH1 0x40 MSTORE DUP1 SWAP3 SWAP2 SWAP1 DUP2 DUP2 MSTORE PUSH1 0x20 ADD DUP3 DUP1 SLOAD PUSH2 0x586 SWAP1 PUSH2 0xDBC JUMP JUMPDEST DUP1 ISZERO PUSH2 0x5D1 JUMPI DUP1 PUSH1 0x1F LT PUSH2 0x5A8 JUMPI PUSH2 0x100 DUP1 DUP4 SLOAD DIV MUL DUP4 MSTORE SWAP2 PUSH1 0x20 ADD SWAP2 PUSH2 0x5D1 JUMP JUMPDEST DUP3 ADD SWAP2 SWAP1 PUSH0 MSTORE PUSH1 0x20 PUSH0 KECCAK256 SWAP1 JUMPDEST DUP2 SLOAD DUP2 MSTORE SWAP1 PUSH1 0x1 ADD SWAP1 PUSH1 0x20 ADD DUP1 DUP4 GT PUSH2 0x5B4 JUMPI DUP3 SWAP1 SUB PUSH1 0x1F AND DUP3 ADD SWAP2 JUMPDEST POP POP POP POP POP SWAP7 POP DUP6 DUP1 SLOAD PUSH2 0x5E4 SWAP1 PUSH2 0xDBC JUMP JUMPDEST DUP1 PUSH1 0x1F ADD PUSH1 0x20 DUP1 SWAP2 DIV MUL PUSH1 0x20 ADD PUSH1 0x40 MLOAD SWAP1 DUP2 ADD PUSH1 0x40 MSTORE DUP1 SWAP3 SWAP2 SWAP1 DUP2 DUP2 MSTORE PUSH1 0x20 ADD DUP3 DUP1 SLOAD PUSH2 0x610 SWAP1 PUSH2 0xDBC JUMP JUMPDEST DUP1 ISZERO PUSH2 0x65B JUMPI DUP1 PUSH1 0x1F LT PUSH2 0x632 JUMPI PUSH2 0x100 DUP1 DUP4 SLOAD DIV MUL DUP4 MSTORE SWAP2 PUSH1 0x20 ADD SWAP2 PUSH2 0x65B JUMP JUMPDEST DUP3 ADD SWAP2 SWAP1 PUSH0 MSTORE PUSH1 0x20 PUSH0 KECCAK256 SWAP1 JUMPDEST DUP2 SLOAD DUP2 MSTORE SWAP1 PUSH1 0x1 ADD SWAP1 PUSH1 0x20 ADD DUP1 DUP4 GT PUSH2 0x63E JUMPI DUP3 SWAP1 SUB PUSH1 0x1F AND DUP3 ADD SWAP2 JUMPDEST POP POP POP POP POP SWAP6 POP DUP2 DUP1 SLOAD DUP1 PUSH1 0x20 MUL PUSH1 0x20 ADD PUSH1 0x40 MLOAD SWAP1 DUP2 ADD PUSH1 0x40 MSTORE DUP1 SWAP3 SWAP2 SWAP1 DUP2 DUP2 MSTORE PUSH1 0x20 ADD DUP3 DUP1 SLOAD DUP1 ISZERO PUSH2 0x6E0 JUMPI PUSH1 0x20 MUL DUP3 ADD SWAP2 SWAP1 PUSH0 MSTORE PUSH1 0x20 PUSH0 KECCAK256 SWAP1 JUMPDEST DUP2 PUSH0 SWAP1 SLOAD SWAP1 PUSH2 0x100 EXP SWAP1 DIV PUSH20 0xFFFFFFFFFFFFFFFFFFFFFFFFFFFFFFFFFFFFFFFF AND PUSH20 0xFFFFFFFFFFFFFFFFFFFFFFFFFFFFFFFFFFFFFFFF AND DUP2 MSTORE PUSH1 0x20 ADD SWAP1 PUSH1 0x1 ADD SWAP1 DUP1 DUP4 GT PUSH2 0x697 JUMPI JUMPDEST POP POP POP POP POP SWAP2 POP SWAP7 POP SWAP7 POP SWAP7 POP SWAP7 POP SWAP7 POP SWAP7 POP SWAP7 POP SWAP2 SWAP4 SWAP6 SWAP8 SWAP1 SWAP3 SWAP5 SWAP7 POP JUMP JUMPDEST PUSH0 PUSH3 0x15180 DUP3 PUSH2 0x710 SWAP2 SWAP1 PUSH2 0x1086 JUMP JUMPDEST PUSH1 0x2 PUSH0 DUP6 DUP2 MSTORE PUSH1 0x20 ADD SWAP1 DUP2 MSTORE PUSH1 0x20 ADD PUSH0 KECCAK256 PUSH1 0x3 ADD PUSH0 DUP3 DUP3 SLOAD PUSH2 0x732 SWAP2 SWAP1 PUSH2 0x10C7 JUMP JUMPDEST SWAP3 POP POP DUP2 SWAP1 SSTORE POP PUSH0 PUSH0 SWAP1 POP PUSH1 0x2 PUSH0 DUP6 DUP2 MSTORE PUSH1 0x20 ADD SWAP1 DUP2 MSTORE PUSH1 0x20 ADD PUSH0 KECCAK256 PUSH1 0x5 ADD DUP1 SLOAD SWAP1 POP DUP2 LT ISZERO PUSH2 0x818 JUMPI CALLER PUSH20 0xFFFFFFFFFFFFFFFFFFFFFFFFFFFFFFFFFFFFFFFF AND PUSH1 0x2 PUSH0 DUP7 DUP2 MSTORE PUSH1 0x20 ADD SWAP1 DUP2 MSTORE PUSH1 0x20 ADD PUSH0 KECCAK256 PUSH1 0x5 ADD DUP3 DUP2 SLOAD DUP2 LT PUSH2 0x799 JUMPI PUSH2 0x798 PUSH2 0x1141 JUMP JUMPDEST JUMPDEST SWAP1 PUSH0 MSTORE PUSH1 0x20 PUSH0 KECCAK256 ADD PUSH0 SWAP1 SLOAD SWAP1 PUSH2 0x100 EXP SWAP1 DIV PUSH20 0xFFFFFFFFFFFFFFFFFFFFFFFFFFFFFFFFFFFFFFFF AND PUSH20 0xFFFFFFFFFFFFFFFFFFFFFFFFFFFFFFFFFFFFFFFF AND SUB PUSH2 0x7E6 JUMPI PUSH1 0x1 SWAP2 POP POP PUSH2 0x81A JUMP JUMPDEST PUSH1 0x40 MLOAD PUSH32 0xCE1E0E0500000000000000000000000000000000000000000000000000000000 DUP2 MSTORE PUSH1 0x4 ADD PUSH1 0x40 MLOAD DUP1 SWAP2 SUB SWAP1 REVERT JUMPDEST POP JUMPDEST SWAP3 SWAP2 POP POP JUMP JUMPDEST PUSH1 0x60 PUSH1 0x2 PUSH0 DUP4 DUP2 MSTORE PUSH1 0x20 ADD SWAP1 DUP2 MSTORE PUSH1 0x20 ADD PUSH0 KECCAK256 PUSH1 0x5 ADD DUP1 SLOAD DUP1 PUSH1 0x20 MUL PUSH1 0x20 ADD PUSH1 0x40 MLOAD SWAP1 DUP2 ADD PUSH1 0x40 MSTORE DUP1 SWAP3 SWAP2 SWAP1 DUP2 DUP2 MSTORE PUSH1 0x20 ADD DUP3 DUP1 SLOAD DUP1 ISZERO PUSH2 0x8B3 JUMPI PUSH1 0x20 MUL DUP3 ADD SWAP2 SWAP1 PUSH0 MSTORE PUSH1 0x20 PUSH0 KECCAK256 SWAP1 JUMPDEST DUP2 PUSH0 SWAP1 SLOAD SWAP1 PUSH2 0x100 EXP SWAP1 DIV PUSH20 0xFFFFFFFFFFFFFFFFFFFFFFFFFFFFFFFFFFFFFFFF AND PUSH20 0xFFFFFFFFFFFFFFFFFFFFFFFFFFFFFFFFFFFFFFFF AND DUP2 MSTORE PUSH1 0x20 ADD SWAP1 PUSH1 0x1 ADD SWAP1 DUP1 DUP4 GT PUSH2 0x86A JUMPI JUMPDEST POP POP POP POP POP SWAP1 POP SWAP2 SWAP1 POP JUMP JUMPDEST PUSH0 PUSH0 REVERT JUMPDEST PUSH0 PUSH0 REVERT JUMPDEST PUSH0 DUP2 SWAP1 POP SWAP2 SWAP1 POP JUMP JUMPDEST PUSH2 0x8D9 DUP2 PUSH2 0x8C7 JUMP JUMPDEST DUP2 EQ PUSH2 0x8E3 JUMPI PUSH0 PUSH0 REVERT JUMPDEST POP JUMP JUMPDEST PUSH0 DUP2 CALLDATALOAD SWAP1 POP PUSH2 0x8F4 DUP2 PUSH2 0x8D0 JUMP JUMPDEST SWAP3 SWAP2 POP POP JUMP JUMPDEST PUSH0 PUSH20 0xFFFFFFFFFFFFFFFFFFFFFFFFFFFFFFFFFFFFFFFF DUP3 AND SWAP1 POP SWAP2 SWAP1 POP JUMP JUMPDEST PUSH0 PUSH2 0x923 DUP3 PUSH2 0x8FA JUMP JUMPDEST SWAP1 POP SWAP2 SWAP1 POP JUMP JUMPDEST PUSH2 0x933 DUP2 PUSH2 0x919 JUMP JUMPDEST DUP2 EQ PUSH2 0x93D JUMPI PUSH0 PUSH0 REVERT JUMPDEST POP JUMP JUMPDEST PUSH0 DUP2 CALLDATALOAD SWAP1 POP PUSH2 0x94E DUP2 PUSH2 0x92A JUMP JUMPDEST SWAP3 SWAP2 POP POP JUMP JUMPDEST PUSH0 PUSH0 PUSH1 0x40 DUP4 DUP6 SUB SLT ISZERO PUSH2 0x96A JUMPI PUSH2 0x969 PUSH2 0x8BF JUMP JUMPDEST JUMPDEST PUSH0 PUSH2 0x977 DUP6 DUP3 DUP7 ADD PUSH2 0x8E6 JUMP JUMPDEST SWAP3 POP POP PUSH1 0x20 PUSH2 0x988 DUP6 DUP3 DUP7 ADD PUSH2 0x940 JUMP JUMPDEST SWAP2 POP POP SWAP3 POP SWAP3 SWAP1 POP JUMP JUMPDEST PUSH0 DUP2 MLOAD SWAP1 POP SWAP2 SWAP1 POP JUMP JUMPDEST PUSH0 DUP3 DUP3 MSTORE PUSH1 0x20 DUP3 ADD SWAP1 POP SWAP3 SWAP2 POP POP JUMP JUMPDEST PUSH0 DUP2 SWAP1 POP PUSH1 0x20 DUP3 ADD SWAP1 POP SWAP2 SWAP1 POP JUMP JUMPDEST PUSH2 0x9C4 DUP2 PUSH2 0x919 JUMP JUMPDEST DUP3 MSTORE POP POP JUMP JUMPDEST PUSH0 PUSH2 0x9D5 DUP4 DUP4 PUSH2 0x9BB JUMP JUMPDEST PUSH1 0x20 DUP4 ADD SWAP1 POP SWAP3 SWAP2 POP POP JUMP JUMPDEST PUSH0 PUSH1 0x20 DUP3 ADD SWAP1 POP SWAP2 SWAP1 POP JUMP JUMPDEST PUSH0 PUSH2 0x9F7 DUP3 PUSH2 0x992 JUMP JUMPDEST PUSH2 0xA01 DUP2 DUP6 PUSH2 0x99C JUMP JUMPDEST SWAP4 POP PUSH2 0xA0C DUP4 PUSH2 0x9AC JUMP JUMPDEST DUP1 PUSH0 JUMPDEST DUP4 DUP2 LT ISZERO PUSH2 0xA3C JUMPI DUP2 MLOAD PUSH2 0xA23 DUP9 DUP3 PUSH2 0x9CA JUMP JUMPDEST SWAP8 POP PUSH2 0xA2E DUP4 PUSH2 0x9E1 JUMP JUMPDEST SWAP3 POP POP PUSH1 0x1 DUP2 ADD SWAP1 POP PUSH2 0xA0F JUMP JUMPDEST POP DUP6 SWAP4 POP POP POP POP SWAP3 SWAP2 POP POP JUMP JUMPDEST PUSH0 PUSH1 0x20 DUP3 ADD SWAP1 POP DUP2 DUP2 SUB PUSH0 DUP4 ADD MSTORE PUSH2 0xA61 DUP2 DUP5 PUSH2 0x9ED JUMP JUMPDEST SWAP1 POP SWAP3 SWAP2 POP POP JUMP JUMPDEST PUSH0 PUSH0 REVERT JUMPDEST PUSH0 PUSH0 REVERT JUMPDEST PUSH0 PUSH0 REVERT JUMPDEST PUSH0 PUSH0 DUP4 PUSH1 0x1F DUP5 ADD SLT PUSH2 0xA8A JUMPI PUSH2 0xA89 PUSH2 0xA69 JUMP JUMPDEST JUMPDEST DUP3 CALLDATALOAD SWAP1 POP PUSH8 0xFFFFFFFFFFFFFFFF DUP2 GT ISZERO PUSH2 0xAA7 JUMPI PUSH2 0xAA6 PUSH2 0xA6D JUMP JUMPDEST JUMPDEST PUSH1 0x20 DUP4 ADD SWAP2 POP DUP4 PUSH1 0x1 DUP3 MUL DUP4 ADD GT ISZERO PUSH2 0xAC3 JUMPI PUSH2 0xAC2 PUSH2 0xA71 JUMP JUMPDEST JUMPDEST SWAP3 POP SWAP3 SWAP1 POP JUMP JUMPDEST PUSH0 PUSH0 PUSH0 PUSH0 PUSH1 0x40 DUP6 DUP8 SUB SLT ISZERO PUSH2 0xAE2 JUMPI PUSH2 0xAE1 PUSH2 0x8BF JUMP JUMPDEST JUMPDEST PUSH0 DUP6 ADD CALLDATALOAD PUSH8 0xFFFFFFFFFFFFFFFF DUP2 GT ISZERO PUSH2 0xAFF JUMPI PUSH2 0xAFE PUSH2 0x8C3 JUMP JUMPDEST JUMPDEST PUSH2 0xB0B DUP8 DUP3 DUP9 ADD PUSH2 0xA75 JUMP JUMPDEST SWAP5 POP SWAP5 POP POP PUSH1 0x20 DUP6 ADD CALLDATALOAD PUSH8 0xFFFFFFFFFFFFFFFF DUP2 GT ISZERO PUSH2 0xB2E JUMPI PUSH2 0xB2D PUSH2 0x8C3 JUMP JUMPDEST JUMPDEST PUSH2 0xB3A DUP8 DUP3 DUP9 ADD PUSH2 0xA75 JUMP JUMPDEST SWAP3 POP SWAP3 POP POP SWAP3 SWAP6 SWAP2 SWAP5 POP SWAP3 POP JUMP JUMPDEST PUSH0 PUSH1 0x20 DUP3 DUP5 SUB SLT ISZERO PUSH2 0xB5D JUMPI PUSH2 0xB5C PUSH2 0x8BF JUMP JUMPDEST JUMPDEST PUSH0 PUSH2 0xB6A DUP5 DUP3 DUP6 ADD PUSH2 0x8E6 JUMP JUMPDEST SWAP2 POP POP SWAP3 SWAP2 POP POP JUMP JUMPDEST PUSH0 DUP2 MLOAD SWAP1 POP SWAP2 SWAP1 POP JUMP JUMPDEST PUSH0 DUP3 DUP3 MSTORE PUSH1 0x20 DUP3 ADD SWAP1 POP SWAP3 SWAP2 POP POP JUMP JUMPDEST DUP3 DUP2 DUP4 MCOPY PUSH0 DUP4 DUP4 ADD MSTORE POP POP POP JUMP JUMPDEST PUSH0 PUSH1 0x1F NOT PUSH1 0x1F DUP4 ADD AND SWAP1 POP SWAP2 SWAP1 POP JUMP JUMPDEST PUSH0 PUSH2 0xBB5 DUP3 PUSH2 0xB73 JUMP JUMPDEST PUSH2 0xBBF DUP2 DUP6 PUSH2 0xB7D JUMP JUMPDEST SWAP4 POP PUSH2 0xBCF DUP2 DUP6 PUSH1 0x20 DUP7 ADD PUSH2 0xB8D JUMP JUMPDEST PUSH2 0xBD8 DUP2 PUSH2 0xB9B JUMP JUMPDEST DUP5 ADD SWAP2 POP POP SWAP3 SWAP2 POP POP JUMP JUMPDEST PUSH2 0xBEC DUP2 PUSH2 0x8C7 JUMP JUMPDEST DUP3 MSTORE POP POP JUMP JUMPDEST PUSH32 0x4E487B7100000000000000000000000000000000000000000000000000000000 PUSH0 MSTORE PUSH1 0x21 PUSH1 0x4 MSTORE PUSH1 0x24 PUSH0 REVERT JUMPDEST PUSH1 0x3 DUP2 LT PUSH2 0xC30 JUMPI PUSH2 0xC2F PUSH2 0xBF2 JUMP JUMPDEST JUMPDEST POP JUMP JUMPDEST PUSH0 DUP2 SWAP1 POP PUSH2 0xC40 DUP3 PUSH2 0xC1F JUMP JUMPDEST SWAP2 SWAP1 POP JUMP JUMPDEST PUSH0 PUSH2 0xC4F DUP3 PUSH2 0xC33 JUMP JUMPDEST SWAP1 POP SWAP2 SWAP1 POP JUMP JUMPDEST PUSH2 0xC5F DUP2 PUSH2 0xC45 JUMP JUMPDEST DUP3 MSTORE POP POP JUMP JUMPDEST PUSH0 PUSH1 0xE0 DUP3 ADD SWAP1 POP DUP2 DUP2 SUB PUSH0 DUP4 ADD MSTORE PUSH2 0xC7D DUP2 DUP11 PUSH2 0xBAB JUMP JUMPDEST SWAP1 POP DUP2 DUP2 SUB PUSH1 0x20 DUP4 ADD MSTORE PUSH2 0xC91 DUP2 DUP10 PUSH2 0xBAB JUMP JUMPDEST SWAP1 POP PUSH2 0xCA0 PUSH1 0x40 DUP4 ADD DUP9 PUSH2 0xBE3 JUMP JUMPDEST PUSH2 0xCAD PUSH1 0x60 DUP4 ADD DUP8 PUSH2 0xBE3 JUMP JUMPDEST PUSH2 0xCBA PUSH1 0x80 DUP4 ADD DUP7 PUSH2 0xC56 JUMP JUMPDEST DUP2 DUP2 SUB PUSH1 0xA0 DUP4 ADD MSTORE PUSH2 0xCCC DUP2 DUP6 PUSH2 0x9ED JUMP JUMPDEST SWAP1 POP PUSH2 0xCDB PUSH1 0xC0 DUP4 ADD DUP5 PUSH2 0xBE3 JUMP JUMPDEST SWAP9 SWAP8 POP POP POP POP POP POP POP POP JUMP JUMPDEST PUSH0 PUSH0 PUSH1 0x40 DUP4 DUP6 SUB SLT ISZERO PUSH2 0xCFD JUMPI PUSH2 0xCFC PUSH2 0x8BF JUMP JUMPDEST JUMPDEST PUSH0 PUSH2 0xD0A DUP6 DUP3 DUP7 ADD PUSH2 0x8E6 JUMP JUMPDEST SWAP3 POP POP PUSH1 0x20 PUSH2 0xD1B DUP6 DUP3 DUP7 ADD PUSH2 0x8E6 JUMP JUMPDEST SWAP2 POP POP SWAP3 POP SWAP3 SWAP1 POP JUMP JUMPDEST PUSH0 DUP2 ISZERO ISZERO SWAP1 POP SWAP2 SWAP1 POP JUMP JUMPDEST PUSH2 0xD39 DUP2 PUSH2 0xD25 JUMP JUMPDEST DUP3 MSTORE POP POP JUMP JUMPDEST PUSH0 PUSH1 0x20 DUP3 ADD SWAP1 POP PUSH2 0xD52 PUSH0 DUP4 ADD DUP5 PUSH2 0xD30 JUMP JUMPDEST SWAP3 SWAP2 POP POP JUMP JUMPDEST PUSH0 DUP3 SWAP1 POP SWAP3 SWAP2 POP POP JUMP JUMPDEST PUSH32 0x4E487B7100000000000000000000000000000000000000000000000000000000 PUSH0 MSTORE PUSH1 0x41 PUSH1 0x4 MSTORE PUSH1 0x24 PUSH0 REVERT JUMPDEST PUSH32 0x4E487B7100000000000000000000000000000000000000000000000000000000 PUSH0 MSTORE PUSH1 0x22 PUSH1 0x4 MSTORE PUSH1 0x24 PUSH0 REVERT JUMPDEST PUSH0 PUSH1 0x2 DUP3 DIV SWAP1 POP PUSH1 0x1 DUP3 AND DUP1 PUSH2 0xDD3 JUMPI PUSH1 0x7F DUP3 AND SWAP2 POP JUMPDEST PUSH1 0x20 DUP3 LT DUP2 SUB PUSH2 0xDE6 JUMPI PUSH2 0xDE5 PUSH2 0xD8F JUMP JUMPDEST JUMPDEST POP SWAP2 SWAP1 POP JUMP JUMPDEST PUSH0 DUP2 SWAP1 POP DUP2 PUSH0 MSTORE PUSH1 0x20 PUSH0 KECCAK256 SWAP1 POP SWAP2 SWAP1 POP JUMP JUMPDEST PUSH0 PUSH1 0x20 PUSH1 0x1F DUP4 ADD DIV SWAP1 POP SWAP2 SWAP1 POP JUMP JUMPDEST PUSH0 DUP3 DUP3 SHL SWAP1 POP SWAP3 SWAP2 POP POP JUMP JUMPDEST PUSH0 PUSH1 0x8 DUP4 MUL PUSH2 0xE48 PUSH32 0xFFFFFFFFFFFFFFFFFFFFFFFFFFFFFFFFFFFFFFFFFFFFFFFFFFFFFFFFFFFFFFFF DUP3 PUSH2 0xE0D JUMP JUMPDEST PUSH2 0xE52 DUP7 DUP4 PUSH2 0xE0D JUMP JUMPDEST SWAP6 POP DUP1 NOT DUP5 AND SWAP4 POP DUP1 DUP7 AND DUP5 OR SWAP3 POP POP POP SWAP4 SWAP3 POP POP POP JUMP JUMPDEST PUSH0 DUP2 SWAP1 POP SWAP2 SWAP1 POP JUMP JUMPDEST PUSH0 PUSH2 0xE8D PUSH2 0xE88 PUSH2 0xE83 DUP5 PUSH2 0x8C7 JUMP JUMPDEST PUSH2 0xE6A JUMP JUMPDEST PUSH2 0x8C7 JUMP JUMPDEST SWAP1 POP SWAP2 SWAP1 POP JUMP JUMPDEST PUSH0 DUP2 SWAP1 POP SWAP2 SWAP1 POP JUMP JUMPDEST PUSH2 0xEA6 DUP4 PUSH2 0xE73 JUMP JUMPDEST PUSH2 0xEBA PUSH2 0xEB2 DUP3 PUSH2 0xE94 JUMP JUMPDEST DUP5 DUP5 SLOAD PUSH2 0xE19 JUMP JUMPDEST DUP3 SSTORE POP POP POP POP JUMP JUMPDEST PUSH0 PUSH0 SWAP1 POP SWAP1 JUMP JUMPDEST PUSH2 0xED1 PUSH2 0xEC2 JUMP JUMPDEST PUSH2 0xEDC DUP2 DUP5 DUP5 PUSH2 0xE9D JUMP JUMPDEST POP POP POP JUMP JUMPDEST JUMPDEST DUP2 DUP2 LT ISZERO PUSH2 0xEFF JUMPI PUSH2 0xEF4 PUSH0 DUP3 PUSH2 0xEC9 JUMP JUMPDEST PUSH1 0x1 DUP2 ADD SWAP1 POP PUSH2 0xEE2 JUMP JUMPDEST POP POP JUMP JUMPDEST PUSH1 0x1F DUP3 GT ISZERO PUSH2 0xF44 JUMPI PUSH2 0xF15 DUP2 PUSH2 0xDEC JUMP JUMPDEST PUSH2 0xF1E DUP5 PUSH2 0xDFE JUMP JUMPDEST DUP2 ADD PUSH1 0x20 DUP6 LT ISZERO PUSH2 0xF2D JUMPI DUP2 SWAP1 POP JUMPDEST PUSH2 0xF41 PUSH2 0xF39 DUP6 PUSH2 0xDFE JUMP JUMPDEST DUP4 ADD DUP3 PUSH2 0xEE1 JUMP JUMPDEST POP POP JUMPDEST POP POP POP JUMP JUMPDEST PUSH0 DUP3 DUP3 SHR SWAP1 POP SWAP3 SWAP2 POP POP JUMP JUMPDEST PUSH0 PUSH2 0xF64 PUSH0 NOT DUP5 PUSH1 0x8 MUL PUSH2 0xF49 JUMP JUMPDEST NOT DUP1 DUP4 AND SWAP2 POP POP SWAP3 SWAP2 POP POP JUMP JUMPDEST PUSH0 PUSH2 0xF7C DUP4 DUP4 PUSH2 0xF55 JUMP JUMPDEST SWAP2 POP DUP3 PUSH1 0x2 MUL DUP3 OR SWAP1 POP SWAP3 SWAP2 POP POP JUMP JUMPDEST PUSH2 0xF96 DUP4 DUP4 PUSH2 0xD58 JUMP JUMPDEST PUSH8 0xFFFFFFFFFFFFFFFF DUP2 GT ISZERO PUSH2 0xFAF JUMPI PUSH2 0xFAE PUSH2 0xD62 JUMP JUMPDEST JUMPDEST PUSH2 0xFB9 DUP3 SLOAD PUSH2 0xDBC JUMP JUMPDEST PUSH2 0xFC4 DUP3 DUP3 DUP6 PUSH2 0xF03 JUMP JUMPDEST PUSH0 PUSH1 0x1F DUP4 GT PUSH1 0x1 DUP2 EQ PUSH2 0xFF1 JUMPI PUSH0 DUP5 ISZERO PUSH2 0xFDF JUMPI DUP3 DUP8 ADD CALLDATALOAD SWAP1 POP JUMPDEST PUSH2 0xFE9 DUP6 DUP3 PUSH2 0xF71 JUMP JUMPDEST DUP7 SSTORE POP PUSH2 0x1050 JUMP JUMPDEST PUSH1 0x1F NOT DUP5 AND PUSH2 0xFFF DUP7 PUSH2 0xDEC JUMP JUMPDEST PUSH0 JUMPDEST DUP3 DUP2 LT ISZERO PUSH2 0x1026 JUMPI DUP5 DUP10 ADD CALLDATALOAD DUP3 SSTORE PUSH1 0x1 DUP3 ADD SWAP2 POP PUSH1 0x20 DUP6 ADD SWAP5 POP PUSH1 0x20 DUP2 ADD SWAP1 POP PUSH2 0x1001 JUMP JUMPDEST DUP7 DUP4 LT ISZERO PUSH2 0x1043 JUMPI DUP5 DUP10 ADD CALLDATALOAD PUSH2 0x103F PUSH1 0x1F DUP10 AND DUP3 PUSH2 0xF55 JUMP JUMPDEST DUP4 SSTORE POP JUMPDEST PUSH1 0x1 PUSH1 0x2 DUP9 MUL ADD DUP9 SSTORE POP POP POP JUMPDEST POP POP POP POP POP POP POP JUMP JUMPDEST PUSH32 0x4E487B7100000000000000000000000000000000000000000000000000000000 PUSH0 MSTORE PUSH1 0x11 PUSH1 0x4 MSTORE PUSH1 0x24 PUSH0 REVERT JUMPDEST PUSH0 PUSH2 0x1090 DUP3 PUSH2 0x8C7 JUMP JUMPDEST SWAP2 POP PUSH2 0x109B DUP4 PUSH2 0x8C7 JUMP JUMPDEST SWAP3 POP DUP3 DUP3 MUL PUSH2 0x10A9 DUP2 PUSH2 0x8C7 JUMP JUMPDEST SWAP2 POP DUP3 DUP3 DIV DUP5 EQ DUP4 ISZERO OR PUSH2 0x10C0 JUMPI PUSH2 0x10BF PUSH2 0x1059 JUMP JUMPDEST JUMPDEST POP SWAP3 SWAP2 POP POP JUMP JUMPDEST PUSH0 PUSH2 0x10D1 DUP3 PUSH2 0x8C7 JUMP JUMPDEST SWAP2 POP PUSH2 0x10DC DUP4 PUSH2 0x8C7 JUMP JUMPDEST SWAP3 POP DUP3 DUP3 ADD SWAP1 POP DUP1 DUP3 GT ISZERO PUSH2 0x10F4 JUMPI PUSH2 0x10F3 PUSH2 0x1059 JUMP JUMPDEST JUMPDEST SWAP3 SWAP2 POP POP JUMP JUMPDEST PUSH0 PUSH2 0x1104 DUP3 PUSH2 0x8C7 JUMP JUMPDEST SWAP2 POP PUSH32 0xFFFFFFFFFFFFFFFFFFFFFFFFFFFFFFFFFFFFFFFFFFFFFFFFFFFFFFFFFFFFFFFF DUP3 SUB PUSH2 0x1136 JUMPI PUSH2 0x1135 PUSH2 0x1059 JUMP JUMPDEST JUMPDEST PUSH1 0x1 DUP3 ADD SWAP1 POP SWAP2 SWAP1 POP JUMP JUMPDEST PUSH32 0x4E487B7100000000000000000000000000000000000000000000000000000000 PUSH0 MSTORE PUSH1 0x32 PUSH1 0x4 MSTORE PUSH1 0x24 PUSH0 REVERT INVALID LOG2 PUSH5 0x6970667358 0x22 SLT KECCAK256 CALLER SIGNEXTEND 0xD0 MCOPY 0xBA 0xCE 0xB1 PUSH18 0xE8DF42FFC63224B7238F0615CA331C1B68FC 0x2F DUP14 0xD7 EQ DUP3 CALLDATASIZE PUSH5 0x736F6C6343 STOP ADDMOD SHR STOP CALLER "
				},
				"gasEstimates": {
					"creation": {
						"codeDepositCost": "903200",
						"executionCost": "infinite",
						"totalCost": "infinite"
					},
					"external": {
						"addLibrarian(uint256,address)": "infinite",
						"createEBook(string,string)": "infinite",
						"extendExpirationDate(uint256,uint256)": "infinite",
						"getLibrarians(uint256)": "infinite",
						"getLibraryBook(uint256)": "infinite"
					}
				},
				"methodIdentifiers": {
					"addLibrarian(uint256,address)": "0657298f",
					"createEBook(string,string)": "6925b1f9",
					"extendExpirationDate(uint256,uint256)": "bdb4a3bb",
					"getLibrarians(uint256)": "e540f999",
					"getLibraryBook(uint256)": "69ddc545"
				}
			},
			"storageLayout": {
				"storage": [
					{
						"astId": 30,
						"contract": "DigitalLibrary.sol:DigitalLibrary",
						"label": "id",
						"offset": 0,
						"slot": "0",
						"type": "t_uint256"
					},
					{
						"astId": 32,
						"contract": "DigitalLibrary.sol:DigitalLibrary",
						"label": "expirationDays",
						"offset": 0,
						"slot": "1",
						"type": "t_uint256"
					},
					{
						"astId": 37,
						"contract": "DigitalLibrary.sol:DigitalLibrary",
						"label": "libraryBooks",
						"offset": 0,
						"slot": "2",
						"type": "t_mapping(t_uint256,t_struct(EBook)24_storage)"
					}
				],
				"types": {
					"t_address": {
						"encoding": "inplace",
						"label": "address",
						"numberOfBytes": "20"
					},
					"t_array(t_address)dyn_storage": {
						"base": "t_address",
						"encoding": "dynamic_array",
						"label": "address[]",
						"numberOfBytes": "32"
					},
					"t_enum(State)5": {
						"encoding": "inplace",
						"label": "enum State",
						"numberOfBytes": "1"
					},
					"t_mapping(t_uint256,t_struct(EBook)24_storage)": {
						"encoding": "mapping",
						"key": "t_uint256",
						"label": "mapping(uint256 => struct EBook)",
						"numberOfBytes": "32",
						"value": "t_struct(EBook)24_storage"
					},
					"t_string_storage": {
						"encoding": "bytes",
						"label": "string",
						"numberOfBytes": "32"
					},
					"t_struct(EBook)24_storage": {
						"encoding": "inplace",
						"label": "struct EBook",
						"members": [
							{
								"astId": 7,
								"contract": "DigitalLibrary.sol:DigitalLibrary",
								"label": "title",
								"offset": 0,
								"slot": "0",
								"type": "t_string_storage"
							},
							{
								"astId": 9,
								"contract": "DigitalLibrary.sol:DigitalLibrary",
								"label": "author",
								"offset": 0,
								"slot": "1",
								"type": "t_string_storage"
							},
							{
								"astId": 11,
								"contract": "DigitalLibrary.sol:DigitalLibrary",
								"label": "publicationDate",
								"offset": 0,
								"slot": "2",
								"type": "t_uint256"
							},
							{
								"astId": 13,
								"contract": "DigitalLibrary.sol:DigitalLibrary",
								"label": "expirationDate",
								"offset": 0,
								"slot": "3",
								"type": "t_uint256"
							},
							{
								"astId": 16,
								"contract": "DigitalLibrary.sol:DigitalLibrary",
								"label": "status",
								"offset": 0,
								"slot": "4",
								"type": "t_enum(State)5"
							},
							{
								"astId": 18,
								"contract": "DigitalLibrary.sol:DigitalLibrary",
								"label": "primaryLibrarian",
								"offset": 1,
								"slot": "4",
								"type": "t_address"
							},
							{
								"astId": 21,
								"contract": "DigitalLibrary.sol:DigitalLibrary",
								"label": "librarians",
								"offset": 0,
								"slot": "5",
								"type": "t_array(t_address)dyn_storage"
							},
							{
								"astId": 23,
								"contract": "DigitalLibrary.sol:DigitalLibrary",
								"label": "readCount",
								"offset": 0,
								"slot": "6",
								"type": "t_uint256"
							}
						],
						"numberOfBytes": "224"
					},
					"t_uint256": {
						"encoding": "inplace",
						"label": "uint256",
						"numberOfBytes": "32"
					}
				}
			},
			"userdoc": {
				"kind": "user",
				"methods": {},
				"version": 1
			}
		}
	}
}