{
	"data": {
		"bytecode": {
			"linkReferences": {},
			"object": "6080604052348015600e575f5ffd5b50604051610df5380380610df5833981016040819052602b916032565b6001556048565b5f602082840312156041575f5ffd5b5051919050565b610da0806100555f395ff3fe608060405234801561000f575f5ffd5b5060043610610060575f3560e01c80630657298f146100645780634558593e1461008d5780636925b1f9146100b057806369ddc545146100c5578063723931ca146100eb578063bdb4a3bb1461010c575b5f5ffd5b610077610072366004610911565b61011f565b604051610084919061098d565b60405180910390f35b6100a061009b3660046109e4565b6101fe565b6040519015158152602001610084565b6100c36100be366004610a2c565b6103d9565b005b6100d86100d3366004610a98565b6104b3565b6040516100849796959493929190610add565b6100fe6100f9366004610a98565b610761565b604051610084929190610b4a565b6100a061011a366004610b6b565b61082b565b5f828152600260209081526040822060058101805460018101825590845291832090910180546001600160a01b0319166001600160a01b03858116919091179091559184905260040154606091336101009092041614610192576040516325b2f8d360e21b815260040160405180910390fd5b5f83815260026020908152604091829020600501805483518184028101840190945280845290918301828280156101f057602002820191905f5260205f20905b81546001600160a01b031681526001909101906020018083116101d2575b505050505090505b92915050565b5f8381526002602052604081206004015461010090046001600160a01b031633036103b9576040516541637469766560d01b6020820152602601604051602081830303815290604052805190602001208383604051602001610261929190610b8b565b60405160208183030381529060405280519060200120036102a0575f848152600260205260408120600401805460ff19166001835b02179055506103b1565b6040516713dd5d19185d195960c21b60208201526028016040516020818303038152906040528051906020012083836040516020016102e0929190610b8b565b604051602081830303815290604052805190602001200361031c575f84815260026020526040902060040180546001919060ff19168280610296565b60405167105c98da1a5d995960c21b602082015260280160405160208183030381529060405280519060200120838360405160200161035c929190610b8b565b6040516020818303038152906040528051906020012003610398575f848152600260208190526040909120600401805460ff1916600183610296565b6040516306c49d5160e31b815260040160405180910390fd5b5060016103d2565b6040516325b2f8d360e21b815260040160405180910390fd5b9392505050565b5f805481526002602052604090206103f2848683610c46565b505f8054815260026020526040902060010161040f828483610c46565b505f80548152600260208190526040909120429101556001546104359062015180610d14565b5f8054815260026020819052604090912001546104529190610d2b565b5f805481526002602052604080822060030192909255805481528181206004908101805460ff19169055815482529181209091018054610100600160a81b0319163361010002179055805490806104a883610d3e565b919050555050505050565b6060805f80828082805f8981526002602081905260409091206004015460ff16908111156104e3576104e3610b9a565b0361050a576040518060400160405280600681526020016541637469766560d01b81525092505b60015f8981526002602081905260409091206004015460ff169081111561053357610533610b9a565b0361055c576040518060400160405280600881526020016713dd5d19185d195960c21b81525092505b5f8881526002602081905260409091206004015460ff168181111561058357610583610b9a565b036105ac5760405180604001604052806008815260200167105c98da1a5d995960c21b81525092505b5f8881526002602081905260409091209081015460038201546006830154835460018501939291889160058701919087906105e690610bc2565b80601f016020809104026020016040519081016040528092919081815260200182805461061290610bc2565b801561065d5780601f106106345761010080835404028352916020019161065d565b820191905f5260205f20905b81548152906001019060200180831161064057829003601f168201915b5050505050965085805461067090610bc2565b80601f016020809104026020016040519081016040528092919081815260200182805461069c90610bc2565b80156106e75780601f106106be576101008083540402835291602001916106e7565b820191905f5260205f20905b8154815290600101906020018083116106ca57829003601f168201915b505050505095508180548060200260200160405190810160405280929190818152602001828054801561074157602002820191905f5260205f20905b81546001600160a01b03168152600190910190602001808311610723575b505050505091509650965096509650965096509650919395979092949650565b5f8181526002602052604081206006018054606092918261078183610d3e565b90915550505f8381526002602052604090206003015442116107c3576040518060400160405280600681526020016541637469766560d01b8152509150610824565b5f8381526002602052604081206003015490036108005760405180604001604052806006815260200165135a5cdcd95960d21b8152509150610824565b6040518060400160405280600881526020016713dd5d19185d195960c21b81525091505b5091429150565b5f6108398262015180610d14565b5f8481526002602052604081206003018054909190610859908490610d2b565b909155505f90505b5f848152600260205260409020600501548110156108c9575f84815260026020526040902060050180543391908390811061089e5761089e610d56565b5f918252602090912001546001600160a01b0316036108c15760019150506101f8565b600101610861565b505f83815260026020526040902060040154336101009091046001600160a01b0316036108f8575060016101f8565b60405163ce1e0e0560e01b815260040160405180910390fd5b5f5f60408385031215610922575f5ffd5b8235915060208301356001600160a01b038116811461093f575f5ffd5b809150509250929050565b5f8151808452602084019350602083015f5b828110156109835781516001600160a01b031686526020958601959091019060010161095c565b5093949350505050565b602081525f6103d2602083018461094a565b5f5f83601f8401126109af575f5ffd5b50813567ffffffffffffffff8111156109c6575f5ffd5b6020830191508360208285010111156109dd575f5ffd5b9250929050565b5f5f5f604084860312156109f6575f5ffd5b83359250602084013567ffffffffffffffff811115610a13575f5ffd5b610a1f8682870161099f565b9497909650939450505050565b5f5f5f5f60408587031215610a3f575f5ffd5b843567ffffffffffffffff811115610a55575f5ffd5b610a618782880161099f565b909550935050602085013567ffffffffffffffff811115610a80575f5ffd5b610a8c8782880161099f565b95989497509550505050565b5f60208284031215610aa8575f5ffd5b5035919050565b5f81518084528060208401602086015e5f602082860101526020601f19601f83011685010191505092915050565b60e081525f610aef60e083018a610aaf565b8281036020840152610b01818a610aaf565b90508760408401528660608401528281036080840152610b218187610aaf565b905082810360a0840152610b35818661094a565b9150508260c083015298975050505050505050565b604081525f610b5c6040830185610aaf565b90508260208301529392505050565b5f5f60408385031215610b7c575f5ffd5b50508035926020909101359150565b818382375f9101908152919050565b634e487b7160e01b5f52602160045260245ffd5b634e487b7160e01b5f52604160045260245ffd5b600181811c90821680610bd657607f821691505b602082108103610bf457634e487b7160e01b5f52602260045260245ffd5b50919050565b601f821115610c4157805f5260205f20601f840160051c81016020851015610c1f5750805b601f840160051c820191505b81811015610c3e575f8155600101610c2b565b50505b505050565b67ffffffffffffffff831115610c5e57610c5e610bae565b610c7283610c6c8354610bc2565b83610bfa565b5f601f841160018114610ca3575f8515610c8c5750838201355b5f19600387901b1c1916600186901b178355610c3e565b5f83815260208120601f198716915b82811015610cd25786850135825560209485019460019092019101610cb2565b5086821015610cee575f1960f88860031b161c19848701351681555b505060018560011b0183555050505050565b634e487b7160e01b5f52601160045260245ffd5b80820281158282048414176101f8576101f8610d00565b808201808211156101f8576101f8610d00565b5f60018201610d4f57610d4f610d00565b5060010190565b634e487b7160e01b5f52603260045260245ffdfea26469706673582212204d97ded415afd057f9b2b9d354bc21dcb2d73428023b8e950357e29028cda56564736f6c634300081c0033",
			"opcodes": "PUSH1 0x80 PUSH1 0x40 MSTORE CALLVALUE DUP1 ISZERO PUSH1 0xE JUMPI PUSH0 PUSH0 REVERT JUMPDEST POP PUSH1 0x40 MLOAD PUSH2 0xDF5 CODESIZE SUB DUP1 PUSH2 0xDF5 DUP4 CODECOPY DUP2 ADD PUSH1 0x40 DUP2 SWAP1 MSTORE PUSH1 0x2B SWAP2 PUSH1 0x32 JUMP JUMPDEST PUSH1 0x1 SSTORE PUSH1 0x48 JUMP JUMPDEST PUSH0 PUSH1 0x20 DUP3 DUP5 SUB SLT ISZERO PUSH1 0x41 JUMPI PUSH0 PUSH0 REVERT JUMPDEST POP MLOAD SWAP2 SWAP1 POP JUMP JUMPDEST PUSH2 0xDA0 DUP1 PUSH2 0x55 PUSH0 CODECOPY PUSH0 RETURN INVALID PUSH1 0x80 PUSH1 0x40 MSTORE CALLVALUE DUP1 ISZERO PUSH2 0xF JUMPI PUSH0 PUSH0 REVERT JUMPDEST POP PUSH1 0x4 CALLDATASIZE LT PUSH2 0x60 JUMPI PUSH0 CALLDATALOAD PUSH1 0xE0 SHR DUP1 PUSH4 0x657298F EQ PUSH2 0x64 JUMPI DUP1 PUSH4 0x4558593E EQ PUSH2 0x8D JUMPI DUP1 PUSH4 0x6925B1F9 EQ PUSH2 0xB0 JUMPI DUP1 PUSH4 0x69DDC545 EQ PUSH2 0xC5 JUMPI DUP1 PUSH4 0x723931CA EQ PUSH2 0xEB JUMPI DUP1 PUSH4 0xBDB4A3BB EQ PUSH2 0x10C JUMPI JUMPDEST PUSH0 PUSH0 REVERT JUMPDEST PUSH2 0x77 PUSH2 0x72 CALLDATASIZE PUSH1 0x4 PUSH2 0x911 JUMP JUMPDEST PUSH2 0x11F JUMP JUMPDEST PUSH1 0x40 MLOAD PUSH2 0x84 SWAP2 SWAP1 PUSH2 0x98D JUMP JUMPDEST PUSH1 0x40 MLOAD DUP1 SWAP2 SUB SWAP1 RETURN JUMPDEST PUSH2 0xA0 PUSH2 0x9B CALLDATASIZE PUSH1 0x4 PUSH2 0x9E4 JUMP JUMPDEST PUSH2 0x1FE JUMP JUMPDEST PUSH1 0x40 MLOAD SWAP1 ISZERO ISZERO DUP2 MSTORE PUSH1 0x20 ADD PUSH2 0x84 JUMP JUMPDEST PUSH2 0xC3 PUSH2 0xBE CALLDATASIZE PUSH1 0x4 PUSH2 0xA2C JUMP JUMPDEST PUSH2 0x3D9 JUMP JUMPDEST STOP JUMPDEST PUSH2 0xD8 PUSH2 0xD3 CALLDATASIZE PUSH1 0x4 PUSH2 0xA98 JUMP JUMPDEST PUSH2 0x4B3 JUMP JUMPDEST PUSH1 0x40 MLOAD PUSH2 0x84 SWAP8 SWAP7 SWAP6 SWAP5 SWAP4 SWAP3 SWAP2 SWAP1 PUSH2 0xADD JUMP JUMPDEST PUSH2 0xFE PUSH2 0xF9 CALLDATASIZE PUSH1 0x4 PUSH2 0xA98 JUMP JUMPDEST PUSH2 0x761 JUMP JUMPDEST PUSH1 0x40 MLOAD PUSH2 0x84 SWAP3 SWAP2 SWAP1 PUSH2 0xB4A JUMP JUMPDEST PUSH2 0xA0 PUSH2 0x11A CALLDATASIZE PUSH1 0x4 PUSH2 0xB6B JUMP JUMPDEST PUSH2 0x82B JUMP JUMPDEST PUSH0 DUP3 DUP2 MSTORE PUSH1 0x2 PUSH1 0x20 SWAP1 DUP2 MSTORE PUSH1 0x40 DUP3 KECCAK256 PUSH1 0x5 DUP2 ADD DUP1 SLOAD PUSH1 0x1 DUP2 ADD DUP3 SSTORE SWAP1 DUP5 MSTORE SWAP2 DUP4 KECCAK256 SWAP1 SWAP2 ADD DUP1 SLOAD PUSH1 0x1 PUSH1 0x1 PUSH1 0xA0 SHL SUB NOT AND PUSH1 0x1 PUSH1 0x1 PUSH1 0xA0 SHL SUB DUP6 DUP2 AND SWAP2 SWAP1 SWAP2 OR SWAP1 SWAP2 SSTORE SWAP2 DUP5 SWAP1 MSTORE PUSH1 0x4 ADD SLOAD PUSH1 0x60 SWAP2 CALLER PUSH2 0x100 SWAP1 SWAP3 DIV AND EQ PUSH2 0x192 JUMPI PUSH1 0x40 MLOAD PUSH4 0x25B2F8D3 PUSH1 0xE2 SHL DUP2 MSTORE PUSH1 0x4 ADD PUSH1 0x40 MLOAD DUP1 SWAP2 SUB SWAP1 REVERT JUMPDEST PUSH0 DUP4 DUP2 MSTORE PUSH1 0x2 PUSH1 0x20 SWAP1 DUP2 MSTORE PUSH1 0x40 SWAP2 DUP3 SWAP1 KECCAK256 PUSH1 0x5 ADD DUP1 SLOAD DUP4 MLOAD DUP2 DUP5 MUL DUP2 ADD DUP5 ADD SWAP1 SWAP5 MSTORE DUP1 DUP5 MSTORE SWAP1 SWAP2 DUP4 ADD DUP3 DUP3 DUP1 ISZERO PUSH2 0x1F0 JUMPI PUSH1 0x20 MUL DUP3 ADD SWAP2 SWAP1 PUSH0 MSTORE PUSH1 0x20 PUSH0 KECCAK256 SWAP1 JUMPDEST DUP2 SLOAD PUSH1 0x1 PUSH1 0x1 PUSH1 0xA0 SHL SUB AND DUP2 MSTORE PUSH1 0x1 SWAP1 SWAP2 ADD SWAP1 PUSH1 0x20 ADD DUP1 DUP4 GT PUSH2 0x1D2 JUMPI JUMPDEST POP POP POP POP POP SWAP1 POP JUMPDEST SWAP3 SWAP2 POP POP JUMP JUMPDEST PUSH0 DUP4 DUP2 MSTORE PUSH1 0x2 PUSH1 0x20 MSTORE PUSH1 0x40 DUP2 KECCAK256 PUSH1 0x4 ADD SLOAD PUSH2 0x100 SWAP1 DIV PUSH1 0x1 PUSH1 0x1 PUSH1 0xA0 SHL SUB AND CALLER SUB PUSH2 0x3B9 JUMPI PUSH1 0x40 MLOAD PUSH6 0x416374697665 PUSH1 0xD0 SHL PUSH1 0x20 DUP3 ADD MSTORE PUSH1 0x26 ADD PUSH1 0x40 MLOAD PUSH1 0x20 DUP2 DUP4 SUB SUB DUP2 MSTORE SWAP1 PUSH1 0x40 MSTORE DUP1 MLOAD SWAP1 PUSH1 0x20 ADD KECCAK256 DUP4 DUP4 PUSH1 0x40 MLOAD PUSH1 0x20 ADD PUSH2 0x261 SWAP3 SWAP2 SWAP1 PUSH2 0xB8B JUMP JUMPDEST PUSH1 0x40 MLOAD PUSH1 0x20 DUP2 DUP4 SUB SUB DUP2 MSTORE SWAP1 PUSH1 0x40 MSTORE DUP1 MLOAD SWAP1 PUSH1 0x20 ADD KECCAK256 SUB PUSH2 0x2A0 JUMPI PUSH0 DUP5 DUP2 MSTORE PUSH1 0x2 PUSH1 0x20 MSTORE PUSH1 0x40 DUP2 KECCAK256 PUSH1 0x4 ADD DUP1 SLOAD PUSH1 0xFF NOT AND PUSH1 0x1 DUP4 JUMPDEST MUL OR SWAP1 SSTORE POP PUSH2 0x3B1 JUMP JUMPDEST PUSH1 0x40 MLOAD PUSH8 0x13DD5D19185D1959 PUSH1 0xC2 SHL PUSH1 0x20 DUP3 ADD MSTORE PUSH1 0x28 ADD PUSH1 0x40 MLOAD PUSH1 0x20 DUP2 DUP4 SUB SUB DUP2 MSTORE SWAP1 PUSH1 0x40 MSTORE DUP1 MLOAD SWAP1 PUSH1 0x20 ADD KECCAK256 DUP4 DUP4 PUSH1 0x40 MLOAD PUSH1 0x20 ADD PUSH2 0x2E0 SWAP3 SWAP2 SWAP1 PUSH2 0xB8B JUMP JUMPDEST PUSH1 0x40 MLOAD PUSH1 0x20 DUP2 DUP4 SUB SUB DUP2 MSTORE SWAP1 PUSH1 0x40 MSTORE DUP1 MLOAD SWAP1 PUSH1 0x20 ADD KECCAK256 SUB PUSH2 0x31C JUMPI PUSH0 DUP5 DUP2 MSTORE PUSH1 0x2 PUSH1 0x20 MSTORE PUSH1 0x40 SWAP1 KECCAK256 PUSH1 0x4 ADD DUP1 SLOAD PUSH1 0x1 SWAP2 SWAP1 PUSH1 0xFF NOT AND DUP3 DUP1 PUSH2 0x296 JUMP JUMPDEST PUSH1 0x40 MLOAD PUSH8 0x105C98DA1A5D9959 PUSH1 0xC2 SHL PUSH1 0x20 DUP3 ADD MSTORE PUSH1 0x28 ADD PUSH1 0x40 MLOAD PUSH1 0x20 DUP2 DUP4 SUB SUB DUP2 MSTORE SWAP1 PUSH1 0x40 MSTORE DUP1 MLOAD SWAP1 PUSH1 0x20 ADD KECCAK256 DUP4 DUP4 PUSH1 0x40 MLOAD PUSH1 0x20 ADD PUSH2 0x35C SWAP3 SWAP2 SWAP1 PUSH2 0xB8B JUMP JUMPDEST PUSH1 0x40 MLOAD PUSH1 0x20 DUP2 DUP4 SUB SUB DUP2 MSTORE SWAP1 PUSH1 0x40 MSTORE DUP1 MLOAD SWAP1 PUSH1 0x20 ADD KECCAK256 SUB PUSH2 0x398 JUMPI PUSH0 DUP5 DUP2 MSTORE PUSH1 0x2 PUSH1 0x20 DUP2 SWAP1 MSTORE PUSH1 0x40 SWAP1 SWAP2 KECCAK256 PUSH1 0x4 ADD DUP1 SLOAD PUSH1 0xFF NOT AND PUSH1 0x1 DUP4 PUSH2 0x296 JUMP JUMPDEST PUSH1 0x40 MLOAD PUSH4 0x6C49D51 PUSH1 0xE3 SHL DUP2 MSTORE PUSH1 0x4 ADD PUSH1 0x40 MLOAD DUP1 SWAP2 SUB SWAP1 REVERT JUMPDEST POP PUSH1 0x1 PUSH2 0x3D2 JUMP JUMPDEST PUSH1 0x40 MLOAD PUSH4 0x25B2F8D3 PUSH1 0xE2 SHL DUP2 MSTORE PUSH1 0x4 ADD PUSH1 0x40 MLOAD DUP1 SWAP2 SUB SWAP1 REVERT JUMPDEST SWAP4 SWAP3 POP POP POP JUMP JUMPDEST PUSH0 DUP1 SLOAD DUP2 MSTORE PUSH1 0x2 PUSH1 0x20 MSTORE PUSH1 0x40 SWAP1 KECCAK256 PUSH2 0x3F2 DUP5 DUP7 DUP4 PUSH2 0xC46 JUMP JUMPDEST POP PUSH0 DUP1 SLOAD DUP2 MSTORE PUSH1 0x2 PUSH1 0x20 MSTORE PUSH1 0x40 SWAP1 KECCAK256 PUSH1 0x1 ADD PUSH2 0x40F DUP3 DUP5 DUP4 PUSH2 0xC46 JUMP JUMPDEST POP PUSH0 DUP1 SLOAD DUP2 MSTORE PUSH1 0x2 PUSH1 0x20 DUP2 SWAP1 MSTORE PUSH1 0x40 SWAP1 SWAP2 KECCAK256 TIMESTAMP SWAP2 ADD SSTORE PUSH1 0x1 SLOAD PUSH2 0x435 SWAP1 PUSH3 0x15180 PUSH2 0xD14 JUMP JUMPDEST PUSH0 DUP1 SLOAD DUP2 MSTORE PUSH1 0x2 PUSH1 0x20 DUP2 SWAP1 MSTORE PUSH1 0x40 SWAP1 SWAP2 KECCAK256 ADD SLOAD PUSH2 0x452 SWAP2 SWAP1 PUSH2 0xD2B JUMP JUMPDEST PUSH0 DUP1 SLOAD DUP2 MSTORE PUSH1 0x2 PUSH1 0x20 MSTORE PUSH1 0x40 DUP1 DUP3 KECCAK256 PUSH1 0x3 ADD SWAP3 SWAP1 SWAP3 SSTORE DUP1 SLOAD DUP2 MSTORE DUP2 DUP2 KECCAK256 PUSH1 0x4 SWAP1 DUP2 ADD DUP1 SLOAD PUSH1 0xFF NOT AND SWAP1 SSTORE DUP2 SLOAD DUP3 MSTORE SWAP2 DUP2 KECCAK256 SWAP1 SWAP2 ADD DUP1 SLOAD PUSH2 0x100 PUSH1 0x1 PUSH1 0xA8 SHL SUB NOT AND CALLER PUSH2 0x100 MUL OR SWAP1 SSTORE DUP1 SLOAD SWAP1 DUP1 PUSH2 0x4A8 DUP4 PUSH2 0xD3E JUMP JUMPDEST SWAP2 SWAP1 POP SSTORE POP POP POP POP POP JUMP JUMPDEST PUSH1 0x60 DUP1 PUSH0 DUP1 DUP3 DUP1 DUP3 DUP1 PUSH0 DUP10 DUP2 MSTORE PUSH1 0x2 PUSH1 0x20 DUP2 SWAP1 MSTORE PUSH1 0x40 SWAP1 SWAP2 KECCAK256 PUSH1 0x4 ADD SLOAD PUSH1 0xFF AND SWAP1 DUP2 GT ISZERO PUSH2 0x4E3 JUMPI PUSH2 0x4E3 PUSH2 0xB9A JUMP JUMPDEST SUB PUSH2 0x50A JUMPI PUSH1 0x40 MLOAD DUP1 PUSH1 0x40 ADD PUSH1 0x40 MSTORE DUP1 PUSH1 0x6 DUP2 MSTORE PUSH1 0x20 ADD PUSH6 0x416374697665 PUSH1 0xD0 SHL DUP2 MSTORE POP SWAP3 POP JUMPDEST PUSH1 0x1 PUSH0 DUP10 DUP2 MSTORE PUSH1 0x2 PUSH1 0x20 DUP2 SWAP1 MSTORE PUSH1 0x40 SWAP1 SWAP2 KECCAK256 PUSH1 0x4 ADD SLOAD PUSH1 0xFF AND SWAP1 DUP2 GT ISZERO PUSH2 0x533 JUMPI PUSH2 0x533 PUSH2 0xB9A JUMP JUMPDEST SUB PUSH2 0x55C JUMPI PUSH1 0x40 MLOAD DUP1 PUSH1 0x40 ADD PUSH1 0x40 MSTORE DUP1 PUSH1 0x8 DUP2 MSTORE PUSH1 0x20 ADD PUSH8 0x13DD5D19185D1959 PUSH1 0xC2 SHL DUP2 MSTORE POP SWAP3 POP JUMPDEST PUSH0 DUP9 DUP2 MSTORE PUSH1 0x2 PUSH1 0x20 DUP2 SWAP1 MSTORE PUSH1 0x40 SWAP1 SWAP2 KECCAK256 PUSH1 0x4 ADD SLOAD PUSH1 0xFF AND DUP2 DUP2 GT ISZERO PUSH2 0x583 JUMPI PUSH2 0x583 PUSH2 0xB9A JUMP JUMPDEST SUB PUSH2 0x5AC JUMPI PUSH1 0x40 MLOAD DUP1 PUSH1 0x40 ADD PUSH1 0x40 MSTORE DUP1 PUSH1 0x8 DUP2 MSTORE PUSH1 0x20 ADD PUSH8 0x105C98DA1A5D9959 PUSH1 0xC2 SHL DUP2 MSTORE POP SWAP3 POP JUMPDEST PUSH0 DUP9 DUP2 MSTORE PUSH1 0x2 PUSH1 0x20 DUP2 SWAP1 MSTORE PUSH1 0x40 SWAP1 SWAP2 KECCAK256 SWAP1 DUP2 ADD SLOAD PUSH1 0x3 DUP3 ADD SLOAD PUSH1 0x6 DUP4 ADD SLOAD DUP4 SLOAD PUSH1 0x1 DUP6 ADD SWAP4 SWAP3 SWAP2 DUP9 SWAP2 PUSH1 0x5 DUP8 ADD SWAP2 SWAP1 DUP8 SWAP1 PUSH2 0x5E6 SWAP1 PUSH2 0xBC2 JUMP JUMPDEST DUP1 PUSH1 0x1F ADD PUSH1 0x20 DUP1 SWAP2 DIV MUL PUSH1 0x20 ADD PUSH1 0x40 MLOAD SWAP1 DUP2 ADD PUSH1 0x40 MSTORE DUP1 SWAP3 SWAP2 SWAP1 DUP2 DUP2 MSTORE PUSH1 0x20 ADD DUP3 DUP1 SLOAD PUSH2 0x612 SWAP1 PUSH2 0xBC2 JUMP JUMPDEST DUP1 ISZERO PUSH2 0x65D JUMPI DUP1 PUSH1 0x1F LT PUSH2 0x634 JUMPI PUSH2 0x100 DUP1 DUP4 SLOAD DIV MUL DUP4 MSTORE SWAP2 PUSH1 0x20 ADD SWAP2 PUSH2 0x65D JUMP JUMPDEST DUP3 ADD SWAP2 SWAP1 PUSH0 MSTORE PUSH1 0x20 PUSH0 KECCAK256 SWAP1 JUMPDEST DUP2 SLOAD DUP2 MSTORE SWAP1 PUSH1 0x1 ADD SWAP1 PUSH1 0x20 ADD DUP1 DUP4 GT PUSH2 0x640 JUMPI DUP3 SWAP1 SUB PUSH1 0x1F AND DUP3 ADD SWAP2 JUMPDEST POP POP POP POP POP SWAP7 POP DUP6 DUP1 SLOAD PUSH2 0x670 SWAP1 PUSH2 0xBC2 JUMP JUMPDEST DUP1 PUSH1 0x1F ADD PUSH1 0x20 DUP1 SWAP2 DIV MUL PUSH1 0x20 ADD PUSH1 0x40 MLOAD SWAP1 DUP2 ADD PUSH1 0x40 MSTORE DUP1 SWAP3 SWAP2 SWAP1 DUP2 DUP2 MSTORE PUSH1 0x20 ADD DUP3 DUP1 SLOAD PUSH2 0x69C SWAP1 PUSH2 0xBC2 JUMP JUMPDEST DUP1 ISZERO PUSH2 0x6E7 JUMPI DUP1 PUSH1 0x1F LT PUSH2 0x6BE JUMPI PUSH2 0x100 DUP1 DUP4 SLOAD DIV MUL DUP4 MSTORE SWAP2 PUSH1 0x20 ADD SWAP2 PUSH2 0x6E7 JUMP JUMPDEST DUP3 ADD SWAP2 SWAP1 PUSH0 MSTORE PUSH1 0x20 PUSH0 KECCAK256 SWAP1 JUMPDEST DUP2 SLOAD DUP2 MSTORE SWAP1 PUSH1 0x1 ADD SWAP1 PUSH1 0x20 ADD DUP1 DUP4 GT PUSH2 0x6CA JUMPI DUP3 SWAP1 SUB PUSH1 0x1F AND DUP3 ADD SWAP2 JUMPDEST POP POP POP POP POP SWAP6 POP DUP2 DUP1 SLOAD DUP1 PUSH1 0x20 MUL PUSH1 0x20 ADD PUSH1 0x40 MLOAD SWAP1 DUP2 ADD PUSH1 0x40 MSTORE DUP1 SWAP3 SWAP2 SWAP1 DUP2 DUP2 MSTORE PUSH1 0x20 ADD DUP3 DUP1 SLOAD DUP1 ISZERO PUSH2 0x741 JUMPI PUSH1 0x20 MUL DUP3 ADD SWAP2 SWAP1 PUSH0 MSTORE PUSH1 0x20 PUSH0 KECCAK256 SWAP1 JUMPDEST DUP2 SLOAD PUSH1 0x1 PUSH1 0x1 PUSH1 0xA0 SHL SUB AND DUP2 MSTORE PUSH1 0x1 SWAP1 SWAP2 ADD SWAP1 PUSH1 0x20 ADD DUP1 DUP4 GT PUSH2 0x723 JUMPI JUMPDEST POP POP POP POP POP SWAP2 POP SWAP7 POP SWAP7 POP SWAP7 POP SWAP7 POP SWAP7 POP SWAP7 POP SWAP7 POP SWAP2 SWAP4 SWAP6 SWAP8 SWAP1 SWAP3 SWAP5 SWAP7 POP JUMP JUMPDEST PUSH0 DUP2 DUP2 MSTORE PUSH1 0x2 PUSH1 0x20 MSTORE PUSH1 0x40 DUP2 KECCAK256 PUSH1 0x6 ADD DUP1 SLOAD PUSH1 0x60 SWAP3 SWAP2 DUP3 PUSH2 0x781 DUP4 PUSH2 0xD3E JUMP JUMPDEST SWAP1 SWAP2 SSTORE POP POP PUSH0 DUP4 DUP2 MSTORE PUSH1 0x2 PUSH1 0x20 MSTORE PUSH1 0x40 SWAP1 KECCAK256 PUSH1 0x3 ADD SLOAD TIMESTAMP GT PUSH2 0x7C3 JUMPI PUSH1 0x40 MLOAD DUP1 PUSH1 0x40 ADD PUSH1 0x40 MSTORE DUP1 PUSH1 0x6 DUP2 MSTORE PUSH1 0x20 ADD PUSH6 0x416374697665 PUSH1 0xD0 SHL DUP2 MSTORE POP SWAP2 POP PUSH2 0x824 JUMP JUMPDEST PUSH0 DUP4 DUP2 MSTORE PUSH1 0x2 PUSH1 0x20 MSTORE PUSH1 0x40 DUP2 KECCAK256 PUSH1 0x3 ADD SLOAD SWAP1 SUB PUSH2 0x800 JUMPI PUSH1 0x40 MLOAD DUP1 PUSH1 0x40 ADD PUSH1 0x40 MSTORE DUP1 PUSH1 0x6 DUP2 MSTORE PUSH1 0x20 ADD PUSH6 0x135A5CDCD959 PUSH1 0xD2 SHL DUP2 MSTORE POP SWAP2 POP PUSH2 0x824 JUMP JUMPDEST PUSH1 0x40 MLOAD DUP1 PUSH1 0x40 ADD PUSH1 0x40 MSTORE DUP1 PUSH1 0x8 DUP2 MSTORE PUSH1 0x20 ADD PUSH8 0x13DD5D19185D1959 PUSH1 0xC2 SHL DUP2 MSTORE POP SWAP2 POP JUMPDEST POP SWAP2 TIMESTAMP SWAP2 POP JUMP JUMPDEST PUSH0 PUSH2 0x839 DUP3 PUSH3 0x15180 PUSH2 0xD14 JUMP JUMPDEST PUSH0 DUP5 DUP2 MSTORE PUSH1 0x2 PUSH1 0x20 MSTORE PUSH1 0x40 DUP2 KECCAK256 PUSH1 0x3 ADD DUP1 SLOAD SWAP1 SWAP2 SWAP1 PUSH2 0x859 SWAP1 DUP5 SWAP1 PUSH2 0xD2B JUMP JUMPDEST SWAP1 SWAP2 SSTORE POP PUSH0 SWAP1 POP JUMPDEST PUSH0 DUP5 DUP2 MSTORE PUSH1 0x2 PUSH1 0x20 MSTORE PUSH1 0x40 SWAP1 KECCAK256 PUSH1 0x5 ADD SLOAD DUP2 LT ISZERO PUSH2 0x8C9 JUMPI PUSH0 DUP5 DUP2 MSTORE PUSH1 0x2 PUSH1 0x20 MSTORE PUSH1 0x40 SWAP1 KECCAK256 PUSH1 0x5 ADD DUP1 SLOAD CALLER SWAP2 SWAP1 DUP4 SWAP1 DUP2 LT PUSH2 0x89E JUMPI PUSH2 0x89E PUSH2 0xD56 JUMP JUMPDEST PUSH0 SWAP2 DUP3 MSTORE PUSH1 0x20 SWAP1 SWAP2 KECCAK256 ADD SLOAD PUSH1 0x1 PUSH1 0x1 PUSH1 0xA0 SHL SUB AND SUB PUSH2 0x8C1 JUMPI PUSH1 0x1 SWAP2 POP POP PUSH2 0x1F8 JUMP JUMPDEST PUSH1 0x1 ADD PUSH2 0x861 JUMP JUMPDEST POP PUSH0 DUP4 DUP2 MSTORE PUSH1 0x2 PUSH1 0x20 MSTORE PUSH1 0x40 SWAP1 KECCAK256 PUSH1 0x4 ADD SLOAD CALLER PUSH2 0x100 SWAP1 SWAP2 DIV PUSH1 0x1 PUSH1 0x1 PUSH1 0xA0 SHL SUB AND SUB PUSH2 0x8F8 JUMPI POP PUSH1 0x1 PUSH2 0x1F8 JUMP JUMPDEST PUSH1 0x40 MLOAD PUSH4 0xCE1E0E05 PUSH1 0xE0 SHL DUP2 MSTORE PUSH1 0x4 ADD PUSH1 0x40 MLOAD DUP1 SWAP2 SUB SWAP1 REVERT JUMPDEST PUSH0 PUSH0 PUSH1 0x40 DUP4 DUP6 SUB SLT ISZERO PUSH2 0x922 JUMPI PUSH0 PUSH0 REVERT JUMPDEST DUP3 CALLDATALOAD SWAP2 POP PUSH1 0x20 DUP4 ADD CALLDATALOAD PUSH1 0x1 PUSH1 0x1 PUSH1 0xA0 SHL SUB DUP2 AND DUP2 EQ PUSH2 0x93F JUMPI PUSH0 PUSH0 REVERT JUMPDEST DUP1 SWAP2 POP POP SWAP3 POP SWAP3 SWAP1 POP JUMP JUMPDEST PUSH0 DUP2 MLOAD DUP1 DUP5 MSTORE PUSH1 0x20 DUP5 ADD SWAP4 POP PUSH1 0x20 DUP4 ADD PUSH0 JUMPDEST DUP3 DUP2 LT ISZERO PUSH2 0x983 JUMPI DUP2 MLOAD PUSH1 0x1 PUSH1 0x1 PUSH1 0xA0 SHL SUB AND DUP7 MSTORE PUSH1 0x20 SWAP6 DUP7 ADD SWAP6 SWAP1 SWAP2 ADD SWAP1 PUSH1 0x1 ADD PUSH2 0x95C JUMP JUMPDEST POP SWAP4 SWAP5 SWAP4 POP POP POP POP JUMP JUMPDEST PUSH1 0x20 DUP2 MSTORE PUSH0 PUSH2 0x3D2 PUSH1 0x20 DUP4 ADD DUP5 PUSH2 0x94A JUMP JUMPDEST PUSH0 PUSH0 DUP4 PUSH1 0x1F DUP5 ADD SLT PUSH2 0x9AF JUMPI PUSH0 PUSH0 REVERT JUMPDEST POP DUP2 CALLDATALOAD PUSH8 0xFFFFFFFFFFFFFFFF DUP2 GT ISZERO PUSH2 0x9C6 JUMPI PUSH0 PUSH0 REVERT JUMPDEST PUSH1 0x20 DUP4 ADD SWAP2 POP DUP4 PUSH1 0x20 DUP3 DUP6 ADD ADD GT ISZERO PUSH2 0x9DD JUMPI PUSH0 PUSH0 REVERT JUMPDEST SWAP3 POP SWAP3 SWAP1 POP JUMP JUMPDEST PUSH0 PUSH0 PUSH0 PUSH1 0x40 DUP5 DUP7 SUB SLT ISZERO PUSH2 0x9F6 JUMPI PUSH0 PUSH0 REVERT JUMPDEST DUP4 CALLDATALOAD SWAP3 POP PUSH1 0x20 DUP5 ADD CALLDATALOAD PUSH8 0xFFFFFFFFFFFFFFFF DUP2 GT ISZERO PUSH2 0xA13 JUMPI PUSH0 PUSH0 REVERT JUMPDEST PUSH2 0xA1F DUP7 DUP3 DUP8 ADD PUSH2 0x99F JUMP JUMPDEST SWAP5 SWAP8 SWAP1 SWAP7 POP SWAP4 SWAP5 POP POP POP POP JUMP JUMPDEST PUSH0 PUSH0 PUSH0 PUSH0 PUSH1 0x40 DUP6 DUP8 SUB SLT ISZERO PUSH2 0xA3F JUMPI PUSH0 PUSH0 REVERT JUMPDEST DUP5 CALLDATALOAD PUSH8 0xFFFFFFFFFFFFFFFF DUP2 GT ISZERO PUSH2 0xA55 JUMPI PUSH0 PUSH0 REVERT JUMPDEST PUSH2 0xA61 DUP8 DUP3 DUP9 ADD PUSH2 0x99F JUMP JUMPDEST SWAP1 SWAP6 POP SWAP4 POP POP PUSH1 0x20 DUP6 ADD CALLDATALOAD PUSH8 0xFFFFFFFFFFFFFFFF DUP2 GT ISZERO PUSH2 0xA80 JUMPI PUSH0 PUSH0 REVERT JUMPDEST PUSH2 0xA8C DUP8 DUP3 DUP9 ADD PUSH2 0x99F JUMP JUMPDEST SWAP6 SWAP9 SWAP5 SWAP8 POP SWAP6 POP POP POP POP JUMP JUMPDEST PUSH0 PUSH1 0x20 DUP3 DUP5 SUB SLT ISZERO PUSH2 0xAA8 JUMPI PUSH0 PUSH0 REVERT JUMPDEST POP CALLDATALOAD SWAP2 SWAP1 POP JUMP JUMPDEST PUSH0 DUP2 MLOAD DUP1 DUP5 MSTORE DUP1 PUSH1 0x20 DUP5 ADD PUSH1 0x20 DUP7 ADD MCOPY PUSH0 PUSH1 0x20 DUP3 DUP7 ADD ADD MSTORE PUSH1 0x20 PUSH1 0x1F NOT PUSH1 0x1F DUP4 ADD AND DUP6 ADD ADD SWAP2 POP POP SWAP3 SWAP2 POP POP JUMP JUMPDEST PUSH1 0xE0 DUP2 MSTORE PUSH0 PUSH2 0xAEF PUSH1 0xE0 DUP4 ADD DUP11 PUSH2 0xAAF JUMP JUMPDEST DUP3 DUP2 SUB PUSH1 0x20 DUP5 ADD MSTORE PUSH2 0xB01 DUP2 DUP11 PUSH2 0xAAF JUMP JUMPDEST SWAP1 POP DUP8 PUSH1 0x40 DUP5 ADD MSTORE DUP7 PUSH1 0x60 DUP5 ADD MSTORE DUP3 DUP2 SUB PUSH1 0x80 DUP5 ADD MSTORE PUSH2 0xB21 DUP2 DUP8 PUSH2 0xAAF JUMP JUMPDEST SWAP1 POP DUP3 DUP2 SUB PUSH1 0xA0 DUP5 ADD MSTORE PUSH2 0xB35 DUP2 DUP7 PUSH2 0x94A JUMP JUMPDEST SWAP2 POP POP DUP3 PUSH1 0xC0 DUP4 ADD MSTORE SWAP9 SWAP8 POP POP POP POP POP POP POP POP JUMP JUMPDEST PUSH1 0x40 DUP2 MSTORE PUSH0 PUSH2 0xB5C PUSH1 0x40 DUP4 ADD DUP6 PUSH2 0xAAF JUMP JUMPDEST SWAP1 POP DUP3 PUSH1 0x20 DUP4 ADD MSTORE SWAP4 SWAP3 POP POP POP JUMP JUMPDEST PUSH0 PUSH0 PUSH1 0x40 DUP4 DUP6 SUB SLT ISZERO PUSH2 0xB7C JUMPI PUSH0 PUSH0 REVERT JUMPDEST POP POP DUP1 CALLDATALOAD SWAP3 PUSH1 0x20 SWAP1 SWAP2 ADD CALLDATALOAD SWAP2 POP JUMP JUMPDEST DUP2 DUP4 DUP3 CALLDATACOPY PUSH0 SWAP2 ADD SWAP1 DUP2 MSTORE SWAP2 SWAP1 POP JUMP JUMPDEST PUSH4 0x4E487B71 PUSH1 0xE0 SHL PUSH0 MSTORE PUSH1 0x21 PUSH1 0x4 MSTORE PUSH1 0x24 PUSH0 REVERT JUMPDEST PUSH4 0x4E487B71 PUSH1 0xE0 SHL PUSH0 MSTORE PUSH1 0x41 PUSH1 0x4 MSTORE PUSH1 0x24 PUSH0 REVERT JUMPDEST PUSH1 0x1 DUP2 DUP2 SHR SWAP1 DUP3 AND DUP1 PUSH2 0xBD6 JUMPI PUSH1 0x7F DUP3 AND SWAP2 POP JUMPDEST PUSH1 0x20 DUP3 LT DUP2 SUB PUSH2 0xBF4 JUMPI PUSH4 0x4E487B71 PUSH1 0xE0 SHL PUSH0 MSTORE PUSH1 0x22 PUSH1 0x4 MSTORE PUSH1 0x24 PUSH0 REVERT JUMPDEST POP SWAP2 SWAP1 POP JUMP JUMPDEST PUSH1 0x1F DUP3 GT ISZERO PUSH2 0xC41 JUMPI DUP1 PUSH0 MSTORE PUSH1 0x20 PUSH0 KECCAK256 PUSH1 0x1F DUP5 ADD PUSH1 0x5 SHR DUP2 ADD PUSH1 0x20 DUP6 LT ISZERO PUSH2 0xC1F JUMPI POP DUP1 JUMPDEST PUSH1 0x1F DUP5 ADD PUSH1 0x5 SHR DUP3 ADD SWAP2 POP JUMPDEST DUP2 DUP2 LT ISZERO PUSH2 0xC3E JUMPI PUSH0 DUP2 SSTORE PUSH1 0x1 ADD PUSH2 0xC2B JUMP JUMPDEST POP POP JUMPDEST POP POP POP JUMP JUMPDEST PUSH8 0xFFFFFFFFFFFFFFFF DUP4 GT ISZERO PUSH2 0xC5E JUMPI PUSH2 0xC5E PUSH2 0xBAE JUMP JUMPDEST PUSH2 0xC72 DUP4 PUSH2 0xC6C DUP4 SLOAD PUSH2 0xBC2 JUMP JUMPDEST DUP4 PUSH2 0xBFA JUMP JUMPDEST PUSH0 PUSH1 0x1F DUP5 GT PUSH1 0x1 DUP2 EQ PUSH2 0xCA3 JUMPI PUSH0 DUP6 ISZERO PUSH2 0xC8C JUMPI POP DUP4 DUP3 ADD CALLDATALOAD JUMPDEST PUSH0 NOT PUSH1 0x3 DUP8 SWAP1 SHL SHR NOT AND PUSH1 0x1 DUP7 SWAP1 SHL OR DUP4 SSTORE PUSH2 0xC3E JUMP JUMPDEST PUSH0 DUP4 DUP2 MSTORE PUSH1 0x20 DUP2 KECCAK256 PUSH1 0x1F NOT DUP8 AND SWAP2 JUMPDEST DUP3 DUP2 LT ISZERO PUSH2 0xCD2 JUMPI DUP7 DUP6 ADD CALLDATALOAD DUP3 SSTORE PUSH1 0x20 SWAP5 DUP6 ADD SWAP5 PUSH1 0x1 SWAP1 SWAP3 ADD SWAP2 ADD PUSH2 0xCB2 JUMP JUMPDEST POP DUP7 DUP3 LT ISZERO PUSH2 0xCEE JUMPI PUSH0 NOT PUSH1 0xF8 DUP9 PUSH1 0x3 SHL AND SHR NOT DUP5 DUP8 ADD CALLDATALOAD AND DUP2 SSTORE JUMPDEST POP POP PUSH1 0x1 DUP6 PUSH1 0x1 SHL ADD DUP4 SSTORE POP POP POP POP POP JUMP JUMPDEST PUSH4 0x4E487B71 PUSH1 0xE0 SHL PUSH0 MSTORE PUSH1 0x11 PUSH1 0x4 MSTORE PUSH1 0x24 PUSH0 REVERT JUMPDEST DUP1 DUP3 MUL DUP2 ISZERO DUP3 DUP3 DIV DUP5 EQ OR PUSH2 0x1F8 JUMPI PUSH2 0x1F8 PUSH2 0xD00 JUMP JUMPDEST DUP1 DUP3 ADD DUP1 DUP3 GT ISZERO PUSH2 0x1F8 JUMPI PUSH2 0x1F8 PUSH2 0xD00 JUMP JUMPDEST PUSH0 PUSH1 0x1 DUP3 ADD PUSH2 0xD4F JUMPI PUSH2 0xD4F PUSH2 0xD00 JUMP JUMPDEST POP PUSH1 0x1 ADD SWAP1 JUMP JUMPDEST PUSH4 0x4E487B71 PUSH1 0xE0 SHL PUSH0 MSTORE PUSH1 0x32 PUSH1 0x4 MSTORE PUSH1 0x24 PUSH0 REVERT INVALID LOG2 PUSH5 0x6970667358 0x22 SLT KECCAK256 0x4D SWAP8 0xDE 0xD4 ISZERO 0xAF 0xD0 JUMPI 0xF9 0xB2 0xB9 0xD3 SLOAD 0xBC 0x21 0xDC 0xB2 0xD7 CALLVALUE 0x28 MUL EXTCODESIZE DUP15 SWAP6 SUB JUMPI 0xE2 SWAP1 0x28 0xCD 0xA5 PUSH6 0x64736F6C6343 STOP ADDMOD SHR STOP CALLER "
		},
		"gasEstimates": {
			"creation": {
				"codeDepositCost": "697600",
				"executionCost": "infinite",
				"totalCost": "infinite"
			},
			"external": {
				"addLibrarian(uint256,address)": "infinite",
				"changeStatus(uint256,string)": "infinite",
				"checkExpiration(uint256)": "infinite",
				"createEBook(string,string)": "infinite",
				"extendExpirationDate(uint256,uint256)": "infinite",
				"getLibraryBook(uint256)": "infinite"
			}
		},
		"methodIdentifiers": {
			"addLibrarian(uint256,address)": "0657298f",
			"changeStatus(uint256,string)": "4558593e",
			"checkExpiration(uint256)": "723931ca",
			"createEBook(string,string)": "6925b1f9",
			"extendExpirationDate(uint256,uint256)": "bdb4a3bb",
			"getLibraryBook(uint256)": "69ddc545"
		}
	},
	"abi": [
		{
			"inputs": [
				{
					"internalType": "uint256",
					"name": "_expirationDays",
					"type": "uint256"
				}
			],
			"stateMutability": "nonpayable",
			"type": "constructor"
		},
		{
			"inputs": [],
			"name": "Invalid_Status",
			"type": "error"
		},
		{
			"inputs": [],
			"name": "You_Are_Not_Author",
			"type": "error"
		},
		{
			"inputs": [],
			"name": "You_Are_Not_Librarian",
			"type": "error"
		},
		{
			"inputs": [
				{
					"internalType": "uint256",
					"name": "_bookId",
					"type": "uint256"
				},
				{
					"internalType": "address",
					"name": "_librarian",
					"type": "address"
				}
			],
			"name": "addLibrarian",
			"outputs": [
				{
					"internalType": "address[]",
					"name": "librarians",
					"type": "address[]"
				}
			],
			"stateMutability": "nonpayable",
			"type": "function"
		},
		{
			"inputs": [
				{
					"internalType": "uint256",
					"name": "_bookId",
					"type": "uint256"
				},
				{
					"internalType": "string",
					"name": "_status",
					"type": "string"
				}
			],
			"name": "changeStatus",
			"outputs": [
				{
					"internalType": "bool",
					"name": "success",
					"type": "bool"
				}
			],
			"stateMutability": "nonpayable",
			"type": "function"
		},
		{
			"inputs": [
				{
					"internalType": "uint256",
					"name": "_bookId",
					"type": "uint256"
				}
			],
			"name": "checkExpiration",
			"outputs": [
				{
					"internalType": "string",
					"name": "status__",
					"type": "string"
				},
				{
					"internalType": "uint256",
					"name": "timestamp",
					"type": "uint256"
				}
			],
			"stateMutability": "nonpayable",
			"type": "function"
		},
		{
			"inputs": [
				{
					"internalType": "string",
					"name": "_title",
					"type": "string"
				},
				{
					"internalType": "string",
					"name": "_author",
					"type": "string"
				}
			],
			"name": "createEBook",
			"outputs": [],
			"stateMutability": "nonpayable",
			"type": "function"
		},
		{
			"inputs": [
				{
					"internalType": "uint256",
					"name": "_bookId",
					"type": "uint256"
				},
				{
					"internalType": "uint256",
					"name": "_addExpirationDays",
					"type": "uint256"
				}
			],
			"name": "extendExpirationDate",
			"outputs": [
				{
					"internalType": "bool",
					"name": "success",
					"type": "bool"
				}
			],
			"stateMutability": "nonpayable",
			"type": "function"
		},
		{
			"inputs": [
				{
					"internalType": "uint256",
					"name": "_bookId",
					"type": "uint256"
				}
			],
			"name": "getLibraryBook",
			"outputs": [
				{
					"internalType": "string",
					"name": "title__",
					"type": "string"
				},
				{
					"internalType": "string",
					"name": "author__",
					"type": "string"
				},
				{
					"internalType": "uint256",
					"name": "publicationDate__",
					"type": "uint256"
				},
				{
					"internalType": "uint256",
					"name": "expirationDate__",
					"type": "uint256"
				},
				{
					"internalType": "string",
					"name": "status__",
					"type": "string"
				},
				{
					"internalType": "address[]",
					"name": "librarians__",
					"type": "address[]"
				},
				{
					"internalType": "uint256",
					"name": "readCount__",
					"type": "uint256"
				}
			],
			"stateMutability": "view",
			"type": "function"
		}
	]
}